{
  "_format": "hh-sol-artifact-1",
  "contractName": "IBoolaContract",
  "sourceName": "contracts/IBoolaContract.sol",
  "abi": [
    {
      "inputs": [
        {
          "internalType": "address",
          "name": "_token",
          "type": "address"
        }
      ],
      "stateMutability": "nonpayable",
      "type": "constructor"
    },
    {
      "inputs": [],
      "name": "CannotDeleteBinInEngagedMode",
      "type": "error"
    },
    {
      "inputs": [],
      "name": "EmptyBin",
      "type": "error"
    },
    {
      "inputs": [],
      "name": "InvalidBinID",
      "type": "error"
    },
    {
      "inputs": [],
      "name": "InvalidWasteId",
      "type": "error"
    },
    {
      "inputs": [],
      "name": "MaxWasteTransportExceeded",
      "type": "error"
    },
    {
      "inputs": [],
      "name": "NothingToWithdraw",
      "type": "error"
    },
    {
      "inputs": [],
      "name": "UserAlreadyExist",
      "type": "error"
    },
    {
      "inputs": [],
      "name": "UserAlreadyNotExist",
      "type": "error"
    },
    {
      "anonymous": false,
      "inputs": [
        {
          "indexed": true,
          "internalType": "address",
          "name": "previousOwner",
          "type": "address"
        },
        {
          "indexed": true,
          "internalType": "address",
          "name": "newOwner",
          "type": "address"
        }
      ],
      "name": "OwnershipTransferred",
      "type": "event"
    },
    {
      "anonymous": false,
      "inputs": [
        {
          "indexed": false,
          "internalType": "uint256",
          "name": "binId",
          "type": "uint256"
        },
        {
          "indexed": false,
          "internalType": "address",
          "name": "msgSender",
          "type": "address"
        }
      ],
      "name": "RegisteredBin",
      "type": "event"
    },
    {
      "inputs": [],
      "name": "binCounter",
      "outputs": [
        {
          "internalType": "uint256",
          "name": "",
          "type": "uint256"
        }
      ],
      "stateMutability": "view",
      "type": "function"
    },
    {
      "inputs": [
        {
          "internalType": "uint256",
          "name": "",
          "type": "uint256"
        }
      ],
      "name": "bins",
      "outputs": [
        {
          "internalType": "address",
          "name": "owner",
          "type": "address"
        }
      ],
      "stateMutability": "view",
      "type": "function"
    },
    {
      "inputs": [
        {
          "internalType": "address",
          "name": "who",
          "type": "address"
        },
        {
          "internalType": "uint8",
          "name": "category",
          "type": "uint8"
        }
      ],
      "name": "blacklistUser",
      "outputs": [],
      "stateMutability": "nonpayable",
      "type": "function"
    },
    {
      "inputs": [
        {
          "internalType": "uint256",
          "name": "volume",
          "type": "uint256"
        }
      ],
      "name": "buyRecycled",
      "outputs": [],
      "stateMutability": "payable",
      "type": "function"
    },
    {
      "inputs": [
        {
          "internalType": "uint256",
          "name": "binId",
          "type": "uint256"
        },
        {
          "internalType": "uint256[]",
          "name": "wasteIds",
          "type": "uint256[]"
        }
      ],
      "name": "collectMultipleWaste",
      "outputs": [],
      "stateMutability": "nonpayable",
      "type": "function"
    },
    {
      "inputs": [
        {
          "internalType": "uint256",
          "name": "binId",
          "type": "uint256"
        },
        {
          "internalType": "uint256",
          "name": "wasteId",
          "type": "uint256"
        }
      ],
      "name": "collectWaste",
      "outputs": [],
      "stateMutability": "nonpayable",
      "type": "function"
    },
    {
      "inputs": [],
      "name": "collectorReward",
      "outputs": [
        {
          "internalType": "uint256",
          "name": "",
          "type": "uint256"
        }
      ],
      "stateMutability": "view",
      "type": "function"
    },
    {
      "inputs": [
        {
          "internalType": "enum Common.Share",
          "name": "",
          "type": "uint8"
        }
      ],
      "name": "formula",
      "outputs": [
        {
          "internalType": "uint8",
          "name": "",
          "type": "uint8"
        }
      ],
      "stateMutability": "view",
      "type": "function"
    },
    {
      "inputs": [
        {
          "internalType": "uint8",
          "name": "_category",
          "type": "uint8"
        }
      ],
      "name": "garbages",
      "outputs": [
        {
          "components": [
            {
              "internalType": "bytes32",
              "name": "value",
              "type": "bytes32"
            },
            {
              "internalType": "address",
              "name": "collector",
              "type": "address"
            },
            {
              "internalType": "address",
              "name": "generator",
              "type": "address"
            },
            {
              "internalType": "address",
              "name": "recycler",
              "type": "address"
            },
            {
              "internalType": "enum Common.State",
              "name": "state",
              "type": "uint8"
            }
          ],
          "internalType": "struct Common.WasteData[]",
          "name": "_data",
          "type": "tuple[]"
        }
      ],
      "stateMutability": "view",
      "type": "function"
    },
    {
      "inputs": [
        {
          "internalType": "string[]",
          "name": "data",
          "type": "string[]"
        }
      ],
      "name": "generateMultipleWaste",
      "outputs": [],
      "stateMutability": "nonpayable",
      "type": "function"
    },
    {
      "inputs": [
        {
          "internalType": "string",
          "name": "_data",
          "type": "string"
        }
      ],
      "name": "generateWaste",
      "outputs": [],
      "stateMutability": "nonpayable",
      "type": "function"
    },
    {
      "inputs": [
        {
          "internalType": "uint256",
          "name": "category",
          "type": "uint256"
        },
        {
          "internalType": "address",
          "name": "who",
          "type": "address"
        }
      ],
      "name": "getProfile",
      "outputs": [
        {
          "components": [
            {
              "internalType": "uint32",
              "name": "transactionTime",
              "type": "uint32"
            },
            {
              "internalType": "uint256",
              "name": "wasteCount",
              "type": "uint256"
            },
            {
              "internalType": "bool",
              "name": "approval",
              "type": "bool"
            },
            {
              "internalType": "bool",
              "name": "isRegistered",
              "type": "bool"
            },
            {
              "components": [
                {
                  "internalType": "bytes32",
                  "name": "value",
                  "type": "bytes32"
                },
                {
                  "internalType": "address",
                  "name": "collector",
                  "type": "address"
                },
                {
                  "internalType": "address",
                  "name": "generator",
                  "type": "address"
                },
                {
                  "internalType": "address",
                  "name": "recycler",
                  "type": "address"
                },
                {
                  "internalType": "enum Common.State",
                  "name": "state",
                  "type": "uint8"
                }
              ],
              "internalType": "struct Common.WasteData[]",
              "name": "purchased",
              "type": "tuple[]"
            },
            {
              "internalType": "bytes",
              "name": "metadata",
              "type": "bytes"
            }
          ],
          "internalType": "struct Common.Profile",
          "name": "_profile",
          "type": "tuple"
        }
      ],
      "stateMutability": "view",
      "type": "function"
    },
    {
      "inputs": [],
      "name": "newSignUpReward",
      "outputs": [
        {
          "internalType": "uint256",
          "name": "",
          "type": "uint256"
        }
      ],
      "stateMutability": "view",
      "type": "function"
    },
    {
      "inputs": [],
      "name": "owner",
      "outputs": [
        {
          "internalType": "address",
          "name": "",
          "type": "address"
        }
      ],
      "stateMutability": "view",
      "type": "function"
    },
    {
      "inputs": [],
      "name": "price",
      "outputs": [
        {
          "internalType": "uint256",
          "name": "",
          "type": "uint256"
        }
      ],
      "stateMutability": "view",
      "type": "function"
    },
    {
      "inputs": [
        {
          "internalType": "uint256",
          "name": "binId",
          "type": "uint256"
        },
        {
          "internalType": "uint256[]",
          "name": "wasteIds",
          "type": "uint256[]"
        }
      ],
      "name": "recycleMultiple",
      "outputs": [],
      "stateMutability": "nonpayable",
      "type": "function"
    },
    {
      "inputs": [],
      "name": "registerBin",
      "outputs": [],
      "stateMutability": "payable",
      "type": "function"
    },
    {
      "inputs": [
        {
          "internalType": "uint256",
          "name": "binId",
          "type": "uint256"
        }
      ],
      "name": "removeBin",
      "outputs": [],
      "stateMutability": "nonpayable",
      "type": "function"
    },
    {
      "inputs": [],
      "name": "renounceOwnership",
      "outputs": [],
      "stateMutability": "nonpayable",
      "type": "function"
    },
    {
      "inputs": [
        {
          "internalType": "uint256",
          "name": "newReward",
          "type": "uint256"
        }
      ],
      "name": "setCollectorUpReward",
      "outputs": [],
      "stateMutability": "nonpayable",
      "type": "function"
    },
    {
      "inputs": [
        {
          "internalType": "uint8",
          "name": "category",
          "type": "uint8"
        },
        {
          "internalType": "uint256",
          "name": "newFee",
          "type": "uint256"
        }
      ],
      "name": "setFee",
      "outputs": [],
      "stateMutability": "nonpayable",
      "type": "function"
    },
    {
      "inputs": [
        {
          "internalType": "uint256",
          "name": "newPrice",
          "type": "uint256"
        }
      ],
      "name": "setPrice",
      "outputs": [],
      "stateMutability": "nonpayable",
      "type": "function"
    },
    {
      "inputs": [
        {
          "internalType": "uint256",
          "name": "newReward",
          "type": "uint256"
        }
      ],
      "name": "setSignUpReward",
      "outputs": [],
      "stateMutability": "nonpayable",
      "type": "function"
    },
    {
      "inputs": [
        {
          "internalType": "string",
          "name": "location",
          "type": "string"
        },
        {
          "internalType": "string",
          "name": "_address",
          "type": "string"
        }
      ],
      "name": "signUpAsWasteCollector",
      "outputs": [],
      "stateMutability": "nonpayable",
      "type": "function"
    },
    {
      "inputs": [
        {
          "internalType": "enum Common.Category",
          "name": "",
          "type": "uint8"
        }
      ],
      "name": "signUpFees",
      "outputs": [
        {
          "internalType": "uint256",
          "name": "",
          "type": "uint256"
        }
      ],
      "stateMutability": "view",
      "type": "function"
    },
    {
      "inputs": [],
      "name": "token",
      "outputs": [
        {
          "internalType": "address",
          "name": "",
          "type": "address"
        }
      ],
      "stateMutability": "view",
      "type": "function"
    },
    {
      "inputs": [],
      "name": "totalWasteGenerated",
      "outputs": [
        {
          "internalType": "uint256",
          "name": "",
          "type": "uint256"
        }
      ],
      "stateMutability": "view",
      "type": "function"
    },
    {
      "inputs": [
        {
          "internalType": "address",
          "name": "newOwner",
          "type": "address"
        }
      ],
      "name": "transferOwnership",
      "outputs": [],
      "stateMutability": "nonpayable",
      "type": "function"
    },
    {
      "inputs": [
        {
          "internalType": "address",
          "name": "who",
          "type": "address"
        },
        {
          "internalType": "uint8",
          "name": "category",
          "type": "uint8"
        }
      ],
      "name": "whitelistuser",
      "outputs": [],
      "stateMutability": "nonpayable",
      "type": "function"
    },
    {
      "inputs": [],
      "name": "withdraw",
      "outputs": [],
      "stateMutability": "nonpayable",
      "type": "function"
    }
  ],
  "bytecode": "0x60806040523480156200001157600080fd5b50604051620035c2380380620035c283398101604081905262000034916200020f565b6200003f33620001bf565b600280546001600160a01b0319166001600160a01b038316179055678ac7230489e80000600190815560036000908152600a6020527fa856840544dc26124927add067d799967eac11be13e14d82cc281ea46fa39759906200009e3390565b6001600160a01b031681526020808201929092526040016000908120600201805493151560ff199485161790558080526008918290527f5eff886ea0ce6ca488a3d6e336d6c0f75f46d19b42c06ce5ee98e42c96d256c78054909316604117909255600a91600160028111156200012557634e487b7160e01b600052602160045260246000fd5b815260200190815260200160002060006101000a81548160ff021916908360ff1602179055506019600860006002808111156200017257634e487b7160e01b600052602160045260246000fd5b60028111156200019257634e487b7160e01b600052602160045260246000fd5b815260200190815260200160002060006101000a81548160ff021916908360ff160217905550506200023f565b600080546001600160a01b038381166001600160a01b0319831681178455604051919092169283917f8be0079c531659141344cd1fd0a4f28419497f9722a3daafe3b4186f6b6457e09190a35050565b60006020828403121562000221578081fd5b81516001600160a01b038116811462000238578182fd5b9392505050565b613373806200024f6000396000f3fe6080604052600436106101cc5760003560e01c806393051d95116100f7578063c3864cce11610095578063f2fde38b11610064578063f2fde38b1461052c578063f94045061461054c578063fc0c546a14610562578063ffc2105c1461058257600080fd5b8063c3864cce146104b9578063c437a2f0146104d9578063e47c294d146104ec578063f2d03e151461050c57600080fd5b8063a741c0df116100d1578063a741c0df14610422578063b75882801461044f578063bf5e6b6d1461046f578063c2f0c2791461047757600080fd5b806393051d95146103cc578063955ef11a146103ec578063a035b1fe1461040c57600080fd5b80633fd979271161016f578063885c7b381161013e578063885c7b38146103365780638c6aa3f51461036e5780638da5cb5b1461038e57806391b7f5ed146103ac57600080fd5b80633fd97927146102b457806341311bc3146102e1578063715018a61461030157806372938a141461031657600080fd5b80631f2a4a3f116101ab5780631f2a4a3f14610253578063235eb9f51461026957806331b59ed71461027f5780633ccfd60b1461029f57600080fd5b806295db2d146101d15780630b776241146102115780630bdd706314610233575b600080fd5b3480156101dd57600080fd5b506101fe6101ec366004612df7565b600b6020526000908152604090205481565b6040519081526020015b60405180910390f35b34801561021d57600080fd5b5061023161022c366004612e70565b610598565b005b34801561023f57600080fd5b5061023161024e366004612f23565b6106bb565b34801561025f57600080fd5b506101fe60055481565b34801561027557600080fd5b506101fe60045481565b34801561028b57600080fd5b5061023161029a366004612cef565b610798565b3480156102ab57600080fd5b506102316107f4565b3480156102c057600080fd5b506102d46102cf366004612f01565b61093b565b6040516102089190613190565b3480156102ed57600080fd5b506102316102fc366004612f23565b610bfe565b34801561030d57600080fd5b50610231610cd2565b34801561032257600080fd5b50610231610331366004612ed1565b610ce6565b34801561034257600080fd5b50610356610351366004612ed1565b610cf3565b6040516001600160a01b039091168152602001610208565b34801561037a57600080fd5b50610231610389366004612ffd565b610d25565b34801561039a57600080fd5b506000546001600160a01b0316610356565b3480156103b857600080fd5b506102316103c7366004612ed1565b610dcb565b3480156103d857600080fd5b506102316103e7366004612ed1565b610dd8565b3480156103f857600080fd5b50610231610407366004612d21565b610e93565b34801561041857600080fd5b506101fe60065481565b34801561042e57600080fd5b5061044261043d366004612fe3565b610f6c565b6040516102089190613104565b34801561045b57600080fd5b5061023161046a366004612e35565b611110565b6102316111ea565b34801561048357600080fd5b506104a7610492366004612e16565b60086020526000908152604090205460ff1681565b60405160ff9091168152602001610208565b3480156104c557600080fd5b506102316104d4366004612fc2565b611313565b6102316104e7366004612ed1565b611567565b3480156104f857600080fd5b50610231610507366004612cef565b6119b7565b34801561051857600080fd5b50610231610527366004612ed1565b611a0e565b34801561053857600080fd5b50610231610547366004612cce565b611a1b565b34801561055857600080fd5b506101fe60015481565b34801561056e57600080fd5b50600254610356906001600160a01b031681565b34801561058e57600080fd5b506101fe60035481565b3360009081527f13da86008ba1c6922daee3e07db95305ef49ebced9f5467a0b8613fcc6b343e36020526040902060020154610100900460ff16156106165760405162461bcd60e51b815260206004820152600f60248201526e0416c7265616479207369676e20757608c1b60448201526064015b60405180910390fd5b610623600a338484611a94565b6002546001600160a01b031663095ea7b3336001546040516001600160e01b031960e085901b1681526001600160a01b0390921660048301526024820152604401602060405180830381600087803b15801561067e57600080fd5b505af1158015610692573d6000803e3d6000fd5b505050506040513d601f19601f820116820180604052508101906106b69190612dd7565b505050565b806106c4611b7a565b6020015180516000906032901561070d578160ff1683511180156106ec57508060ff16835111155b6107085760405162461bcd60e51b815260040161060d9061316f565b610740565b8160ff16845111801561072457508060ff16845111155b6107405760405162461bcd60e51b815260040161060d9061316f565b60005b855181101561078f5761077d8787838151811061077057634e487b7160e01b600052603260045260246000fd5b6020026020010151611bda565b80610787816132f6565b915050610743565b50505050505050565b6107a0611e69565b8060048160ff16106107c45760405162461bcd60e51b815260040161060d90613145565b6106b6600a8460018560ff1660048111156107ef57634e487b7160e01b600052602160045260246000fd5b611ec3565b60025460408051636eb1769f60e11b815230600482015233602482015290516000926001600160a01b03169163dd62ed3e916044808301926020929190829003018186803b15801561084557600080fd5b505afa158015610859573d6000803e3d6000fd5b505050506040513d601f19601f8201168201806040525081019061087d9190612ee9565b90508061089d57604051630686827b60e51b815260040160405180910390fd5b6002546001600160a01b03166323b872dd30336040516001600160e01b031960e085901b1681526001600160a01b0392831660048201529116602482015260448101849052606401602060405180830381600087803b1580156108ff57600080fd5b505af1158015610913573d6000803e3d6000fd5b505050506040513d601f19601f820116820180604052508101906109379190612dd7565b5050565b61097e6040518060c00160405280600063ffffffff1681526020016000815260200160001515815260200160001515815260200160608152602001606081525090565b600583106109b85760405162461bcd60e51b8152602060048201526007602482015266125b9d985b1a5960ca1b604482015260640161060d565b600a60008460048111156109dc57634e487b7160e01b600052602160045260246000fd5b60048111156109fb57634e487b7160e01b600052602160045260246000fd5b6004811115610a1a57634e487b7160e01b600052602160045260246000fd5b8152602080820192909252604090810160009081206001600160a01b03861682528352818120825160c081018452815463ffffffff168152600182015481860152600282015460ff8082161515838701526101009091041615156060820152600382018054855181880281018801909652808652919592946080870194909391929184015b82821015610b5c5760008481526020908190206040805160a081018252600486029092018054835260018101546001600160a01b03908116948401949094526002808201548516928401929092526003810154938416606084015291926080840191600160a01b90910460ff1690811115610b2a57634e487b7160e01b600052602160045260246000fd5b6002811115610b4957634e487b7160e01b600052602160045260246000fd5b8152505081526020019060010190610a9f565b505050508152602001600482018054610b74906132bb565b80601f0160208091040260200160405190810160405280929190818152602001828054610ba0906132bb565b8015610bed5780601f10610bc257610100808354040283529160200191610bed565b820191906000526020600020905b815481529060010190602001808311610bd057829003601f168201915b505050505081525050905092915050565b80610c07611b7a565b60200151805160009060329015610c50578160ff168351118015610c2f57508060ff16835111155b610c4b5760405162461bcd60e51b815260040161060d9061316f565b610c83565b8160ff168451118015610c6757508060ff16845111155b610c835760405162461bcd60e51b815260040161060d9061316f565b60005b855181101561078f57610cc087878381518110610cb357634e487b7160e01b600052603260045260246000fd5b6020026020010151611313565b80610cca816132f6565b915050610c86565b610cda611e69565b610ce4600061201b565b565b610cee611e69565b600455565b60078181548110610d0357600080fd5b60009182526020909120600160029092020101546001600160a01b0316905081565b610d2d611e69565b60048260ff1610610d505760405162461bcd60e51b815260040161060d90613145565b80600b60008460ff166004811115610d7857634e487b7160e01b600052602160045260246000fd5b6004811115610d9757634e487b7160e01b600052602160045260246000fd5b6004811115610db657634e487b7160e01b600052602160045260246000fd5b81526020810191909152604001600020555050565b610dd3611e69565b600655565b600333610de5828261206b565b610e025760405163aa6318d360e01b815260040160405180910390fd5b6000610e0d846120e5565b9050610e216000546001600160a01b031690565b6001600160a01b0316336001600160a01b031614610e8257336001600160a01b03821614610e825760405162461bcd60e51b815260206004820152600e60248201526d139bdd08105d5d1a1bdc9a5e995960921b604482015260640161060d565b610e8d60078561212b565b50505050565b610e9b611b7a565b518151829060009060329015610ee3578160ff168351118015610ec257508060ff16835111155b610ede5760405162461bcd60e51b815260040161060d9061316f565b610f16565b8160ff168451118015610efa57508060ff16845111155b610f165760405162461bcd60e51b815260040161060d9061316f565b60005b8551811015610f6457610f52868281518110610f4557634e487b7160e01b600052603260045260246000fd5b6020026020010151611110565b80610f5c816132f6565b915050610f19565b505050505050565b606060038260ff1610610fb55760405162461bcd60e51b815260206004820152601160248201527024b73b30b634b21039b2b632b1b2ba37b960791b604482015260640161060d565b600960008360ff166002811115610fdc57634e487b7160e01b600052602160045260246000fd5b6002811115610ffb57634e487b7160e01b600052602160045260246000fd5b600281111561101a57634e487b7160e01b600052602160045260246000fd5b8152602001908152602001600020805480602002602001604051908101604052809291908181526020016000905b828210156111055760008481526020908190206040805160a081018252600486029092018054835260018101546001600160a01b03908116948401949094526002808201548516928401929092526003810154938416606084015291926080840191600160a01b90910460ff16908111156110d357634e487b7160e01b600052602160045260246000fd5b60028111156110f257634e487b7160e01b600052602160045260246000fd5b8152505081526020019060010190611048565b505050509050919050565b60013361111d828261206b565b61113a5760405163aa6318d360e01b815260040160405180910390fd5b600380546000918261114b836132f6565b90915550506003546040805160a081019091526111e39060099080611174898660c084016130e2565b60405160208183030381529060405280519060200120815260200160006001600160a01b031681526020016111a63390565b6001600160a01b03168152600060208201526040018560028111156111db57634e487b7160e01b600052602160045260246000fd5b90528461236c565b5050505050565b3360009081527fa856840544dc26124927add067d799967eac11be13e14d82cc281ea46fa397596020526040902060020154610100900460ff16156112665760405162461bcd60e51b8152602060048201526012602482015271105b1c9958591e481c9959da5cdd195c995960721b604482015260640161060d565b60006112736007336124e6565b3360009081527fa856840544dc26124927add067d799967eac11be13e14d82cc281ea46fa3975960205260408120600201805461ff00191661010017905560058054929350906112c2836132f6565b91905055507f0723b3a091c16d9ebe7fe55f416fb9ea16fe106c1094fb596b8fdaa98f2847fb816112f03390565b604080519283526001600160a01b0390911660208301520160405180910390a150565b600033611320828261206b565b61133d5760405163aa6318d360e01b815260040160405180910390fd5b60408051808201909152601581527424b73b30b634b2103bb0b9ba32903837b4b73a32b960591b60208201528490849060009061137a565b611458565b600082600281111561139c57634e487b7160e01b600052602160045260246000fd5b141561143657600960008360028111156113c657634e487b7160e01b600052602160045260246000fd5b60028111156113e557634e487b7160e01b600052602160045260246000fd5b815260208101919091526040016000205483106113755760405162461bcd60e51b815260206004820152600f60248201526e125b9d985b1a59081dd85cdd195259608a1b604482015260640161060d565b600754841061145857604051638320418360e01b815260040160405180910390fd5b3360009081527f13da86008ba1c6922daee3e07db95305ef49ebced9f5467a0b8613fcc6b343e36020526040902060020154610100900460ff166114cc5760405162461bcd60e51b815260206004820152600b60248201526a139bdd08185b1b1bddd95960aa1b604482015260640161060d565b600080805260096020527fec8156718a8372b1db44bb411437d0870f3e3790d4a08526d024ce1b0b668f6b54881061153d5760405162461bcd60e51b81526020600482015260146024820152731dd85cdd195259081bdd5d081bd988189bdd5b9960621b604482015260640161060d565b600061154b60098a84612551565b905061155b60078b836001612751565b50505050505050505050565b6002600081815260096020527f6cde3cea4b3a3fb2488b2808bae7556f4a405e50f65e1794383bc026131b13c3549182158015906115a55750838310155b6115e15760405162461bcd60e51b815260206004820152600d60248201526c4e6f7420617661696c61626c6560981b604482015260640161060d565b60005b8481101561196b5760006009600084600281111561161257634e487b7160e01b600052602160045260246000fd5b600281111561163157634e487b7160e01b600052602160045260246000fd5b8152602001908152602001600020828154811061165e57634e487b7160e01b600052603260045260246000fd5b60009182526020918290206040805160a0810182526004939093029091018054835260018101546001600160a01b03908116948401949094526002808201548516928401929092526003810154938416606084015291926080840191600160a01b90910460ff16908111156116e357634e487b7160e01b600052602160045260246000fd5b600281111561170257634e487b7160e01b600052602160045260246000fd5b90525060608101519091506001600160a01b0316156119585783611725816132f6565b60046000908152600a6020529095507fe1eb2b2161a492c07c5a334e48012567cba93ec021043f53c1955516a3c5a8419150336001600160a01b03166001600160a01b031681526020019081526020016000206003016040518060a001604052808360000151815260200183602001516001600160a01b0316815260200183604001516001600160a01b0316815260200183606001516001600160a01b03168152602001836080015160028111156117ed57634e487b7160e01b600052602160045260246000fd5b9052815460018082018455600093845260209384902083516004909302019182559282015192810180546001600160a01b03199081166001600160a01b0395861617909155604083015160028084018054841692871692909217909155606084015160038401805493841691909616908117865560808501519495939493926001600160a81b0319161790600160a01b90849081111561189d57634e487b7160e01b600052602160045260246000fd5b02179055505050600960008460028111156118c857634e487b7160e01b600052602160045260246000fd5b60028111156118e757634e487b7160e01b600052602160045260246000fd5b8152602001908152602001600020828154811061191457634e487b7160e01b600052603260045260246000fd5b6000918252602082206004909102019081556001810180546001600160a01b0319908116909155600282018054909116905560030180546001600160a81b03191690555b5080611963816132f6565b9150506115e4565b5060008260065461197c9190613270565b9050803410156111e35760405162461bcd60e51b81526020600482015260066024820152654956616c756560d01b604482015260640161060d565b6119bf611e69565b8060048160ff16106119e35760405162461bcd60e51b815260040161060d90613145565b6106b6600a8460008560ff1660048111156107ef57634e487b7160e01b600052602160045260246000fd5b611a16611e69565b600155565b611a23611e69565b6001600160a01b038116611a885760405162461bcd60e51b815260206004820152602660248201527f4f776e61626c653a206e6577206f776e657220697320746865207a65726f206160448201526564647265737360d01b606482015260840161060d565b611a918161201b565b50565b6000808052602085815260408083206001600160a01b03871684528252808320805463ffffffff19164263ffffffff1617815560018101849055600201805461010061ffff1990911617905551611aef918591859101613117565b604051602081830303815290604052856000836004811115611b2157634e487b7160e01b600052602160045260246000fd5b6004811115611b4057634e487b7160e01b600052602160045260246000fd5b8152602080820192909252604090810160009081206001600160a01b03891682528352208251610f64936004909201929190910190612b35565b604080518082018252606080825260208083019190915282516000808252918101828152818501909452919281611bc1565b6060815260200190600190039081611bac5790505b5060408051808201909152928352602083015250919050565b600233611be7828261206b565b611c045760405163aa6318d360e01b815260040160405180910390fd5b60408051808201909152601581527424b73b30b634b2103bb0b9ba32903837b4b73a32b960591b60208201528490849060019060078481548110611c5857634e487b7160e01b600052603260045260246000fd5b60009182526020909120600290910201548310611c8857604051637e849ffb60e01b815260040160405180910390fd5b6000611c9660078a8a6128ad565b9050611ca5600982600261236c565b60045460008080611cb7600885612a26565b600254602089015160405163095ea7b360e01b81526001600160a01b03918216600482015260248101869052949750929550909350169063095ea7b390604401602060405180830381600087803b158015611d1157600080fd5b505af1158015611d25573d6000803e3d6000fd5b505050506040513d601f19601f82011682018060405250810190611d499190612dd7565b50600254604086810151905163095ea7b360e01b81526001600160a01b0391821660048201526024810185905291169063095ea7b390604401602060405180830381600087803b158015611d9c57600080fd5b505af1158015611db0573d6000803e3d6000fd5b505050506040513d601f19601f82011682018060405250810190611dd49190612dd7565b5060025460405163095ea7b360e01b8152306004820152602481018390526001600160a01b039091169063095ea7b390604401602060405180830381600087803b158015611e2157600080fd5b505af1158015611e35573d6000803e3d6000fd5b505050506040513d601f19601f82011682018060405250810190611e599190612dd7565b5050505050505050505050505050565b6000546001600160a01b03163314610ce45760405162461bcd60e51b815260206004820181905260248201527f4f776e61626c653a2063616c6c6572206973206e6f7420746865206f776e6572604482015260640161060d565b6000611ed0858584612abb565b90508215611f78578015611ef757604051633ee20b6960e01b815260040160405180910390fd5b6001856000846004811115611f1c57634e487b7160e01b600052602160045260246000fd5b6004811115611f3b57634e487b7160e01b600052602160045260246000fd5b8152602080820192909252604090810160009081206001600160a01b03891682529092529020600201805460ff19169115159190911790556111e3565b80611f965760405163aa6318d360e01b815260040160405180910390fd5b6000856000846004811115611fbb57634e487b7160e01b600052602160045260246000fd5b6004811115611fda57634e487b7160e01b600052602160045260246000fd5b8152602080820192909252604090810160009081206001600160a01b03891682529092529020600201805491151560ff199092169190911790555050505050565b600080546001600160a01b038381166001600160a01b0319831681178455604051919092169283917f8be0079c531659141344cd1fd0a4f28419497f9722a3daafe3b4186f6b6457e09190a35050565b6000600a600084600481111561209157634e487b7160e01b600052602160045260246000fd5b60048111156120b057634e487b7160e01b600052602160045260246000fd5b8152602080820192909252604090810160009081206001600160a01b038616825290925290206002015460ff16905092915050565b60006007828154811061210857634e487b7160e01b600052603260045260246000fd5b60009182526020909120600160029092020101546001600160a01b031692915050565b81546000908190848482811061215157634e487b7160e01b600052603260045260246000fd5b906000526020600020906002020160405180604001604052908160008201805480602002602001604051908101604052809291908181526020016000905b8282101561224c5760008481526020908190206040805160a081018252600486029092018054835260018101546001600160a01b03908116948401949094526002808201548516928401929092526003810154938416606084015291926080840191600160a01b90910460ff169081111561221a57634e487b7160e01b600052602160045260246000fd5b600281111561223957634e487b7160e01b600052602160045260246000fd5b815250508152602001906001019061218f565b50505090825250600191909101546001600160a01b0316602090910152805151919350915061228e5760405163347682f560e01b815260040160405180910390fd5b60005b8281101561231957600282518051839081106122bd57634e487b7160e01b600052603260045260246000fd5b60200260200101516080015160028111156122e857634e487b7160e01b600052602160045260246000fd5b101561230757604051633f00676b60e01b815260040160405180910390fd5b80612311816132f6565b915050612291565b5083838154811061233a57634e487b7160e01b600052603260045260246000fd5b600091825260208220600290910201906123548282612bb9565b5060010180546001600160a01b031916905550505050565b82600082600281111561238f57634e487b7160e01b600052602160045260246000fd5b60028111156123ae57634e487b7160e01b600052602160045260246000fd5b81526020019081526020016000206040518060a001604052808460000151815260200184602001516001600160a01b0316815260200184604001516001600160a01b0316815260200184606001516001600160a01b0316815260200183600281111561242a57634e487b7160e01b600052602160045260246000fd5b9052815460018082018455600093845260209384902083516004909302019182559282015192810180546001600160a01b03199081166001600160a01b0395861617909155604083015160028084018054841692871692909217909155606084015160038401805493841691909616908117865560808501519495939493926001600160a81b0319161790600160a01b9084908111156124da57634e487b7160e01b600052602160045260246000fd5b02179055505050505050565b8154600181018084556000849052829084908390811061251657634e487b7160e01b600052603260045260246000fd5b906000526020600020906002020160010160006101000a8154816001600160a01b0302191690836001600160a01b0316021790555092915050565b6125806040805160a0810182526000808252602082018190529181018290526060810182905290608082015290565b8360008360028111156125a357634e487b7160e01b600052602160045260246000fd5b60028111156125c257634e487b7160e01b600052602160045260246000fd5b815260200190815260200160002083815481106125ef57634e487b7160e01b600052603260045260246000fd5b60009182526020918290206040805160a0810182526004939093029091018054835260018101546001600160a01b03908116948401949094526002808201548516928401929092526003810154938416606084015291926080840191600160a01b90910460ff169081111561267457634e487b7160e01b600052602160045260246000fd5b600281111561269357634e487b7160e01b600052602160045260246000fd5b90525090508360008360028111156126bb57634e487b7160e01b600052602160045260246000fd5b60028111156126da57634e487b7160e01b600052602160045260246000fd5b8152602001908152602001600020838154811061270757634e487b7160e01b600052603260045260246000fd5b6000918252602082206004909102019081556001810180546001600160a01b0319908116909155600282018054909116905560030180546001600160a81b03191690559392505050565b83838154811061277157634e487b7160e01b600052603260045260246000fd5b90600052602060002090600202016000016040518060a001604052808460000151815260200184602001516001600160a01b0316815260200184604001516001600160a01b0316815260200184606001516001600160a01b031681526020018360028111156127f057634e487b7160e01b600052602160045260246000fd5b9052815460018082018455600093845260209384902083516004909302019182559282015192810180546001600160a01b03199081166001600160a01b0395861617909155604083015160028084018054841692871692909217909155606084015160038401805493841691909616908117865560808501519495939493926001600160a81b0319161790600160a01b9084908111156128a057634e487b7160e01b600052602160045260246000fd5b0217905550505050505050565b6128dc6040805160a0810182526000808252602082018190529181018290526060810182905290608082015290565b8383815481106128fc57634e487b7160e01b600052603260045260246000fd5b9060005260206000209060020201600001828154811061292c57634e487b7160e01b600052603260045260246000fd5b60009182526020918290206040805160a0810182526004939093029091018054835260018101546001600160a01b03908116948401949094526002808201548516928401929092526003810154938416606084015291926080840191600160a01b90910460ff16908111156129b157634e487b7160e01b600052602160045260246000fd5b60028111156129d057634e487b7160e01b600052602160045260246000fd5b8152505090508383815481106129f657634e487b7160e01b600052603260045260246000fd5b9060005260206000209060020201600001828154811061270757634e487b7160e01b600052603260045260246000fd5b60008080526020839052604081205481908190606490612a4a90869060ff16613270565b612a549190613250565b6001600090815260208790526040902054909350606490612a7990869060ff16613270565b612a839190613250565b6002600090815260208790526040902054909250606490612aa890869060ff16613270565b612ab29190613250565b90509250925092565b6000836000836004811115612ae057634e487b7160e01b600052602160045260246000fd5b6004811115612aff57634e487b7160e01b600052602160045260246000fd5b8152602080820192909252604090810160009081206001600160a01b038716825290925290206002015460ff1690509392505050565b828054612b41906132bb565b90600052602060002090601f016020900481019282612b635760008555612ba9565b82601f10612b7c57805160ff1916838001178555612ba9565b82800160010185558215612ba9579182015b82811115612ba9578251825591602001919060010190612b8e565b50612bb5929150612bda565b5090565b5080546000825560040290600052602060002090810190611a919190612bef565b5b80821115612bb55760008155600101612bdb565b5b80821115612bb557600081556001810180546001600160a01b031990811690915560028201805490911690556003810180546001600160a81b0319169055600401612bf0565b80356001600160a01b0381168114612c4d57600080fd5b919050565b600082601f830112612c62578081fd5b813567ffffffffffffffff811115612c7c57612c7c613327565b612c8f601f8201601f19166020016131fb565b818152846020838601011115612ca3578283fd5b816020850160208301379081016020019190915292915050565b803560ff81168114612c4d57600080fd5b600060208284031215612cdf578081fd5b612ce882612c36565b9392505050565b60008060408385031215612d01578081fd5b612d0a83612c36565b9150612d1860208401612cbd565b90509250929050565b60006020808385031215612d33578182fd5b823567ffffffffffffffff80821115612d4a578384fd5b818501915085601f830112612d5d578384fd5b8135612d70612d6b8261322c565b6131fb565b80828252858201915085850189878560051b8801011115612d8f578788fd5b875b84811015612dc857813586811115612da757898afd5b612db58c8a838b0101612c52565b8552509287019290870190600101612d91565b50909998505050505050505050565b600060208284031215612de8578081fd5b81518015158114612ce8578182fd5b600060208284031215612e08578081fd5b813560058110612ce8578182fd5b600060208284031215612e27578081fd5b813560038110612ce8578182fd5b600060208284031215612e46578081fd5b813567ffffffffffffffff811115612e5c578182fd5b612e6884828501612c52565b949350505050565b60008060408385031215612e82578182fd5b823567ffffffffffffffff80821115612e99578384fd5b612ea586838701612c52565b93506020850135915080821115612eba578283fd5b50612ec785828601612c52565b9150509250929050565b600060208284031215612ee2578081fd5b5035919050565b600060208284031215612efa578081fd5b5051919050565b60008060408385031215612f13578182fd5b82359150612d1860208401612c36565b60008060408385031215612f35578182fd5b8235915060208084013567ffffffffffffffff811115612f53578283fd5b8401601f81018613612f63578283fd5b8035612f71612d6b8261322c565b80828252848201915084840189868560051b8701011115612f90578687fd5b8694505b83851015612fb2578035835260019490940193918501918501612f94565b5080955050505050509250929050565b60008060408385031215612fd4578182fd5b50508035926020909101359150565b600060208284031215612ff4578081fd5b612ce882612cbd565b6000806040838503121561300f578182fd5b61301883612cbd565b946020939093013593505050565b6000815180845260208085019450808401835b838110156130ab57815180518852838101516001600160a01b03908116858a01526040808301518216908a015260608083015190911690890152608090810151906003821061309657634e487b7160e01b87526021600452602487fd5b88015260a09096019590820190600101613039565b509495945050505050565b600081518084526130ce81602086016020860161328f565b601f01601f19169290920160200192915050565b600083516130f481846020880161328f565b9190910191825250602001919050565b602081526000612ce86020830184613026565b60408152600061312a60408301856130b6565b828103602084015261313c81856130b6565b95945050505050565b60208082526010908201526f496e76616c69642063617465676f727960801b604082015260600190565b6020808252600790820152661a5b9d985b1a5960ca1b604082015260600190565b6020815263ffffffff8251166020820152602082015160408201526040820151151560608201526060820151151560808201526000608083015160c060a08401526131de60e0840182613026565b905060a0840151601f198483030160c085015261313c82826130b6565b604051601f8201601f1916810167ffffffffffffffff8111828210171561322457613224613327565b604052919050565b600067ffffffffffffffff82111561324657613246613327565b5060051b60200190565b60008261326b57634e487b7160e01b81526012600452602481fd5b500490565b600081600019048311821515161561328a5761328a613311565b500290565b60005b838110156132aa578181015183820152602001613292565b83811115610e8d5750506000910152565b600181811c908216806132cf57607f821691505b602082108114156132f057634e487b7160e01b600052602260045260246000fd5b50919050565b600060001982141561330a5761330a613311565b5060010190565b634e487b7160e01b600052601160045260246000fd5b634e487b7160e01b600052604160045260246000fdfea26469706673582212201052264b80de3126c34d9ed1f016758fa69133745d6ad06078cfb6f3aa2bc91464736f6c63430008040033",
  "linkReferences": {},
  "deployedLinkReferences": {}
}