{
  "_format": "hh-sol-artifact-1",
  "contractName": "IBoolaContractV",
  "sourceName": "contracts/verify/IBoolaContractV.sol",
  "abi": [
    {
      "inputs": [
        {
          "internalType": "address",
          "name": "_token",
          "type": "address"
        }
      ],
      "stateMutability": "nonpayable",
      "type": "constructor"
    },
    {
      "inputs": [],
      "name": "CannotDeleteBinInEngagedMode",
      "type": "error"
    },
    {
      "inputs": [],
      "name": "EmptyBin",
      "type": "error"
    },
    {
      "inputs": [],
      "name": "InvalidBinID",
      "type": "error"
    },
    {
      "inputs": [],
      "name": "InvalidWasteId",
      "type": "error"
    },
    {
      "inputs": [],
      "name": "MaxWasteTransportExceeded",
      "type": "error"
    },
    {
      "inputs": [],
      "name": "NothingToWithdraw",
      "type": "error"
    },
    {
      "inputs": [],
      "name": "UserAlreadyExist",
      "type": "error"
    },
    {
      "inputs": [],
      "name": "UserAlreadyNotExist",
      "type": "error"
    },
    {
      "anonymous": false,
      "inputs": [
        {
          "indexed": true,
          "internalType": "address",
          "name": "previousOwner",
          "type": "address"
        },
        {
          "indexed": true,
          "internalType": "address",
          "name": "newOwner",
          "type": "address"
        }
      ],
      "name": "OwnershipTransferred",
      "type": "event"
    },
    {
      "inputs": [],
      "name": "addNewBin",
      "outputs": [],
      "stateMutability": "payable",
      "type": "function"
    },
    {
      "inputs": [],
      "name": "binCounter",
      "outputs": [
        {
          "internalType": "uint256",
          "name": "",
          "type": "uint256"
        }
      ],
      "stateMutability": "view",
      "type": "function"
    },
    {
      "inputs": [
        {
          "internalType": "uint256",
          "name": "",
          "type": "uint256"
        }
      ],
      "name": "bins",
      "outputs": [
        {
          "internalType": "address",
          "name": "owner",
          "type": "address"
        }
      ],
      "stateMutability": "view",
      "type": "function"
    },
    {
      "inputs": [
        {
          "internalType": "address",
          "name": "who",
          "type": "address"
        },
        {
          "internalType": "uint8",
          "name": "category",
          "type": "uint8"
        }
      ],
      "name": "blacklistUser",
      "outputs": [],
      "stateMutability": "nonpayable",
      "type": "function"
    },
    {
      "inputs": [
        {
          "internalType": "uint256",
          "name": "volume",
          "type": "uint256"
        }
      ],
      "name": "buyRecycled",
      "outputs": [],
      "stateMutability": "payable",
      "type": "function"
    },
    {
      "inputs": [
        {
          "internalType": "uint256",
          "name": "binId",
          "type": "uint256"
        },
        {
          "internalType": "uint256[]",
          "name": "wasteIds",
          "type": "uint256[]"
        }
      ],
      "name": "collectMultipleWaste",
      "outputs": [],
      "stateMutability": "nonpayable",
      "type": "function"
    },
    {
      "inputs": [
        {
          "internalType": "uint256",
          "name": "binId",
          "type": "uint256"
        },
        {
          "internalType": "uint256",
          "name": "wasteId",
          "type": "uint256"
        }
      ],
      "name": "collectWaste",
      "outputs": [],
      "stateMutability": "nonpayable",
      "type": "function"
    },
    {
      "inputs": [],
      "name": "collectorReward",
      "outputs": [
        {
          "internalType": "uint256",
          "name": "",
          "type": "uint256"
        }
      ],
      "stateMutability": "view",
      "type": "function"
    },
    {
      "inputs": [
        {
          "internalType": "enum Common.Share",
          "name": "",
          "type": "uint8"
        }
      ],
      "name": "formula",
      "outputs": [
        {
          "internalType": "uint8",
          "name": "",
          "type": "uint8"
        }
      ],
      "stateMutability": "view",
      "type": "function"
    },
    {
      "inputs": [
        {
          "internalType": "uint8",
          "name": "_category",
          "type": "uint8"
        }
      ],
      "name": "garbages",
      "outputs": [
        {
          "components": [
            {
              "internalType": "bytes32",
              "name": "value",
              "type": "bytes32"
            },
            {
              "internalType": "address",
              "name": "collector",
              "type": "address"
            },
            {
              "internalType": "address",
              "name": "generator",
              "type": "address"
            },
            {
              "internalType": "address",
              "name": "recycler",
              "type": "address"
            },
            {
              "internalType": "enum Common.State",
              "name": "state",
              "type": "uint8"
            }
          ],
          "internalType": "struct Common.WasteData[]",
          "name": "",
          "type": "tuple[]"
        }
      ],
      "stateMutability": "view",
      "type": "function"
    },
    {
      "inputs": [
        {
          "internalType": "string[]",
          "name": "data",
          "type": "string[]"
        }
      ],
      "name": "generateMultipleWaste",
      "outputs": [],
      "stateMutability": "nonpayable",
      "type": "function"
    },
    {
      "inputs": [
        {
          "internalType": "string",
          "name": "_data",
          "type": "string"
        }
      ],
      "name": "generateWaste",
      "outputs": [],
      "stateMutability": "nonpayable",
      "type": "function"
    },
    {
      "inputs": [],
      "name": "newSignUpReward",
      "outputs": [
        {
          "internalType": "uint256",
          "name": "",
          "type": "uint256"
        }
      ],
      "stateMutability": "view",
      "type": "function"
    },
    {
      "inputs": [],
      "name": "owner",
      "outputs": [
        {
          "internalType": "address",
          "name": "",
          "type": "address"
        }
      ],
      "stateMutability": "view",
      "type": "function"
    },
    {
      "inputs": [],
      "name": "price",
      "outputs": [
        {
          "internalType": "uint256",
          "name": "",
          "type": "uint256"
        }
      ],
      "stateMutability": "view",
      "type": "function"
    },
    {
      "inputs": [
        {
          "internalType": "uint256",
          "name": "binId",
          "type": "uint256"
        },
        {
          "internalType": "uint256[]",
          "name": "wasteIds",
          "type": "uint256[]"
        }
      ],
      "name": "recycleMultiple",
      "outputs": [],
      "stateMutability": "nonpayable",
      "type": "function"
    },
    {
      "inputs": [
        {
          "internalType": "uint256",
          "name": "binId",
          "type": "uint256"
        }
      ],
      "name": "removeBin",
      "outputs": [],
      "stateMutability": "nonpayable",
      "type": "function"
    },
    {
      "inputs": [],
      "name": "renounceOwnership",
      "outputs": [],
      "stateMutability": "nonpayable",
      "type": "function"
    },
    {
      "inputs": [
        {
          "internalType": "uint256",
          "name": "newReward",
          "type": "uint256"
        }
      ],
      "name": "setCollectorUpReward",
      "outputs": [],
      "stateMutability": "nonpayable",
      "type": "function"
    },
    {
      "inputs": [
        {
          "internalType": "uint8",
          "name": "category",
          "type": "uint8"
        },
        {
          "internalType": "uint256",
          "name": "newFee",
          "type": "uint256"
        }
      ],
      "name": "setFee",
      "outputs": [],
      "stateMutability": "nonpayable",
      "type": "function"
    },
    {
      "inputs": [
        {
          "internalType": "uint256",
          "name": "newPrice",
          "type": "uint256"
        }
      ],
      "name": "setPrice",
      "outputs": [],
      "stateMutability": "nonpayable",
      "type": "function"
    },
    {
      "inputs": [
        {
          "internalType": "uint256",
          "name": "newReward",
          "type": "uint256"
        }
      ],
      "name": "setSignUpReward",
      "outputs": [],
      "stateMutability": "nonpayable",
      "type": "function"
    },
    {
      "inputs": [],
      "name": "signUpAsWasteCollector",
      "outputs": [],
      "stateMutability": "nonpayable",
      "type": "function"
    },
    {
      "inputs": [
        {
          "internalType": "enum Common.Category",
          "name": "",
          "type": "uint8"
        }
      ],
      "name": "signUpFees",
      "outputs": [
        {
          "internalType": "uint256",
          "name": "",
          "type": "uint256"
        }
      ],
      "stateMutability": "view",
      "type": "function"
    },
    {
      "inputs": [],
      "name": "token",
      "outputs": [
        {
          "internalType": "address",
          "name": "",
          "type": "address"
        }
      ],
      "stateMutability": "view",
      "type": "function"
    },
    {
      "inputs": [],
      "name": "totalWasteGenerated",
      "outputs": [
        {
          "internalType": "uint256",
          "name": "",
          "type": "uint256"
        }
      ],
      "stateMutability": "view",
      "type": "function"
    },
    {
      "inputs": [
        {
          "internalType": "address",
          "name": "newOwner",
          "type": "address"
        }
      ],
      "name": "transferOwnership",
      "outputs": [],
      "stateMutability": "nonpayable",
      "type": "function"
    },
    {
      "inputs": [
        {
          "internalType": "address",
          "name": "who",
          "type": "address"
        },
        {
          "internalType": "uint8",
          "name": "category",
          "type": "uint8"
        }
      ],
      "name": "whitelistuser",
      "outputs": [],
      "stateMutability": "nonpayable",
      "type": "function"
    },
    {
      "inputs": [],
      "name": "withdraw",
      "outputs": [],
      "stateMutability": "nonpayable",
      "type": "function"
    }
  ],
  "bytecode": "0x60806040523480156200001157600080fd5b506040516200308b3803806200308b83398101604081905262000034916200020f565b6200003f33620001bf565b600280546001600160a01b0319166001600160a01b038316179055678ac7230489e80000600190815560036000908152600a6020527fa856840544dc26124927add067d799967eac11be13e14d82cc281ea46fa39759906200009e3390565b6001600160a01b031681526020808201929092526040016000908120600201805493151560ff199485161790558080526008918290527f5eff886ea0ce6ca488a3d6e336d6c0f75f46d19b42c06ce5ee98e42c96d256c78054909316604117909255600a91600160028111156200012557634e487b7160e01b600052602160045260246000fd5b815260200190815260200160002060006101000a81548160ff021916908360ff1602179055506019600860006002808111156200017257634e487b7160e01b600052602160045260246000fd5b60028111156200019257634e487b7160e01b600052602160045260246000fd5b815260200190815260200160002060006101000a81548160ff021916908360ff160217905550506200023f565b600080546001600160a01b038381166001600160a01b0319831681178455604051919092169283917f8be0079c531659141344cd1fd0a4f28419497f9722a3daafe3b4186f6b6457e09190a35050565b60006020828403121562000221578081fd5b81516001600160a01b038116811462000238578182fd5b9392505050565b612e3c806200024f6000396000f3fe6080604052600436106101c15760003560e01c806393051d95116100f7578063c437a2f011610095578063f2fde38b11610064578063f2fde38b146104e9578063f940450614610509578063fc0c546a1461051f578063ffc2105c1461053f57600080fd5b8063c437a2f01461048e578063e47c294d146104a1578063ea77351f146104c1578063f2d03e15146104c957600080fd5b8063a741c0df116100d1578063a741c0df146103df578063b75882801461040c578063c2f0c2791461042c578063c3864cce1461046e57600080fd5b806393051d9514610389578063955ef11a146103a9578063a035b1fe146103c957600080fd5b8063715018a611610164578063885c7b381161013e578063885c7b38146102f35780638c6aa3f51461032b5780638da5cb5b1461034b57806391b7f5ed1461036957600080fd5b8063715018a6146102a957806372938a14146102be57806384b038df146102de57600080fd5b8063235eb9f5116101a0578063235eb9f51461023e57806331b59ed7146102545780633ccfd60b1461027457806341311bc31461028957600080fd5b806295db2d146101c65780630bdd7063146102065780631f2a4a3f14610228575b600080fd5b3480156101d257600080fd5b506101f36101e1366004612a19565b600b6020526000908152604090205481565b6040519081526020015b60405180910390f35b34801561021257600080fd5b50610226610221366004612ac2565b610555565b005b34801561023457600080fd5b506101f360055481565b34801561024a57600080fd5b506101f360045481565b34801561026057600080fd5b5061022661026f366004612911565b61063b565b34801561028057600080fd5b5061022661069c565b34801561029557600080fd5b506102266102a4366004612ac2565b6107e3565b3480156102b557600080fd5b506102266108b7565b3480156102ca57600080fd5b506102266102d9366004612a92565b6108cb565b3480156102ea57600080fd5b506102266108d8565b3480156102ff57600080fd5b5061031361030e366004612a92565b610a42565b6040516001600160a01b0390911681526020016101fd565b34801561033757600080fd5b50610226610346366004612b9c565b610a74565b34801561035757600080fd5b506000546001600160a01b0316610313565b34801561037557600080fd5b50610226610384366004612a92565b610b1a565b34801561039557600080fd5b506102266103a4366004612a92565b610b27565b3480156103b557600080fd5b506102266103c4366004612943565b610be2565b3480156103d557600080fd5b506101f360065481565b3480156103eb57600080fd5b506103ff6103fa366004612b82565b610cbb565b6040516101fd9190612be7565b34801561041857600080fd5b50610226610427366004612a57565b610e5f565b34801561043857600080fd5b5061045c610447366004612a38565b60086020526000908152604090205460ff1681565b60405160ff90911681526020016101fd565b34801561047a57600080fd5b50610226610489366004612b61565b610f39565b61022661049c366004612a92565b6111a1565b3480156104ad57600080fd5b506102266104bc366004612911565b6115f1565b610226611648565b3480156104d557600080fd5b506102266104e4366004612a92565b611697565b3480156104f557600080fd5b506102266105043660046128f0565b6116a4565b34801561051557600080fd5b506101f360015481565b34801561052b57600080fd5b50600254610313906001600160a01b031681565b34801561054b57600080fd5b506101f360035481565b8061055e61171a565b602001518051600090603290156105b0578160ff16835111801561058657508060ff16835111155b6105ab5760405162461bcd60e51b81526004016105a290612cde565b60405180910390fd5b6105e3565b8160ff1684511180156105c757508060ff16845111155b6105e35760405162461bcd60e51b81526004016105a290612cde565b60005b8551811015610632576106208787838151811061061357634e487b7160e01b600052603260045260246000fd5b602002602001015161177a565b8061062a81612dbf565b9150506105e6565b50505050505050565b610643611b25565b8060048160ff16106106675760405162461bcd60e51b81526004016105a290612cb4565b610697600a8460018560ff16600481111561069257634e487b7160e01b600052602160045260246000fd5b611b7f565b505050565b60025460408051636eb1769f60e11b815230600482015233602482015290516000926001600160a01b03169163dd62ed3e916044808301926020929190829003018186803b1580156106ed57600080fd5b505afa158015610701573d6000803e3d6000fd5b505050506040513d601f19601f820116820180604052508101906107259190612aaa565b90508061074557604051630686827b60e51b815260040160405180910390fd5b6002546001600160a01b03166323b872dd30336040516001600160e01b031960e085901b1681526001600160a01b0392831660048201529116602482015260448101849052606401602060405180830381600087803b1580156107a757600080fd5b505af11580156107bb573d6000803e3d6000fd5b505050506040513d601f19601f820116820180604052508101906107df91906129f9565b5050565b806107ec61171a565b60200151805160009060329015610835578160ff16835111801561081457508060ff16835111155b6108305760405162461bcd60e51b81526004016105a290612cde565b610868565b8160ff16845111801561084c57508060ff16845111155b6108685760405162461bcd60e51b81526004016105a290612cde565b60005b8551811015610632576108a58787838151811061089857634e487b7160e01b600052603260045260246000fd5b6020026020010151610f39565b806108af81612dbf565b91505061086b565b6108bf611b25565b6108c96000611cd7565b565b6108d3611b25565b600455565b3360009081527f13da86008ba1c6922daee3e07db95305ef49ebced9f5467a0b8613fcc6b343e36020526040902060020154610100900460ff16156109515760405162461bcd60e51b815260206004820152600f60248201526e0416c7265616479207369676e20757608c1b60448201526064016105a2565b3360009081527f13da86008ba1c6922daee3e07db95305ef49ebced9f5467a0b8613fcc6b343e360205260408120805463ffffffff19164263ffffffff161781556001810191909155600201805461010061ffff199091161790556002546001600160a01b031663095ea7b3336001546040516001600160e01b031960e085901b1681526001600160a01b0390921660048301526024820152604401602060405180830381600087803b158015610a0757600080fd5b505af1158015610a1b573d6000803e3d6000fd5b505050506040513d601f19601f82011682018060405250810190610a3f91906129f9565b50565b60078181548110610a5257600080fd5b60009182526020909120600160029092020101546001600160a01b0316905081565b610a7c611b25565b60048260ff1610610a9f5760405162461bcd60e51b81526004016105a290612cb4565b80600b60008460ff166004811115610ac757634e487b7160e01b600052602160045260246000fd5b6004811115610ae657634e487b7160e01b600052602160045260246000fd5b6004811115610b0557634e487b7160e01b600052602160045260246000fd5b81526020810191909152604001600020555050565b610b22611b25565b600655565b600333610b348282611d27565b610b515760405163aa6318d360e01b815260040160405180910390fd5b6000610b5c84611da1565b9050610b706000546001600160a01b031690565b6001600160a01b0316336001600160a01b031614610bd157336001600160a01b03821614610bd15760405162461bcd60e51b815260206004820152600e60248201526d139bdd08105d5d1a1bdc9a5e995960921b60448201526064016105a2565b610bdc600785611de7565b50505050565b610bea61171a565b518151829060009060329015610c32578160ff168351118015610c1157508060ff16835111155b610c2d5760405162461bcd60e51b81526004016105a290612cde565b610c65565b8160ff168451118015610c4957508060ff16845111155b610c655760405162461bcd60e51b81526004016105a290612cde565b60005b8551811015610cb357610ca1868281518110610c9457634e487b7160e01b600052603260045260246000fd5b6020026020010151610e5f565b80610cab81612dbf565b915050610c68565b505050505050565b606060038260ff1610610d045760405162461bcd60e51b815260206004820152601160248201527024b73b30b634b21039b2b632b1b2ba37b960791b60448201526064016105a2565b600960008360ff166002811115610d2b57634e487b7160e01b600052602160045260246000fd5b6002811115610d4a57634e487b7160e01b600052602160045260246000fd5b6002811115610d6957634e487b7160e01b600052602160045260246000fd5b8152602001908152602001600020805480602002602001604051908101604052809291908181526020016000905b82821015610e545760008481526020908190206040805160a081018252600486029092018054835260018101546001600160a01b03908116948401949094526002808201548516928401929092526003810154938416606084015291926080840191600160a01b90910460ff1690811115610e2257634e487b7160e01b600052602160045260246000fd5b6002811115610e4157634e487b7160e01b600052602160045260246000fd5b8152505081526020019060010190610d97565b505050509050919050565b600133610e6c8282611d27565b610e895760405163aa6318d360e01b815260040160405180910390fd5b6003805460009182610e9a83612dbf565b90915550506003546040805160a08101909152610f329060099080610ec3898660c08401612bc5565b60405160208183030381529060405280519060200120815260200160006001600160a01b03168152602001610ef53390565b6001600160a01b0316815260006020820152604001856002811115610f2a57634e487b7160e01b600052602160045260246000fd5b905284612028565b5050505050565b600033610f468282611d27565b610f635760405163aa6318d360e01b815260040160405180910390fd5b838360006040518060400160405280601581526020017424b73b30b634b2103bb0b9ba32903837b4b73a32b960591b8152506007805490508410610fba57604051638320418360e01b815260040160405180910390fd5b6001826002811115610fdc57634e487b7160e01b600052602160045260246000fd5b1415611033576007848154811061100357634e487b7160e01b600052603260045260246000fd5b6000918252602090912060029091020154831061103357604051637e849ffb60e01b815260040160405180910390fd5b81600281111561105357634e487b7160e01b600052602160045260246000fd5b6007858154811061107457634e487b7160e01b600052603260045260246000fd5b906000526020600020906002020160000184815481106110a457634e487b7160e01b600052603260045260246000fd5b906000526020600020906004020160030160149054906101000a900460ff1660028111156110e257634e487b7160e01b600052602160045260246000fd5b1481906111025760405162461bcd60e51b81526004016105a29190612c81565b503360009081527f13da86008ba1c6922daee3e07db95305ef49ebced9f5467a0b8613fcc6b343e36020526040902060020154610100900460ff166111775760405162461bcd60e51b815260206004820152600b60248201526a139bdd08185b1b1bddd95960aa1b60448201526064016105a2565b600061118660098960006121a2565b905061119660078a8360016123a2565b505050505050505050565b6002600081815260096020527f6cde3cea4b3a3fb2488b2808bae7556f4a405e50f65e1794383bc026131b13c3549182158015906111df5750838310155b61121b5760405162461bcd60e51b815260206004820152600d60248201526c4e6f7420617661696c61626c6560981b60448201526064016105a2565b60005b848110156115a55760006009600084600281111561124c57634e487b7160e01b600052602160045260246000fd5b600281111561126b57634e487b7160e01b600052602160045260246000fd5b8152602001908152602001600020828154811061129857634e487b7160e01b600052603260045260246000fd5b60009182526020918290206040805160a0810182526004939093029091018054835260018101546001600160a01b03908116948401949094526002808201548516928401929092526003810154938416606084015291926080840191600160a01b90910460ff169081111561131d57634e487b7160e01b600052602160045260246000fd5b600281111561133c57634e487b7160e01b600052602160045260246000fd5b90525060608101519091506001600160a01b031615611592578361135f81612dbf565b60046000908152600a6020529095507fe1eb2b2161a492c07c5a334e48012567cba93ec021043f53c1955516a3c5a8419150336001600160a01b03166001600160a01b031681526020019081526020016000206003016040518060a001604052808360000151815260200183602001516001600160a01b0316815260200183604001516001600160a01b0316815260200183606001516001600160a01b031681526020018360800151600281111561142757634e487b7160e01b600052602160045260246000fd5b9052815460018082018455600093845260209384902083516004909302019182559282015192810180546001600160a01b03199081166001600160a01b0395861617909155604083015160028084018054841692871692909217909155606084015160038401805493841691909616908117865560808501519495939493926001600160a81b0319161790600160a01b9084908111156114d757634e487b7160e01b600052602160045260246000fd5b021790555050506009600084600281111561150257634e487b7160e01b600052602160045260246000fd5b600281111561152157634e487b7160e01b600052602160045260246000fd5b8152602001908152602001600020828154811061154e57634e487b7160e01b600052603260045260246000fd5b6000918252602082206004909102019081556001810180546001600160a01b0319908116909155600282018054909116905560030180546001600160a81b03191690555b508061159d81612dbf565b91505061121e565b506000826006546115b69190612d74565b905080341015610f325760405162461bcd60e51b81526020600482015260066024820152654956616c756560d01b60448201526064016105a2565b6115f9611b25565b8060048160ff161061161d5760405162461bcd60e51b81526004016105a290612cb4565b610697600a8460008560ff16600481111561069257634e487b7160e01b600052602160045260246000fd5b6003336116558282611d27565b6116725760405163aa6318d360e01b815260040160405180910390fd5b61167d6007336124fe565b506005805490600061168e83612dbf565b91905055505050565b61169f611b25565b600155565b6116ac611b25565b6001600160a01b0381166117115760405162461bcd60e51b815260206004820152602660248201527f4f776e61626c653a206e6577206f776e657220697320746865207a65726f206160448201526564647265737360d01b60648201526084016105a2565b610a3f81611cd7565b604080518082018252606080825260208083019190915282516000808252918101828152818501909452919281611761565b606081526020019060019003908161174c5790505b5060408051808201909152928352602083015250919050565b6002336117878282611d27565b6117a45760405163aa6318d360e01b815260040160405180910390fd5b838360016040518060400160405280601581526020017424b73b30b634b2103bb0b9ba32903837b4b73a32b960591b81525060078054905084106117fb57604051638320418360e01b815260040160405180910390fd5b600182600281111561181d57634e487b7160e01b600052602160045260246000fd5b1415611874576007848154811061184457634e487b7160e01b600052603260045260246000fd5b6000918252602090912060029091020154831061187457604051637e849ffb60e01b815260040160405180910390fd5b81600281111561189457634e487b7160e01b600052602160045260246000fd5b600785815481106118b557634e487b7160e01b600052603260045260246000fd5b906000526020600020906002020160000184815481106118e557634e487b7160e01b600052603260045260246000fd5b906000526020600020906004020160030160149054906101000a900460ff16600281111561192357634e487b7160e01b600052602160045260246000fd5b1481906119435760405162461bcd60e51b81526004016105a29190612c81565b50600061195260078a8a612569565b90506119616009826002612028565b600454600080806119736008856126e2565b600254602089015160405163095ea7b360e01b81526001600160a01b03918216600482015260248101869052949750929550909350169063095ea7b390604401602060405180830381600087803b1580156119cd57600080fd5b505af11580156119e1573d6000803e3d6000fd5b505050506040513d601f19601f82011682018060405250810190611a0591906129f9565b50600254604086810151905163095ea7b360e01b81526001600160a01b0391821660048201526024810185905291169063095ea7b390604401602060405180830381600087803b158015611a5857600080fd5b505af1158015611a6c573d6000803e3d6000fd5b505050506040513d601f19601f82011682018060405250810190611a9091906129f9565b5060025460405163095ea7b360e01b8152306004820152602481018390526001600160a01b039091169063095ea7b390604401602060405180830381600087803b158015611add57600080fd5b505af1158015611af1573d6000803e3d6000fd5b505050506040513d601f19601f82011682018060405250810190611b1591906129f9565b5050505050505050505050505050565b6000546001600160a01b031633146108c95760405162461bcd60e51b815260206004820181905260248201527f4f776e61626c653a2063616c6c6572206973206e6f7420746865206f776e657260448201526064016105a2565b6000611b8c858584612777565b90508215611c34578015611bb357604051633ee20b6960e01b815260040160405180910390fd5b6001856000846004811115611bd857634e487b7160e01b600052602160045260246000fd5b6004811115611bf757634e487b7160e01b600052602160045260246000fd5b8152602080820192909252604090810160009081206001600160a01b03891682529092529020600201805460ff1916911515919091179055610f32565b80611c525760405163aa6318d360e01b815260040160405180910390fd5b6000856000846004811115611c7757634e487b7160e01b600052602160045260246000fd5b6004811115611c9657634e487b7160e01b600052602160045260246000fd5b8152602080820192909252604090810160009081206001600160a01b03891682529092529020600201805491151560ff199092169190911790555050505050565b600080546001600160a01b038381166001600160a01b0319831681178455604051919092169283917f8be0079c531659141344cd1fd0a4f28419497f9722a3daafe3b4186f6b6457e09190a35050565b6000600a6000846004811115611d4d57634e487b7160e01b600052602160045260246000fd5b6004811115611d6c57634e487b7160e01b600052602160045260246000fd5b8152602080820192909252604090810160009081206001600160a01b038616825290925290206002015460ff16905092915050565b600060078281548110611dc457634e487b7160e01b600052603260045260246000fd5b60009182526020909120600160029092020101546001600160a01b031692915050565b815460009081908484828110611e0d57634e487b7160e01b600052603260045260246000fd5b906000526020600020906002020160405180604001604052908160008201805480602002602001604051908101604052809291908181526020016000905b82821015611f085760008481526020908190206040805160a081018252600486029092018054835260018101546001600160a01b03908116948401949094526002808201548516928401929092526003810154938416606084015291926080840191600160a01b90910460ff1690811115611ed657634e487b7160e01b600052602160045260246000fd5b6002811115611ef557634e487b7160e01b600052602160045260246000fd5b8152505081526020019060010190611e4b565b50505090825250600191909101546001600160a01b03166020909101528051519193509150611f4a5760405163347682f560e01b815260040160405180910390fd5b60005b82811015611fd55760028251805183908110611f7957634e487b7160e01b600052603260045260246000fd5b6020026020010151608001516002811115611fa457634e487b7160e01b600052602160045260246000fd5b1015611fc357604051633f00676b60e01b815260040160405180910390fd5b80611fcd81612dbf565b915050611f4d565b50838381548110611ff657634e487b7160e01b600052603260045260246000fd5b6000918252602082206002909102019061201082826127f1565b5060010180546001600160a01b031916905550505050565b82600082600281111561204b57634e487b7160e01b600052602160045260246000fd5b600281111561206a57634e487b7160e01b600052602160045260246000fd5b81526020019081526020016000206040518060a001604052808460000151815260200184602001516001600160a01b0316815260200184604001516001600160a01b0316815260200184606001516001600160a01b031681526020018360028111156120e657634e487b7160e01b600052602160045260246000fd5b9052815460018082018455600093845260209384902083516004909302019182559282015192810180546001600160a01b03199081166001600160a01b0395861617909155604083015160028084018054841692871692909217909155606084015160038401805493841691909616908117865560808501519495939493926001600160a81b0319161790600160a01b90849081111561219657634e487b7160e01b600052602160045260246000fd5b02179055505050505050565b6121d16040805160a0810182526000808252602082018190529181018290526060810182905290608082015290565b8360008360028111156121f457634e487b7160e01b600052602160045260246000fd5b600281111561221357634e487b7160e01b600052602160045260246000fd5b8152602001908152602001600020838154811061224057634e487b7160e01b600052603260045260246000fd5b60009182526020918290206040805160a0810182526004939093029091018054835260018101546001600160a01b03908116948401949094526002808201548516928401929092526003810154938416606084015291926080840191600160a01b90910460ff16908111156122c557634e487b7160e01b600052602160045260246000fd5b60028111156122e457634e487b7160e01b600052602160045260246000fd5b905250905083600083600281111561230c57634e487b7160e01b600052602160045260246000fd5b600281111561232b57634e487b7160e01b600052602160045260246000fd5b8152602001908152602001600020838154811061235857634e487b7160e01b600052603260045260246000fd5b6000918252602082206004909102019081556001810180546001600160a01b0319908116909155600282018054909116905560030180546001600160a81b03191690559392505050565b8383815481106123c257634e487b7160e01b600052603260045260246000fd5b90600052602060002090600202016000016040518060a001604052808460000151815260200184602001516001600160a01b0316815260200184604001516001600160a01b0316815260200184606001516001600160a01b0316815260200183600281111561244157634e487b7160e01b600052602160045260246000fd5b9052815460018082018455600093845260209384902083516004909302019182559282015192810180546001600160a01b03199081166001600160a01b0395861617909155604083015160028084018054841692871692909217909155606084015160038401805493841691909616908117865560808501519495939493926001600160a81b0319161790600160a01b9084908111156124f157634e487b7160e01b600052602160045260246000fd5b0217905550505050505050565b8154600181018084556000849052829084908390811061252e57634e487b7160e01b600052603260045260246000fd5b906000526020600020906002020160010160006101000a8154816001600160a01b0302191690836001600160a01b0316021790555092915050565b6125986040805160a0810182526000808252602082018190529181018290526060810182905290608082015290565b8383815481106125b857634e487b7160e01b600052603260045260246000fd5b906000526020600020906002020160000182815481106125e857634e487b7160e01b600052603260045260246000fd5b60009182526020918290206040805160a0810182526004939093029091018054835260018101546001600160a01b03908116948401949094526002808201548516928401929092526003810154938416606084015291926080840191600160a01b90910460ff169081111561266d57634e487b7160e01b600052602160045260246000fd5b600281111561268c57634e487b7160e01b600052602160045260246000fd5b8152505090508383815481106126b257634e487b7160e01b600052603260045260246000fd5b9060005260206000209060020201600001828154811061235857634e487b7160e01b600052603260045260246000fd5b6000808052602083905260408120548190819060649061270690869060ff16612d74565b6127109190612d54565b600160009081526020879052604090205490935060649061273590869060ff16612d74565b61273f9190612d54565b600260009081526020879052604090205490925060649061276490869060ff16612d74565b61276e9190612d54565b90509250925092565b600083600083600481111561279c57634e487b7160e01b600052602160045260246000fd5b60048111156127bb57634e487b7160e01b600052602160045260246000fd5b8152602080820192909252604090810160009081206001600160a01b038716825290925290206002015460ff1690509392505050565b5080546000825560040290600052602060002090810190610a3f91905b8082111561285457600081556001810180546001600160a01b031990811690915560028201805490911690556003810180546001600160a81b031916905560040161280e565b5090565b80356001600160a01b038116811461286f57600080fd5b919050565b600082601f830112612884578081fd5b813567ffffffffffffffff81111561289e5761289e612df0565b6128b1601f8201601f1916602001612cff565b8181528460208386010111156128c5578283fd5b816020850160208301379081016020019190915292915050565b803560ff8116811461286f57600080fd5b600060208284031215612901578081fd5b61290a82612858565b9392505050565b60008060408385031215612923578081fd5b61292c83612858565b915061293a602084016128df565b90509250929050565b60006020808385031215612955578182fd5b823567ffffffffffffffff8082111561296c578384fd5b818501915085601f83011261297f578384fd5b813561299261298d82612d30565b612cff565b80828252858201915085850189878560051b88010111156129b1578788fd5b875b848110156129ea578135868111156129c957898afd5b6129d78c8a838b0101612874565b85525092870192908701906001016129b3565b50909998505050505050505050565b600060208284031215612a0a578081fd5b8151801515811461290a578182fd5b600060208284031215612a2a578081fd5b81356005811061290a578182fd5b600060208284031215612a49578081fd5b81356003811061290a578182fd5b600060208284031215612a68578081fd5b813567ffffffffffffffff811115612a7e578182fd5b612a8a84828501612874565b949350505050565b600060208284031215612aa3578081fd5b5035919050565b600060208284031215612abb578081fd5b5051919050565b60008060408385031215612ad4578182fd5b8235915060208084013567ffffffffffffffff811115612af2578283fd5b8401601f81018613612b02578283fd5b8035612b1061298d82612d30565b80828252848201915084840189868560051b8701011115612b2f578687fd5b8694505b83851015612b51578035835260019490940193918501918501612b33565b5080955050505050509250929050565b60008060408385031215612b73578182fd5b50508035926020909101359150565b600060208284031215612b93578081fd5b61290a826128df565b60008060408385031215612bae578182fd5b612bb7836128df565b946020939093013593505050565b60008351612bd7818460208801612d93565b9190910191825250602001919050565b602080825282518282018190526000919060409081850190868401855b82811015612c7457815180518552868101516001600160a01b039081168887015286820151811687870152606080830151909116908601526080908101519060038210612c5f57634e487b7160e01b89526021600452602489fd5b85015260a09093019290850190600101612c04565b5091979650505050505050565b6020815260008251806020840152612ca0816040850160208701612d93565b601f01601f19169190910160400192915050565b60208082526010908201526f496e76616c69642063617465676f727960801b604082015260600190565b6020808252600790820152661a5b9d985b1a5960ca1b604082015260600190565b604051601f8201601f1916810167ffffffffffffffff81118282101715612d2857612d28612df0565b604052919050565b600067ffffffffffffffff821115612d4a57612d4a612df0565b5060051b60200190565b600082612d6f57634e487b7160e01b81526012600452602481fd5b500490565b6000816000190483118215151615612d8e57612d8e612dda565b500290565b60005b83811015612dae578181015183820152602001612d96565b83811115610bdc5750506000910152565b6000600019821415612dd357612dd3612dda565b5060010190565b634e487b7160e01b600052601160045260246000fd5b634e487b7160e01b600052604160045260246000fdfea26469706673582212207ad4ece5fa1a7ed713da19e10d238f70cf12843d968b19ffd5f9ccf80a4cad2364736f6c63430008040033",
  "linkReferences": {},
  "deployedLinkReferences": {}
}