{
  "contracts/verify/IBoolaContractV.sol": {
    "IBoolaContractV": {
      "abi": [
        {
          "inputs": [
            {
              "internalType": "address",
              "name": "_token",
              "type": "address"
            }
          ],
          "stateMutability": "nonpayable",
          "type": "constructor"
        },
        {
          "inputs": [],
          "name": "CannotDeleteBinInEngagedMode",
          "type": "error"
        },
        {
          "inputs": [],
          "name": "EmptyBin",
          "type": "error"
        },
        {
          "inputs": [],
          "name": "InvalidBinID",
          "type": "error"
        },
        {
          "inputs": [],
          "name": "InvalidWasteId",
          "type": "error"
        },
        {
          "inputs": [],
          "name": "MaxWasteTransportExceeded",
          "type": "error"
        },
        {
          "inputs": [],
          "name": "NothingToWithdraw",
          "type": "error"
        },
        {
          "inputs": [],
          "name": "UserAlreadyExist",
          "type": "error"
        },
        {
          "inputs": [],
          "name": "UserAlreadyNotExist",
          "type": "error"
        },
        {
          "anonymous": false,
          "inputs": [
            {
              "indexed": true,
              "internalType": "address",
              "name": "previousOwner",
              "type": "address"
            },
            {
              "indexed": true,
              "internalType": "address",
              "name": "newOwner",
              "type": "address"
            }
          ],
          "name": "OwnershipTransferred",
          "type": "event"
        },
        {
          "inputs": [],
          "name": "addNewBin",
          "outputs": [],
          "stateMutability": "payable",
          "type": "function"
        },
        {
          "inputs": [],
          "name": "binCounter",
          "outputs": [
            {
              "internalType": "uint256",
              "name": "",
              "type": "uint256"
            }
          ],
          "stateMutability": "view",
          "type": "function"
        },
        {
          "inputs": [
            {
              "internalType": "uint256",
              "name": "",
              "type": "uint256"
            }
          ],
          "name": "bins",
          "outputs": [
            {
              "internalType": "address",
              "name": "owner",
              "type": "address"
            }
          ],
          "stateMutability": "view",
          "type": "function"
        },
        {
          "inputs": [
            {
              "internalType": "address",
              "name": "who",
              "type": "address"
            },
            {
              "internalType": "uint8",
              "name": "category",
              "type": "uint8"
            }
          ],
          "name": "blacklistUser",
          "outputs": [],
          "stateMutability": "nonpayable",
          "type": "function"
        },
        {
          "inputs": [
            {
              "internalType": "uint256",
              "name": "volume",
              "type": "uint256"
            }
          ],
          "name": "buyRecycled",
          "outputs": [],
          "stateMutability": "payable",
          "type": "function"
        },
        {
          "inputs": [
            {
              "internalType": "uint256",
              "name": "binId",
              "type": "uint256"
            },
            {
              "internalType": "uint256[]",
              "name": "wasteIds",
              "type": "uint256[]"
            }
          ],
          "name": "collectMultipleWaste",
          "outputs": [],
          "stateMutability": "nonpayable",
          "type": "function"
        },
        {
          "inputs": [
            {
              "internalType": "uint256",
              "name": "binId",
              "type": "uint256"
            },
            {
              "internalType": "uint256",
              "name": "wasteId",
              "type": "uint256"
            }
          ],
          "name": "collectWaste",
          "outputs": [],
          "stateMutability": "nonpayable",
          "type": "function"
        },
        {
          "inputs": [],
          "name": "collectorReward",
          "outputs": [
            {
              "internalType": "uint256",
              "name": "",
              "type": "uint256"
            }
          ],
          "stateMutability": "view",
          "type": "function"
        },
        {
          "inputs": [
            {
              "internalType": "enum Common.Share",
              "name": "",
              "type": "uint8"
            }
          ],
          "name": "formula",
          "outputs": [
            {
              "internalType": "uint8",
              "name": "",
              "type": "uint8"
            }
          ],
          "stateMutability": "view",
          "type": "function"
        },
        {
          "inputs": [
            {
              "internalType": "uint8",
              "name": "_category",
              "type": "uint8"
            }
          ],
          "name": "garbages",
          "outputs": [
            {
              "components": [
                {
                  "internalType": "bytes32",
                  "name": "value",
                  "type": "bytes32"
                },
                {
                  "internalType": "address",
                  "name": "collector",
                  "type": "address"
                },
                {
                  "internalType": "address",
                  "name": "generator",
                  "type": "address"
                },
                {
                  "internalType": "address",
                  "name": "recycler",
                  "type": "address"
                },
                {
                  "internalType": "enum Common.State",
                  "name": "state",
                  "type": "uint8"
                }
              ],
              "internalType": "struct Common.WasteData[]",
              "name": "",
              "type": "tuple[]"
            }
          ],
          "stateMutability": "view",
          "type": "function"
        },
        {
          "inputs": [
            {
              "internalType": "string[]",
              "name": "data",
              "type": "string[]"
            }
          ],
          "name": "generateMultipleWaste",
          "outputs": [],
          "stateMutability": "nonpayable",
          "type": "function"
        },
        {
          "inputs": [
            {
              "internalType": "string",
              "name": "_data",
              "type": "string"
            }
          ],
          "name": "generateWaste",
          "outputs": [],
          "stateMutability": "nonpayable",
          "type": "function"
        },
        {
          "inputs": [],
          "name": "newSignUpReward",
          "outputs": [
            {
              "internalType": "uint256",
              "name": "",
              "type": "uint256"
            }
          ],
          "stateMutability": "view",
          "type": "function"
        },
        {
          "inputs": [],
          "name": "owner",
          "outputs": [
            {
              "internalType": "address",
              "name": "",
              "type": "address"
            }
          ],
          "stateMutability": "view",
          "type": "function"
        },
        {
          "inputs": [],
          "name": "price",
          "outputs": [
            {
              "internalType": "uint256",
              "name": "",
              "type": "uint256"
            }
          ],
          "stateMutability": "view",
          "type": "function"
        },
        {
          "inputs": [
            {
              "internalType": "uint256",
              "name": "binId",
              "type": "uint256"
            },
            {
              "internalType": "uint256[]",
              "name": "wasteIds",
              "type": "uint256[]"
            }
          ],
          "name": "recycleMultiple",
          "outputs": [],
          "stateMutability": "nonpayable",
          "type": "function"
        },
        {
          "inputs": [
            {
              "internalType": "uint256",
              "name": "binId",
              "type": "uint256"
            }
          ],
          "name": "removeBin",
          "outputs": [],
          "stateMutability": "nonpayable",
          "type": "function"
        },
        {
          "inputs": [],
          "name": "renounceOwnership",
          "outputs": [],
          "stateMutability": "nonpayable",
          "type": "function"
        },
        {
          "inputs": [
            {
              "internalType": "uint256",
              "name": "newReward",
              "type": "uint256"
            }
          ],
          "name": "setCollectorUpReward",
          "outputs": [],
          "stateMutability": "nonpayable",
          "type": "function"
        },
        {
          "inputs": [
            {
              "internalType": "uint8",
              "name": "category",
              "type": "uint8"
            },
            {
              "internalType": "uint256",
              "name": "newFee",
              "type": "uint256"
            }
          ],
          "name": "setFee",
          "outputs": [],
          "stateMutability": "nonpayable",
          "type": "function"
        },
        {
          "inputs": [
            {
              "internalType": "uint256",
              "name": "newPrice",
              "type": "uint256"
            }
          ],
          "name": "setPrice",
          "outputs": [],
          "stateMutability": "nonpayable",
          "type": "function"
        },
        {
          "inputs": [
            {
              "internalType": "uint256",
              "name": "newReward",
              "type": "uint256"
            }
          ],
          "name": "setSignUpReward",
          "outputs": [],
          "stateMutability": "nonpayable",
          "type": "function"
        },
        {
          "inputs": [],
          "name": "signUpAsWasteCollector",
          "outputs": [],
          "stateMutability": "nonpayable",
          "type": "function"
        },
        {
          "inputs": [
            {
              "internalType": "enum Common.Category",
              "name": "",
              "type": "uint8"
            }
          ],
          "name": "signUpFees",
          "outputs": [
            {
              "internalType": "uint256",
              "name": "",
              "type": "uint256"
            }
          ],
          "stateMutability": "view",
          "type": "function"
        },
        {
          "inputs": [],
          "name": "token",
          "outputs": [
            {
              "internalType": "address",
              "name": "",
              "type": "address"
            }
          ],
          "stateMutability": "view",
          "type": "function"
        },
        {
          "inputs": [],
          "name": "totalWasteGenerated",
          "outputs": [
            {
              "internalType": "uint256",
              "name": "",
              "type": "uint256"
            }
          ],
          "stateMutability": "view",
          "type": "function"
        },
        {
          "inputs": [
            {
              "internalType": "address",
              "name": "newOwner",
              "type": "address"
            }
          ],
          "name": "transferOwnership",
          "outputs": [],
          "stateMutability": "nonpayable",
          "type": "function"
        },
        {
          "inputs": [
            {
              "internalType": "address",
              "name": "who",
              "type": "address"
            },
            {
              "internalType": "uint8",
              "name": "category",
              "type": "uint8"
            }
          ],
          "name": "whitelistuser",
          "outputs": [],
          "stateMutability": "nonpayable",
          "type": "function"
        },
        {
          "inputs": [],
          "name": "withdraw",
          "outputs": [],
          "stateMutability": "nonpayable",
          "type": "function"
        }
      ],
      "devdoc": {
        "author": "Bobeu: https://github.com/bobeu A smart contract that will tokenize the disposal and collection of waste.  Users get a token when they dispose of their waste in a waste bin, collectors  get token for collecting waste and taking them to the waste recyclers  The process of tokenization happens when the waste drops in the waste bin. Every waste bin has a unique wallet ID which will receive the token at the end of evacuation. The owners of the waste bin will have a DAO.  Wallet  Token (iBoola token) which would be paired against either Avalanche, Celo or Polygon  New users get 10 $IBT after sign up  Community of waste bins will have a DAO  Waste generators get 10% collectors get 65 while the iBoola team gets 25%  Decimals: use standard 18 decimals  Mintable: not mintable Ownership privilege :  30% locked for 5 years, 20% for dev team 45% for  initial circulation,  5% for presale  PSEUDO ====== Parties: o Waste generators. o Collectors. o Recyclers. o When waste is disposed or evacuated, then reward collectors. o Each waste bin has a unique identifer and an owner. o On sign up, user gets 10 $IBT Token. o Waste collectors own a DAO. o Waste bin owners own a DAO. o Reward sharing formula Note - It is configurable. The owner account is able to  set each of these fields. - Waste generators 10%. - Collectors 65%. - Team 25%.",
        "kind": "dev",
        "methods": {
          "addNewBin()": {
            "details": "Adds new bin."
          },
          "blacklistUser(address,uint8)": {
            "details": "Blacklist user Note Admin privilege. cat should reference the Category enum."
          },
          "collectWaste(uint256,uint256)": {
            "details": "Collect waste for disposal.  Note: Caller must be an approved waste collector. must supply the following:",
            "params": {
              "binId": "- Location of bin to deposit collected waste. ie bin index",
              "wasteId": "- Identifier for waste collected."
            }
          },
          "garbages(uint8)": {
            "details": "Returns list of wastes under each 'State' i.e Generated waste data, Collected waste data, ...rest"
          },
          "generateMultipleWaste(string[])": {
            "details": "Generates multiple waste data"
          },
          "generateWaste(string)": {
            "details": "Generates new waste. "
          },
          "owner()": {
            "details": "Returns the address of the current owner."
          },
          "removeBin(uint256)": {
            "details": "Removes bin at binId."
          },
          "renounceOwnership()": {
            "details": "Leaves the contract without owner. It will not be possible to call `onlyOwner` functions anymore. Can only be called by the current owner. NOTE: Renouncing ownership will leave the contract without an owner, thereby removing any functionality that is only available to the owner."
          },
          "setCollectorUpReward(uint256)": {
            "details": "Sets new sign up reward. Note With access modifier"
          },
          "setFee(uint8,uint256)": {
            "details": "Set new fee"
          },
          "setPrice(uint256)": {
            "details": "Sets new price for recycled waste."
          },
          "setSignUpReward(uint256)": {
            "details": "Sets new sign up reward. Note With access modifier"
          },
          "transferOwnership(address)": {
            "details": "Transfers ownership of the contract to a new account (`newOwner`). Can only be called by the current owner."
          },
          "whitelistuser(address,uint8)": {
            "details": "Whitelist user Note Admin privilege. cat should reference the Category enum."
          }
        },
        "stateVariables": {
          "_garbages": {
            "details": "Mapping of Generated and Recycled Waste State -> binId (binCounter) -> WasteData Keys type:  o State o uint256 value: array of struct(s) "
          },
          "binCounter": {
            "details": "Total bin registered to date"
          },
          "bins": {
            "details": "Array of bins  { Contain bins which contain collected wastes which contains wastedata}"
          },
          "collectorReward": {
            "details": "Collector reward"
          },
          "newSignUpReward": {
            "details": "New sign up reward"
          },
          "price": {
            "details": "Price of recycled waste"
          },
          "profiles": {
            "details": "Mapping of Waste State -> user -> profile Keys type:  o State o address value: struct "
          },
          "signUpFees": {
            "details": "Sign up fees for different category."
          },
          "token": {
            "details": "iBoola Token"
          },
          "totalWasteGenerated": {
            "details": "Total waste generated to date"
          }
        },
        "title": "Main",
        "version": 1
      },
      "evm": {
        "bytecode": {
          "linkReferences": {},
          "object": "60806040523480156200001157600080fd5b506040516200308b3803806200308b83398101604081905262000034916200020f565b6200003f33620001bf565b600280546001600160a01b0319166001600160a01b038316179055678ac7230489e80000600190815560036000908152600a6020527fa856840544dc26124927add067d799967eac11be13e14d82cc281ea46fa39759906200009e3390565b6001600160a01b031681526020808201929092526040016000908120600201805493151560ff199485161790558080526008918290527f5eff886ea0ce6ca488a3d6e336d6c0f75f46d19b42c06ce5ee98e42c96d256c78054909316604117909255600a91600160028111156200012557634e487b7160e01b600052602160045260246000fd5b815260200190815260200160002060006101000a81548160ff021916908360ff1602179055506019600860006002808111156200017257634e487b7160e01b600052602160045260246000fd5b60028111156200019257634e487b7160e01b600052602160045260246000fd5b815260200190815260200160002060006101000a81548160ff021916908360ff160217905550506200023f565b600080546001600160a01b038381166001600160a01b0319831681178455604051919092169283917f8be0079c531659141344cd1fd0a4f28419497f9722a3daafe3b4186f6b6457e09190a35050565b60006020828403121562000221578081fd5b81516001600160a01b038116811462000238578182fd5b9392505050565b612e3c806200024f6000396000f3fe6080604052600436106101c15760003560e01c806393051d95116100f7578063c437a2f011610095578063f2fde38b11610064578063f2fde38b146104e9578063f940450614610509578063fc0c546a1461051f578063ffc2105c1461053f57600080fd5b8063c437a2f01461048e578063e47c294d146104a1578063ea77351f146104c1578063f2d03e15146104c957600080fd5b8063a741c0df116100d1578063a741c0df146103df578063b75882801461040c578063c2f0c2791461042c578063c3864cce1461046e57600080fd5b806393051d9514610389578063955ef11a146103a9578063a035b1fe146103c957600080fd5b8063715018a611610164578063885c7b381161013e578063885c7b38146102f35780638c6aa3f51461032b5780638da5cb5b1461034b57806391b7f5ed1461036957600080fd5b8063715018a6146102a957806372938a14146102be57806384b038df146102de57600080fd5b8063235eb9f5116101a0578063235eb9f51461023e57806331b59ed7146102545780633ccfd60b1461027457806341311bc31461028957600080fd5b806295db2d146101c65780630bdd7063146102065780631f2a4a3f14610228575b600080fd5b3480156101d257600080fd5b506101f36101e1366004612a19565b600b6020526000908152604090205481565b6040519081526020015b60405180910390f35b34801561021257600080fd5b50610226610221366004612ac2565b610555565b005b34801561023457600080fd5b506101f360055481565b34801561024a57600080fd5b506101f360045481565b34801561026057600080fd5b5061022661026f366004612911565b61063b565b34801561028057600080fd5b5061022661069c565b34801561029557600080fd5b506102266102a4366004612ac2565b6107e3565b3480156102b557600080fd5b506102266108b7565b3480156102ca57600080fd5b506102266102d9366004612a92565b6108cb565b3480156102ea57600080fd5b506102266108d8565b3480156102ff57600080fd5b5061031361030e366004612a92565b610a42565b6040516001600160a01b0390911681526020016101fd565b34801561033757600080fd5b50610226610346366004612b9c565b610a74565b34801561035757600080fd5b506000546001600160a01b0316610313565b34801561037557600080fd5b50610226610384366004612a92565b610b1a565b34801561039557600080fd5b506102266103a4366004612a92565b610b27565b3480156103b557600080fd5b506102266103c4366004612943565b610be2565b3480156103d557600080fd5b506101f360065481565b3480156103eb57600080fd5b506103ff6103fa366004612b82565b610cbb565b6040516101fd9190612be7565b34801561041857600080fd5b50610226610427366004612a57565b610e5f565b34801561043857600080fd5b5061045c610447366004612a38565b60086020526000908152604090205460ff1681565b60405160ff90911681526020016101fd565b34801561047a57600080fd5b50610226610489366004612b61565b610f39565b61022661049c366004612a92565b6111a1565b3480156104ad57600080fd5b506102266104bc366004612911565b6115f1565b610226611648565b3480156104d557600080fd5b506102266104e4366004612a92565b611697565b3480156104f557600080fd5b506102266105043660046128f0565b6116a4565b34801561051557600080fd5b506101f360015481565b34801561052b57600080fd5b50600254610313906001600160a01b031681565b34801561054b57600080fd5b506101f360035481565b8061055e61171a565b602001518051600090603290156105b0578160ff16835111801561058657508060ff16835111155b6105ab5760405162461bcd60e51b81526004016105a290612cde565b60405180910390fd5b6105e3565b8160ff1684511180156105c757508060ff16845111155b6105e35760405162461bcd60e51b81526004016105a290612cde565b60005b8551811015610632576106208787838151811061061357634e487b7160e01b600052603260045260246000fd5b602002602001015161177a565b8061062a81612dbf565b9150506105e6565b50505050505050565b610643611b25565b8060048160ff16106106675760405162461bcd60e51b81526004016105a290612cb4565b610697600a8460018560ff16600481111561069257634e487b7160e01b600052602160045260246000fd5b611b7f565b505050565b60025460408051636eb1769f60e11b815230600482015233602482015290516000926001600160a01b03169163dd62ed3e916044808301926020929190829003018186803b1580156106ed57600080fd5b505afa158015610701573d6000803e3d6000fd5b505050506040513d601f19601f820116820180604052508101906107259190612aaa565b90508061074557604051630686827b60e51b815260040160405180910390fd5b6002546001600160a01b03166323b872dd30336040516001600160e01b031960e085901b1681526001600160a01b0392831660048201529116602482015260448101849052606401602060405180830381600087803b1580156107a757600080fd5b505af11580156107bb573d6000803e3d6000fd5b505050506040513d601f19601f820116820180604052508101906107df91906129f9565b5050565b806107ec61171a565b60200151805160009060329015610835578160ff16835111801561081457508060ff16835111155b6108305760405162461bcd60e51b81526004016105a290612cde565b610868565b8160ff16845111801561084c57508060ff16845111155b6108685760405162461bcd60e51b81526004016105a290612cde565b60005b8551811015610632576108a58787838151811061089857634e487b7160e01b600052603260045260246000fd5b6020026020010151610f39565b806108af81612dbf565b91505061086b565b6108bf611b25565b6108c96000611cd7565b565b6108d3611b25565b600455565b3360009081527f13da86008ba1c6922daee3e07db95305ef49ebced9f5467a0b8613fcc6b343e36020526040902060020154610100900460ff16156109515760405162461bcd60e51b815260206004820152600f60248201526e0416c7265616479207369676e20757608c1b60448201526064016105a2565b3360009081527f13da86008ba1c6922daee3e07db95305ef49ebced9f5467a0b8613fcc6b343e360205260408120805463ffffffff19164263ffffffff161781556001810191909155600201805461010061ffff199091161790556002546001600160a01b031663095ea7b3336001546040516001600160e01b031960e085901b1681526001600160a01b0390921660048301526024820152604401602060405180830381600087803b158015610a0757600080fd5b505af1158015610a1b573d6000803e3d6000fd5b505050506040513d601f19601f82011682018060405250810190610a3f91906129f9565b50565b60078181548110610a5257600080fd5b60009182526020909120600160029092020101546001600160a01b0316905081565b610a7c611b25565b60048260ff1610610a9f5760405162461bcd60e51b81526004016105a290612cb4565b80600b60008460ff166004811115610ac757634e487b7160e01b600052602160045260246000fd5b6004811115610ae657634e487b7160e01b600052602160045260246000fd5b6004811115610b0557634e487b7160e01b600052602160045260246000fd5b81526020810191909152604001600020555050565b610b22611b25565b600655565b600333610b348282611d27565b610b515760405163aa6318d360e01b815260040160405180910390fd5b6000610b5c84611da1565b9050610b706000546001600160a01b031690565b6001600160a01b0316336001600160a01b031614610bd157336001600160a01b03821614610bd15760405162461bcd60e51b815260206004820152600e60248201526d139bdd08105d5d1a1bdc9a5e995960921b60448201526064016105a2565b610bdc600785611de7565b50505050565b610bea61171a565b518151829060009060329015610c32578160ff168351118015610c1157508060ff16835111155b610c2d5760405162461bcd60e51b81526004016105a290612cde565b610c65565b8160ff168451118015610c4957508060ff16845111155b610c655760405162461bcd60e51b81526004016105a290612cde565b60005b8551811015610cb357610ca1868281518110610c9457634e487b7160e01b600052603260045260246000fd5b6020026020010151610e5f565b80610cab81612dbf565b915050610c68565b505050505050565b606060038260ff1610610d045760405162461bcd60e51b815260206004820152601160248201527024b73b30b634b21039b2b632b1b2ba37b960791b60448201526064016105a2565b600960008360ff166002811115610d2b57634e487b7160e01b600052602160045260246000fd5b6002811115610d4a57634e487b7160e01b600052602160045260246000fd5b6002811115610d6957634e487b7160e01b600052602160045260246000fd5b8152602001908152602001600020805480602002602001604051908101604052809291908181526020016000905b82821015610e545760008481526020908190206040805160a081018252600486029092018054835260018101546001600160a01b03908116948401949094526002808201548516928401929092526003810154938416606084015291926080840191600160a01b90910460ff1690811115610e2257634e487b7160e01b600052602160045260246000fd5b6002811115610e4157634e487b7160e01b600052602160045260246000fd5b8152505081526020019060010190610d97565b505050509050919050565b600133610e6c8282611d27565b610e895760405163aa6318d360e01b815260040160405180910390fd5b6003805460009182610e9a83612dbf565b90915550506003546040805160a08101909152610f329060099080610ec3898660c08401612bc5565b60405160208183030381529060405280519060200120815260200160006001600160a01b03168152602001610ef53390565b6001600160a01b0316815260006020820152604001856002811115610f2a57634e487b7160e01b600052602160045260246000fd5b905284612028565b5050505050565b600033610f468282611d27565b610f635760405163aa6318d360e01b815260040160405180910390fd5b838360006040518060400160405280601581526020017424b73b30b634b2103bb0b9ba32903837b4b73a32b960591b8152506007805490508410610fba57604051638320418360e01b815260040160405180910390fd5b6001826002811115610fdc57634e487b7160e01b600052602160045260246000fd5b1415611033576007848154811061100357634e487b7160e01b600052603260045260246000fd5b6000918252602090912060029091020154831061103357604051637e849ffb60e01b815260040160405180910390fd5b81600281111561105357634e487b7160e01b600052602160045260246000fd5b6007858154811061107457634e487b7160e01b600052603260045260246000fd5b906000526020600020906002020160000184815481106110a457634e487b7160e01b600052603260045260246000fd5b906000526020600020906004020160030160149054906101000a900460ff1660028111156110e257634e487b7160e01b600052602160045260246000fd5b1481906111025760405162461bcd60e51b81526004016105a29190612c81565b503360009081527f13da86008ba1c6922daee3e07db95305ef49ebced9f5467a0b8613fcc6b343e36020526040902060020154610100900460ff166111775760405162461bcd60e51b815260206004820152600b60248201526a139bdd08185b1b1bddd95960aa1b60448201526064016105a2565b600061118660098960006121a2565b905061119660078a8360016123a2565b505050505050505050565b6002600081815260096020527f6cde3cea4b3a3fb2488b2808bae7556f4a405e50f65e1794383bc026131b13c3549182158015906111df5750838310155b61121b5760405162461bcd60e51b815260206004820152600d60248201526c4e6f7420617661696c61626c6560981b60448201526064016105a2565b60005b848110156115a55760006009600084600281111561124c57634e487b7160e01b600052602160045260246000fd5b600281111561126b57634e487b7160e01b600052602160045260246000fd5b8152602001908152602001600020828154811061129857634e487b7160e01b600052603260045260246000fd5b60009182526020918290206040805160a0810182526004939093029091018054835260018101546001600160a01b03908116948401949094526002808201548516928401929092526003810154938416606084015291926080840191600160a01b90910460ff169081111561131d57634e487b7160e01b600052602160045260246000fd5b600281111561133c57634e487b7160e01b600052602160045260246000fd5b90525060608101519091506001600160a01b031615611592578361135f81612dbf565b60046000908152600a6020529095507fe1eb2b2161a492c07c5a334e48012567cba93ec021043f53c1955516a3c5a8419150336001600160a01b03166001600160a01b031681526020019081526020016000206003016040518060a001604052808360000151815260200183602001516001600160a01b0316815260200183604001516001600160a01b0316815260200183606001516001600160a01b031681526020018360800151600281111561142757634e487b7160e01b600052602160045260246000fd5b9052815460018082018455600093845260209384902083516004909302019182559282015192810180546001600160a01b03199081166001600160a01b0395861617909155604083015160028084018054841692871692909217909155606084015160038401805493841691909616908117865560808501519495939493926001600160a81b0319161790600160a01b9084908111156114d757634e487b7160e01b600052602160045260246000fd5b021790555050506009600084600281111561150257634e487b7160e01b600052602160045260246000fd5b600281111561152157634e487b7160e01b600052602160045260246000fd5b8152602001908152602001600020828154811061154e57634e487b7160e01b600052603260045260246000fd5b6000918252602082206004909102019081556001810180546001600160a01b0319908116909155600282018054909116905560030180546001600160a81b03191690555b508061159d81612dbf565b91505061121e565b506000826006546115b69190612d74565b905080341015610f325760405162461bcd60e51b81526020600482015260066024820152654956616c756560d01b60448201526064016105a2565b6115f9611b25565b8060048160ff161061161d5760405162461bcd60e51b81526004016105a290612cb4565b610697600a8460008560ff16600481111561069257634e487b7160e01b600052602160045260246000fd5b6003336116558282611d27565b6116725760405163aa6318d360e01b815260040160405180910390fd5b61167d6007336124fe565b506005805490600061168e83612dbf565b91905055505050565b61169f611b25565b600155565b6116ac611b25565b6001600160a01b0381166117115760405162461bcd60e51b815260206004820152602660248201527f4f776e61626c653a206e6577206f776e657220697320746865207a65726f206160448201526564647265737360d01b60648201526084016105a2565b610a3f81611cd7565b604080518082018252606080825260208083019190915282516000808252918101828152818501909452919281611761565b606081526020019060019003908161174c5790505b5060408051808201909152928352602083015250919050565b6002336117878282611d27565b6117a45760405163aa6318d360e01b815260040160405180910390fd5b838360016040518060400160405280601581526020017424b73b30b634b2103bb0b9ba32903837b4b73a32b960591b81525060078054905084106117fb57604051638320418360e01b815260040160405180910390fd5b600182600281111561181d57634e487b7160e01b600052602160045260246000fd5b1415611874576007848154811061184457634e487b7160e01b600052603260045260246000fd5b6000918252602090912060029091020154831061187457604051637e849ffb60e01b815260040160405180910390fd5b81600281111561189457634e487b7160e01b600052602160045260246000fd5b600785815481106118b557634e487b7160e01b600052603260045260246000fd5b906000526020600020906002020160000184815481106118e557634e487b7160e01b600052603260045260246000fd5b906000526020600020906004020160030160149054906101000a900460ff16600281111561192357634e487b7160e01b600052602160045260246000fd5b1481906119435760405162461bcd60e51b81526004016105a29190612c81565b50600061195260078a8a612569565b90506119616009826002612028565b600454600080806119736008856126e2565b600254602089015160405163095ea7b360e01b81526001600160a01b03918216600482015260248101869052949750929550909350169063095ea7b390604401602060405180830381600087803b1580156119cd57600080fd5b505af11580156119e1573d6000803e3d6000fd5b505050506040513d601f19601f82011682018060405250810190611a0591906129f9565b50600254604086810151905163095ea7b360e01b81526001600160a01b0391821660048201526024810185905291169063095ea7b390604401602060405180830381600087803b158015611a5857600080fd5b505af1158015611a6c573d6000803e3d6000fd5b505050506040513d601f19601f82011682018060405250810190611a9091906129f9565b5060025460405163095ea7b360e01b8152306004820152602481018390526001600160a01b039091169063095ea7b390604401602060405180830381600087803b158015611add57600080fd5b505af1158015611af1573d6000803e3d6000fd5b505050506040513d601f19601f82011682018060405250810190611b1591906129f9565b5050505050505050505050505050565b6000546001600160a01b031633146108c95760405162461bcd60e51b815260206004820181905260248201527f4f776e61626c653a2063616c6c6572206973206e6f7420746865206f776e657260448201526064016105a2565b6000611b8c858584612777565b90508215611c34578015611bb357604051633ee20b6960e01b815260040160405180910390fd5b6001856000846004811115611bd857634e487b7160e01b600052602160045260246000fd5b6004811115611bf757634e487b7160e01b600052602160045260246000fd5b8152602080820192909252604090810160009081206001600160a01b03891682529092529020600201805460ff1916911515919091179055610f32565b80611c525760405163aa6318d360e01b815260040160405180910390fd5b6000856000846004811115611c7757634e487b7160e01b600052602160045260246000fd5b6004811115611c9657634e487b7160e01b600052602160045260246000fd5b8152602080820192909252604090810160009081206001600160a01b03891682529092529020600201805491151560ff199092169190911790555050505050565b600080546001600160a01b038381166001600160a01b0319831681178455604051919092169283917f8be0079c531659141344cd1fd0a4f28419497f9722a3daafe3b4186f6b6457e09190a35050565b6000600a6000846004811115611d4d57634e487b7160e01b600052602160045260246000fd5b6004811115611d6c57634e487b7160e01b600052602160045260246000fd5b8152602080820192909252604090810160009081206001600160a01b038616825290925290206002015460ff16905092915050565b600060078281548110611dc457634e487b7160e01b600052603260045260246000fd5b60009182526020909120600160029092020101546001600160a01b031692915050565b815460009081908484828110611e0d57634e487b7160e01b600052603260045260246000fd5b906000526020600020906002020160405180604001604052908160008201805480602002602001604051908101604052809291908181526020016000905b82821015611f085760008481526020908190206040805160a081018252600486029092018054835260018101546001600160a01b03908116948401949094526002808201548516928401929092526003810154938416606084015291926080840191600160a01b90910460ff1690811115611ed657634e487b7160e01b600052602160045260246000fd5b6002811115611ef557634e487b7160e01b600052602160045260246000fd5b8152505081526020019060010190611e4b565b50505090825250600191909101546001600160a01b03166020909101528051519193509150611f4a5760405163347682f560e01b815260040160405180910390fd5b60005b82811015611fd55760028251805183908110611f7957634e487b7160e01b600052603260045260246000fd5b6020026020010151608001516002811115611fa457634e487b7160e01b600052602160045260246000fd5b1015611fc357604051633f00676b60e01b815260040160405180910390fd5b80611fcd81612dbf565b915050611f4d565b50838381548110611ff657634e487b7160e01b600052603260045260246000fd5b6000918252602082206002909102019061201082826127f1565b5060010180546001600160a01b031916905550505050565b82600082600281111561204b57634e487b7160e01b600052602160045260246000fd5b600281111561206a57634e487b7160e01b600052602160045260246000fd5b81526020019081526020016000206040518060a001604052808460000151815260200184602001516001600160a01b0316815260200184604001516001600160a01b0316815260200184606001516001600160a01b031681526020018360028111156120e657634e487b7160e01b600052602160045260246000fd5b9052815460018082018455600093845260209384902083516004909302019182559282015192810180546001600160a01b03199081166001600160a01b0395861617909155604083015160028084018054841692871692909217909155606084015160038401805493841691909616908117865560808501519495939493926001600160a81b0319161790600160a01b90849081111561219657634e487b7160e01b600052602160045260246000fd5b02179055505050505050565b6121d16040805160a0810182526000808252602082018190529181018290526060810182905290608082015290565b8360008360028111156121f457634e487b7160e01b600052602160045260246000fd5b600281111561221357634e487b7160e01b600052602160045260246000fd5b8152602001908152602001600020838154811061224057634e487b7160e01b600052603260045260246000fd5b60009182526020918290206040805160a0810182526004939093029091018054835260018101546001600160a01b03908116948401949094526002808201548516928401929092526003810154938416606084015291926080840191600160a01b90910460ff16908111156122c557634e487b7160e01b600052602160045260246000fd5b60028111156122e457634e487b7160e01b600052602160045260246000fd5b905250905083600083600281111561230c57634e487b7160e01b600052602160045260246000fd5b600281111561232b57634e487b7160e01b600052602160045260246000fd5b8152602001908152602001600020838154811061235857634e487b7160e01b600052603260045260246000fd5b6000918252602082206004909102019081556001810180546001600160a01b0319908116909155600282018054909116905560030180546001600160a81b03191690559392505050565b8383815481106123c257634e487b7160e01b600052603260045260246000fd5b90600052602060002090600202016000016040518060a001604052808460000151815260200184602001516001600160a01b0316815260200184604001516001600160a01b0316815260200184606001516001600160a01b0316815260200183600281111561244157634e487b7160e01b600052602160045260246000fd5b9052815460018082018455600093845260209384902083516004909302019182559282015192810180546001600160a01b03199081166001600160a01b0395861617909155604083015160028084018054841692871692909217909155606084015160038401805493841691909616908117865560808501519495939493926001600160a81b0319161790600160a01b9084908111156124f157634e487b7160e01b600052602160045260246000fd5b0217905550505050505050565b8154600181018084556000849052829084908390811061252e57634e487b7160e01b600052603260045260246000fd5b906000526020600020906002020160010160006101000a8154816001600160a01b0302191690836001600160a01b0316021790555092915050565b6125986040805160a0810182526000808252602082018190529181018290526060810182905290608082015290565b8383815481106125b857634e487b7160e01b600052603260045260246000fd5b906000526020600020906002020160000182815481106125e857634e487b7160e01b600052603260045260246000fd5b60009182526020918290206040805160a0810182526004939093029091018054835260018101546001600160a01b03908116948401949094526002808201548516928401929092526003810154938416606084015291926080840191600160a01b90910460ff169081111561266d57634e487b7160e01b600052602160045260246000fd5b600281111561268c57634e487b7160e01b600052602160045260246000fd5b8152505090508383815481106126b257634e487b7160e01b600052603260045260246000fd5b9060005260206000209060020201600001828154811061235857634e487b7160e01b600052603260045260246000fd5b6000808052602083905260408120548190819060649061270690869060ff16612d74565b6127109190612d54565b600160009081526020879052604090205490935060649061273590869060ff16612d74565b61273f9190612d54565b600260009081526020879052604090205490925060649061276490869060ff16612d74565b61276e9190612d54565b90509250925092565b600083600083600481111561279c57634e487b7160e01b600052602160045260246000fd5b60048111156127bb57634e487b7160e01b600052602160045260246000fd5b8152602080820192909252604090810160009081206001600160a01b038716825290925290206002015460ff1690509392505050565b5080546000825560040290600052602060002090810190610a3f91905b8082111561285457600081556001810180546001600160a01b031990811690915560028201805490911690556003810180546001600160a81b031916905560040161280e565b5090565b80356001600160a01b038116811461286f57600080fd5b919050565b600082601f830112612884578081fd5b813567ffffffffffffffff81111561289e5761289e612df0565b6128b1601f8201601f1916602001612cff565b8181528460208386010111156128c5578283fd5b816020850160208301379081016020019190915292915050565b803560ff8116811461286f57600080fd5b600060208284031215612901578081fd5b61290a82612858565b9392505050565b60008060408385031215612923578081fd5b61292c83612858565b915061293a602084016128df565b90509250929050565b60006020808385031215612955578182fd5b823567ffffffffffffffff8082111561296c578384fd5b818501915085601f83011261297f578384fd5b813561299261298d82612d30565b612cff565b80828252858201915085850189878560051b88010111156129b1578788fd5b875b848110156129ea578135868111156129c957898afd5b6129d78c8a838b0101612874565b85525092870192908701906001016129b3565b50909998505050505050505050565b600060208284031215612a0a578081fd5b8151801515811461290a578182fd5b600060208284031215612a2a578081fd5b81356005811061290a578182fd5b600060208284031215612a49578081fd5b81356003811061290a578182fd5b600060208284031215612a68578081fd5b813567ffffffffffffffff811115612a7e578182fd5b612a8a84828501612874565b949350505050565b600060208284031215612aa3578081fd5b5035919050565b600060208284031215612abb578081fd5b5051919050565b60008060408385031215612ad4578182fd5b8235915060208084013567ffffffffffffffff811115612af2578283fd5b8401601f81018613612b02578283fd5b8035612b1061298d82612d30565b80828252848201915084840189868560051b8701011115612b2f578687fd5b8694505b83851015612b51578035835260019490940193918501918501612b33565b5080955050505050509250929050565b60008060408385031215612b73578182fd5b50508035926020909101359150565b600060208284031215612b93578081fd5b61290a826128df565b60008060408385031215612bae578182fd5b612bb7836128df565b946020939093013593505050565b60008351612bd7818460208801612d93565b9190910191825250602001919050565b602080825282518282018190526000919060409081850190868401855b82811015612c7457815180518552868101516001600160a01b039081168887015286820151811687870152606080830151909116908601526080908101519060038210612c5f57634e487b7160e01b89526021600452602489fd5b85015260a09093019290850190600101612c04565b5091979650505050505050565b6020815260008251806020840152612ca0816040850160208701612d93565b601f01601f19169190910160400192915050565b60208082526010908201526f496e76616c69642063617465676f727960801b604082015260600190565b6020808252600790820152661a5b9d985b1a5960ca1b604082015260600190565b604051601f8201601f1916810167ffffffffffffffff81118282101715612d2857612d28612df0565b604052919050565b600067ffffffffffffffff821115612d4a57612d4a612df0565b5060051b60200190565b600082612d6f57634e487b7160e01b81526012600452602481fd5b500490565b6000816000190483118215151615612d8e57612d8e612dda565b500290565b60005b83811015612dae578181015183820152602001612d96565b83811115610bdc5750506000910152565b6000600019821415612dd357612dd3612dda565b5060010190565b634e487b7160e01b600052601160045260246000fd5b634e487b7160e01b600052604160045260246000fdfea26469706673582212207ad4ece5fa1a7ed713da19e10d238f70cf12843d968b19ffd5f9ccf80a4cad2364736f6c63430008040033",
          "opcodes": "PUSH1 0x80 PUSH1 0x40 MSTORE CALLVALUE DUP1 ISZERO PUSH3 0x11 JUMPI PUSH1 0x0 DUP1 REVERT JUMPDEST POP PUSH1 0x40 MLOAD PUSH3 0x308B CODESIZE SUB DUP1 PUSH3 0x308B DUP4 CODECOPY DUP2 ADD PUSH1 0x40 DUP2 SWAP1 MSTORE PUSH3 0x34 SWAP2 PUSH3 0x20F JUMP JUMPDEST PUSH3 0x3F CALLER PUSH3 0x1BF JUMP JUMPDEST PUSH1 0x2 DUP1 SLOAD PUSH1 0x1 PUSH1 0x1 PUSH1 0xA0 SHL SUB NOT AND PUSH1 0x1 PUSH1 0x1 PUSH1 0xA0 SHL SUB DUP4 AND OR SWAP1 SSTORE PUSH8 0x8AC7230489E80000 PUSH1 0x1 SWAP1 DUP2 SSTORE PUSH1 0x3 PUSH1 0x0 SWAP1 DUP2 MSTORE PUSH1 0xA PUSH1 0x20 MSTORE PUSH32 0xA856840544DC26124927ADD067D799967EAC11BE13E14D82CC281EA46FA39759 SWAP1 PUSH3 0x9E CALLER SWAP1 JUMP JUMPDEST PUSH1 0x1 PUSH1 0x1 PUSH1 0xA0 SHL SUB AND DUP2 MSTORE PUSH1 0x20 DUP1 DUP3 ADD SWAP3 SWAP1 SWAP3 MSTORE PUSH1 0x40 ADD PUSH1 0x0 SWAP1 DUP2 KECCAK256 PUSH1 0x2 ADD DUP1 SLOAD SWAP4 ISZERO ISZERO PUSH1 0xFF NOT SWAP5 DUP6 AND OR SWAP1 SSTORE DUP1 DUP1 MSTORE PUSH1 0x8 SWAP2 DUP3 SWAP1 MSTORE PUSH32 0x5EFF886EA0CE6CA488A3D6E336D6C0F75F46D19B42C06CE5EE98E42C96D256C7 DUP1 SLOAD SWAP1 SWAP4 AND PUSH1 0x41 OR SWAP1 SWAP3 SSTORE PUSH1 0xA SWAP2 PUSH1 0x1 PUSH1 0x2 DUP2 GT ISZERO PUSH3 0x125 JUMPI PUSH4 0x4E487B71 PUSH1 0xE0 SHL PUSH1 0x0 MSTORE PUSH1 0x21 PUSH1 0x4 MSTORE PUSH1 0x24 PUSH1 0x0 REVERT JUMPDEST DUP2 MSTORE PUSH1 0x20 ADD SWAP1 DUP2 MSTORE PUSH1 0x20 ADD PUSH1 0x0 KECCAK256 PUSH1 0x0 PUSH2 0x100 EXP DUP2 SLOAD DUP2 PUSH1 0xFF MUL NOT AND SWAP1 DUP4 PUSH1 0xFF AND MUL OR SWAP1 SSTORE POP PUSH1 0x19 PUSH1 0x8 PUSH1 0x0 PUSH1 0x2 DUP1 DUP2 GT ISZERO PUSH3 0x172 JUMPI PUSH4 0x4E487B71 PUSH1 0xE0 SHL PUSH1 0x0 MSTORE PUSH1 0x21 PUSH1 0x4 MSTORE PUSH1 0x24 PUSH1 0x0 REVERT JUMPDEST PUSH1 0x2 DUP2 GT ISZERO PUSH3 0x192 JUMPI PUSH4 0x4E487B71 PUSH1 0xE0 SHL PUSH1 0x0 MSTORE PUSH1 0x21 PUSH1 0x4 MSTORE PUSH1 0x24 PUSH1 0x0 REVERT JUMPDEST DUP2 MSTORE PUSH1 0x20 ADD SWAP1 DUP2 MSTORE PUSH1 0x20 ADD PUSH1 0x0 KECCAK256 PUSH1 0x0 PUSH2 0x100 EXP DUP2 SLOAD DUP2 PUSH1 0xFF MUL NOT AND SWAP1 DUP4 PUSH1 0xFF AND MUL OR SWAP1 SSTORE POP POP PUSH3 0x23F JUMP JUMPDEST PUSH1 0x0 DUP1 SLOAD PUSH1 0x1 PUSH1 0x1 PUSH1 0xA0 SHL SUB DUP4 DUP2 AND PUSH1 0x1 PUSH1 0x1 PUSH1 0xA0 SHL SUB NOT DUP4 AND DUP2 OR DUP5 SSTORE PUSH1 0x40 MLOAD SWAP2 SWAP1 SWAP3 AND SWAP3 DUP4 SWAP2 PUSH32 0x8BE0079C531659141344CD1FD0A4F28419497F9722A3DAAFE3B4186F6B6457E0 SWAP2 SWAP1 LOG3 POP POP JUMP JUMPDEST PUSH1 0x0 PUSH1 0x20 DUP3 DUP5 SUB SLT ISZERO PUSH3 0x221 JUMPI DUP1 DUP2 REVERT JUMPDEST DUP2 MLOAD PUSH1 0x1 PUSH1 0x1 PUSH1 0xA0 SHL SUB DUP2 AND DUP2 EQ PUSH3 0x238 JUMPI DUP2 DUP3 REVERT JUMPDEST SWAP4 SWAP3 POP POP POP JUMP JUMPDEST PUSH2 0x2E3C DUP1 PUSH3 0x24F PUSH1 0x0 CODECOPY PUSH1 0x0 RETURN INVALID PUSH1 0x80 PUSH1 0x40 MSTORE PUSH1 0x4 CALLDATASIZE LT PUSH2 0x1C1 JUMPI PUSH1 0x0 CALLDATALOAD PUSH1 0xE0 SHR DUP1 PUSH4 0x93051D95 GT PUSH2 0xF7 JUMPI DUP1 PUSH4 0xC437A2F0 GT PUSH2 0x95 JUMPI DUP1 PUSH4 0xF2FDE38B GT PUSH2 0x64 JUMPI DUP1 PUSH4 0xF2FDE38B EQ PUSH2 0x4E9 JUMPI DUP1 PUSH4 0xF9404506 EQ PUSH2 0x509 JUMPI DUP1 PUSH4 0xFC0C546A EQ PUSH2 0x51F JUMPI DUP1 PUSH4 0xFFC2105C EQ PUSH2 0x53F JUMPI PUSH1 0x0 DUP1 REVERT JUMPDEST DUP1 PUSH4 0xC437A2F0 EQ PUSH2 0x48E JUMPI DUP1 PUSH4 0xE47C294D EQ PUSH2 0x4A1 JUMPI DUP1 PUSH4 0xEA77351F EQ PUSH2 0x4C1 JUMPI DUP1 PUSH4 0xF2D03E15 EQ PUSH2 0x4C9 JUMPI PUSH1 0x0 DUP1 REVERT JUMPDEST DUP1 PUSH4 0xA741C0DF GT PUSH2 0xD1 JUMPI DUP1 PUSH4 0xA741C0DF EQ PUSH2 0x3DF JUMPI DUP1 PUSH4 0xB7588280 EQ PUSH2 0x40C JUMPI DUP1 PUSH4 0xC2F0C279 EQ PUSH2 0x42C JUMPI DUP1 PUSH4 0xC3864CCE EQ PUSH2 0x46E JUMPI PUSH1 0x0 DUP1 REVERT JUMPDEST DUP1 PUSH4 0x93051D95 EQ PUSH2 0x389 JUMPI DUP1 PUSH4 0x955EF11A EQ PUSH2 0x3A9 JUMPI DUP1 PUSH4 0xA035B1FE EQ PUSH2 0x3C9 JUMPI PUSH1 0x0 DUP1 REVERT JUMPDEST DUP1 PUSH4 0x715018A6 GT PUSH2 0x164 JUMPI DUP1 PUSH4 0x885C7B38 GT PUSH2 0x13E JUMPI DUP1 PUSH4 0x885C7B38 EQ PUSH2 0x2F3 JUMPI DUP1 PUSH4 0x8C6AA3F5 EQ PUSH2 0x32B JUMPI DUP1 PUSH4 0x8DA5CB5B EQ PUSH2 0x34B JUMPI DUP1 PUSH4 0x91B7F5ED EQ PUSH2 0x369 JUMPI PUSH1 0x0 DUP1 REVERT JUMPDEST DUP1 PUSH4 0x715018A6 EQ PUSH2 0x2A9 JUMPI DUP1 PUSH4 0x72938A14 EQ PUSH2 0x2BE JUMPI DUP1 PUSH4 0x84B038DF EQ PUSH2 0x2DE JUMPI PUSH1 0x0 DUP1 REVERT JUMPDEST DUP1 PUSH4 0x235EB9F5 GT PUSH2 0x1A0 JUMPI DUP1 PUSH4 0x235EB9F5 EQ PUSH2 0x23E JUMPI DUP1 PUSH4 0x31B59ED7 EQ PUSH2 0x254 JUMPI DUP1 PUSH4 0x3CCFD60B EQ PUSH2 0x274 JUMPI DUP1 PUSH4 0x41311BC3 EQ PUSH2 0x289 JUMPI PUSH1 0x0 DUP1 REVERT JUMPDEST DUP1 PUSH3 0x95DB2D EQ PUSH2 0x1C6 JUMPI DUP1 PUSH4 0xBDD7063 EQ PUSH2 0x206 JUMPI DUP1 PUSH4 0x1F2A4A3F EQ PUSH2 0x228 JUMPI JUMPDEST PUSH1 0x0 DUP1 REVERT JUMPDEST CALLVALUE DUP1 ISZERO PUSH2 0x1D2 JUMPI PUSH1 0x0 DUP1 REVERT JUMPDEST POP PUSH2 0x1F3 PUSH2 0x1E1 CALLDATASIZE PUSH1 0x4 PUSH2 0x2A19 JUMP JUMPDEST PUSH1 0xB PUSH1 0x20 MSTORE PUSH1 0x0 SWAP1 DUP2 MSTORE PUSH1 0x40 SWAP1 KECCAK256 SLOAD DUP2 JUMP JUMPDEST PUSH1 0x40 MLOAD SWAP1 DUP2 MSTORE PUSH1 0x20 ADD JUMPDEST PUSH1 0x40 MLOAD DUP1 SWAP2 SUB SWAP1 RETURN JUMPDEST CALLVALUE DUP1 ISZERO PUSH2 0x212 JUMPI PUSH1 0x0 DUP1 REVERT JUMPDEST POP PUSH2 0x226 PUSH2 0x221 CALLDATASIZE PUSH1 0x4 PUSH2 0x2AC2 JUMP JUMPDEST PUSH2 0x555 JUMP JUMPDEST STOP JUMPDEST CALLVALUE DUP1 ISZERO PUSH2 0x234 JUMPI PUSH1 0x0 DUP1 REVERT JUMPDEST POP PUSH2 0x1F3 PUSH1 0x5 SLOAD DUP2 JUMP JUMPDEST CALLVALUE DUP1 ISZERO PUSH2 0x24A JUMPI PUSH1 0x0 DUP1 REVERT JUMPDEST POP PUSH2 0x1F3 PUSH1 0x4 SLOAD DUP2 JUMP JUMPDEST CALLVALUE DUP1 ISZERO PUSH2 0x260 JUMPI PUSH1 0x0 DUP1 REVERT JUMPDEST POP PUSH2 0x226 PUSH2 0x26F CALLDATASIZE PUSH1 0x4 PUSH2 0x2911 JUMP JUMPDEST PUSH2 0x63B JUMP JUMPDEST CALLVALUE DUP1 ISZERO PUSH2 0x280 JUMPI PUSH1 0x0 DUP1 REVERT JUMPDEST POP PUSH2 0x226 PUSH2 0x69C JUMP JUMPDEST CALLVALUE DUP1 ISZERO PUSH2 0x295 JUMPI PUSH1 0x0 DUP1 REVERT JUMPDEST POP PUSH2 0x226 PUSH2 0x2A4 CALLDATASIZE PUSH1 0x4 PUSH2 0x2AC2 JUMP JUMPDEST PUSH2 0x7E3 JUMP JUMPDEST CALLVALUE DUP1 ISZERO PUSH2 0x2B5 JUMPI PUSH1 0x0 DUP1 REVERT JUMPDEST POP PUSH2 0x226 PUSH2 0x8B7 JUMP JUMPDEST CALLVALUE DUP1 ISZERO PUSH2 0x2CA JUMPI PUSH1 0x0 DUP1 REVERT JUMPDEST POP PUSH2 0x226 PUSH2 0x2D9 CALLDATASIZE PUSH1 0x4 PUSH2 0x2A92 JUMP JUMPDEST PUSH2 0x8CB JUMP JUMPDEST CALLVALUE DUP1 ISZERO PUSH2 0x2EA JUMPI PUSH1 0x0 DUP1 REVERT JUMPDEST POP PUSH2 0x226 PUSH2 0x8D8 JUMP JUMPDEST CALLVALUE DUP1 ISZERO PUSH2 0x2FF JUMPI PUSH1 0x0 DUP1 REVERT JUMPDEST POP PUSH2 0x313 PUSH2 0x30E CALLDATASIZE PUSH1 0x4 PUSH2 0x2A92 JUMP JUMPDEST PUSH2 0xA42 JUMP JUMPDEST PUSH1 0x40 MLOAD PUSH1 0x1 PUSH1 0x1 PUSH1 0xA0 SHL SUB SWAP1 SWAP2 AND DUP2 MSTORE PUSH1 0x20 ADD PUSH2 0x1FD JUMP JUMPDEST CALLVALUE DUP1 ISZERO PUSH2 0x337 JUMPI PUSH1 0x0 DUP1 REVERT JUMPDEST POP PUSH2 0x226 PUSH2 0x346 CALLDATASIZE PUSH1 0x4 PUSH2 0x2B9C JUMP JUMPDEST PUSH2 0xA74 JUMP JUMPDEST CALLVALUE DUP1 ISZERO PUSH2 0x357 JUMPI PUSH1 0x0 DUP1 REVERT JUMPDEST POP PUSH1 0x0 SLOAD PUSH1 0x1 PUSH1 0x1 PUSH1 0xA0 SHL SUB AND PUSH2 0x313 JUMP JUMPDEST CALLVALUE DUP1 ISZERO PUSH2 0x375 JUMPI PUSH1 0x0 DUP1 REVERT JUMPDEST POP PUSH2 0x226 PUSH2 0x384 CALLDATASIZE PUSH1 0x4 PUSH2 0x2A92 JUMP JUMPDEST PUSH2 0xB1A JUMP JUMPDEST CALLVALUE DUP1 ISZERO PUSH2 0x395 JUMPI PUSH1 0x0 DUP1 REVERT JUMPDEST POP PUSH2 0x226 PUSH2 0x3A4 CALLDATASIZE PUSH1 0x4 PUSH2 0x2A92 JUMP JUMPDEST PUSH2 0xB27 JUMP JUMPDEST CALLVALUE DUP1 ISZERO PUSH2 0x3B5 JUMPI PUSH1 0x0 DUP1 REVERT JUMPDEST POP PUSH2 0x226 PUSH2 0x3C4 CALLDATASIZE PUSH1 0x4 PUSH2 0x2943 JUMP JUMPDEST PUSH2 0xBE2 JUMP JUMPDEST CALLVALUE DUP1 ISZERO PUSH2 0x3D5 JUMPI PUSH1 0x0 DUP1 REVERT JUMPDEST POP PUSH2 0x1F3 PUSH1 0x6 SLOAD DUP2 JUMP JUMPDEST CALLVALUE DUP1 ISZERO PUSH2 0x3EB JUMPI PUSH1 0x0 DUP1 REVERT JUMPDEST POP PUSH2 0x3FF PUSH2 0x3FA CALLDATASIZE PUSH1 0x4 PUSH2 0x2B82 JUMP JUMPDEST PUSH2 0xCBB JUMP JUMPDEST PUSH1 0x40 MLOAD PUSH2 0x1FD SWAP2 SWAP1 PUSH2 0x2BE7 JUMP JUMPDEST CALLVALUE DUP1 ISZERO PUSH2 0x418 JUMPI PUSH1 0x0 DUP1 REVERT JUMPDEST POP PUSH2 0x226 PUSH2 0x427 CALLDATASIZE PUSH1 0x4 PUSH2 0x2A57 JUMP JUMPDEST PUSH2 0xE5F JUMP JUMPDEST CALLVALUE DUP1 ISZERO PUSH2 0x438 JUMPI PUSH1 0x0 DUP1 REVERT JUMPDEST POP PUSH2 0x45C PUSH2 0x447 CALLDATASIZE PUSH1 0x4 PUSH2 0x2A38 JUMP JUMPDEST PUSH1 0x8 PUSH1 0x20 MSTORE PUSH1 0x0 SWAP1 DUP2 MSTORE PUSH1 0x40 SWAP1 KECCAK256 SLOAD PUSH1 0xFF AND DUP2 JUMP JUMPDEST PUSH1 0x40 MLOAD PUSH1 0xFF SWAP1 SWAP2 AND DUP2 MSTORE PUSH1 0x20 ADD PUSH2 0x1FD JUMP JUMPDEST CALLVALUE DUP1 ISZERO PUSH2 0x47A JUMPI PUSH1 0x0 DUP1 REVERT JUMPDEST POP PUSH2 0x226 PUSH2 0x489 CALLDATASIZE PUSH1 0x4 PUSH2 0x2B61 JUMP JUMPDEST PUSH2 0xF39 JUMP JUMPDEST PUSH2 0x226 PUSH2 0x49C CALLDATASIZE PUSH1 0x4 PUSH2 0x2A92 JUMP JUMPDEST PUSH2 0x11A1 JUMP JUMPDEST CALLVALUE DUP1 ISZERO PUSH2 0x4AD JUMPI PUSH1 0x0 DUP1 REVERT JUMPDEST POP PUSH2 0x226 PUSH2 0x4BC CALLDATASIZE PUSH1 0x4 PUSH2 0x2911 JUMP JUMPDEST PUSH2 0x15F1 JUMP JUMPDEST PUSH2 0x226 PUSH2 0x1648 JUMP JUMPDEST CALLVALUE DUP1 ISZERO PUSH2 0x4D5 JUMPI PUSH1 0x0 DUP1 REVERT JUMPDEST POP PUSH2 0x226 PUSH2 0x4E4 CALLDATASIZE PUSH1 0x4 PUSH2 0x2A92 JUMP JUMPDEST PUSH2 0x1697 JUMP JUMPDEST CALLVALUE DUP1 ISZERO PUSH2 0x4F5 JUMPI PUSH1 0x0 DUP1 REVERT JUMPDEST POP PUSH2 0x226 PUSH2 0x504 CALLDATASIZE PUSH1 0x4 PUSH2 0x28F0 JUMP JUMPDEST PUSH2 0x16A4 JUMP JUMPDEST CALLVALUE DUP1 ISZERO PUSH2 0x515 JUMPI PUSH1 0x0 DUP1 REVERT JUMPDEST POP PUSH2 0x1F3 PUSH1 0x1 SLOAD DUP2 JUMP JUMPDEST CALLVALUE DUP1 ISZERO PUSH2 0x52B JUMPI PUSH1 0x0 DUP1 REVERT JUMPDEST POP PUSH1 0x2 SLOAD PUSH2 0x313 SWAP1 PUSH1 0x1 PUSH1 0x1 PUSH1 0xA0 SHL SUB AND DUP2 JUMP JUMPDEST CALLVALUE DUP1 ISZERO PUSH2 0x54B JUMPI PUSH1 0x0 DUP1 REVERT JUMPDEST POP PUSH2 0x1F3 PUSH1 0x3 SLOAD DUP2 JUMP JUMPDEST DUP1 PUSH2 0x55E PUSH2 0x171A JUMP JUMPDEST PUSH1 0x20 ADD MLOAD DUP1 MLOAD PUSH1 0x0 SWAP1 PUSH1 0x32 SWAP1 ISZERO PUSH2 0x5B0 JUMPI DUP2 PUSH1 0xFF AND DUP4 MLOAD GT DUP1 ISZERO PUSH2 0x586 JUMPI POP DUP1 PUSH1 0xFF AND DUP4 MLOAD GT ISZERO JUMPDEST PUSH2 0x5AB JUMPI PUSH1 0x40 MLOAD PUSH3 0x461BCD PUSH1 0xE5 SHL DUP2 MSTORE PUSH1 0x4 ADD PUSH2 0x5A2 SWAP1 PUSH2 0x2CDE JUMP JUMPDEST PUSH1 0x40 MLOAD DUP1 SWAP2 SUB SWAP1 REVERT JUMPDEST PUSH2 0x5E3 JUMP JUMPDEST DUP2 PUSH1 0xFF AND DUP5 MLOAD GT DUP1 ISZERO PUSH2 0x5C7 JUMPI POP DUP1 PUSH1 0xFF AND DUP5 MLOAD GT ISZERO JUMPDEST PUSH2 0x5E3 JUMPI PUSH1 0x40 MLOAD PUSH3 0x461BCD PUSH1 0xE5 SHL DUP2 MSTORE PUSH1 0x4 ADD PUSH2 0x5A2 SWAP1 PUSH2 0x2CDE JUMP JUMPDEST PUSH1 0x0 JUMPDEST DUP6 MLOAD DUP2 LT ISZERO PUSH2 0x632 JUMPI PUSH2 0x620 DUP8 DUP8 DUP4 DUP2 MLOAD DUP2 LT PUSH2 0x613 JUMPI PUSH4 0x4E487B71 PUSH1 0xE0 SHL PUSH1 0x0 MSTORE PUSH1 0x32 PUSH1 0x4 MSTORE PUSH1 0x24 PUSH1 0x0 REVERT JUMPDEST PUSH1 0x20 MUL PUSH1 0x20 ADD ADD MLOAD PUSH2 0x177A JUMP JUMPDEST DUP1 PUSH2 0x62A DUP2 PUSH2 0x2DBF JUMP JUMPDEST SWAP2 POP POP PUSH2 0x5E6 JUMP JUMPDEST POP POP POP POP POP POP POP JUMP JUMPDEST PUSH2 0x643 PUSH2 0x1B25 JUMP JUMPDEST DUP1 PUSH1 0x4 DUP2 PUSH1 0xFF AND LT PUSH2 0x667 JUMPI PUSH1 0x40 MLOAD PUSH3 0x461BCD PUSH1 0xE5 SHL DUP2 MSTORE PUSH1 0x4 ADD PUSH2 0x5A2 SWAP1 PUSH2 0x2CB4 JUMP JUMPDEST PUSH2 0x697 PUSH1 0xA DUP5 PUSH1 0x1 DUP6 PUSH1 0xFF AND PUSH1 0x4 DUP2 GT ISZERO PUSH2 0x692 JUMPI PUSH4 0x4E487B71 PUSH1 0xE0 SHL PUSH1 0x0 MSTORE PUSH1 0x21 PUSH1 0x4 MSTORE PUSH1 0x24 PUSH1 0x0 REVERT JUMPDEST PUSH2 0x1B7F JUMP JUMPDEST POP POP POP JUMP JUMPDEST PUSH1 0x2 SLOAD PUSH1 0x40 DUP1 MLOAD PUSH4 0x6EB1769F PUSH1 0xE1 SHL DUP2 MSTORE ADDRESS PUSH1 0x4 DUP3 ADD MSTORE CALLER PUSH1 0x24 DUP3 ADD MSTORE SWAP1 MLOAD PUSH1 0x0 SWAP3 PUSH1 0x1 PUSH1 0x1 PUSH1 0xA0 SHL SUB AND SWAP2 PUSH4 0xDD62ED3E SWAP2 PUSH1 0x44 DUP1 DUP4 ADD SWAP3 PUSH1 0x20 SWAP3 SWAP2 SWAP1 DUP3 SWAP1 SUB ADD DUP2 DUP7 DUP1 EXTCODESIZE ISZERO DUP1 ISZERO PUSH2 0x6ED JUMPI PUSH1 0x0 DUP1 REVERT JUMPDEST POP GAS STATICCALL ISZERO DUP1 ISZERO PUSH2 0x701 JUMPI RETURNDATASIZE PUSH1 0x0 DUP1 RETURNDATACOPY RETURNDATASIZE PUSH1 0x0 REVERT JUMPDEST POP POP POP POP PUSH1 0x40 MLOAD RETURNDATASIZE PUSH1 0x1F NOT PUSH1 0x1F DUP3 ADD AND DUP3 ADD DUP1 PUSH1 0x40 MSTORE POP DUP2 ADD SWAP1 PUSH2 0x725 SWAP2 SWAP1 PUSH2 0x2AAA JUMP JUMPDEST SWAP1 POP DUP1 PUSH2 0x745 JUMPI PUSH1 0x40 MLOAD PUSH4 0x686827B PUSH1 0xE5 SHL DUP2 MSTORE PUSH1 0x4 ADD PUSH1 0x40 MLOAD DUP1 SWAP2 SUB SWAP1 REVERT JUMPDEST PUSH1 0x2 SLOAD PUSH1 0x1 PUSH1 0x1 PUSH1 0xA0 SHL SUB AND PUSH4 0x23B872DD ADDRESS CALLER PUSH1 0x40 MLOAD PUSH1 0x1 PUSH1 0x1 PUSH1 0xE0 SHL SUB NOT PUSH1 0xE0 DUP6 SWAP1 SHL AND DUP2 MSTORE PUSH1 0x1 PUSH1 0x1 PUSH1 0xA0 SHL SUB SWAP3 DUP4 AND PUSH1 0x4 DUP3 ADD MSTORE SWAP2 AND PUSH1 0x24 DUP3 ADD MSTORE PUSH1 0x44 DUP2 ADD DUP5 SWAP1 MSTORE PUSH1 0x64 ADD PUSH1 0x20 PUSH1 0x40 MLOAD DUP1 DUP4 SUB DUP2 PUSH1 0x0 DUP8 DUP1 EXTCODESIZE ISZERO DUP1 ISZERO PUSH2 0x7A7 JUMPI PUSH1 0x0 DUP1 REVERT JUMPDEST POP GAS CALL ISZERO DUP1 ISZERO PUSH2 0x7BB JUMPI RETURNDATASIZE PUSH1 0x0 DUP1 RETURNDATACOPY RETURNDATASIZE PUSH1 0x0 REVERT JUMPDEST POP POP POP POP PUSH1 0x40 MLOAD RETURNDATASIZE PUSH1 0x1F NOT PUSH1 0x1F DUP3 ADD AND DUP3 ADD DUP1 PUSH1 0x40 MSTORE POP DUP2 ADD SWAP1 PUSH2 0x7DF SWAP2 SWAP1 PUSH2 0x29F9 JUMP JUMPDEST POP POP JUMP JUMPDEST DUP1 PUSH2 0x7EC PUSH2 0x171A JUMP JUMPDEST PUSH1 0x20 ADD MLOAD DUP1 MLOAD PUSH1 0x0 SWAP1 PUSH1 0x32 SWAP1 ISZERO PUSH2 0x835 JUMPI DUP2 PUSH1 0xFF AND DUP4 MLOAD GT DUP1 ISZERO PUSH2 0x814 JUMPI POP DUP1 PUSH1 0xFF AND DUP4 MLOAD GT ISZERO JUMPDEST PUSH2 0x830 JUMPI PUSH1 0x40 MLOAD PUSH3 0x461BCD PUSH1 0xE5 SHL DUP2 MSTORE PUSH1 0x4 ADD PUSH2 0x5A2 SWAP1 PUSH2 0x2CDE JUMP JUMPDEST PUSH2 0x868 JUMP JUMPDEST DUP2 PUSH1 0xFF AND DUP5 MLOAD GT DUP1 ISZERO PUSH2 0x84C JUMPI POP DUP1 PUSH1 0xFF AND DUP5 MLOAD GT ISZERO JUMPDEST PUSH2 0x868 JUMPI PUSH1 0x40 MLOAD PUSH3 0x461BCD PUSH1 0xE5 SHL DUP2 MSTORE PUSH1 0x4 ADD PUSH2 0x5A2 SWAP1 PUSH2 0x2CDE JUMP JUMPDEST PUSH1 0x0 JUMPDEST DUP6 MLOAD DUP2 LT ISZERO PUSH2 0x632 JUMPI PUSH2 0x8A5 DUP8 DUP8 DUP4 DUP2 MLOAD DUP2 LT PUSH2 0x898 JUMPI PUSH4 0x4E487B71 PUSH1 0xE0 SHL PUSH1 0x0 MSTORE PUSH1 0x32 PUSH1 0x4 MSTORE PUSH1 0x24 PUSH1 0x0 REVERT JUMPDEST PUSH1 0x20 MUL PUSH1 0x20 ADD ADD MLOAD PUSH2 0xF39 JUMP JUMPDEST DUP1 PUSH2 0x8AF DUP2 PUSH2 0x2DBF JUMP JUMPDEST SWAP2 POP POP PUSH2 0x86B JUMP JUMPDEST PUSH2 0x8BF PUSH2 0x1B25 JUMP JUMPDEST PUSH2 0x8C9 PUSH1 0x0 PUSH2 0x1CD7 JUMP JUMPDEST JUMP JUMPDEST PUSH2 0x8D3 PUSH2 0x1B25 JUMP JUMPDEST PUSH1 0x4 SSTORE JUMP JUMPDEST CALLER PUSH1 0x0 SWAP1 DUP2 MSTORE PUSH32 0x13DA86008BA1C6922DAEE3E07DB95305EF49EBCED9F5467A0B8613FCC6B343E3 PUSH1 0x20 MSTORE PUSH1 0x40 SWAP1 KECCAK256 PUSH1 0x2 ADD SLOAD PUSH2 0x100 SWAP1 DIV PUSH1 0xFF AND ISZERO PUSH2 0x951 JUMPI PUSH1 0x40 MLOAD PUSH3 0x461BCD PUSH1 0xE5 SHL DUP2 MSTORE PUSH1 0x20 PUSH1 0x4 DUP3 ADD MSTORE PUSH1 0xF PUSH1 0x24 DUP3 ADD MSTORE PUSH15 0x416C7265616479207369676E20757 PUSH1 0x8C SHL PUSH1 0x44 DUP3 ADD MSTORE PUSH1 0x64 ADD PUSH2 0x5A2 JUMP JUMPDEST CALLER PUSH1 0x0 SWAP1 DUP2 MSTORE PUSH32 0x13DA86008BA1C6922DAEE3E07DB95305EF49EBCED9F5467A0B8613FCC6B343E3 PUSH1 0x20 MSTORE PUSH1 0x40 DUP2 KECCAK256 DUP1 SLOAD PUSH4 0xFFFFFFFF NOT AND TIMESTAMP PUSH4 0xFFFFFFFF AND OR DUP2 SSTORE PUSH1 0x1 DUP2 ADD SWAP2 SWAP1 SWAP2 SSTORE PUSH1 0x2 ADD DUP1 SLOAD PUSH2 0x100 PUSH2 0xFFFF NOT SWAP1 SWAP2 AND OR SWAP1 SSTORE PUSH1 0x2 SLOAD PUSH1 0x1 PUSH1 0x1 PUSH1 0xA0 SHL SUB AND PUSH4 0x95EA7B3 CALLER PUSH1 0x1 SLOAD PUSH1 0x40 MLOAD PUSH1 0x1 PUSH1 0x1 PUSH1 0xE0 SHL SUB NOT PUSH1 0xE0 DUP6 SWAP1 SHL AND DUP2 MSTORE PUSH1 0x1 PUSH1 0x1 PUSH1 0xA0 SHL SUB SWAP1 SWAP3 AND PUSH1 0x4 DUP4 ADD MSTORE PUSH1 0x24 DUP3 ADD MSTORE PUSH1 0x44 ADD PUSH1 0x20 PUSH1 0x40 MLOAD DUP1 DUP4 SUB DUP2 PUSH1 0x0 DUP8 DUP1 EXTCODESIZE ISZERO DUP1 ISZERO PUSH2 0xA07 JUMPI PUSH1 0x0 DUP1 REVERT JUMPDEST POP GAS CALL ISZERO DUP1 ISZERO PUSH2 0xA1B JUMPI RETURNDATASIZE PUSH1 0x0 DUP1 RETURNDATACOPY RETURNDATASIZE PUSH1 0x0 REVERT JUMPDEST POP POP POP POP PUSH1 0x40 MLOAD RETURNDATASIZE PUSH1 0x1F NOT PUSH1 0x1F DUP3 ADD AND DUP3 ADD DUP1 PUSH1 0x40 MSTORE POP DUP2 ADD SWAP1 PUSH2 0xA3F SWAP2 SWAP1 PUSH2 0x29F9 JUMP JUMPDEST POP JUMP JUMPDEST PUSH1 0x7 DUP2 DUP2 SLOAD DUP2 LT PUSH2 0xA52 JUMPI PUSH1 0x0 DUP1 REVERT JUMPDEST PUSH1 0x0 SWAP2 DUP3 MSTORE PUSH1 0x20 SWAP1 SWAP2 KECCAK256 PUSH1 0x1 PUSH1 0x2 SWAP1 SWAP3 MUL ADD ADD SLOAD PUSH1 0x1 PUSH1 0x1 PUSH1 0xA0 SHL SUB AND SWAP1 POP DUP2 JUMP JUMPDEST PUSH2 0xA7C PUSH2 0x1B25 JUMP JUMPDEST PUSH1 0x4 DUP3 PUSH1 0xFF AND LT PUSH2 0xA9F JUMPI PUSH1 0x40 MLOAD PUSH3 0x461BCD PUSH1 0xE5 SHL DUP2 MSTORE PUSH1 0x4 ADD PUSH2 0x5A2 SWAP1 PUSH2 0x2CB4 JUMP JUMPDEST DUP1 PUSH1 0xB PUSH1 0x0 DUP5 PUSH1 0xFF AND PUSH1 0x4 DUP2 GT ISZERO PUSH2 0xAC7 JUMPI PUSH4 0x4E487B71 PUSH1 0xE0 SHL PUSH1 0x0 MSTORE PUSH1 0x21 PUSH1 0x4 MSTORE PUSH1 0x24 PUSH1 0x0 REVERT JUMPDEST PUSH1 0x4 DUP2 GT ISZERO PUSH2 0xAE6 JUMPI PUSH4 0x4E487B71 PUSH1 0xE0 SHL PUSH1 0x0 MSTORE PUSH1 0x21 PUSH1 0x4 MSTORE PUSH1 0x24 PUSH1 0x0 REVERT JUMPDEST PUSH1 0x4 DUP2 GT ISZERO PUSH2 0xB05 JUMPI PUSH4 0x4E487B71 PUSH1 0xE0 SHL PUSH1 0x0 MSTORE PUSH1 0x21 PUSH1 0x4 MSTORE PUSH1 0x24 PUSH1 0x0 REVERT JUMPDEST DUP2 MSTORE PUSH1 0x20 DUP2 ADD SWAP2 SWAP1 SWAP2 MSTORE PUSH1 0x40 ADD PUSH1 0x0 KECCAK256 SSTORE POP POP JUMP JUMPDEST PUSH2 0xB22 PUSH2 0x1B25 JUMP JUMPDEST PUSH1 0x6 SSTORE JUMP JUMPDEST PUSH1 0x3 CALLER PUSH2 0xB34 DUP3 DUP3 PUSH2 0x1D27 JUMP JUMPDEST PUSH2 0xB51 JUMPI PUSH1 0x40 MLOAD PUSH4 0xAA6318D3 PUSH1 0xE0 SHL DUP2 MSTORE PUSH1 0x4 ADD PUSH1 0x40 MLOAD DUP1 SWAP2 SUB SWAP1 REVERT JUMPDEST PUSH1 0x0 PUSH2 0xB5C DUP5 PUSH2 0x1DA1 JUMP JUMPDEST SWAP1 POP PUSH2 0xB70 PUSH1 0x0 SLOAD PUSH1 0x1 PUSH1 0x1 PUSH1 0xA0 SHL SUB AND SWAP1 JUMP JUMPDEST PUSH1 0x1 PUSH1 0x1 PUSH1 0xA0 SHL SUB AND CALLER PUSH1 0x1 PUSH1 0x1 PUSH1 0xA0 SHL SUB AND EQ PUSH2 0xBD1 JUMPI CALLER PUSH1 0x1 PUSH1 0x1 PUSH1 0xA0 SHL SUB DUP3 AND EQ PUSH2 0xBD1 JUMPI PUSH1 0x40 MLOAD PUSH3 0x461BCD PUSH1 0xE5 SHL DUP2 MSTORE PUSH1 0x20 PUSH1 0x4 DUP3 ADD MSTORE PUSH1 0xE PUSH1 0x24 DUP3 ADD MSTORE PUSH14 0x139BDD08105D5D1A1BDC9A5E9959 PUSH1 0x92 SHL PUSH1 0x44 DUP3 ADD MSTORE PUSH1 0x64 ADD PUSH2 0x5A2 JUMP JUMPDEST PUSH2 0xBDC PUSH1 0x7 DUP6 PUSH2 0x1DE7 JUMP JUMPDEST POP POP POP POP JUMP JUMPDEST PUSH2 0xBEA PUSH2 0x171A JUMP JUMPDEST MLOAD DUP2 MLOAD DUP3 SWAP1 PUSH1 0x0 SWAP1 PUSH1 0x32 SWAP1 ISZERO PUSH2 0xC32 JUMPI DUP2 PUSH1 0xFF AND DUP4 MLOAD GT DUP1 ISZERO PUSH2 0xC11 JUMPI POP DUP1 PUSH1 0xFF AND DUP4 MLOAD GT ISZERO JUMPDEST PUSH2 0xC2D JUMPI PUSH1 0x40 MLOAD PUSH3 0x461BCD PUSH1 0xE5 SHL DUP2 MSTORE PUSH1 0x4 ADD PUSH2 0x5A2 SWAP1 PUSH2 0x2CDE JUMP JUMPDEST PUSH2 0xC65 JUMP JUMPDEST DUP2 PUSH1 0xFF AND DUP5 MLOAD GT DUP1 ISZERO PUSH2 0xC49 JUMPI POP DUP1 PUSH1 0xFF AND DUP5 MLOAD GT ISZERO JUMPDEST PUSH2 0xC65 JUMPI PUSH1 0x40 MLOAD PUSH3 0x461BCD PUSH1 0xE5 SHL DUP2 MSTORE PUSH1 0x4 ADD PUSH2 0x5A2 SWAP1 PUSH2 0x2CDE JUMP JUMPDEST PUSH1 0x0 JUMPDEST DUP6 MLOAD DUP2 LT ISZERO PUSH2 0xCB3 JUMPI PUSH2 0xCA1 DUP7 DUP3 DUP2 MLOAD DUP2 LT PUSH2 0xC94 JUMPI PUSH4 0x4E487B71 PUSH1 0xE0 SHL PUSH1 0x0 MSTORE PUSH1 0x32 PUSH1 0x4 MSTORE PUSH1 0x24 PUSH1 0x0 REVERT JUMPDEST PUSH1 0x20 MUL PUSH1 0x20 ADD ADD MLOAD PUSH2 0xE5F JUMP JUMPDEST DUP1 PUSH2 0xCAB DUP2 PUSH2 0x2DBF JUMP JUMPDEST SWAP2 POP POP PUSH2 0xC68 JUMP JUMPDEST POP POP POP POP POP POP JUMP JUMPDEST PUSH1 0x60 PUSH1 0x3 DUP3 PUSH1 0xFF AND LT PUSH2 0xD04 JUMPI PUSH1 0x40 MLOAD PUSH3 0x461BCD PUSH1 0xE5 SHL DUP2 MSTORE PUSH1 0x20 PUSH1 0x4 DUP3 ADD MSTORE PUSH1 0x11 PUSH1 0x24 DUP3 ADD MSTORE PUSH17 0x24B73B30B634B21039B2B632B1B2BA37B9 PUSH1 0x79 SHL PUSH1 0x44 DUP3 ADD MSTORE PUSH1 0x64 ADD PUSH2 0x5A2 JUMP JUMPDEST PUSH1 0x9 PUSH1 0x0 DUP4 PUSH1 0xFF AND PUSH1 0x2 DUP2 GT ISZERO PUSH2 0xD2B JUMPI PUSH4 0x4E487B71 PUSH1 0xE0 SHL PUSH1 0x0 MSTORE PUSH1 0x21 PUSH1 0x4 MSTORE PUSH1 0x24 PUSH1 0x0 REVERT JUMPDEST PUSH1 0x2 DUP2 GT ISZERO PUSH2 0xD4A JUMPI PUSH4 0x4E487B71 PUSH1 0xE0 SHL PUSH1 0x0 MSTORE PUSH1 0x21 PUSH1 0x4 MSTORE PUSH1 0x24 PUSH1 0x0 REVERT JUMPDEST PUSH1 0x2 DUP2 GT ISZERO PUSH2 0xD69 JUMPI PUSH4 0x4E487B71 PUSH1 0xE0 SHL PUSH1 0x0 MSTORE PUSH1 0x21 PUSH1 0x4 MSTORE PUSH1 0x24 PUSH1 0x0 REVERT JUMPDEST DUP2 MSTORE PUSH1 0x20 ADD SWAP1 DUP2 MSTORE PUSH1 0x20 ADD PUSH1 0x0 KECCAK256 DUP1 SLOAD DUP1 PUSH1 0x20 MUL PUSH1 0x20 ADD PUSH1 0x40 MLOAD SWAP1 DUP2 ADD PUSH1 0x40 MSTORE DUP1 SWAP3 SWAP2 SWAP1 DUP2 DUP2 MSTORE PUSH1 0x20 ADD PUSH1 0x0 SWAP1 JUMPDEST DUP3 DUP3 LT ISZERO PUSH2 0xE54 JUMPI PUSH1 0x0 DUP5 DUP2 MSTORE PUSH1 0x20 SWAP1 DUP2 SWAP1 KECCAK256 PUSH1 0x40 DUP1 MLOAD PUSH1 0xA0 DUP2 ADD DUP3 MSTORE PUSH1 0x4 DUP7 MUL SWAP1 SWAP3 ADD DUP1 SLOAD DUP4 MSTORE PUSH1 0x1 DUP2 ADD SLOAD PUSH1 0x1 PUSH1 0x1 PUSH1 0xA0 SHL SUB SWAP1 DUP2 AND SWAP5 DUP5 ADD SWAP5 SWAP1 SWAP5 MSTORE PUSH1 0x2 DUP1 DUP3 ADD SLOAD DUP6 AND SWAP3 DUP5 ADD SWAP3 SWAP1 SWAP3 MSTORE PUSH1 0x3 DUP2 ADD SLOAD SWAP4 DUP5 AND PUSH1 0x60 DUP5 ADD MSTORE SWAP2 SWAP3 PUSH1 0x80 DUP5 ADD SWAP2 PUSH1 0x1 PUSH1 0xA0 SHL SWAP1 SWAP2 DIV PUSH1 0xFF AND SWAP1 DUP2 GT ISZERO PUSH2 0xE22 JUMPI PUSH4 0x4E487B71 PUSH1 0xE0 SHL PUSH1 0x0 MSTORE PUSH1 0x21 PUSH1 0x4 MSTORE PUSH1 0x24 PUSH1 0x0 REVERT JUMPDEST PUSH1 0x2 DUP2 GT ISZERO PUSH2 0xE41 JUMPI PUSH4 0x4E487B71 PUSH1 0xE0 SHL PUSH1 0x0 MSTORE PUSH1 0x21 PUSH1 0x4 MSTORE PUSH1 0x24 PUSH1 0x0 REVERT JUMPDEST DUP2 MSTORE POP POP DUP2 MSTORE PUSH1 0x20 ADD SWAP1 PUSH1 0x1 ADD SWAP1 PUSH2 0xD97 JUMP JUMPDEST POP POP POP POP SWAP1 POP SWAP2 SWAP1 POP JUMP JUMPDEST PUSH1 0x1 CALLER PUSH2 0xE6C DUP3 DUP3 PUSH2 0x1D27 JUMP JUMPDEST PUSH2 0xE89 JUMPI PUSH1 0x40 MLOAD PUSH4 0xAA6318D3 PUSH1 0xE0 SHL DUP2 MSTORE PUSH1 0x4 ADD PUSH1 0x40 MLOAD DUP1 SWAP2 SUB SWAP1 REVERT JUMPDEST PUSH1 0x3 DUP1 SLOAD PUSH1 0x0 SWAP2 DUP3 PUSH2 0xE9A DUP4 PUSH2 0x2DBF JUMP JUMPDEST SWAP1 SWAP2 SSTORE POP POP PUSH1 0x3 SLOAD PUSH1 0x40 DUP1 MLOAD PUSH1 0xA0 DUP2 ADD SWAP1 SWAP2 MSTORE PUSH2 0xF32 SWAP1 PUSH1 0x9 SWAP1 DUP1 PUSH2 0xEC3 DUP10 DUP7 PUSH1 0xC0 DUP5 ADD PUSH2 0x2BC5 JUMP JUMPDEST PUSH1 0x40 MLOAD PUSH1 0x20 DUP2 DUP4 SUB SUB DUP2 MSTORE SWAP1 PUSH1 0x40 MSTORE DUP1 MLOAD SWAP1 PUSH1 0x20 ADD KECCAK256 DUP2 MSTORE PUSH1 0x20 ADD PUSH1 0x0 PUSH1 0x1 PUSH1 0x1 PUSH1 0xA0 SHL SUB AND DUP2 MSTORE PUSH1 0x20 ADD PUSH2 0xEF5 CALLER SWAP1 JUMP JUMPDEST PUSH1 0x1 PUSH1 0x1 PUSH1 0xA0 SHL SUB AND DUP2 MSTORE PUSH1 0x0 PUSH1 0x20 DUP3 ADD MSTORE PUSH1 0x40 ADD DUP6 PUSH1 0x2 DUP2 GT ISZERO PUSH2 0xF2A JUMPI PUSH4 0x4E487B71 PUSH1 0xE0 SHL PUSH1 0x0 MSTORE PUSH1 0x21 PUSH1 0x4 MSTORE PUSH1 0x24 PUSH1 0x0 REVERT JUMPDEST SWAP1 MSTORE DUP5 PUSH2 0x2028 JUMP JUMPDEST POP POP POP POP POP JUMP JUMPDEST PUSH1 0x0 CALLER PUSH2 0xF46 DUP3 DUP3 PUSH2 0x1D27 JUMP JUMPDEST PUSH2 0xF63 JUMPI PUSH1 0x40 MLOAD PUSH4 0xAA6318D3 PUSH1 0xE0 SHL DUP2 MSTORE PUSH1 0x4 ADD PUSH1 0x40 MLOAD DUP1 SWAP2 SUB SWAP1 REVERT JUMPDEST DUP4 DUP4 PUSH1 0x0 PUSH1 0x40 MLOAD DUP1 PUSH1 0x40 ADD PUSH1 0x40 MSTORE DUP1 PUSH1 0x15 DUP2 MSTORE PUSH1 0x20 ADD PUSH21 0x24B73B30B634B2103BB0B9BA32903837B4B73A32B9 PUSH1 0x59 SHL DUP2 MSTORE POP PUSH1 0x7 DUP1 SLOAD SWAP1 POP DUP5 LT PUSH2 0xFBA JUMPI PUSH1 0x40 MLOAD PUSH4 0x83204183 PUSH1 0xE0 SHL DUP2 MSTORE PUSH1 0x4 ADD PUSH1 0x40 MLOAD DUP1 SWAP2 SUB SWAP1 REVERT JUMPDEST PUSH1 0x1 DUP3 PUSH1 0x2 DUP2 GT ISZERO PUSH2 0xFDC JUMPI PUSH4 0x4E487B71 PUSH1 0xE0 SHL PUSH1 0x0 MSTORE PUSH1 0x21 PUSH1 0x4 MSTORE PUSH1 0x24 PUSH1 0x0 REVERT JUMPDEST EQ ISZERO PUSH2 0x1033 JUMPI PUSH1 0x7 DUP5 DUP2 SLOAD DUP2 LT PUSH2 0x1003 JUMPI PUSH4 0x4E487B71 PUSH1 0xE0 SHL PUSH1 0x0 MSTORE PUSH1 0x32 PUSH1 0x4 MSTORE PUSH1 0x24 PUSH1 0x0 REVERT JUMPDEST PUSH1 0x0 SWAP2 DUP3 MSTORE PUSH1 0x20 SWAP1 SWAP2 KECCAK256 PUSH1 0x2 SWAP1 SWAP2 MUL ADD SLOAD DUP4 LT PUSH2 0x1033 JUMPI PUSH1 0x40 MLOAD PUSH4 0x7E849FFB PUSH1 0xE0 SHL DUP2 MSTORE PUSH1 0x4 ADD PUSH1 0x40 MLOAD DUP1 SWAP2 SUB SWAP1 REVERT JUMPDEST DUP2 PUSH1 0x2 DUP2 GT ISZERO PUSH2 0x1053 JUMPI PUSH4 0x4E487B71 PUSH1 0xE0 SHL PUSH1 0x0 MSTORE PUSH1 0x21 PUSH1 0x4 MSTORE PUSH1 0x24 PUSH1 0x0 REVERT JUMPDEST PUSH1 0x7 DUP6 DUP2 SLOAD DUP2 LT PUSH2 0x1074 JUMPI PUSH4 0x4E487B71 PUSH1 0xE0 SHL PUSH1 0x0 MSTORE PUSH1 0x32 PUSH1 0x4 MSTORE PUSH1 0x24 PUSH1 0x0 REVERT JUMPDEST SWAP1 PUSH1 0x0 MSTORE PUSH1 0x20 PUSH1 0x0 KECCAK256 SWAP1 PUSH1 0x2 MUL ADD PUSH1 0x0 ADD DUP5 DUP2 SLOAD DUP2 LT PUSH2 0x10A4 JUMPI PUSH4 0x4E487B71 PUSH1 0xE0 SHL PUSH1 0x0 MSTORE PUSH1 0x32 PUSH1 0x4 MSTORE PUSH1 0x24 PUSH1 0x0 REVERT JUMPDEST SWAP1 PUSH1 0x0 MSTORE PUSH1 0x20 PUSH1 0x0 KECCAK256 SWAP1 PUSH1 0x4 MUL ADD PUSH1 0x3 ADD PUSH1 0x14 SWAP1 SLOAD SWAP1 PUSH2 0x100 EXP SWAP1 DIV PUSH1 0xFF AND PUSH1 0x2 DUP2 GT ISZERO PUSH2 0x10E2 JUMPI PUSH4 0x4E487B71 PUSH1 0xE0 SHL PUSH1 0x0 MSTORE PUSH1 0x21 PUSH1 0x4 MSTORE PUSH1 0x24 PUSH1 0x0 REVERT JUMPDEST EQ DUP2 SWAP1 PUSH2 0x1102 JUMPI PUSH1 0x40 MLOAD PUSH3 0x461BCD PUSH1 0xE5 SHL DUP2 MSTORE PUSH1 0x4 ADD PUSH2 0x5A2 SWAP2 SWAP1 PUSH2 0x2C81 JUMP JUMPDEST POP CALLER PUSH1 0x0 SWAP1 DUP2 MSTORE PUSH32 0x13DA86008BA1C6922DAEE3E07DB95305EF49EBCED9F5467A0B8613FCC6B343E3 PUSH1 0x20 MSTORE PUSH1 0x40 SWAP1 KECCAK256 PUSH1 0x2 ADD SLOAD PUSH2 0x100 SWAP1 DIV PUSH1 0xFF AND PUSH2 0x1177 JUMPI PUSH1 0x40 MLOAD PUSH3 0x461BCD PUSH1 0xE5 SHL DUP2 MSTORE PUSH1 0x20 PUSH1 0x4 DUP3 ADD MSTORE PUSH1 0xB PUSH1 0x24 DUP3 ADD MSTORE PUSH11 0x139BDD08185B1B1BDDD959 PUSH1 0xAA SHL PUSH1 0x44 DUP3 ADD MSTORE PUSH1 0x64 ADD PUSH2 0x5A2 JUMP JUMPDEST PUSH1 0x0 PUSH2 0x1186 PUSH1 0x9 DUP10 PUSH1 0x0 PUSH2 0x21A2 JUMP JUMPDEST SWAP1 POP PUSH2 0x1196 PUSH1 0x7 DUP11 DUP4 PUSH1 0x1 PUSH2 0x23A2 JUMP JUMPDEST POP POP POP POP POP POP POP POP POP JUMP JUMPDEST PUSH1 0x2 PUSH1 0x0 DUP2 DUP2 MSTORE PUSH1 0x9 PUSH1 0x20 MSTORE PUSH32 0x6CDE3CEA4B3A3FB2488B2808BAE7556F4A405E50F65E1794383BC026131B13C3 SLOAD SWAP2 DUP3 ISZERO DUP1 ISZERO SWAP1 PUSH2 0x11DF JUMPI POP DUP4 DUP4 LT ISZERO JUMPDEST PUSH2 0x121B JUMPI PUSH1 0x40 MLOAD PUSH3 0x461BCD PUSH1 0xE5 SHL DUP2 MSTORE PUSH1 0x20 PUSH1 0x4 DUP3 ADD MSTORE PUSH1 0xD PUSH1 0x24 DUP3 ADD MSTORE PUSH13 0x4E6F7420617661696C61626C65 PUSH1 0x98 SHL PUSH1 0x44 DUP3 ADD MSTORE PUSH1 0x64 ADD PUSH2 0x5A2 JUMP JUMPDEST PUSH1 0x0 JUMPDEST DUP5 DUP2 LT ISZERO PUSH2 0x15A5 JUMPI PUSH1 0x0 PUSH1 0x9 PUSH1 0x0 DUP5 PUSH1 0x2 DUP2 GT ISZERO PUSH2 0x124C JUMPI PUSH4 0x4E487B71 PUSH1 0xE0 SHL PUSH1 0x0 MSTORE PUSH1 0x21 PUSH1 0x4 MSTORE PUSH1 0x24 PUSH1 0x0 REVERT JUMPDEST PUSH1 0x2 DUP2 GT ISZERO PUSH2 0x126B JUMPI PUSH4 0x4E487B71 PUSH1 0xE0 SHL PUSH1 0x0 MSTORE PUSH1 0x21 PUSH1 0x4 MSTORE PUSH1 0x24 PUSH1 0x0 REVERT JUMPDEST DUP2 MSTORE PUSH1 0x20 ADD SWAP1 DUP2 MSTORE PUSH1 0x20 ADD PUSH1 0x0 KECCAK256 DUP3 DUP2 SLOAD DUP2 LT PUSH2 0x1298 JUMPI PUSH4 0x4E487B71 PUSH1 0xE0 SHL PUSH1 0x0 MSTORE PUSH1 0x32 PUSH1 0x4 MSTORE PUSH1 0x24 PUSH1 0x0 REVERT JUMPDEST PUSH1 0x0 SWAP2 DUP3 MSTORE PUSH1 0x20 SWAP2 DUP3 SWAP1 KECCAK256 PUSH1 0x40 DUP1 MLOAD PUSH1 0xA0 DUP2 ADD DUP3 MSTORE PUSH1 0x4 SWAP4 SWAP1 SWAP4 MUL SWAP1 SWAP2 ADD DUP1 SLOAD DUP4 MSTORE PUSH1 0x1 DUP2 ADD SLOAD PUSH1 0x1 PUSH1 0x1 PUSH1 0xA0 SHL SUB SWAP1 DUP2 AND SWAP5 DUP5 ADD SWAP5 SWAP1 SWAP5 MSTORE PUSH1 0x2 DUP1 DUP3 ADD SLOAD DUP6 AND SWAP3 DUP5 ADD SWAP3 SWAP1 SWAP3 MSTORE PUSH1 0x3 DUP2 ADD SLOAD SWAP4 DUP5 AND PUSH1 0x60 DUP5 ADD MSTORE SWAP2 SWAP3 PUSH1 0x80 DUP5 ADD SWAP2 PUSH1 0x1 PUSH1 0xA0 SHL SWAP1 SWAP2 DIV PUSH1 0xFF AND SWAP1 DUP2 GT ISZERO PUSH2 0x131D JUMPI PUSH4 0x4E487B71 PUSH1 0xE0 SHL PUSH1 0x0 MSTORE PUSH1 0x21 PUSH1 0x4 MSTORE PUSH1 0x24 PUSH1 0x0 REVERT JUMPDEST PUSH1 0x2 DUP2 GT ISZERO PUSH2 0x133C JUMPI PUSH4 0x4E487B71 PUSH1 0xE0 SHL PUSH1 0x0 MSTORE PUSH1 0x21 PUSH1 0x4 MSTORE PUSH1 0x24 PUSH1 0x0 REVERT JUMPDEST SWAP1 MSTORE POP PUSH1 0x60 DUP2 ADD MLOAD SWAP1 SWAP2 POP PUSH1 0x1 PUSH1 0x1 PUSH1 0xA0 SHL SUB AND ISZERO PUSH2 0x1592 JUMPI DUP4 PUSH2 0x135F DUP2 PUSH2 0x2DBF JUMP JUMPDEST PUSH1 0x4 PUSH1 0x0 SWAP1 DUP2 MSTORE PUSH1 0xA PUSH1 0x20 MSTORE SWAP1 SWAP6 POP PUSH32 0xE1EB2B2161A492C07C5A334E48012567CBA93EC021043F53C1955516A3C5A841 SWAP2 POP CALLER PUSH1 0x1 PUSH1 0x1 PUSH1 0xA0 SHL SUB AND PUSH1 0x1 PUSH1 0x1 PUSH1 0xA0 SHL SUB AND DUP2 MSTORE PUSH1 0x20 ADD SWAP1 DUP2 MSTORE PUSH1 0x20 ADD PUSH1 0x0 KECCAK256 PUSH1 0x3 ADD PUSH1 0x40 MLOAD DUP1 PUSH1 0xA0 ADD PUSH1 0x40 MSTORE DUP1 DUP4 PUSH1 0x0 ADD MLOAD DUP2 MSTORE PUSH1 0x20 ADD DUP4 PUSH1 0x20 ADD MLOAD PUSH1 0x1 PUSH1 0x1 PUSH1 0xA0 SHL SUB AND DUP2 MSTORE PUSH1 0x20 ADD DUP4 PUSH1 0x40 ADD MLOAD PUSH1 0x1 PUSH1 0x1 PUSH1 0xA0 SHL SUB AND DUP2 MSTORE PUSH1 0x20 ADD DUP4 PUSH1 0x60 ADD MLOAD PUSH1 0x1 PUSH1 0x1 PUSH1 0xA0 SHL SUB AND DUP2 MSTORE PUSH1 0x20 ADD DUP4 PUSH1 0x80 ADD MLOAD PUSH1 0x2 DUP2 GT ISZERO PUSH2 0x1427 JUMPI PUSH4 0x4E487B71 PUSH1 0xE0 SHL PUSH1 0x0 MSTORE PUSH1 0x21 PUSH1 0x4 MSTORE PUSH1 0x24 PUSH1 0x0 REVERT JUMPDEST SWAP1 MSTORE DUP2 SLOAD PUSH1 0x1 DUP1 DUP3 ADD DUP5 SSTORE PUSH1 0x0 SWAP4 DUP5 MSTORE PUSH1 0x20 SWAP4 DUP5 SWAP1 KECCAK256 DUP4 MLOAD PUSH1 0x4 SWAP1 SWAP4 MUL ADD SWAP2 DUP3 SSTORE SWAP3 DUP3 ADD MLOAD SWAP3 DUP2 ADD DUP1 SLOAD PUSH1 0x1 PUSH1 0x1 PUSH1 0xA0 SHL SUB NOT SWAP1 DUP2 AND PUSH1 0x1 PUSH1 0x1 PUSH1 0xA0 SHL SUB SWAP6 DUP7 AND OR SWAP1 SWAP2 SSTORE PUSH1 0x40 DUP4 ADD MLOAD PUSH1 0x2 DUP1 DUP5 ADD DUP1 SLOAD DUP5 AND SWAP3 DUP8 AND SWAP3 SWAP1 SWAP3 OR SWAP1 SWAP2 SSTORE PUSH1 0x60 DUP5 ADD MLOAD PUSH1 0x3 DUP5 ADD DUP1 SLOAD SWAP4 DUP5 AND SWAP2 SWAP1 SWAP7 AND SWAP1 DUP2 OR DUP7 SSTORE PUSH1 0x80 DUP6 ADD MLOAD SWAP5 SWAP6 SWAP4 SWAP5 SWAP4 SWAP3 PUSH1 0x1 PUSH1 0x1 PUSH1 0xA8 SHL SUB NOT AND OR SWAP1 PUSH1 0x1 PUSH1 0xA0 SHL SWAP1 DUP5 SWAP1 DUP2 GT ISZERO PUSH2 0x14D7 JUMPI PUSH4 0x4E487B71 PUSH1 0xE0 SHL PUSH1 0x0 MSTORE PUSH1 0x21 PUSH1 0x4 MSTORE PUSH1 0x24 PUSH1 0x0 REVERT JUMPDEST MUL OR SWAP1 SSTORE POP POP POP PUSH1 0x9 PUSH1 0x0 DUP5 PUSH1 0x2 DUP2 GT ISZERO PUSH2 0x1502 JUMPI PUSH4 0x4E487B71 PUSH1 0xE0 SHL PUSH1 0x0 MSTORE PUSH1 0x21 PUSH1 0x4 MSTORE PUSH1 0x24 PUSH1 0x0 REVERT JUMPDEST PUSH1 0x2 DUP2 GT ISZERO PUSH2 0x1521 JUMPI PUSH4 0x4E487B71 PUSH1 0xE0 SHL PUSH1 0x0 MSTORE PUSH1 0x21 PUSH1 0x4 MSTORE PUSH1 0x24 PUSH1 0x0 REVERT JUMPDEST DUP2 MSTORE PUSH1 0x20 ADD SWAP1 DUP2 MSTORE PUSH1 0x20 ADD PUSH1 0x0 KECCAK256 DUP3 DUP2 SLOAD DUP2 LT PUSH2 0x154E JUMPI PUSH4 0x4E487B71 PUSH1 0xE0 SHL PUSH1 0x0 MSTORE PUSH1 0x32 PUSH1 0x4 MSTORE PUSH1 0x24 PUSH1 0x0 REVERT JUMPDEST PUSH1 0x0 SWAP2 DUP3 MSTORE PUSH1 0x20 DUP3 KECCAK256 PUSH1 0x4 SWAP1 SWAP2 MUL ADD SWAP1 DUP2 SSTORE PUSH1 0x1 DUP2 ADD DUP1 SLOAD PUSH1 0x1 PUSH1 0x1 PUSH1 0xA0 SHL SUB NOT SWAP1 DUP2 AND SWAP1 SWAP2 SSTORE PUSH1 0x2 DUP3 ADD DUP1 SLOAD SWAP1 SWAP2 AND SWAP1 SSTORE PUSH1 0x3 ADD DUP1 SLOAD PUSH1 0x1 PUSH1 0x1 PUSH1 0xA8 SHL SUB NOT AND SWAP1 SSTORE JUMPDEST POP DUP1 PUSH2 0x159D DUP2 PUSH2 0x2DBF JUMP JUMPDEST SWAP2 POP POP PUSH2 0x121E JUMP JUMPDEST POP PUSH1 0x0 DUP3 PUSH1 0x6 SLOAD PUSH2 0x15B6 SWAP2 SWAP1 PUSH2 0x2D74 JUMP JUMPDEST SWAP1 POP DUP1 CALLVALUE LT ISZERO PUSH2 0xF32 JUMPI PUSH1 0x40 MLOAD PUSH3 0x461BCD PUSH1 0xE5 SHL DUP2 MSTORE PUSH1 0x20 PUSH1 0x4 DUP3 ADD MSTORE PUSH1 0x6 PUSH1 0x24 DUP3 ADD MSTORE PUSH6 0x4956616C7565 PUSH1 0xD0 SHL PUSH1 0x44 DUP3 ADD MSTORE PUSH1 0x64 ADD PUSH2 0x5A2 JUMP JUMPDEST PUSH2 0x15F9 PUSH2 0x1B25 JUMP JUMPDEST DUP1 PUSH1 0x4 DUP2 PUSH1 0xFF AND LT PUSH2 0x161D JUMPI PUSH1 0x40 MLOAD PUSH3 0x461BCD PUSH1 0xE5 SHL DUP2 MSTORE PUSH1 0x4 ADD PUSH2 0x5A2 SWAP1 PUSH2 0x2CB4 JUMP JUMPDEST PUSH2 0x697 PUSH1 0xA DUP5 PUSH1 0x0 DUP6 PUSH1 0xFF AND PUSH1 0x4 DUP2 GT ISZERO PUSH2 0x692 JUMPI PUSH4 0x4E487B71 PUSH1 0xE0 SHL PUSH1 0x0 MSTORE PUSH1 0x21 PUSH1 0x4 MSTORE PUSH1 0x24 PUSH1 0x0 REVERT JUMPDEST PUSH1 0x3 CALLER PUSH2 0x1655 DUP3 DUP3 PUSH2 0x1D27 JUMP JUMPDEST PUSH2 0x1672 JUMPI PUSH1 0x40 MLOAD PUSH4 0xAA6318D3 PUSH1 0xE0 SHL DUP2 MSTORE PUSH1 0x4 ADD PUSH1 0x40 MLOAD DUP1 SWAP2 SUB SWAP1 REVERT JUMPDEST PUSH2 0x167D PUSH1 0x7 CALLER PUSH2 0x24FE JUMP JUMPDEST POP PUSH1 0x5 DUP1 SLOAD SWAP1 PUSH1 0x0 PUSH2 0x168E DUP4 PUSH2 0x2DBF JUMP JUMPDEST SWAP2 SWAP1 POP SSTORE POP POP POP JUMP JUMPDEST PUSH2 0x169F PUSH2 0x1B25 JUMP JUMPDEST PUSH1 0x1 SSTORE JUMP JUMPDEST PUSH2 0x16AC PUSH2 0x1B25 JUMP JUMPDEST PUSH1 0x1 PUSH1 0x1 PUSH1 0xA0 SHL SUB DUP2 AND PUSH2 0x1711 JUMPI PUSH1 0x40 MLOAD PUSH3 0x461BCD PUSH1 0xE5 SHL DUP2 MSTORE PUSH1 0x20 PUSH1 0x4 DUP3 ADD MSTORE PUSH1 0x26 PUSH1 0x24 DUP3 ADD MSTORE PUSH32 0x4F776E61626C653A206E6577206F776E657220697320746865207A65726F2061 PUSH1 0x44 DUP3 ADD MSTORE PUSH6 0x646472657373 PUSH1 0xD0 SHL PUSH1 0x64 DUP3 ADD MSTORE PUSH1 0x84 ADD PUSH2 0x5A2 JUMP JUMPDEST PUSH2 0xA3F DUP2 PUSH2 0x1CD7 JUMP JUMPDEST PUSH1 0x40 DUP1 MLOAD DUP1 DUP3 ADD DUP3 MSTORE PUSH1 0x60 DUP1 DUP3 MSTORE PUSH1 0x20 DUP1 DUP4 ADD SWAP2 SWAP1 SWAP2 MSTORE DUP3 MLOAD PUSH1 0x0 DUP1 DUP3 MSTORE SWAP2 DUP2 ADD DUP3 DUP2 MSTORE DUP2 DUP6 ADD SWAP1 SWAP5 MSTORE SWAP2 SWAP3 DUP2 PUSH2 0x1761 JUMP JUMPDEST PUSH1 0x60 DUP2 MSTORE PUSH1 0x20 ADD SWAP1 PUSH1 0x1 SWAP1 SUB SWAP1 DUP2 PUSH2 0x174C JUMPI SWAP1 POP JUMPDEST POP PUSH1 0x40 DUP1 MLOAD DUP1 DUP3 ADD SWAP1 SWAP2 MSTORE SWAP3 DUP4 MSTORE PUSH1 0x20 DUP4 ADD MSTORE POP SWAP2 SWAP1 POP JUMP JUMPDEST PUSH1 0x2 CALLER PUSH2 0x1787 DUP3 DUP3 PUSH2 0x1D27 JUMP JUMPDEST PUSH2 0x17A4 JUMPI PUSH1 0x40 MLOAD PUSH4 0xAA6318D3 PUSH1 0xE0 SHL DUP2 MSTORE PUSH1 0x4 ADD PUSH1 0x40 MLOAD DUP1 SWAP2 SUB SWAP1 REVERT JUMPDEST DUP4 DUP4 PUSH1 0x1 PUSH1 0x40 MLOAD DUP1 PUSH1 0x40 ADD PUSH1 0x40 MSTORE DUP1 PUSH1 0x15 DUP2 MSTORE PUSH1 0x20 ADD PUSH21 0x24B73B30B634B2103BB0B9BA32903837B4B73A32B9 PUSH1 0x59 SHL DUP2 MSTORE POP PUSH1 0x7 DUP1 SLOAD SWAP1 POP DUP5 LT PUSH2 0x17FB JUMPI PUSH1 0x40 MLOAD PUSH4 0x83204183 PUSH1 0xE0 SHL DUP2 MSTORE PUSH1 0x4 ADD PUSH1 0x40 MLOAD DUP1 SWAP2 SUB SWAP1 REVERT JUMPDEST PUSH1 0x1 DUP3 PUSH1 0x2 DUP2 GT ISZERO PUSH2 0x181D JUMPI PUSH4 0x4E487B71 PUSH1 0xE0 SHL PUSH1 0x0 MSTORE PUSH1 0x21 PUSH1 0x4 MSTORE PUSH1 0x24 PUSH1 0x0 REVERT JUMPDEST EQ ISZERO PUSH2 0x1874 JUMPI PUSH1 0x7 DUP5 DUP2 SLOAD DUP2 LT PUSH2 0x1844 JUMPI PUSH4 0x4E487B71 PUSH1 0xE0 SHL PUSH1 0x0 MSTORE PUSH1 0x32 PUSH1 0x4 MSTORE PUSH1 0x24 PUSH1 0x0 REVERT JUMPDEST PUSH1 0x0 SWAP2 DUP3 MSTORE PUSH1 0x20 SWAP1 SWAP2 KECCAK256 PUSH1 0x2 SWAP1 SWAP2 MUL ADD SLOAD DUP4 LT PUSH2 0x1874 JUMPI PUSH1 0x40 MLOAD PUSH4 0x7E849FFB PUSH1 0xE0 SHL DUP2 MSTORE PUSH1 0x4 ADD PUSH1 0x40 MLOAD DUP1 SWAP2 SUB SWAP1 REVERT JUMPDEST DUP2 PUSH1 0x2 DUP2 GT ISZERO PUSH2 0x1894 JUMPI PUSH4 0x4E487B71 PUSH1 0xE0 SHL PUSH1 0x0 MSTORE PUSH1 0x21 PUSH1 0x4 MSTORE PUSH1 0x24 PUSH1 0x0 REVERT JUMPDEST PUSH1 0x7 DUP6 DUP2 SLOAD DUP2 LT PUSH2 0x18B5 JUMPI PUSH4 0x4E487B71 PUSH1 0xE0 SHL PUSH1 0x0 MSTORE PUSH1 0x32 PUSH1 0x4 MSTORE PUSH1 0x24 PUSH1 0x0 REVERT JUMPDEST SWAP1 PUSH1 0x0 MSTORE PUSH1 0x20 PUSH1 0x0 KECCAK256 SWAP1 PUSH1 0x2 MUL ADD PUSH1 0x0 ADD DUP5 DUP2 SLOAD DUP2 LT PUSH2 0x18E5 JUMPI PUSH4 0x4E487B71 PUSH1 0xE0 SHL PUSH1 0x0 MSTORE PUSH1 0x32 PUSH1 0x4 MSTORE PUSH1 0x24 PUSH1 0x0 REVERT JUMPDEST SWAP1 PUSH1 0x0 MSTORE PUSH1 0x20 PUSH1 0x0 KECCAK256 SWAP1 PUSH1 0x4 MUL ADD PUSH1 0x3 ADD PUSH1 0x14 SWAP1 SLOAD SWAP1 PUSH2 0x100 EXP SWAP1 DIV PUSH1 0xFF AND PUSH1 0x2 DUP2 GT ISZERO PUSH2 0x1923 JUMPI PUSH4 0x4E487B71 PUSH1 0xE0 SHL PUSH1 0x0 MSTORE PUSH1 0x21 PUSH1 0x4 MSTORE PUSH1 0x24 PUSH1 0x0 REVERT JUMPDEST EQ DUP2 SWAP1 PUSH2 0x1943 JUMPI PUSH1 0x40 MLOAD PUSH3 0x461BCD PUSH1 0xE5 SHL DUP2 MSTORE PUSH1 0x4 ADD PUSH2 0x5A2 SWAP2 SWAP1 PUSH2 0x2C81 JUMP JUMPDEST POP PUSH1 0x0 PUSH2 0x1952 PUSH1 0x7 DUP11 DUP11 PUSH2 0x2569 JUMP JUMPDEST SWAP1 POP PUSH2 0x1961 PUSH1 0x9 DUP3 PUSH1 0x2 PUSH2 0x2028 JUMP JUMPDEST PUSH1 0x4 SLOAD PUSH1 0x0 DUP1 DUP1 PUSH2 0x1973 PUSH1 0x8 DUP6 PUSH2 0x26E2 JUMP JUMPDEST PUSH1 0x2 SLOAD PUSH1 0x20 DUP10 ADD MLOAD PUSH1 0x40 MLOAD PUSH4 0x95EA7B3 PUSH1 0xE0 SHL DUP2 MSTORE PUSH1 0x1 PUSH1 0x1 PUSH1 0xA0 SHL SUB SWAP2 DUP3 AND PUSH1 0x4 DUP3 ADD MSTORE PUSH1 0x24 DUP2 ADD DUP7 SWAP1 MSTORE SWAP5 SWAP8 POP SWAP3 SWAP6 POP SWAP1 SWAP4 POP AND SWAP1 PUSH4 0x95EA7B3 SWAP1 PUSH1 0x44 ADD PUSH1 0x20 PUSH1 0x40 MLOAD DUP1 DUP4 SUB DUP2 PUSH1 0x0 DUP8 DUP1 EXTCODESIZE ISZERO DUP1 ISZERO PUSH2 0x19CD JUMPI PUSH1 0x0 DUP1 REVERT JUMPDEST POP GAS CALL ISZERO DUP1 ISZERO PUSH2 0x19E1 JUMPI RETURNDATASIZE PUSH1 0x0 DUP1 RETURNDATACOPY RETURNDATASIZE PUSH1 0x0 REVERT JUMPDEST POP POP POP POP PUSH1 0x40 MLOAD RETURNDATASIZE PUSH1 0x1F NOT PUSH1 0x1F DUP3 ADD AND DUP3 ADD DUP1 PUSH1 0x40 MSTORE POP DUP2 ADD SWAP1 PUSH2 0x1A05 SWAP2 SWAP1 PUSH2 0x29F9 JUMP JUMPDEST POP PUSH1 0x2 SLOAD PUSH1 0x40 DUP7 DUP2 ADD MLOAD SWAP1 MLOAD PUSH4 0x95EA7B3 PUSH1 0xE0 SHL DUP2 MSTORE PUSH1 0x1 PUSH1 0x1 PUSH1 0xA0 SHL SUB SWAP2 DUP3 AND PUSH1 0x4 DUP3 ADD MSTORE PUSH1 0x24 DUP2 ADD DUP6 SWAP1 MSTORE SWAP2 AND SWAP1 PUSH4 0x95EA7B3 SWAP1 PUSH1 0x44 ADD PUSH1 0x20 PUSH1 0x40 MLOAD DUP1 DUP4 SUB DUP2 PUSH1 0x0 DUP8 DUP1 EXTCODESIZE ISZERO DUP1 ISZERO PUSH2 0x1A58 JUMPI PUSH1 0x0 DUP1 REVERT JUMPDEST POP GAS CALL ISZERO DUP1 ISZERO PUSH2 0x1A6C JUMPI RETURNDATASIZE PUSH1 0x0 DUP1 RETURNDATACOPY RETURNDATASIZE PUSH1 0x0 REVERT JUMPDEST POP POP POP POP PUSH1 0x40 MLOAD RETURNDATASIZE PUSH1 0x1F NOT PUSH1 0x1F DUP3 ADD AND DUP3 ADD DUP1 PUSH1 0x40 MSTORE POP DUP2 ADD SWAP1 PUSH2 0x1A90 SWAP2 SWAP1 PUSH2 0x29F9 JUMP JUMPDEST POP PUSH1 0x2 SLOAD PUSH1 0x40 MLOAD PUSH4 0x95EA7B3 PUSH1 0xE0 SHL DUP2 MSTORE ADDRESS PUSH1 0x4 DUP3 ADD MSTORE PUSH1 0x24 DUP2 ADD DUP4 SWAP1 MSTORE PUSH1 0x1 PUSH1 0x1 PUSH1 0xA0 SHL SUB SWAP1 SWAP2 AND SWAP1 PUSH4 0x95EA7B3 SWAP1 PUSH1 0x44 ADD PUSH1 0x20 PUSH1 0x40 MLOAD DUP1 DUP4 SUB DUP2 PUSH1 0x0 DUP8 DUP1 EXTCODESIZE ISZERO DUP1 ISZERO PUSH2 0x1ADD JUMPI PUSH1 0x0 DUP1 REVERT JUMPDEST POP GAS CALL ISZERO DUP1 ISZERO PUSH2 0x1AF1 JUMPI RETURNDATASIZE PUSH1 0x0 DUP1 RETURNDATACOPY RETURNDATASIZE PUSH1 0x0 REVERT JUMPDEST POP POP POP POP PUSH1 0x40 MLOAD RETURNDATASIZE PUSH1 0x1F NOT PUSH1 0x1F DUP3 ADD AND DUP3 ADD DUP1 PUSH1 0x40 MSTORE POP DUP2 ADD SWAP1 PUSH2 0x1B15 SWAP2 SWAP1 PUSH2 0x29F9 JUMP JUMPDEST POP POP POP POP POP POP POP POP POP POP POP POP POP POP JUMP JUMPDEST PUSH1 0x0 SLOAD PUSH1 0x1 PUSH1 0x1 PUSH1 0xA0 SHL SUB AND CALLER EQ PUSH2 0x8C9 JUMPI PUSH1 0x40 MLOAD PUSH3 0x461BCD PUSH1 0xE5 SHL DUP2 MSTORE PUSH1 0x20 PUSH1 0x4 DUP3 ADD DUP2 SWAP1 MSTORE PUSH1 0x24 DUP3 ADD MSTORE PUSH32 0x4F776E61626C653A2063616C6C6572206973206E6F7420746865206F776E6572 PUSH1 0x44 DUP3 ADD MSTORE PUSH1 0x64 ADD PUSH2 0x5A2 JUMP JUMPDEST PUSH1 0x0 PUSH2 0x1B8C DUP6 DUP6 DUP5 PUSH2 0x2777 JUMP JUMPDEST SWAP1 POP DUP3 ISZERO PUSH2 0x1C34 JUMPI DUP1 ISZERO PUSH2 0x1BB3 JUMPI PUSH1 0x40 MLOAD PUSH4 0x3EE20B69 PUSH1 0xE0 SHL DUP2 MSTORE PUSH1 0x4 ADD PUSH1 0x40 MLOAD DUP1 SWAP2 SUB SWAP1 REVERT JUMPDEST PUSH1 0x1 DUP6 PUSH1 0x0 DUP5 PUSH1 0x4 DUP2 GT ISZERO PUSH2 0x1BD8 JUMPI PUSH4 0x4E487B71 PUSH1 0xE0 SHL PUSH1 0x0 MSTORE PUSH1 0x21 PUSH1 0x4 MSTORE PUSH1 0x24 PUSH1 0x0 REVERT JUMPDEST PUSH1 0x4 DUP2 GT ISZERO PUSH2 0x1BF7 JUMPI PUSH4 0x4E487B71 PUSH1 0xE0 SHL PUSH1 0x0 MSTORE PUSH1 0x21 PUSH1 0x4 MSTORE PUSH1 0x24 PUSH1 0x0 REVERT JUMPDEST DUP2 MSTORE PUSH1 0x20 DUP1 DUP3 ADD SWAP3 SWAP1 SWAP3 MSTORE PUSH1 0x40 SWAP1 DUP2 ADD PUSH1 0x0 SWAP1 DUP2 KECCAK256 PUSH1 0x1 PUSH1 0x1 PUSH1 0xA0 SHL SUB DUP10 AND DUP3 MSTORE SWAP1 SWAP3 MSTORE SWAP1 KECCAK256 PUSH1 0x2 ADD DUP1 SLOAD PUSH1 0xFF NOT AND SWAP2 ISZERO ISZERO SWAP2 SWAP1 SWAP2 OR SWAP1 SSTORE PUSH2 0xF32 JUMP JUMPDEST DUP1 PUSH2 0x1C52 JUMPI PUSH1 0x40 MLOAD PUSH4 0xAA6318D3 PUSH1 0xE0 SHL DUP2 MSTORE PUSH1 0x4 ADD PUSH1 0x40 MLOAD DUP1 SWAP2 SUB SWAP1 REVERT JUMPDEST PUSH1 0x0 DUP6 PUSH1 0x0 DUP5 PUSH1 0x4 DUP2 GT ISZERO PUSH2 0x1C77 JUMPI PUSH4 0x4E487B71 PUSH1 0xE0 SHL PUSH1 0x0 MSTORE PUSH1 0x21 PUSH1 0x4 MSTORE PUSH1 0x24 PUSH1 0x0 REVERT JUMPDEST PUSH1 0x4 DUP2 GT ISZERO PUSH2 0x1C96 JUMPI PUSH4 0x4E487B71 PUSH1 0xE0 SHL PUSH1 0x0 MSTORE PUSH1 0x21 PUSH1 0x4 MSTORE PUSH1 0x24 PUSH1 0x0 REVERT JUMPDEST DUP2 MSTORE PUSH1 0x20 DUP1 DUP3 ADD SWAP3 SWAP1 SWAP3 MSTORE PUSH1 0x40 SWAP1 DUP2 ADD PUSH1 0x0 SWAP1 DUP2 KECCAK256 PUSH1 0x1 PUSH1 0x1 PUSH1 0xA0 SHL SUB DUP10 AND DUP3 MSTORE SWAP1 SWAP3 MSTORE SWAP1 KECCAK256 PUSH1 0x2 ADD DUP1 SLOAD SWAP2 ISZERO ISZERO PUSH1 0xFF NOT SWAP1 SWAP3 AND SWAP2 SWAP1 SWAP2 OR SWAP1 SSTORE POP POP POP POP POP JUMP JUMPDEST PUSH1 0x0 DUP1 SLOAD PUSH1 0x1 PUSH1 0x1 PUSH1 0xA0 SHL SUB DUP4 DUP2 AND PUSH1 0x1 PUSH1 0x1 PUSH1 0xA0 SHL SUB NOT DUP4 AND DUP2 OR DUP5 SSTORE PUSH1 0x40 MLOAD SWAP2 SWAP1 SWAP3 AND SWAP3 DUP4 SWAP2 PUSH32 0x8BE0079C531659141344CD1FD0A4F28419497F9722A3DAAFE3B4186F6B6457E0 SWAP2 SWAP1 LOG3 POP POP JUMP JUMPDEST PUSH1 0x0 PUSH1 0xA PUSH1 0x0 DUP5 PUSH1 0x4 DUP2 GT ISZERO PUSH2 0x1D4D JUMPI PUSH4 0x4E487B71 PUSH1 0xE0 SHL PUSH1 0x0 MSTORE PUSH1 0x21 PUSH1 0x4 MSTORE PUSH1 0x24 PUSH1 0x0 REVERT JUMPDEST PUSH1 0x4 DUP2 GT ISZERO PUSH2 0x1D6C JUMPI PUSH4 0x4E487B71 PUSH1 0xE0 SHL PUSH1 0x0 MSTORE PUSH1 0x21 PUSH1 0x4 MSTORE PUSH1 0x24 PUSH1 0x0 REVERT JUMPDEST DUP2 MSTORE PUSH1 0x20 DUP1 DUP3 ADD SWAP3 SWAP1 SWAP3 MSTORE PUSH1 0x40 SWAP1 DUP2 ADD PUSH1 0x0 SWAP1 DUP2 KECCAK256 PUSH1 0x1 PUSH1 0x1 PUSH1 0xA0 SHL SUB DUP7 AND DUP3 MSTORE SWAP1 SWAP3 MSTORE SWAP1 KECCAK256 PUSH1 0x2 ADD SLOAD PUSH1 0xFF AND SWAP1 POP SWAP3 SWAP2 POP POP JUMP JUMPDEST PUSH1 0x0 PUSH1 0x7 DUP3 DUP2 SLOAD DUP2 LT PUSH2 0x1DC4 JUMPI PUSH4 0x4E487B71 PUSH1 0xE0 SHL PUSH1 0x0 MSTORE PUSH1 0x32 PUSH1 0x4 MSTORE PUSH1 0x24 PUSH1 0x0 REVERT JUMPDEST PUSH1 0x0 SWAP2 DUP3 MSTORE PUSH1 0x20 SWAP1 SWAP2 KECCAK256 PUSH1 0x1 PUSH1 0x2 SWAP1 SWAP3 MUL ADD ADD SLOAD PUSH1 0x1 PUSH1 0x1 PUSH1 0xA0 SHL SUB AND SWAP3 SWAP2 POP POP JUMP JUMPDEST DUP2 SLOAD PUSH1 0x0 SWAP1 DUP2 SWAP1 DUP5 DUP5 DUP3 DUP2 LT PUSH2 0x1E0D JUMPI PUSH4 0x4E487B71 PUSH1 0xE0 SHL PUSH1 0x0 MSTORE PUSH1 0x32 PUSH1 0x4 MSTORE PUSH1 0x24 PUSH1 0x0 REVERT JUMPDEST SWAP1 PUSH1 0x0 MSTORE PUSH1 0x20 PUSH1 0x0 KECCAK256 SWAP1 PUSH1 0x2 MUL ADD PUSH1 0x40 MLOAD DUP1 PUSH1 0x40 ADD PUSH1 0x40 MSTORE SWAP1 DUP2 PUSH1 0x0 DUP3 ADD DUP1 SLOAD DUP1 PUSH1 0x20 MUL PUSH1 0x20 ADD PUSH1 0x40 MLOAD SWAP1 DUP2 ADD PUSH1 0x40 MSTORE DUP1 SWAP3 SWAP2 SWAP1 DUP2 DUP2 MSTORE PUSH1 0x20 ADD PUSH1 0x0 SWAP1 JUMPDEST DUP3 DUP3 LT ISZERO PUSH2 0x1F08 JUMPI PUSH1 0x0 DUP5 DUP2 MSTORE PUSH1 0x20 SWAP1 DUP2 SWAP1 KECCAK256 PUSH1 0x40 DUP1 MLOAD PUSH1 0xA0 DUP2 ADD DUP3 MSTORE PUSH1 0x4 DUP7 MUL SWAP1 SWAP3 ADD DUP1 SLOAD DUP4 MSTORE PUSH1 0x1 DUP2 ADD SLOAD PUSH1 0x1 PUSH1 0x1 PUSH1 0xA0 SHL SUB SWAP1 DUP2 AND SWAP5 DUP5 ADD SWAP5 SWAP1 SWAP5 MSTORE PUSH1 0x2 DUP1 DUP3 ADD SLOAD DUP6 AND SWAP3 DUP5 ADD SWAP3 SWAP1 SWAP3 MSTORE PUSH1 0x3 DUP2 ADD SLOAD SWAP4 DUP5 AND PUSH1 0x60 DUP5 ADD MSTORE SWAP2 SWAP3 PUSH1 0x80 DUP5 ADD SWAP2 PUSH1 0x1 PUSH1 0xA0 SHL SWAP1 SWAP2 DIV PUSH1 0xFF AND SWAP1 DUP2 GT ISZERO PUSH2 0x1ED6 JUMPI PUSH4 0x4E487B71 PUSH1 0xE0 SHL PUSH1 0x0 MSTORE PUSH1 0x21 PUSH1 0x4 MSTORE PUSH1 0x24 PUSH1 0x0 REVERT JUMPDEST PUSH1 0x2 DUP2 GT ISZERO PUSH2 0x1EF5 JUMPI PUSH4 0x4E487B71 PUSH1 0xE0 SHL PUSH1 0x0 MSTORE PUSH1 0x21 PUSH1 0x4 MSTORE PUSH1 0x24 PUSH1 0x0 REVERT JUMPDEST DUP2 MSTORE POP POP DUP2 MSTORE PUSH1 0x20 ADD SWAP1 PUSH1 0x1 ADD SWAP1 PUSH2 0x1E4B JUMP JUMPDEST POP POP POP SWAP1 DUP3 MSTORE POP PUSH1 0x1 SWAP2 SWAP1 SWAP2 ADD SLOAD PUSH1 0x1 PUSH1 0x1 PUSH1 0xA0 SHL SUB AND PUSH1 0x20 SWAP1 SWAP2 ADD MSTORE DUP1 MLOAD MLOAD SWAP2 SWAP4 POP SWAP2 POP PUSH2 0x1F4A JUMPI PUSH1 0x40 MLOAD PUSH4 0x347682F5 PUSH1 0xE0 SHL DUP2 MSTORE PUSH1 0x4 ADD PUSH1 0x40 MLOAD DUP1 SWAP2 SUB SWAP1 REVERT JUMPDEST PUSH1 0x0 JUMPDEST DUP3 DUP2 LT ISZERO PUSH2 0x1FD5 JUMPI PUSH1 0x2 DUP3 MLOAD DUP1 MLOAD DUP4 SWAP1 DUP2 LT PUSH2 0x1F79 JUMPI PUSH4 0x4E487B71 PUSH1 0xE0 SHL PUSH1 0x0 MSTORE PUSH1 0x32 PUSH1 0x4 MSTORE PUSH1 0x24 PUSH1 0x0 REVERT JUMPDEST PUSH1 0x20 MUL PUSH1 0x20 ADD ADD MLOAD PUSH1 0x80 ADD MLOAD PUSH1 0x2 DUP2 GT ISZERO PUSH2 0x1FA4 JUMPI PUSH4 0x4E487B71 PUSH1 0xE0 SHL PUSH1 0x0 MSTORE PUSH1 0x21 PUSH1 0x4 MSTORE PUSH1 0x24 PUSH1 0x0 REVERT JUMPDEST LT ISZERO PUSH2 0x1FC3 JUMPI PUSH1 0x40 MLOAD PUSH4 0x3F00676B PUSH1 0xE0 SHL DUP2 MSTORE PUSH1 0x4 ADD PUSH1 0x40 MLOAD DUP1 SWAP2 SUB SWAP1 REVERT JUMPDEST DUP1 PUSH2 0x1FCD DUP2 PUSH2 0x2DBF JUMP JUMPDEST SWAP2 POP POP PUSH2 0x1F4D JUMP JUMPDEST POP DUP4 DUP4 DUP2 SLOAD DUP2 LT PUSH2 0x1FF6 JUMPI PUSH4 0x4E487B71 PUSH1 0xE0 SHL PUSH1 0x0 MSTORE PUSH1 0x32 PUSH1 0x4 MSTORE PUSH1 0x24 PUSH1 0x0 REVERT JUMPDEST PUSH1 0x0 SWAP2 DUP3 MSTORE PUSH1 0x20 DUP3 KECCAK256 PUSH1 0x2 SWAP1 SWAP2 MUL ADD SWAP1 PUSH2 0x2010 DUP3 DUP3 PUSH2 0x27F1 JUMP JUMPDEST POP PUSH1 0x1 ADD DUP1 SLOAD PUSH1 0x1 PUSH1 0x1 PUSH1 0xA0 SHL SUB NOT AND SWAP1 SSTORE POP POP POP POP JUMP JUMPDEST DUP3 PUSH1 0x0 DUP3 PUSH1 0x2 DUP2 GT ISZERO PUSH2 0x204B JUMPI PUSH4 0x4E487B71 PUSH1 0xE0 SHL PUSH1 0x0 MSTORE PUSH1 0x21 PUSH1 0x4 MSTORE PUSH1 0x24 PUSH1 0x0 REVERT JUMPDEST PUSH1 0x2 DUP2 GT ISZERO PUSH2 0x206A JUMPI PUSH4 0x4E487B71 PUSH1 0xE0 SHL PUSH1 0x0 MSTORE PUSH1 0x21 PUSH1 0x4 MSTORE PUSH1 0x24 PUSH1 0x0 REVERT JUMPDEST DUP2 MSTORE PUSH1 0x20 ADD SWAP1 DUP2 MSTORE PUSH1 0x20 ADD PUSH1 0x0 KECCAK256 PUSH1 0x40 MLOAD DUP1 PUSH1 0xA0 ADD PUSH1 0x40 MSTORE DUP1 DUP5 PUSH1 0x0 ADD MLOAD DUP2 MSTORE PUSH1 0x20 ADD DUP5 PUSH1 0x20 ADD MLOAD PUSH1 0x1 PUSH1 0x1 PUSH1 0xA0 SHL SUB AND DUP2 MSTORE PUSH1 0x20 ADD DUP5 PUSH1 0x40 ADD MLOAD PUSH1 0x1 PUSH1 0x1 PUSH1 0xA0 SHL SUB AND DUP2 MSTORE PUSH1 0x20 ADD DUP5 PUSH1 0x60 ADD MLOAD PUSH1 0x1 PUSH1 0x1 PUSH1 0xA0 SHL SUB AND DUP2 MSTORE PUSH1 0x20 ADD DUP4 PUSH1 0x2 DUP2 GT ISZERO PUSH2 0x20E6 JUMPI PUSH4 0x4E487B71 PUSH1 0xE0 SHL PUSH1 0x0 MSTORE PUSH1 0x21 PUSH1 0x4 MSTORE PUSH1 0x24 PUSH1 0x0 REVERT JUMPDEST SWAP1 MSTORE DUP2 SLOAD PUSH1 0x1 DUP1 DUP3 ADD DUP5 SSTORE PUSH1 0x0 SWAP4 DUP5 MSTORE PUSH1 0x20 SWAP4 DUP5 SWAP1 KECCAK256 DUP4 MLOAD PUSH1 0x4 SWAP1 SWAP4 MUL ADD SWAP2 DUP3 SSTORE SWAP3 DUP3 ADD MLOAD SWAP3 DUP2 ADD DUP1 SLOAD PUSH1 0x1 PUSH1 0x1 PUSH1 0xA0 SHL SUB NOT SWAP1 DUP2 AND PUSH1 0x1 PUSH1 0x1 PUSH1 0xA0 SHL SUB SWAP6 DUP7 AND OR SWAP1 SWAP2 SSTORE PUSH1 0x40 DUP4 ADD MLOAD PUSH1 0x2 DUP1 DUP5 ADD DUP1 SLOAD DUP5 AND SWAP3 DUP8 AND SWAP3 SWAP1 SWAP3 OR SWAP1 SWAP2 SSTORE PUSH1 0x60 DUP5 ADD MLOAD PUSH1 0x3 DUP5 ADD DUP1 SLOAD SWAP4 DUP5 AND SWAP2 SWAP1 SWAP7 AND SWAP1 DUP2 OR DUP7 SSTORE PUSH1 0x80 DUP6 ADD MLOAD SWAP5 SWAP6 SWAP4 SWAP5 SWAP4 SWAP3 PUSH1 0x1 PUSH1 0x1 PUSH1 0xA8 SHL SUB NOT AND OR SWAP1 PUSH1 0x1 PUSH1 0xA0 SHL SWAP1 DUP5 SWAP1 DUP2 GT ISZERO PUSH2 0x2196 JUMPI PUSH4 0x4E487B71 PUSH1 0xE0 SHL PUSH1 0x0 MSTORE PUSH1 0x21 PUSH1 0x4 MSTORE PUSH1 0x24 PUSH1 0x0 REVERT JUMPDEST MUL OR SWAP1 SSTORE POP POP POP POP POP POP JUMP JUMPDEST PUSH2 0x21D1 PUSH1 0x40 DUP1 MLOAD PUSH1 0xA0 DUP2 ADD DUP3 MSTORE PUSH1 0x0 DUP1 DUP3 MSTORE PUSH1 0x20 DUP3 ADD DUP2 SWAP1 MSTORE SWAP2 DUP2 ADD DUP3 SWAP1 MSTORE PUSH1 0x60 DUP2 ADD DUP3 SWAP1 MSTORE SWAP1 PUSH1 0x80 DUP3 ADD MSTORE SWAP1 JUMP JUMPDEST DUP4 PUSH1 0x0 DUP4 PUSH1 0x2 DUP2 GT ISZERO PUSH2 0x21F4 JUMPI PUSH4 0x4E487B71 PUSH1 0xE0 SHL PUSH1 0x0 MSTORE PUSH1 0x21 PUSH1 0x4 MSTORE PUSH1 0x24 PUSH1 0x0 REVERT JUMPDEST PUSH1 0x2 DUP2 GT ISZERO PUSH2 0x2213 JUMPI PUSH4 0x4E487B71 PUSH1 0xE0 SHL PUSH1 0x0 MSTORE PUSH1 0x21 PUSH1 0x4 MSTORE PUSH1 0x24 PUSH1 0x0 REVERT JUMPDEST DUP2 MSTORE PUSH1 0x20 ADD SWAP1 DUP2 MSTORE PUSH1 0x20 ADD PUSH1 0x0 KECCAK256 DUP4 DUP2 SLOAD DUP2 LT PUSH2 0x2240 JUMPI PUSH4 0x4E487B71 PUSH1 0xE0 SHL PUSH1 0x0 MSTORE PUSH1 0x32 PUSH1 0x4 MSTORE PUSH1 0x24 PUSH1 0x0 REVERT JUMPDEST PUSH1 0x0 SWAP2 DUP3 MSTORE PUSH1 0x20 SWAP2 DUP3 SWAP1 KECCAK256 PUSH1 0x40 DUP1 MLOAD PUSH1 0xA0 DUP2 ADD DUP3 MSTORE PUSH1 0x4 SWAP4 SWAP1 SWAP4 MUL SWAP1 SWAP2 ADD DUP1 SLOAD DUP4 MSTORE PUSH1 0x1 DUP2 ADD SLOAD PUSH1 0x1 PUSH1 0x1 PUSH1 0xA0 SHL SUB SWAP1 DUP2 AND SWAP5 DUP5 ADD SWAP5 SWAP1 SWAP5 MSTORE PUSH1 0x2 DUP1 DUP3 ADD SLOAD DUP6 AND SWAP3 DUP5 ADD SWAP3 SWAP1 SWAP3 MSTORE PUSH1 0x3 DUP2 ADD SLOAD SWAP4 DUP5 AND PUSH1 0x60 DUP5 ADD MSTORE SWAP2 SWAP3 PUSH1 0x80 DUP5 ADD SWAP2 PUSH1 0x1 PUSH1 0xA0 SHL SWAP1 SWAP2 DIV PUSH1 0xFF AND SWAP1 DUP2 GT ISZERO PUSH2 0x22C5 JUMPI PUSH4 0x4E487B71 PUSH1 0xE0 SHL PUSH1 0x0 MSTORE PUSH1 0x21 PUSH1 0x4 MSTORE PUSH1 0x24 PUSH1 0x0 REVERT JUMPDEST PUSH1 0x2 DUP2 GT ISZERO PUSH2 0x22E4 JUMPI PUSH4 0x4E487B71 PUSH1 0xE0 SHL PUSH1 0x0 MSTORE PUSH1 0x21 PUSH1 0x4 MSTORE PUSH1 0x24 PUSH1 0x0 REVERT JUMPDEST SWAP1 MSTORE POP SWAP1 POP DUP4 PUSH1 0x0 DUP4 PUSH1 0x2 DUP2 GT ISZERO PUSH2 0x230C JUMPI PUSH4 0x4E487B71 PUSH1 0xE0 SHL PUSH1 0x0 MSTORE PUSH1 0x21 PUSH1 0x4 MSTORE PUSH1 0x24 PUSH1 0x0 REVERT JUMPDEST PUSH1 0x2 DUP2 GT ISZERO PUSH2 0x232B JUMPI PUSH4 0x4E487B71 PUSH1 0xE0 SHL PUSH1 0x0 MSTORE PUSH1 0x21 PUSH1 0x4 MSTORE PUSH1 0x24 PUSH1 0x0 REVERT JUMPDEST DUP2 MSTORE PUSH1 0x20 ADD SWAP1 DUP2 MSTORE PUSH1 0x20 ADD PUSH1 0x0 KECCAK256 DUP4 DUP2 SLOAD DUP2 LT PUSH2 0x2358 JUMPI PUSH4 0x4E487B71 PUSH1 0xE0 SHL PUSH1 0x0 MSTORE PUSH1 0x32 PUSH1 0x4 MSTORE PUSH1 0x24 PUSH1 0x0 REVERT JUMPDEST PUSH1 0x0 SWAP2 DUP3 MSTORE PUSH1 0x20 DUP3 KECCAK256 PUSH1 0x4 SWAP1 SWAP2 MUL ADD SWAP1 DUP2 SSTORE PUSH1 0x1 DUP2 ADD DUP1 SLOAD PUSH1 0x1 PUSH1 0x1 PUSH1 0xA0 SHL SUB NOT SWAP1 DUP2 AND SWAP1 SWAP2 SSTORE PUSH1 0x2 DUP3 ADD DUP1 SLOAD SWAP1 SWAP2 AND SWAP1 SSTORE PUSH1 0x3 ADD DUP1 SLOAD PUSH1 0x1 PUSH1 0x1 PUSH1 0xA8 SHL SUB NOT AND SWAP1 SSTORE SWAP4 SWAP3 POP POP POP JUMP JUMPDEST DUP4 DUP4 DUP2 SLOAD DUP2 LT PUSH2 0x23C2 JUMPI PUSH4 0x4E487B71 PUSH1 0xE0 SHL PUSH1 0x0 MSTORE PUSH1 0x32 PUSH1 0x4 MSTORE PUSH1 0x24 PUSH1 0x0 REVERT JUMPDEST SWAP1 PUSH1 0x0 MSTORE PUSH1 0x20 PUSH1 0x0 KECCAK256 SWAP1 PUSH1 0x2 MUL ADD PUSH1 0x0 ADD PUSH1 0x40 MLOAD DUP1 PUSH1 0xA0 ADD PUSH1 0x40 MSTORE DUP1 DUP5 PUSH1 0x0 ADD MLOAD DUP2 MSTORE PUSH1 0x20 ADD DUP5 PUSH1 0x20 ADD MLOAD PUSH1 0x1 PUSH1 0x1 PUSH1 0xA0 SHL SUB AND DUP2 MSTORE PUSH1 0x20 ADD DUP5 PUSH1 0x40 ADD MLOAD PUSH1 0x1 PUSH1 0x1 PUSH1 0xA0 SHL SUB AND DUP2 MSTORE PUSH1 0x20 ADD DUP5 PUSH1 0x60 ADD MLOAD PUSH1 0x1 PUSH1 0x1 PUSH1 0xA0 SHL SUB AND DUP2 MSTORE PUSH1 0x20 ADD DUP4 PUSH1 0x2 DUP2 GT ISZERO PUSH2 0x2441 JUMPI PUSH4 0x4E487B71 PUSH1 0xE0 SHL PUSH1 0x0 MSTORE PUSH1 0x21 PUSH1 0x4 MSTORE PUSH1 0x24 PUSH1 0x0 REVERT JUMPDEST SWAP1 MSTORE DUP2 SLOAD PUSH1 0x1 DUP1 DUP3 ADD DUP5 SSTORE PUSH1 0x0 SWAP4 DUP5 MSTORE PUSH1 0x20 SWAP4 DUP5 SWAP1 KECCAK256 DUP4 MLOAD PUSH1 0x4 SWAP1 SWAP4 MUL ADD SWAP2 DUP3 SSTORE SWAP3 DUP3 ADD MLOAD SWAP3 DUP2 ADD DUP1 SLOAD PUSH1 0x1 PUSH1 0x1 PUSH1 0xA0 SHL SUB NOT SWAP1 DUP2 AND PUSH1 0x1 PUSH1 0x1 PUSH1 0xA0 SHL SUB SWAP6 DUP7 AND OR SWAP1 SWAP2 SSTORE PUSH1 0x40 DUP4 ADD MLOAD PUSH1 0x2 DUP1 DUP5 ADD DUP1 SLOAD DUP5 AND SWAP3 DUP8 AND SWAP3 SWAP1 SWAP3 OR SWAP1 SWAP2 SSTORE PUSH1 0x60 DUP5 ADD MLOAD PUSH1 0x3 DUP5 ADD DUP1 SLOAD SWAP4 DUP5 AND SWAP2 SWAP1 SWAP7 AND SWAP1 DUP2 OR DUP7 SSTORE PUSH1 0x80 DUP6 ADD MLOAD SWAP5 SWAP6 SWAP4 SWAP5 SWAP4 SWAP3 PUSH1 0x1 PUSH1 0x1 PUSH1 0xA8 SHL SUB NOT AND OR SWAP1 PUSH1 0x1 PUSH1 0xA0 SHL SWAP1 DUP5 SWAP1 DUP2 GT ISZERO PUSH2 0x24F1 JUMPI PUSH4 0x4E487B71 PUSH1 0xE0 SHL PUSH1 0x0 MSTORE PUSH1 0x21 PUSH1 0x4 MSTORE PUSH1 0x24 PUSH1 0x0 REVERT JUMPDEST MUL OR SWAP1 SSTORE POP POP POP POP POP POP POP JUMP JUMPDEST DUP2 SLOAD PUSH1 0x1 DUP2 ADD DUP1 DUP5 SSTORE PUSH1 0x0 DUP5 SWAP1 MSTORE DUP3 SWAP1 DUP5 SWAP1 DUP4 SWAP1 DUP2 LT PUSH2 0x252E JUMPI PUSH4 0x4E487B71 PUSH1 0xE0 SHL PUSH1 0x0 MSTORE PUSH1 0x32 PUSH1 0x4 MSTORE PUSH1 0x24 PUSH1 0x0 REVERT JUMPDEST SWAP1 PUSH1 0x0 MSTORE PUSH1 0x20 PUSH1 0x0 KECCAK256 SWAP1 PUSH1 0x2 MUL ADD PUSH1 0x1 ADD PUSH1 0x0 PUSH2 0x100 EXP DUP2 SLOAD DUP2 PUSH1 0x1 PUSH1 0x1 PUSH1 0xA0 SHL SUB MUL NOT AND SWAP1 DUP4 PUSH1 0x1 PUSH1 0x1 PUSH1 0xA0 SHL SUB AND MUL OR SWAP1 SSTORE POP SWAP3 SWAP2 POP POP JUMP JUMPDEST PUSH2 0x2598 PUSH1 0x40 DUP1 MLOAD PUSH1 0xA0 DUP2 ADD DUP3 MSTORE PUSH1 0x0 DUP1 DUP3 MSTORE PUSH1 0x20 DUP3 ADD DUP2 SWAP1 MSTORE SWAP2 DUP2 ADD DUP3 SWAP1 MSTORE PUSH1 0x60 DUP2 ADD DUP3 SWAP1 MSTORE SWAP1 PUSH1 0x80 DUP3 ADD MSTORE SWAP1 JUMP JUMPDEST DUP4 DUP4 DUP2 SLOAD DUP2 LT PUSH2 0x25B8 JUMPI PUSH4 0x4E487B71 PUSH1 0xE0 SHL PUSH1 0x0 MSTORE PUSH1 0x32 PUSH1 0x4 MSTORE PUSH1 0x24 PUSH1 0x0 REVERT JUMPDEST SWAP1 PUSH1 0x0 MSTORE PUSH1 0x20 PUSH1 0x0 KECCAK256 SWAP1 PUSH1 0x2 MUL ADD PUSH1 0x0 ADD DUP3 DUP2 SLOAD DUP2 LT PUSH2 0x25E8 JUMPI PUSH4 0x4E487B71 PUSH1 0xE0 SHL PUSH1 0x0 MSTORE PUSH1 0x32 PUSH1 0x4 MSTORE PUSH1 0x24 PUSH1 0x0 REVERT JUMPDEST PUSH1 0x0 SWAP2 DUP3 MSTORE PUSH1 0x20 SWAP2 DUP3 SWAP1 KECCAK256 PUSH1 0x40 DUP1 MLOAD PUSH1 0xA0 DUP2 ADD DUP3 MSTORE PUSH1 0x4 SWAP4 SWAP1 SWAP4 MUL SWAP1 SWAP2 ADD DUP1 SLOAD DUP4 MSTORE PUSH1 0x1 DUP2 ADD SLOAD PUSH1 0x1 PUSH1 0x1 PUSH1 0xA0 SHL SUB SWAP1 DUP2 AND SWAP5 DUP5 ADD SWAP5 SWAP1 SWAP5 MSTORE PUSH1 0x2 DUP1 DUP3 ADD SLOAD DUP6 AND SWAP3 DUP5 ADD SWAP3 SWAP1 SWAP3 MSTORE PUSH1 0x3 DUP2 ADD SLOAD SWAP4 DUP5 AND PUSH1 0x60 DUP5 ADD MSTORE SWAP2 SWAP3 PUSH1 0x80 DUP5 ADD SWAP2 PUSH1 0x1 PUSH1 0xA0 SHL SWAP1 SWAP2 DIV PUSH1 0xFF AND SWAP1 DUP2 GT ISZERO PUSH2 0x266D JUMPI PUSH4 0x4E487B71 PUSH1 0xE0 SHL PUSH1 0x0 MSTORE PUSH1 0x21 PUSH1 0x4 MSTORE PUSH1 0x24 PUSH1 0x0 REVERT JUMPDEST PUSH1 0x2 DUP2 GT ISZERO PUSH2 0x268C JUMPI PUSH4 0x4E487B71 PUSH1 0xE0 SHL PUSH1 0x0 MSTORE PUSH1 0x21 PUSH1 0x4 MSTORE PUSH1 0x24 PUSH1 0x0 REVERT JUMPDEST DUP2 MSTORE POP POP SWAP1 POP DUP4 DUP4 DUP2 SLOAD DUP2 LT PUSH2 0x26B2 JUMPI PUSH4 0x4E487B71 PUSH1 0xE0 SHL PUSH1 0x0 MSTORE PUSH1 0x32 PUSH1 0x4 MSTORE PUSH1 0x24 PUSH1 0x0 REVERT JUMPDEST SWAP1 PUSH1 0x0 MSTORE PUSH1 0x20 PUSH1 0x0 KECCAK256 SWAP1 PUSH1 0x2 MUL ADD PUSH1 0x0 ADD DUP3 DUP2 SLOAD DUP2 LT PUSH2 0x2358 JUMPI PUSH4 0x4E487B71 PUSH1 0xE0 SHL PUSH1 0x0 MSTORE PUSH1 0x32 PUSH1 0x4 MSTORE PUSH1 0x24 PUSH1 0x0 REVERT JUMPDEST PUSH1 0x0 DUP1 DUP1 MSTORE PUSH1 0x20 DUP4 SWAP1 MSTORE PUSH1 0x40 DUP2 KECCAK256 SLOAD DUP2 SWAP1 DUP2 SWAP1 PUSH1 0x64 SWAP1 PUSH2 0x2706 SWAP1 DUP7 SWAP1 PUSH1 0xFF AND PUSH2 0x2D74 JUMP JUMPDEST PUSH2 0x2710 SWAP2 SWAP1 PUSH2 0x2D54 JUMP JUMPDEST PUSH1 0x1 PUSH1 0x0 SWAP1 DUP2 MSTORE PUSH1 0x20 DUP8 SWAP1 MSTORE PUSH1 0x40 SWAP1 KECCAK256 SLOAD SWAP1 SWAP4 POP PUSH1 0x64 SWAP1 PUSH2 0x2735 SWAP1 DUP7 SWAP1 PUSH1 0xFF AND PUSH2 0x2D74 JUMP JUMPDEST PUSH2 0x273F SWAP2 SWAP1 PUSH2 0x2D54 JUMP JUMPDEST PUSH1 0x2 PUSH1 0x0 SWAP1 DUP2 MSTORE PUSH1 0x20 DUP8 SWAP1 MSTORE PUSH1 0x40 SWAP1 KECCAK256 SLOAD SWAP1 SWAP3 POP PUSH1 0x64 SWAP1 PUSH2 0x2764 SWAP1 DUP7 SWAP1 PUSH1 0xFF AND PUSH2 0x2D74 JUMP JUMPDEST PUSH2 0x276E SWAP2 SWAP1 PUSH2 0x2D54 JUMP JUMPDEST SWAP1 POP SWAP3 POP SWAP3 POP SWAP3 JUMP JUMPDEST PUSH1 0x0 DUP4 PUSH1 0x0 DUP4 PUSH1 0x4 DUP2 GT ISZERO PUSH2 0x279C JUMPI PUSH4 0x4E487B71 PUSH1 0xE0 SHL PUSH1 0x0 MSTORE PUSH1 0x21 PUSH1 0x4 MSTORE PUSH1 0x24 PUSH1 0x0 REVERT JUMPDEST PUSH1 0x4 DUP2 GT ISZERO PUSH2 0x27BB JUMPI PUSH4 0x4E487B71 PUSH1 0xE0 SHL PUSH1 0x0 MSTORE PUSH1 0x21 PUSH1 0x4 MSTORE PUSH1 0x24 PUSH1 0x0 REVERT JUMPDEST DUP2 MSTORE PUSH1 0x20 DUP1 DUP3 ADD SWAP3 SWAP1 SWAP3 MSTORE PUSH1 0x40 SWAP1 DUP2 ADD PUSH1 0x0 SWAP1 DUP2 KECCAK256 PUSH1 0x1 PUSH1 0x1 PUSH1 0xA0 SHL SUB DUP8 AND DUP3 MSTORE SWAP1 SWAP3 MSTORE SWAP1 KECCAK256 PUSH1 0x2 ADD SLOAD PUSH1 0xFF AND SWAP1 POP SWAP4 SWAP3 POP POP POP JUMP JUMPDEST POP DUP1 SLOAD PUSH1 0x0 DUP3 SSTORE PUSH1 0x4 MUL SWAP1 PUSH1 0x0 MSTORE PUSH1 0x20 PUSH1 0x0 KECCAK256 SWAP1 DUP2 ADD SWAP1 PUSH2 0xA3F SWAP2 SWAP1 JUMPDEST DUP1 DUP3 GT ISZERO PUSH2 0x2854 JUMPI PUSH1 0x0 DUP2 SSTORE PUSH1 0x1 DUP2 ADD DUP1 SLOAD PUSH1 0x1 PUSH1 0x1 PUSH1 0xA0 SHL SUB NOT SWAP1 DUP2 AND SWAP1 SWAP2 SSTORE PUSH1 0x2 DUP3 ADD DUP1 SLOAD SWAP1 SWAP2 AND SWAP1 SSTORE PUSH1 0x3 DUP2 ADD DUP1 SLOAD PUSH1 0x1 PUSH1 0x1 PUSH1 0xA8 SHL SUB NOT AND SWAP1 SSTORE PUSH1 0x4 ADD PUSH2 0x280E JUMP JUMPDEST POP SWAP1 JUMP JUMPDEST DUP1 CALLDATALOAD PUSH1 0x1 PUSH1 0x1 PUSH1 0xA0 SHL SUB DUP2 AND DUP2 EQ PUSH2 0x286F JUMPI PUSH1 0x0 DUP1 REVERT JUMPDEST SWAP2 SWAP1 POP JUMP JUMPDEST PUSH1 0x0 DUP3 PUSH1 0x1F DUP4 ADD SLT PUSH2 0x2884 JUMPI DUP1 DUP2 REVERT JUMPDEST DUP2 CALLDATALOAD PUSH8 0xFFFFFFFFFFFFFFFF DUP2 GT ISZERO PUSH2 0x289E JUMPI PUSH2 0x289E PUSH2 0x2DF0 JUMP JUMPDEST PUSH2 0x28B1 PUSH1 0x1F DUP3 ADD PUSH1 0x1F NOT AND PUSH1 0x20 ADD PUSH2 0x2CFF JUMP JUMPDEST DUP2 DUP2 MSTORE DUP5 PUSH1 0x20 DUP4 DUP7 ADD ADD GT ISZERO PUSH2 0x28C5 JUMPI DUP3 DUP4 REVERT JUMPDEST DUP2 PUSH1 0x20 DUP6 ADD PUSH1 0x20 DUP4 ADD CALLDATACOPY SWAP1 DUP2 ADD PUSH1 0x20 ADD SWAP2 SWAP1 SWAP2 MSTORE SWAP3 SWAP2 POP POP JUMP JUMPDEST DUP1 CALLDATALOAD PUSH1 0xFF DUP2 AND DUP2 EQ PUSH2 0x286F JUMPI PUSH1 0x0 DUP1 REVERT JUMPDEST PUSH1 0x0 PUSH1 0x20 DUP3 DUP5 SUB SLT ISZERO PUSH2 0x2901 JUMPI DUP1 DUP2 REVERT JUMPDEST PUSH2 0x290A DUP3 PUSH2 0x2858 JUMP JUMPDEST SWAP4 SWAP3 POP POP POP JUMP JUMPDEST PUSH1 0x0 DUP1 PUSH1 0x40 DUP4 DUP6 SUB SLT ISZERO PUSH2 0x2923 JUMPI DUP1 DUP2 REVERT JUMPDEST PUSH2 0x292C DUP4 PUSH2 0x2858 JUMP JUMPDEST SWAP2 POP PUSH2 0x293A PUSH1 0x20 DUP5 ADD PUSH2 0x28DF JUMP JUMPDEST SWAP1 POP SWAP3 POP SWAP3 SWAP1 POP JUMP JUMPDEST PUSH1 0x0 PUSH1 0x20 DUP1 DUP4 DUP6 SUB SLT ISZERO PUSH2 0x2955 JUMPI DUP2 DUP3 REVERT JUMPDEST DUP3 CALLDATALOAD PUSH8 0xFFFFFFFFFFFFFFFF DUP1 DUP3 GT ISZERO PUSH2 0x296C JUMPI DUP4 DUP5 REVERT JUMPDEST DUP2 DUP6 ADD SWAP2 POP DUP6 PUSH1 0x1F DUP4 ADD SLT PUSH2 0x297F JUMPI DUP4 DUP5 REVERT JUMPDEST DUP2 CALLDATALOAD PUSH2 0x2992 PUSH2 0x298D DUP3 PUSH2 0x2D30 JUMP JUMPDEST PUSH2 0x2CFF JUMP JUMPDEST DUP1 DUP3 DUP3 MSTORE DUP6 DUP3 ADD SWAP2 POP DUP6 DUP6 ADD DUP10 DUP8 DUP6 PUSH1 0x5 SHL DUP9 ADD ADD GT ISZERO PUSH2 0x29B1 JUMPI DUP8 DUP9 REVERT JUMPDEST DUP8 JUMPDEST DUP5 DUP2 LT ISZERO PUSH2 0x29EA JUMPI DUP2 CALLDATALOAD DUP7 DUP2 GT ISZERO PUSH2 0x29C9 JUMPI DUP10 DUP11 REVERT JUMPDEST PUSH2 0x29D7 DUP13 DUP11 DUP4 DUP12 ADD ADD PUSH2 0x2874 JUMP JUMPDEST DUP6 MSTORE POP SWAP3 DUP8 ADD SWAP3 SWAP1 DUP8 ADD SWAP1 PUSH1 0x1 ADD PUSH2 0x29B3 JUMP JUMPDEST POP SWAP1 SWAP10 SWAP9 POP POP POP POP POP POP POP POP POP JUMP JUMPDEST PUSH1 0x0 PUSH1 0x20 DUP3 DUP5 SUB SLT ISZERO PUSH2 0x2A0A JUMPI DUP1 DUP2 REVERT JUMPDEST DUP2 MLOAD DUP1 ISZERO ISZERO DUP2 EQ PUSH2 0x290A JUMPI DUP2 DUP3 REVERT JUMPDEST PUSH1 0x0 PUSH1 0x20 DUP3 DUP5 SUB SLT ISZERO PUSH2 0x2A2A JUMPI DUP1 DUP2 REVERT JUMPDEST DUP2 CALLDATALOAD PUSH1 0x5 DUP2 LT PUSH2 0x290A JUMPI DUP2 DUP3 REVERT JUMPDEST PUSH1 0x0 PUSH1 0x20 DUP3 DUP5 SUB SLT ISZERO PUSH2 0x2A49 JUMPI DUP1 DUP2 REVERT JUMPDEST DUP2 CALLDATALOAD PUSH1 0x3 DUP2 LT PUSH2 0x290A JUMPI DUP2 DUP3 REVERT JUMPDEST PUSH1 0x0 PUSH1 0x20 DUP3 DUP5 SUB SLT ISZERO PUSH2 0x2A68 JUMPI DUP1 DUP2 REVERT JUMPDEST DUP2 CALLDATALOAD PUSH8 0xFFFFFFFFFFFFFFFF DUP2 GT ISZERO PUSH2 0x2A7E JUMPI DUP2 DUP3 REVERT JUMPDEST PUSH2 0x2A8A DUP5 DUP3 DUP6 ADD PUSH2 0x2874 JUMP JUMPDEST SWAP5 SWAP4 POP POP POP POP JUMP JUMPDEST PUSH1 0x0 PUSH1 0x20 DUP3 DUP5 SUB SLT ISZERO PUSH2 0x2AA3 JUMPI DUP1 DUP2 REVERT JUMPDEST POP CALLDATALOAD SWAP2 SWAP1 POP JUMP JUMPDEST PUSH1 0x0 PUSH1 0x20 DUP3 DUP5 SUB SLT ISZERO PUSH2 0x2ABB JUMPI DUP1 DUP2 REVERT JUMPDEST POP MLOAD SWAP2 SWAP1 POP JUMP JUMPDEST PUSH1 0x0 DUP1 PUSH1 0x40 DUP4 DUP6 SUB SLT ISZERO PUSH2 0x2AD4 JUMPI DUP2 DUP3 REVERT JUMPDEST DUP3 CALLDATALOAD SWAP2 POP PUSH1 0x20 DUP1 DUP5 ADD CALLDATALOAD PUSH8 0xFFFFFFFFFFFFFFFF DUP2 GT ISZERO PUSH2 0x2AF2 JUMPI DUP3 DUP4 REVERT JUMPDEST DUP5 ADD PUSH1 0x1F DUP2 ADD DUP7 SGT PUSH2 0x2B02 JUMPI DUP3 DUP4 REVERT JUMPDEST DUP1 CALLDATALOAD PUSH2 0x2B10 PUSH2 0x298D DUP3 PUSH2 0x2D30 JUMP JUMPDEST DUP1 DUP3 DUP3 MSTORE DUP5 DUP3 ADD SWAP2 POP DUP5 DUP5 ADD DUP10 DUP7 DUP6 PUSH1 0x5 SHL DUP8 ADD ADD GT ISZERO PUSH2 0x2B2F JUMPI DUP7 DUP8 REVERT JUMPDEST DUP7 SWAP5 POP JUMPDEST DUP4 DUP6 LT ISZERO PUSH2 0x2B51 JUMPI DUP1 CALLDATALOAD DUP4 MSTORE PUSH1 0x1 SWAP5 SWAP1 SWAP5 ADD SWAP4 SWAP2 DUP6 ADD SWAP2 DUP6 ADD PUSH2 0x2B33 JUMP JUMPDEST POP DUP1 SWAP6 POP POP POP POP POP POP SWAP3 POP SWAP3 SWAP1 POP JUMP JUMPDEST PUSH1 0x0 DUP1 PUSH1 0x40 DUP4 DUP6 SUB SLT ISZERO PUSH2 0x2B73 JUMPI DUP2 DUP3 REVERT JUMPDEST POP POP DUP1 CALLDATALOAD SWAP3 PUSH1 0x20 SWAP1 SWAP2 ADD CALLDATALOAD SWAP2 POP JUMP JUMPDEST PUSH1 0x0 PUSH1 0x20 DUP3 DUP5 SUB SLT ISZERO PUSH2 0x2B93 JUMPI DUP1 DUP2 REVERT JUMPDEST PUSH2 0x290A DUP3 PUSH2 0x28DF JUMP JUMPDEST PUSH1 0x0 DUP1 PUSH1 0x40 DUP4 DUP6 SUB SLT ISZERO PUSH2 0x2BAE JUMPI DUP2 DUP3 REVERT JUMPDEST PUSH2 0x2BB7 DUP4 PUSH2 0x28DF JUMP JUMPDEST SWAP5 PUSH1 0x20 SWAP4 SWAP1 SWAP4 ADD CALLDATALOAD SWAP4 POP POP POP JUMP JUMPDEST PUSH1 0x0 DUP4 MLOAD PUSH2 0x2BD7 DUP2 DUP5 PUSH1 0x20 DUP9 ADD PUSH2 0x2D93 JUMP JUMPDEST SWAP2 SWAP1 SWAP2 ADD SWAP2 DUP3 MSTORE POP PUSH1 0x20 ADD SWAP2 SWAP1 POP JUMP JUMPDEST PUSH1 0x20 DUP1 DUP3 MSTORE DUP3 MLOAD DUP3 DUP3 ADD DUP2 SWAP1 MSTORE PUSH1 0x0 SWAP2 SWAP1 PUSH1 0x40 SWAP1 DUP2 DUP6 ADD SWAP1 DUP7 DUP5 ADD DUP6 JUMPDEST DUP3 DUP2 LT ISZERO PUSH2 0x2C74 JUMPI DUP2 MLOAD DUP1 MLOAD DUP6 MSTORE DUP7 DUP2 ADD MLOAD PUSH1 0x1 PUSH1 0x1 PUSH1 0xA0 SHL SUB SWAP1 DUP2 AND DUP9 DUP8 ADD MSTORE DUP7 DUP3 ADD MLOAD DUP2 AND DUP8 DUP8 ADD MSTORE PUSH1 0x60 DUP1 DUP4 ADD MLOAD SWAP1 SWAP2 AND SWAP1 DUP7 ADD MSTORE PUSH1 0x80 SWAP1 DUP2 ADD MLOAD SWAP1 PUSH1 0x3 DUP3 LT PUSH2 0x2C5F JUMPI PUSH4 0x4E487B71 PUSH1 0xE0 SHL DUP10 MSTORE PUSH1 0x21 PUSH1 0x4 MSTORE PUSH1 0x24 DUP10 REVERT JUMPDEST DUP6 ADD MSTORE PUSH1 0xA0 SWAP1 SWAP4 ADD SWAP3 SWAP1 DUP6 ADD SWAP1 PUSH1 0x1 ADD PUSH2 0x2C04 JUMP JUMPDEST POP SWAP2 SWAP8 SWAP7 POP POP POP POP POP POP POP JUMP JUMPDEST PUSH1 0x20 DUP2 MSTORE PUSH1 0x0 DUP3 MLOAD DUP1 PUSH1 0x20 DUP5 ADD MSTORE PUSH2 0x2CA0 DUP2 PUSH1 0x40 DUP6 ADD PUSH1 0x20 DUP8 ADD PUSH2 0x2D93 JUMP JUMPDEST PUSH1 0x1F ADD PUSH1 0x1F NOT AND SWAP2 SWAP1 SWAP2 ADD PUSH1 0x40 ADD SWAP3 SWAP2 POP POP JUMP JUMPDEST PUSH1 0x20 DUP1 DUP3 MSTORE PUSH1 0x10 SWAP1 DUP3 ADD MSTORE PUSH16 0x496E76616C69642063617465676F7279 PUSH1 0x80 SHL PUSH1 0x40 DUP3 ADD MSTORE PUSH1 0x60 ADD SWAP1 JUMP JUMPDEST PUSH1 0x20 DUP1 DUP3 MSTORE PUSH1 0x7 SWAP1 DUP3 ADD MSTORE PUSH7 0x1A5B9D985B1A59 PUSH1 0xCA SHL PUSH1 0x40 DUP3 ADD MSTORE PUSH1 0x60 ADD SWAP1 JUMP JUMPDEST PUSH1 0x40 MLOAD PUSH1 0x1F DUP3 ADD PUSH1 0x1F NOT AND DUP2 ADD PUSH8 0xFFFFFFFFFFFFFFFF DUP2 GT DUP3 DUP3 LT OR ISZERO PUSH2 0x2D28 JUMPI PUSH2 0x2D28 PUSH2 0x2DF0 JUMP JUMPDEST PUSH1 0x40 MSTORE SWAP2 SWAP1 POP JUMP JUMPDEST PUSH1 0x0 PUSH8 0xFFFFFFFFFFFFFFFF DUP3 GT ISZERO PUSH2 0x2D4A JUMPI PUSH2 0x2D4A PUSH2 0x2DF0 JUMP JUMPDEST POP PUSH1 0x5 SHL PUSH1 0x20 ADD SWAP1 JUMP JUMPDEST PUSH1 0x0 DUP3 PUSH2 0x2D6F JUMPI PUSH4 0x4E487B71 PUSH1 0xE0 SHL DUP2 MSTORE PUSH1 0x12 PUSH1 0x4 MSTORE PUSH1 0x24 DUP2 REVERT JUMPDEST POP DIV SWAP1 JUMP JUMPDEST PUSH1 0x0 DUP2 PUSH1 0x0 NOT DIV DUP4 GT DUP3 ISZERO ISZERO AND ISZERO PUSH2 0x2D8E JUMPI PUSH2 0x2D8E PUSH2 0x2DDA JUMP JUMPDEST POP MUL SWAP1 JUMP JUMPDEST PUSH1 0x0 JUMPDEST DUP4 DUP2 LT ISZERO PUSH2 0x2DAE JUMPI DUP2 DUP2 ADD MLOAD DUP4 DUP3 ADD MSTORE PUSH1 0x20 ADD PUSH2 0x2D96 JUMP JUMPDEST DUP4 DUP2 GT ISZERO PUSH2 0xBDC JUMPI POP POP PUSH1 0x0 SWAP2 ADD MSTORE JUMP JUMPDEST PUSH1 0x0 PUSH1 0x0 NOT DUP3 EQ ISZERO PUSH2 0x2DD3 JUMPI PUSH2 0x2DD3 PUSH2 0x2DDA JUMP JUMPDEST POP PUSH1 0x1 ADD SWAP1 JUMP JUMPDEST PUSH4 0x4E487B71 PUSH1 0xE0 SHL PUSH1 0x0 MSTORE PUSH1 0x11 PUSH1 0x4 MSTORE PUSH1 0x24 PUSH1 0x0 REVERT JUMPDEST PUSH4 0x4E487B71 PUSH1 0xE0 SHL PUSH1 0x0 MSTORE PUSH1 0x41 PUSH1 0x4 MSTORE PUSH1 0x24 PUSH1 0x0 REVERT INVALID LOG2 PUSH5 0x6970667358 0x22 SLT KECCAK256 PUSH27 0xD4ECE5FA1A7ED713DA19E10D238F70CF12843D968B19FFD5F9CCF8 EXP 0x4C 0xAD 0x23 PUSH5 0x736F6C6343 STOP ADDMOD DIV STOP CALLER "
        },
        "gasEstimates": {
          "creation": {
            "codeDepositCost": "2367200",
            "executionCost": "infinite",
            "totalCost": "infinite"
          },
          "external": {
            "addNewBin()": "64084",
            "binCounter()": "1075",
            "bins(uint256)": "2079",
            "blacklistUser(address,uint8)": "infinite",
            "buyRecycled(uint256)": "infinite",
            "collectMultipleWaste(uint256,uint256[])": "infinite",
            "collectWaste(uint256,uint256)": "infinite",
            "collectorReward()": "1030",
            "formula(uint8)": "1270",
            "garbages(uint8)": "infinite",
            "generateMultipleWaste(string[])": "infinite",
            "generateWaste(string)": "infinite",
            "newSignUpReward()": "1050",
            "owner()": "1120",
            "price()": "1074",
            "recycleMultiple(uint256,uint256[])": "infinite",
            "removeBin(uint256)": "infinite",
            "renounceOwnership()": "infinite",
            "setCollectorUpReward(uint256)": "21156",
            "setFee(uint8,uint256)": "21449",
            "setPrice(uint256)": "21199",
            "setSignUpReward(uint256)": "21199",
            "signUpAsWasteCollector()": "infinite",
            "signUpFees(uint8)": "1202",
            "token()": "1125",
            "totalWasteGenerated()": "1094",
            "transferOwnership(address)": "23677",
            "whitelistuser(address,uint8)": "infinite",
            "withdraw()": "infinite"
          },
          "internal": {
            "_empty()": "infinite",
            "_getApproval(enum Common.Category,address)": "1080",
            "_getBinOwner(uint256)": "1752",
            "recycle(uint256,uint256)": "infinite"
          }
        },
        "methodIdentifiers": {
          "addNewBin()": "ea77351f",
          "binCounter()": "1f2a4a3f",
          "bins(uint256)": "885c7b38",
          "blacklistUser(address,uint8)": "e47c294d",
          "buyRecycled(uint256)": "c437a2f0",
          "collectMultipleWaste(uint256,uint256[])": "41311bc3",
          "collectWaste(uint256,uint256)": "c3864cce",
          "collectorReward()": "235eb9f5",
          "formula(uint8)": "c2f0c279",
          "garbages(uint8)": "a741c0df",
          "generateMultipleWaste(string[])": "955ef11a",
          "generateWaste(string)": "b7588280",
          "newSignUpReward()": "f9404506",
          "owner()": "8da5cb5b",
          "price()": "a035b1fe",
          "recycleMultiple(uint256,uint256[])": "0bdd7063",
          "removeBin(uint256)": "93051d95",
          "renounceOwnership()": "715018a6",
          "setCollectorUpReward(uint256)": "72938a14",
          "setFee(uint8,uint256)": "8c6aa3f5",
          "setPrice(uint256)": "91b7f5ed",
          "setSignUpReward(uint256)": "f2d03e15",
          "signUpAsWasteCollector()": "84b038df",
          "signUpFees(uint8)": "0095db2d",
          "token()": "fc0c546a",
          "totalWasteGenerated()": "ffc2105c",
          "transferOwnership(address)": "f2fde38b",
          "whitelistuser(address,uint8)": "31b59ed7",
          "withdraw()": "3ccfd60b"
        }
      },
      "storageLayout": {
        "storage": [
          {
            "astId": 630,
            "contract": "contracts/verify/IBoolaContractV.sol:IBoolaContractV",
            "label": "_owner",
            "offset": 0,
            "slot": "0",
            "type": "t_address"
          },
          {
            "astId": 745,
            "contract": "contracts/verify/IBoolaContractV.sol:IBoolaContractV",
            "label": "newSignUpReward",
            "offset": 0,
            "slot": "1",
            "type": "t_uint256"
          },
          {
            "astId": 748,
            "contract": "contracts/verify/IBoolaContractV.sol:IBoolaContractV",
            "label": "token",
            "offset": 0,
            "slot": "2",
            "type": "t_address"
          },
          {
            "astId": 751,
            "contract": "contracts/verify/IBoolaContractV.sol:IBoolaContractV",
            "label": "totalWasteGenerated",
            "offset": 0,
            "slot": "3",
            "type": "t_uint256"
          },
          {
            "astId": 754,
            "contract": "contracts/verify/IBoolaContractV.sol:IBoolaContractV",
            "label": "collectorReward",
            "offset": 0,
            "slot": "4",
            "type": "t_uint256"
          },
          {
            "astId": 757,
            "contract": "contracts/verify/IBoolaContractV.sol:IBoolaContractV",
            "label": "binCounter",
            "offset": 0,
            "slot": "5",
            "type": "t_uint256"
          },
          {
            "astId": 760,
            "contract": "contracts/verify/IBoolaContractV.sol:IBoolaContractV",
            "label": "price",
            "offset": 0,
            "slot": "6",
            "type": "t_uint256"
          },
          {
            "astId": 765,
            "contract": "contracts/verify/IBoolaContractV.sol:IBoolaContractV",
            "label": "bins",
            "offset": 0,
            "slot": "7",
            "type": "t_array(t_struct(BinData)63_storage)dyn_storage"
          },
          {
            "astId": 770,
            "contract": "contracts/verify/IBoolaContractV.sol:IBoolaContractV",
            "label": "formula",
            "offset": 0,
            "slot": "8",
            "type": "t_mapping(t_enum(Share)15,t_uint8)"
          },
          {
            "astId": 778,
            "contract": "contracts/verify/IBoolaContractV.sol:IBoolaContractV",
            "label": "_garbages",
            "offset": 0,
            "slot": "9",
            "type": "t_mapping(t_enum(State)5,t_array(t_struct(WasteData)43_storage)dyn_storage)"
          },
          {
            "astId": 787,
            "contract": "contracts/verify/IBoolaContractV.sol:IBoolaContractV",
            "label": "profiles",
            "offset": 0,
            "slot": "10",
            "type": "t_mapping(t_enum(Category)11,t_mapping(t_address,t_struct(Profile)56_storage))"
          },
          {
            "astId": 793,
            "contract": "contracts/verify/IBoolaContractV.sol:IBoolaContractV",
            "label": "signUpFees",
            "offset": 0,
            "slot": "11",
            "type": "t_mapping(t_enum(Category)11,t_uint256)"
          }
        ],
        "types": {
          "t_address": {
            "encoding": "inplace",
            "label": "address",
            "numberOfBytes": "20"
          },
          "t_array(t_struct(BinData)63_storage)dyn_storage": {
            "base": "t_struct(BinData)63_storage",
            "encoding": "dynamic_array",
            "label": "struct Common.BinData[]",
            "numberOfBytes": "32"
          },
          "t_array(t_struct(WasteData)43_storage)dyn_storage": {
            "base": "t_struct(WasteData)43_storage",
            "encoding": "dynamic_array",
            "label": "struct Common.WasteData[]",
            "numberOfBytes": "32"
          },
          "t_bool": {
            "encoding": "inplace",
            "label": "bool",
            "numberOfBytes": "1"
          },
          "t_bytes32": {
            "encoding": "inplace",
            "label": "bytes32",
            "numberOfBytes": "32"
          },
          "t_enum(Category)11": {
            "encoding": "inplace",
            "label": "enum Common.Category",
            "numberOfBytes": "1"
          },
          "t_enum(Share)15": {
            "encoding": "inplace",
            "label": "enum Common.Share",
            "numberOfBytes": "1"
          },
          "t_enum(State)5": {
            "encoding": "inplace",
            "label": "enum Common.State",
            "numberOfBytes": "1"
          },
          "t_mapping(t_address,t_struct(Profile)56_storage)": {
            "encoding": "mapping",
            "key": "t_address",
            "label": "mapping(address => struct Common.Profile)",
            "numberOfBytes": "32",
            "value": "t_struct(Profile)56_storage"
          },
          "t_mapping(t_enum(Category)11,t_mapping(t_address,t_struct(Profile)56_storage))": {
            "encoding": "mapping",
            "key": "t_enum(Category)11",
            "label": "mapping(enum Common.Category => mapping(address => struct Common.Profile))",
            "numberOfBytes": "32",
            "value": "t_mapping(t_address,t_struct(Profile)56_storage)"
          },
          "t_mapping(t_enum(Category)11,t_uint256)": {
            "encoding": "mapping",
            "key": "t_enum(Category)11",
            "label": "mapping(enum Common.Category => uint256)",
            "numberOfBytes": "32",
            "value": "t_uint256"
          },
          "t_mapping(t_enum(Share)15,t_uint8)": {
            "encoding": "mapping",
            "key": "t_enum(Share)15",
            "label": "mapping(enum Common.Share => uint8)",
            "numberOfBytes": "32",
            "value": "t_uint8"
          },
          "t_mapping(t_enum(State)5,t_array(t_struct(WasteData)43_storage)dyn_storage)": {
            "encoding": "mapping",
            "key": "t_enum(State)5",
            "label": "mapping(enum Common.State => struct Common.WasteData[])",
            "numberOfBytes": "32",
            "value": "t_array(t_struct(WasteData)43_storage)dyn_storage"
          },
          "t_struct(BinData)63_storage": {
            "encoding": "inplace",
            "label": "struct Common.BinData",
            "members": [
              {
                "astId": 60,
                "contract": "contracts/verify/IBoolaContractV.sol:IBoolaContractV",
                "label": "bin",
                "offset": 0,
                "slot": "0",
                "type": "t_array(t_struct(WasteData)43_storage)dyn_storage"
              },
              {
                "astId": 62,
                "contract": "contracts/verify/IBoolaContractV.sol:IBoolaContractV",
                "label": "owner",
                "offset": 0,
                "slot": "1",
                "type": "t_address"
              }
            ],
            "numberOfBytes": "64"
          },
          "t_struct(Profile)56_storage": {
            "encoding": "inplace",
            "label": "struct Common.Profile",
            "members": [
              {
                "astId": 45,
                "contract": "contracts/verify/IBoolaContractV.sol:IBoolaContractV",
                "label": "transactionTime",
                "offset": 0,
                "slot": "0",
                "type": "t_uint32"
              },
              {
                "astId": 47,
                "contract": "contracts/verify/IBoolaContractV.sol:IBoolaContractV",
                "label": "wasteCount",
                "offset": 0,
                "slot": "1",
                "type": "t_uint256"
              },
              {
                "astId": 49,
                "contract": "contracts/verify/IBoolaContractV.sol:IBoolaContractV",
                "label": "approval",
                "offset": 0,
                "slot": "2",
                "type": "t_bool"
              },
              {
                "astId": 51,
                "contract": "contracts/verify/IBoolaContractV.sol:IBoolaContractV",
                "label": "isRegistered",
                "offset": 1,
                "slot": "2",
                "type": "t_bool"
              },
              {
                "astId": 55,
                "contract": "contracts/verify/IBoolaContractV.sol:IBoolaContractV",
                "label": "purchased",
                "offset": 0,
                "slot": "3",
                "type": "t_array(t_struct(WasteData)43_storage)dyn_storage"
              }
            ],
            "numberOfBytes": "128"
          },
          "t_struct(WasteData)43_storage": {
            "encoding": "inplace",
            "label": "struct Common.WasteData",
            "members": [
              {
                "astId": 33,
                "contract": "contracts/verify/IBoolaContractV.sol:IBoolaContractV",
                "label": "value",
                "offset": 0,
                "slot": "0",
                "type": "t_bytes32"
              },
              {
                "astId": 35,
                "contract": "contracts/verify/IBoolaContractV.sol:IBoolaContractV",
                "label": "collector",
                "offset": 0,
                "slot": "1",
                "type": "t_address"
              },
              {
                "astId": 37,
                "contract": "contracts/verify/IBoolaContractV.sol:IBoolaContractV",
                "label": "generator",
                "offset": 0,
                "slot": "2",
                "type": "t_address"
              },
              {
                "astId": 39,
                "contract": "contracts/verify/IBoolaContractV.sol:IBoolaContractV",
                "label": "recycler",
                "offset": 0,
                "slot": "3",
                "type": "t_address"
              },
              {
                "astId": 42,
                "contract": "contracts/verify/IBoolaContractV.sol:IBoolaContractV",
                "label": "state",
                "offset": 20,
                "slot": "3",
                "type": "t_enum(State)5"
              }
            ],
            "numberOfBytes": "128"
          },
          "t_uint256": {
            "encoding": "inplace",
            "label": "uint256",
            "numberOfBytes": "32"
          },
          "t_uint32": {
            "encoding": "inplace",
            "label": "uint32",
            "numberOfBytes": "4"
          },
          "t_uint8": {
            "encoding": "inplace",
            "label": "uint8",
            "numberOfBytes": "1"
          }
        }
      },
      "userdoc": {
        "kind": "user",
        "methods": {
          "addNewBin()": {
            "notice": "Caller must already be approves as BinOwner ."
          },
          "bins(uint256)": {
            "notice": "Bins in this list are owned by addresses."
          },
          "buyRecycled(uint256)": {
            "notice": "Buy recycled waste in form of manure NOTE: Only recycled waste can be bought. If available manure cannot cover requested volume, buyer simply  purchased available volume."
          },
          "generateWaste(string)": {
            "notice": "Each waste is unique to another. Note To successfully generate waste, bin id must be provided. This represents the destination where wastes are dumped."
          },
          "recycleMultiple(uint256,uint256[])": {
            "notice": "Can recycle wastes greater than 0 but less than 51"
          },
          "removeBin(uint256)": {
            "notice": "Caller must already be approves as BinOwner ."
          },
          "setFee(uint8,uint256)": {
            "notice": "To perfectly select the right category, category parameter should not be greater than 4."
          },
          "signUpAsWasteCollector()": {
            "notice": "Sign up function.  o Caller must not already be a member. "
          },
          "signUpFees(uint8)": {
            "notice": "- It can be configured to suit any category."
          },
          "withdraw()": {
            "notice": "Withdraw reward if any {IBoola Token} Note - Caller must have previous reward otherwise it fails."
          }
        },
        "version": 1
      }
    }
  }
}