{
  "contracts/IBoolaContract.sol": {
    "IBoolaContract": {
      "abi": [
        {
          "inputs": [
            {
              "internalType": "address",
              "name": "_token",
              "type": "address"
            }
          ],
          "stateMutability": "nonpayable",
          "type": "constructor"
        },
        {
          "inputs": [],
          "name": "CannotDeleteBinInEngagedMode",
          "type": "error"
        },
        {
          "inputs": [],
          "name": "EmptyBin",
          "type": "error"
        },
        {
          "inputs": [],
          "name": "InvalidBinID",
          "type": "error"
        },
        {
          "inputs": [],
          "name": "InvalidWasteId",
          "type": "error"
        },
        {
          "inputs": [],
          "name": "MaxWasteTransportExceeded",
          "type": "error"
        },
        {
          "inputs": [],
          "name": "NothingToWithdraw",
          "type": "error"
        },
        {
          "inputs": [],
          "name": "UserAlreadyExist",
          "type": "error"
        },
        {
          "inputs": [],
          "name": "UserAlreadyNotExist",
          "type": "error"
        },
        {
          "anonymous": false,
          "inputs": [
            {
              "indexed": true,
              "internalType": "address",
              "name": "previousOwner",
              "type": "address"
            },
            {
              "indexed": true,
              "internalType": "address",
              "name": "newOwner",
              "type": "address"
            }
          ],
          "name": "OwnershipTransferred",
          "type": "event"
        },
        {
          "anonymous": false,
          "inputs": [
            {
              "indexed": false,
              "internalType": "uint256",
              "name": "binId",
              "type": "uint256"
            },
            {
              "indexed": false,
              "internalType": "address",
              "name": "msgSender",
              "type": "address"
            }
          ],
          "name": "RegisteredBin",
          "type": "event"
        },
        {
          "inputs": [],
          "name": "binCounter",
          "outputs": [
            {
              "internalType": "uint256",
              "name": "",
              "type": "uint256"
            }
          ],
          "stateMutability": "view",
          "type": "function"
        },
        {
          "inputs": [
            {
              "internalType": "uint256",
              "name": "",
              "type": "uint256"
            }
          ],
          "name": "bins",
          "outputs": [
            {
              "internalType": "address",
              "name": "owner",
              "type": "address"
            }
          ],
          "stateMutability": "view",
          "type": "function"
        },
        {
          "inputs": [
            {
              "internalType": "address",
              "name": "who",
              "type": "address"
            },
            {
              "internalType": "uint8",
              "name": "category",
              "type": "uint8"
            }
          ],
          "name": "blacklistUser",
          "outputs": [],
          "stateMutability": "nonpayable",
          "type": "function"
        },
        {
          "inputs": [
            {
              "internalType": "uint256",
              "name": "volume",
              "type": "uint256"
            }
          ],
          "name": "buyRecycled",
          "outputs": [],
          "stateMutability": "payable",
          "type": "function"
        },
        {
          "inputs": [
            {
              "internalType": "uint256",
              "name": "binId",
              "type": "uint256"
            },
            {
              "internalType": "uint256[]",
              "name": "wasteIds",
              "type": "uint256[]"
            }
          ],
          "name": "collectMultipleWaste",
          "outputs": [],
          "stateMutability": "nonpayable",
          "type": "function"
        },
        {
          "inputs": [
            {
              "internalType": "uint256",
              "name": "binId",
              "type": "uint256"
            },
            {
              "internalType": "uint256",
              "name": "wasteId",
              "type": "uint256"
            }
          ],
          "name": "collectWaste",
          "outputs": [],
          "stateMutability": "nonpayable",
          "type": "function"
        },
        {
          "inputs": [],
          "name": "collectorReward",
          "outputs": [
            {
              "internalType": "uint256",
              "name": "",
              "type": "uint256"
            }
          ],
          "stateMutability": "view",
          "type": "function"
        },
        {
          "inputs": [
            {
              "internalType": "enum Common.Share",
              "name": "",
              "type": "uint8"
            }
          ],
          "name": "formula",
          "outputs": [
            {
              "internalType": "uint8",
              "name": "",
              "type": "uint8"
            }
          ],
          "stateMutability": "view",
          "type": "function"
        },
        {
          "inputs": [
            {
              "internalType": "uint8",
              "name": "_category",
              "type": "uint8"
            }
          ],
          "name": "garbages",
          "outputs": [
            {
              "components": [
                {
                  "internalType": "bytes32",
                  "name": "value",
                  "type": "bytes32"
                },
                {
                  "internalType": "address",
                  "name": "collector",
                  "type": "address"
                },
                {
                  "internalType": "address",
                  "name": "generator",
                  "type": "address"
                },
                {
                  "internalType": "address",
                  "name": "recycler",
                  "type": "address"
                },
                {
                  "internalType": "enum Common.State",
                  "name": "state",
                  "type": "uint8"
                }
              ],
              "internalType": "struct Common.WasteData[]",
              "name": "_data",
              "type": "tuple[]"
            }
          ],
          "stateMutability": "view",
          "type": "function"
        },
        {
          "inputs": [
            {
              "internalType": "string[]",
              "name": "data",
              "type": "string[]"
            }
          ],
          "name": "generateMultipleWaste",
          "outputs": [],
          "stateMutability": "nonpayable",
          "type": "function"
        },
        {
          "inputs": [
            {
              "internalType": "string",
              "name": "_data",
              "type": "string"
            }
          ],
          "name": "generateWaste",
          "outputs": [],
          "stateMutability": "nonpayable",
          "type": "function"
        },
        {
          "inputs": [
            {
              "internalType": "uint256",
              "name": "category",
              "type": "uint256"
            },
            {
              "internalType": "address",
              "name": "who",
              "type": "address"
            }
          ],
          "name": "getProfile",
          "outputs": [
            {
              "components": [
                {
                  "internalType": "uint32",
                  "name": "transactionTime",
                  "type": "uint32"
                },
                {
                  "internalType": "uint256",
                  "name": "wasteCount",
                  "type": "uint256"
                },
                {
                  "internalType": "bool",
                  "name": "approval",
                  "type": "bool"
                },
                {
                  "internalType": "bool",
                  "name": "isRegistered",
                  "type": "bool"
                },
                {
                  "components": [
                    {
                      "internalType": "bytes32",
                      "name": "value",
                      "type": "bytes32"
                    },
                    {
                      "internalType": "address",
                      "name": "collector",
                      "type": "address"
                    },
                    {
                      "internalType": "address",
                      "name": "generator",
                      "type": "address"
                    },
                    {
                      "internalType": "address",
                      "name": "recycler",
                      "type": "address"
                    },
                    {
                      "internalType": "enum Common.State",
                      "name": "state",
                      "type": "uint8"
                    }
                  ],
                  "internalType": "struct Common.WasteData[]",
                  "name": "purchased",
                  "type": "tuple[]"
                },
                {
                  "internalType": "bytes",
                  "name": "metadata",
                  "type": "bytes"
                }
              ],
              "internalType": "struct Common.Profile",
              "name": "_profile",
              "type": "tuple"
            }
          ],
          "stateMutability": "view",
          "type": "function"
        },
        {
          "inputs": [],
          "name": "newSignUpReward",
          "outputs": [
            {
              "internalType": "uint256",
              "name": "",
              "type": "uint256"
            }
          ],
          "stateMutability": "view",
          "type": "function"
        },
        {
          "inputs": [],
          "name": "owner",
          "outputs": [
            {
              "internalType": "address",
              "name": "",
              "type": "address"
            }
          ],
          "stateMutability": "view",
          "type": "function"
        },
        {
          "inputs": [],
          "name": "price",
          "outputs": [
            {
              "internalType": "uint256",
              "name": "",
              "type": "uint256"
            }
          ],
          "stateMutability": "view",
          "type": "function"
        },
        {
          "inputs": [
            {
              "internalType": "uint256",
              "name": "binId",
              "type": "uint256"
            },
            {
              "internalType": "uint256[]",
              "name": "wasteIds",
              "type": "uint256[]"
            }
          ],
          "name": "recycleMultiple",
          "outputs": [],
          "stateMutability": "nonpayable",
          "type": "function"
        },
        {
          "inputs": [],
          "name": "registerBin",
          "outputs": [],
          "stateMutability": "payable",
          "type": "function"
        },
        {
          "inputs": [
            {
              "internalType": "uint256",
              "name": "binId",
              "type": "uint256"
            }
          ],
          "name": "removeBin",
          "outputs": [],
          "stateMutability": "nonpayable",
          "type": "function"
        },
        {
          "inputs": [],
          "name": "renounceOwnership",
          "outputs": [],
          "stateMutability": "nonpayable",
          "type": "function"
        },
        {
          "inputs": [
            {
              "internalType": "uint256",
              "name": "newReward",
              "type": "uint256"
            }
          ],
          "name": "setCollectorUpReward",
          "outputs": [],
          "stateMutability": "nonpayable",
          "type": "function"
        },
        {
          "inputs": [
            {
              "internalType": "uint8",
              "name": "category",
              "type": "uint8"
            },
            {
              "internalType": "uint256",
              "name": "newFee",
              "type": "uint256"
            }
          ],
          "name": "setFee",
          "outputs": [],
          "stateMutability": "nonpayable",
          "type": "function"
        },
        {
          "inputs": [
            {
              "internalType": "uint256",
              "name": "newPrice",
              "type": "uint256"
            }
          ],
          "name": "setPrice",
          "outputs": [],
          "stateMutability": "nonpayable",
          "type": "function"
        },
        {
          "inputs": [
            {
              "internalType": "uint256",
              "name": "newReward",
              "type": "uint256"
            }
          ],
          "name": "setSignUpReward",
          "outputs": [],
          "stateMutability": "nonpayable",
          "type": "function"
        },
        {
          "inputs": [
            {
              "internalType": "string",
              "name": "location",
              "type": "string"
            },
            {
              "internalType": "string",
              "name": "_address",
              "type": "string"
            }
          ],
          "name": "signUpAsWasteCollector",
          "outputs": [],
          "stateMutability": "nonpayable",
          "type": "function"
        },
        {
          "inputs": [
            {
              "internalType": "enum Common.Category",
              "name": "",
              "type": "uint8"
            }
          ],
          "name": "signUpFees",
          "outputs": [
            {
              "internalType": "uint256",
              "name": "",
              "type": "uint256"
            }
          ],
          "stateMutability": "view",
          "type": "function"
        },
        {
          "inputs": [],
          "name": "token",
          "outputs": [
            {
              "internalType": "address",
              "name": "",
              "type": "address"
            }
          ],
          "stateMutability": "view",
          "type": "function"
        },
        {
          "inputs": [],
          "name": "totalWasteGenerated",
          "outputs": [
            {
              "internalType": "uint256",
              "name": "",
              "type": "uint256"
            }
          ],
          "stateMutability": "view",
          "type": "function"
        },
        {
          "inputs": [
            {
              "internalType": "address",
              "name": "newOwner",
              "type": "address"
            }
          ],
          "name": "transferOwnership",
          "outputs": [],
          "stateMutability": "nonpayable",
          "type": "function"
        },
        {
          "inputs": [
            {
              "internalType": "address",
              "name": "who",
              "type": "address"
            },
            {
              "internalType": "uint8",
              "name": "category",
              "type": "uint8"
            }
          ],
          "name": "whitelistuser",
          "outputs": [],
          "stateMutability": "nonpayable",
          "type": "function"
        },
        {
          "inputs": [],
          "name": "withdraw",
          "outputs": [],
          "stateMutability": "nonpayable",
          "type": "function"
        }
      ],
      "devdoc": {
        "author": "Bobeu: https://github.com/bobeu A smart contract that will tokenize the disposal and collection of waste.  Users get a token when they dispose of their waste in a waste bin, collectors  get token for collecting waste and taking them to the waste recyclers  The process of tokenization happens when the waste drops in the waste bin. Every waste bin has a unique wallet ID which will receive the token at the end of evacuation. The owners of the waste bin will have a DAO.  Wallet  Token (iBoola token) which would be paired against either Avalanche, Celo or Polygon  New users get 10 $IBT after sign up  Community of waste bins will have a DAO  Waste generators get 10% collectors get 65 while the iBoola team gets 25%  Decimals: use standard 18 decimals  Mintable: not mintable Ownership privilege :  30% locked for 5 years, 20% for dev team 45% for  initial circulation,  5% for presale  PSEUDO ====== Parties: o Waste generators. o Collectors. o Recyclers. o When waste is disposed or evacuated, then reward collectors. o Each waste bin has a unique identifer and an owner. o On sign up, user gets 10 $IBT Token. o Waste collectors own a DAO. o Waste bin owners own a DAO. o Reward sharing formula Note - It is configurable. The owner account is able to  set each of these fields. - Waste generators 10%. - Collectors 65%. - Team 25%.",
        "kind": "dev",
        "methods": {
          "blacklistUser(address,uint8)": {
            "details": "Blacklist user Note Admin privilege. cat should reference the Category enum."
          },
          "collectWaste(uint256,uint256)": {
            "details": "Collect waste for disposal.  Note: Caller must be an approved waste collector. must supply the following:",
            "params": {
              "binId": "- Location of bin to deposit collected waste. ie bin index",
              "wasteId": "- Identifier for waste collected."
            }
          },
          "garbages(uint8)": {
            "details": "Returns list of wastes under each 'State' i.e Generated waste data, Collected waste data, ...rest"
          },
          "generateMultipleWaste(string[])": {
            "details": "Generates multiple waste data"
          },
          "generateWaste(string)": {
            "details": "Generates new waste. "
          },
          "owner()": {
            "details": "Returns the address of the current owner."
          },
          "registerBin()": {
            "details": "Adds new bin."
          },
          "removeBin(uint256)": {
            "details": "Removes bin at binId."
          },
          "renounceOwnership()": {
            "details": "Leaves the contract without owner. It will not be possible to call `onlyOwner` functions anymore. Can only be called by the current owner. NOTE: Renouncing ownership will leave the contract without an owner, thereby removing any functionality that is only available to the owner."
          },
          "setCollectorUpReward(uint256)": {
            "details": "Sets new sign up reward. Note With access modifier"
          },
          "setFee(uint8,uint256)": {
            "details": "Set new fee"
          },
          "setPrice(uint256)": {
            "details": "Sets new price for recycled waste."
          },
          "setSignUpReward(uint256)": {
            "details": "Sets new sign up reward. Note With access modifier"
          },
          "transferOwnership(address)": {
            "details": "Transfers ownership of the contract to a new account (`newOwner`). Can only be called by the current owner."
          },
          "whitelistuser(address,uint8)": {
            "details": "Whitelist user Note Admin privilege. cat should reference the Category enum."
          }
        },
        "stateVariables": {
          "_garbages": {
            "details": "Mapping of Generated and Recycled Waste State -> binId (binCounter) -> WasteData Keys type:  o State o uint256 value: array of struct(s) "
          },
          "binCounter": {
            "details": "Total bin registered to date"
          },
          "bins": {
            "details": "Array of bins  { Contain bins which contain collected wastes which contains wastedata}"
          },
          "collectorReward": {
            "details": "Collector reward"
          },
          "newSignUpReward": {
            "details": "New sign up reward"
          },
          "price": {
            "details": "Price of recycled waste"
          },
          "profiles": {
            "details": "Mapping of Waste State -> user -> profile Keys type:  o State o address value: struct "
          },
          "signUpFees": {
            "details": "Sign up fees for different category."
          },
          "token": {
            "details": "iBoola Token"
          },
          "totalWasteGenerated": {
            "details": "Total waste generated to date"
          }
        },
        "title": "IBoolaContract",
        "version": 1
      },
      "evm": {
        "bytecode": {
          "linkReferences": {},
          "object": "60806040523480156200001157600080fd5b50604051620035c2380380620035c283398101604081905262000034916200020f565b6200003f33620001bf565b600280546001600160a01b0319166001600160a01b038316179055678ac7230489e80000600190815560036000908152600a6020527fa856840544dc26124927add067d799967eac11be13e14d82cc281ea46fa39759906200009e3390565b6001600160a01b031681526020808201929092526040016000908120600201805493151560ff199485161790558080526008918290527f5eff886ea0ce6ca488a3d6e336d6c0f75f46d19b42c06ce5ee98e42c96d256c78054909316604117909255600a91600160028111156200012557634e487b7160e01b600052602160045260246000fd5b815260200190815260200160002060006101000a81548160ff021916908360ff1602179055506019600860006002808111156200017257634e487b7160e01b600052602160045260246000fd5b60028111156200019257634e487b7160e01b600052602160045260246000fd5b815260200190815260200160002060006101000a81548160ff021916908360ff160217905550506200023f565b600080546001600160a01b038381166001600160a01b0319831681178455604051919092169283917f8be0079c531659141344cd1fd0a4f28419497f9722a3daafe3b4186f6b6457e09190a35050565b60006020828403121562000221578081fd5b81516001600160a01b038116811462000238578182fd5b9392505050565b613373806200024f6000396000f3fe6080604052600436106101cc5760003560e01c806393051d95116100f7578063c3864cce11610095578063f2fde38b11610064578063f2fde38b1461052c578063f94045061461054c578063fc0c546a14610562578063ffc2105c1461058257600080fd5b8063c3864cce146104b9578063c437a2f0146104d9578063e47c294d146104ec578063f2d03e151461050c57600080fd5b8063a741c0df116100d1578063a741c0df14610422578063b75882801461044f578063bf5e6b6d1461046f578063c2f0c2791461047757600080fd5b806393051d95146103cc578063955ef11a146103ec578063a035b1fe1461040c57600080fd5b80633fd979271161016f578063885c7b381161013e578063885c7b38146103365780638c6aa3f51461036e5780638da5cb5b1461038e57806391b7f5ed146103ac57600080fd5b80633fd97927146102b457806341311bc3146102e1578063715018a61461030157806372938a141461031657600080fd5b80631f2a4a3f116101ab5780631f2a4a3f14610253578063235eb9f51461026957806331b59ed71461027f5780633ccfd60b1461029f57600080fd5b806295db2d146101d15780630b776241146102115780630bdd706314610233575b600080fd5b3480156101dd57600080fd5b506101fe6101ec366004612df7565b600b6020526000908152604090205481565b6040519081526020015b60405180910390f35b34801561021d57600080fd5b5061023161022c366004612e70565b610598565b005b34801561023f57600080fd5b5061023161024e366004612f23565b6106bb565b34801561025f57600080fd5b506101fe60055481565b34801561027557600080fd5b506101fe60045481565b34801561028b57600080fd5b5061023161029a366004612cef565b610798565b3480156102ab57600080fd5b506102316107f4565b3480156102c057600080fd5b506102d46102cf366004612f01565b61093b565b6040516102089190613190565b3480156102ed57600080fd5b506102316102fc366004612f23565b610bfe565b34801561030d57600080fd5b50610231610cd2565b34801561032257600080fd5b50610231610331366004612ed1565b610ce6565b34801561034257600080fd5b50610356610351366004612ed1565b610cf3565b6040516001600160a01b039091168152602001610208565b34801561037a57600080fd5b50610231610389366004612ffd565b610d25565b34801561039a57600080fd5b506000546001600160a01b0316610356565b3480156103b857600080fd5b506102316103c7366004612ed1565b610dcb565b3480156103d857600080fd5b506102316103e7366004612ed1565b610dd8565b3480156103f857600080fd5b50610231610407366004612d21565b610e93565b34801561041857600080fd5b506101fe60065481565b34801561042e57600080fd5b5061044261043d366004612fe3565b610f6c565b6040516102089190613104565b34801561045b57600080fd5b5061023161046a366004612e35565b611110565b6102316111ea565b34801561048357600080fd5b506104a7610492366004612e16565b60086020526000908152604090205460ff1681565b60405160ff9091168152602001610208565b3480156104c557600080fd5b506102316104d4366004612fc2565b611313565b6102316104e7366004612ed1565b611567565b3480156104f857600080fd5b50610231610507366004612cef565b6119b7565b34801561051857600080fd5b50610231610527366004612ed1565b611a0e565b34801561053857600080fd5b50610231610547366004612cce565b611a1b565b34801561055857600080fd5b506101fe60015481565b34801561056e57600080fd5b50600254610356906001600160a01b031681565b34801561058e57600080fd5b506101fe60035481565b3360009081527f13da86008ba1c6922daee3e07db95305ef49ebced9f5467a0b8613fcc6b343e36020526040902060020154610100900460ff16156106165760405162461bcd60e51b815260206004820152600f60248201526e0416c7265616479207369676e20757608c1b60448201526064015b60405180910390fd5b610623600a338484611a94565b6002546001600160a01b031663095ea7b3336001546040516001600160e01b031960e085901b1681526001600160a01b0390921660048301526024820152604401602060405180830381600087803b15801561067e57600080fd5b505af1158015610692573d6000803e3d6000fd5b505050506040513d601f19601f820116820180604052508101906106b69190612dd7565b505050565b806106c4611b7a565b6020015180516000906032901561070d578160ff1683511180156106ec57508060ff16835111155b6107085760405162461bcd60e51b815260040161060d9061316f565b610740565b8160ff16845111801561072457508060ff16845111155b6107405760405162461bcd60e51b815260040161060d9061316f565b60005b855181101561078f5761077d8787838151811061077057634e487b7160e01b600052603260045260246000fd5b6020026020010151611bda565b80610787816132f6565b915050610743565b50505050505050565b6107a0611e69565b8060048160ff16106107c45760405162461bcd60e51b815260040161060d90613145565b6106b6600a8460018560ff1660048111156107ef57634e487b7160e01b600052602160045260246000fd5b611ec3565b60025460408051636eb1769f60e11b815230600482015233602482015290516000926001600160a01b03169163dd62ed3e916044808301926020929190829003018186803b15801561084557600080fd5b505afa158015610859573d6000803e3d6000fd5b505050506040513d601f19601f8201168201806040525081019061087d9190612ee9565b90508061089d57604051630686827b60e51b815260040160405180910390fd5b6002546001600160a01b03166323b872dd30336040516001600160e01b031960e085901b1681526001600160a01b0392831660048201529116602482015260448101849052606401602060405180830381600087803b1580156108ff57600080fd5b505af1158015610913573d6000803e3d6000fd5b505050506040513d601f19601f820116820180604052508101906109379190612dd7565b5050565b61097e6040518060c00160405280600063ffffffff1681526020016000815260200160001515815260200160001515815260200160608152602001606081525090565b600583106109b85760405162461bcd60e51b8152602060048201526007602482015266125b9d985b1a5960ca1b604482015260640161060d565b600a60008460048111156109dc57634e487b7160e01b600052602160045260246000fd5b60048111156109fb57634e487b7160e01b600052602160045260246000fd5b6004811115610a1a57634e487b7160e01b600052602160045260246000fd5b8152602080820192909252604090810160009081206001600160a01b03861682528352818120825160c081018452815463ffffffff168152600182015481860152600282015460ff8082161515838701526101009091041615156060820152600382018054855181880281018801909652808652919592946080870194909391929184015b82821015610b5c5760008481526020908190206040805160a081018252600486029092018054835260018101546001600160a01b03908116948401949094526002808201548516928401929092526003810154938416606084015291926080840191600160a01b90910460ff1690811115610b2a57634e487b7160e01b600052602160045260246000fd5b6002811115610b4957634e487b7160e01b600052602160045260246000fd5b8152505081526020019060010190610a9f565b505050508152602001600482018054610b74906132bb565b80601f0160208091040260200160405190810160405280929190818152602001828054610ba0906132bb565b8015610bed5780601f10610bc257610100808354040283529160200191610bed565b820191906000526020600020905b815481529060010190602001808311610bd057829003601f168201915b505050505081525050905092915050565b80610c07611b7a565b60200151805160009060329015610c50578160ff168351118015610c2f57508060ff16835111155b610c4b5760405162461bcd60e51b815260040161060d9061316f565b610c83565b8160ff168451118015610c6757508060ff16845111155b610c835760405162461bcd60e51b815260040161060d9061316f565b60005b855181101561078f57610cc087878381518110610cb357634e487b7160e01b600052603260045260246000fd5b6020026020010151611313565b80610cca816132f6565b915050610c86565b610cda611e69565b610ce4600061201b565b565b610cee611e69565b600455565b60078181548110610d0357600080fd5b60009182526020909120600160029092020101546001600160a01b0316905081565b610d2d611e69565b60048260ff1610610d505760405162461bcd60e51b815260040161060d90613145565b80600b60008460ff166004811115610d7857634e487b7160e01b600052602160045260246000fd5b6004811115610d9757634e487b7160e01b600052602160045260246000fd5b6004811115610db657634e487b7160e01b600052602160045260246000fd5b81526020810191909152604001600020555050565b610dd3611e69565b600655565b600333610de5828261206b565b610e025760405163aa6318d360e01b815260040160405180910390fd5b6000610e0d846120e5565b9050610e216000546001600160a01b031690565b6001600160a01b0316336001600160a01b031614610e8257336001600160a01b03821614610e825760405162461bcd60e51b815260206004820152600e60248201526d139bdd08105d5d1a1bdc9a5e995960921b604482015260640161060d565b610e8d60078561212b565b50505050565b610e9b611b7a565b518151829060009060329015610ee3578160ff168351118015610ec257508060ff16835111155b610ede5760405162461bcd60e51b815260040161060d9061316f565b610f16565b8160ff168451118015610efa57508060ff16845111155b610f165760405162461bcd60e51b815260040161060d9061316f565b60005b8551811015610f6457610f52868281518110610f4557634e487b7160e01b600052603260045260246000fd5b6020026020010151611110565b80610f5c816132f6565b915050610f19565b505050505050565b606060038260ff1610610fb55760405162461bcd60e51b815260206004820152601160248201527024b73b30b634b21039b2b632b1b2ba37b960791b604482015260640161060d565b600960008360ff166002811115610fdc57634e487b7160e01b600052602160045260246000fd5b6002811115610ffb57634e487b7160e01b600052602160045260246000fd5b600281111561101a57634e487b7160e01b600052602160045260246000fd5b8152602001908152602001600020805480602002602001604051908101604052809291908181526020016000905b828210156111055760008481526020908190206040805160a081018252600486029092018054835260018101546001600160a01b03908116948401949094526002808201548516928401929092526003810154938416606084015291926080840191600160a01b90910460ff16908111156110d357634e487b7160e01b600052602160045260246000fd5b60028111156110f257634e487b7160e01b600052602160045260246000fd5b8152505081526020019060010190611048565b505050509050919050565b60013361111d828261206b565b61113a5760405163aa6318d360e01b815260040160405180910390fd5b600380546000918261114b836132f6565b90915550506003546040805160a081019091526111e39060099080611174898660c084016130e2565b60405160208183030381529060405280519060200120815260200160006001600160a01b031681526020016111a63390565b6001600160a01b03168152600060208201526040018560028111156111db57634e487b7160e01b600052602160045260246000fd5b90528461236c565b5050505050565b3360009081527fa856840544dc26124927add067d799967eac11be13e14d82cc281ea46fa397596020526040902060020154610100900460ff16156112665760405162461bcd60e51b8152602060048201526012602482015271105b1c9958591e481c9959da5cdd195c995960721b604482015260640161060d565b60006112736007336124e6565b3360009081527fa856840544dc26124927add067d799967eac11be13e14d82cc281ea46fa3975960205260408120600201805461ff00191661010017905560058054929350906112c2836132f6565b91905055507f0723b3a091c16d9ebe7fe55f416fb9ea16fe106c1094fb596b8fdaa98f2847fb816112f03390565b604080519283526001600160a01b0390911660208301520160405180910390a150565b600033611320828261206b565b61133d5760405163aa6318d360e01b815260040160405180910390fd5b60408051808201909152601581527424b73b30b634b2103bb0b9ba32903837b4b73a32b960591b60208201528490849060009061137a565b611458565b600082600281111561139c57634e487b7160e01b600052602160045260246000fd5b141561143657600960008360028111156113c657634e487b7160e01b600052602160045260246000fd5b60028111156113e557634e487b7160e01b600052602160045260246000fd5b815260208101919091526040016000205483106113755760405162461bcd60e51b815260206004820152600f60248201526e125b9d985b1a59081dd85cdd195259608a1b604482015260640161060d565b600754841061145857604051638320418360e01b815260040160405180910390fd5b3360009081527f13da86008ba1c6922daee3e07db95305ef49ebced9f5467a0b8613fcc6b343e36020526040902060020154610100900460ff166114cc5760405162461bcd60e51b815260206004820152600b60248201526a139bdd08185b1b1bddd95960aa1b604482015260640161060d565b600080805260096020527fec8156718a8372b1db44bb411437d0870f3e3790d4a08526d024ce1b0b668f6b54881061153d5760405162461bcd60e51b81526020600482015260146024820152731dd85cdd195259081bdd5d081bd988189bdd5b9960621b604482015260640161060d565b600061154b60098a84612551565b905061155b60078b836001612751565b50505050505050505050565b6002600081815260096020527f6cde3cea4b3a3fb2488b2808bae7556f4a405e50f65e1794383bc026131b13c3549182158015906115a55750838310155b6115e15760405162461bcd60e51b815260206004820152600d60248201526c4e6f7420617661696c61626c6560981b604482015260640161060d565b60005b8481101561196b5760006009600084600281111561161257634e487b7160e01b600052602160045260246000fd5b600281111561163157634e487b7160e01b600052602160045260246000fd5b8152602001908152602001600020828154811061165e57634e487b7160e01b600052603260045260246000fd5b60009182526020918290206040805160a0810182526004939093029091018054835260018101546001600160a01b03908116948401949094526002808201548516928401929092526003810154938416606084015291926080840191600160a01b90910460ff16908111156116e357634e487b7160e01b600052602160045260246000fd5b600281111561170257634e487b7160e01b600052602160045260246000fd5b90525060608101519091506001600160a01b0316156119585783611725816132f6565b60046000908152600a6020529095507fe1eb2b2161a492c07c5a334e48012567cba93ec021043f53c1955516a3c5a8419150336001600160a01b03166001600160a01b031681526020019081526020016000206003016040518060a001604052808360000151815260200183602001516001600160a01b0316815260200183604001516001600160a01b0316815260200183606001516001600160a01b03168152602001836080015160028111156117ed57634e487b7160e01b600052602160045260246000fd5b9052815460018082018455600093845260209384902083516004909302019182559282015192810180546001600160a01b03199081166001600160a01b0395861617909155604083015160028084018054841692871692909217909155606084015160038401805493841691909616908117865560808501519495939493926001600160a81b0319161790600160a01b90849081111561189d57634e487b7160e01b600052602160045260246000fd5b02179055505050600960008460028111156118c857634e487b7160e01b600052602160045260246000fd5b60028111156118e757634e487b7160e01b600052602160045260246000fd5b8152602001908152602001600020828154811061191457634e487b7160e01b600052603260045260246000fd5b6000918252602082206004909102019081556001810180546001600160a01b0319908116909155600282018054909116905560030180546001600160a81b03191690555b5080611963816132f6565b9150506115e4565b5060008260065461197c9190613270565b9050803410156111e35760405162461bcd60e51b81526020600482015260066024820152654956616c756560d01b604482015260640161060d565b6119bf611e69565b8060048160ff16106119e35760405162461bcd60e51b815260040161060d90613145565b6106b6600a8460008560ff1660048111156107ef57634e487b7160e01b600052602160045260246000fd5b611a16611e69565b600155565b611a23611e69565b6001600160a01b038116611a885760405162461bcd60e51b815260206004820152602660248201527f4f776e61626c653a206e6577206f776e657220697320746865207a65726f206160448201526564647265737360d01b606482015260840161060d565b611a918161201b565b50565b6000808052602085815260408083206001600160a01b03871684528252808320805463ffffffff19164263ffffffff1617815560018101849055600201805461010061ffff1990911617905551611aef918591859101613117565b604051602081830303815290604052856000836004811115611b2157634e487b7160e01b600052602160045260246000fd5b6004811115611b4057634e487b7160e01b600052602160045260246000fd5b8152602080820192909252604090810160009081206001600160a01b03891682528352208251610f64936004909201929190910190612b35565b604080518082018252606080825260208083019190915282516000808252918101828152818501909452919281611bc1565b6060815260200190600190039081611bac5790505b5060408051808201909152928352602083015250919050565b600233611be7828261206b565b611c045760405163aa6318d360e01b815260040160405180910390fd5b60408051808201909152601581527424b73b30b634b2103bb0b9ba32903837b4b73a32b960591b60208201528490849060019060078481548110611c5857634e487b7160e01b600052603260045260246000fd5b60009182526020909120600290910201548310611c8857604051637e849ffb60e01b815260040160405180910390fd5b6000611c9660078a8a6128ad565b9050611ca5600982600261236c565b60045460008080611cb7600885612a26565b600254602089015160405163095ea7b360e01b81526001600160a01b03918216600482015260248101869052949750929550909350169063095ea7b390604401602060405180830381600087803b158015611d1157600080fd5b505af1158015611d25573d6000803e3d6000fd5b505050506040513d601f19601f82011682018060405250810190611d499190612dd7565b50600254604086810151905163095ea7b360e01b81526001600160a01b0391821660048201526024810185905291169063095ea7b390604401602060405180830381600087803b158015611d9c57600080fd5b505af1158015611db0573d6000803e3d6000fd5b505050506040513d601f19601f82011682018060405250810190611dd49190612dd7565b5060025460405163095ea7b360e01b8152306004820152602481018390526001600160a01b039091169063095ea7b390604401602060405180830381600087803b158015611e2157600080fd5b505af1158015611e35573d6000803e3d6000fd5b505050506040513d601f19601f82011682018060405250810190611e599190612dd7565b5050505050505050505050505050565b6000546001600160a01b03163314610ce45760405162461bcd60e51b815260206004820181905260248201527f4f776e61626c653a2063616c6c6572206973206e6f7420746865206f776e6572604482015260640161060d565b6000611ed0858584612abb565b90508215611f78578015611ef757604051633ee20b6960e01b815260040160405180910390fd5b6001856000846004811115611f1c57634e487b7160e01b600052602160045260246000fd5b6004811115611f3b57634e487b7160e01b600052602160045260246000fd5b8152602080820192909252604090810160009081206001600160a01b03891682529092529020600201805460ff19169115159190911790556111e3565b80611f965760405163aa6318d360e01b815260040160405180910390fd5b6000856000846004811115611fbb57634e487b7160e01b600052602160045260246000fd5b6004811115611fda57634e487b7160e01b600052602160045260246000fd5b8152602080820192909252604090810160009081206001600160a01b03891682529092529020600201805491151560ff199092169190911790555050505050565b600080546001600160a01b038381166001600160a01b0319831681178455604051919092169283917f8be0079c531659141344cd1fd0a4f28419497f9722a3daafe3b4186f6b6457e09190a35050565b6000600a600084600481111561209157634e487b7160e01b600052602160045260246000fd5b60048111156120b057634e487b7160e01b600052602160045260246000fd5b8152602080820192909252604090810160009081206001600160a01b038616825290925290206002015460ff16905092915050565b60006007828154811061210857634e487b7160e01b600052603260045260246000fd5b60009182526020909120600160029092020101546001600160a01b031692915050565b81546000908190848482811061215157634e487b7160e01b600052603260045260246000fd5b906000526020600020906002020160405180604001604052908160008201805480602002602001604051908101604052809291908181526020016000905b8282101561224c5760008481526020908190206040805160a081018252600486029092018054835260018101546001600160a01b03908116948401949094526002808201548516928401929092526003810154938416606084015291926080840191600160a01b90910460ff169081111561221a57634e487b7160e01b600052602160045260246000fd5b600281111561223957634e487b7160e01b600052602160045260246000fd5b815250508152602001906001019061218f565b50505090825250600191909101546001600160a01b0316602090910152805151919350915061228e5760405163347682f560e01b815260040160405180910390fd5b60005b8281101561231957600282518051839081106122bd57634e487b7160e01b600052603260045260246000fd5b60200260200101516080015160028111156122e857634e487b7160e01b600052602160045260246000fd5b101561230757604051633f00676b60e01b815260040160405180910390fd5b80612311816132f6565b915050612291565b5083838154811061233a57634e487b7160e01b600052603260045260246000fd5b600091825260208220600290910201906123548282612bb9565b5060010180546001600160a01b031916905550505050565b82600082600281111561238f57634e487b7160e01b600052602160045260246000fd5b60028111156123ae57634e487b7160e01b600052602160045260246000fd5b81526020019081526020016000206040518060a001604052808460000151815260200184602001516001600160a01b0316815260200184604001516001600160a01b0316815260200184606001516001600160a01b0316815260200183600281111561242a57634e487b7160e01b600052602160045260246000fd5b9052815460018082018455600093845260209384902083516004909302019182559282015192810180546001600160a01b03199081166001600160a01b0395861617909155604083015160028084018054841692871692909217909155606084015160038401805493841691909616908117865560808501519495939493926001600160a81b0319161790600160a01b9084908111156124da57634e487b7160e01b600052602160045260246000fd5b02179055505050505050565b8154600181018084556000849052829084908390811061251657634e487b7160e01b600052603260045260246000fd5b906000526020600020906002020160010160006101000a8154816001600160a01b0302191690836001600160a01b0316021790555092915050565b6125806040805160a0810182526000808252602082018190529181018290526060810182905290608082015290565b8360008360028111156125a357634e487b7160e01b600052602160045260246000fd5b60028111156125c257634e487b7160e01b600052602160045260246000fd5b815260200190815260200160002083815481106125ef57634e487b7160e01b600052603260045260246000fd5b60009182526020918290206040805160a0810182526004939093029091018054835260018101546001600160a01b03908116948401949094526002808201548516928401929092526003810154938416606084015291926080840191600160a01b90910460ff169081111561267457634e487b7160e01b600052602160045260246000fd5b600281111561269357634e487b7160e01b600052602160045260246000fd5b90525090508360008360028111156126bb57634e487b7160e01b600052602160045260246000fd5b60028111156126da57634e487b7160e01b600052602160045260246000fd5b8152602001908152602001600020838154811061270757634e487b7160e01b600052603260045260246000fd5b6000918252602082206004909102019081556001810180546001600160a01b0319908116909155600282018054909116905560030180546001600160a81b03191690559392505050565b83838154811061277157634e487b7160e01b600052603260045260246000fd5b90600052602060002090600202016000016040518060a001604052808460000151815260200184602001516001600160a01b0316815260200184604001516001600160a01b0316815260200184606001516001600160a01b031681526020018360028111156127f057634e487b7160e01b600052602160045260246000fd5b9052815460018082018455600093845260209384902083516004909302019182559282015192810180546001600160a01b03199081166001600160a01b0395861617909155604083015160028084018054841692871692909217909155606084015160038401805493841691909616908117865560808501519495939493926001600160a81b0319161790600160a01b9084908111156128a057634e487b7160e01b600052602160045260246000fd5b0217905550505050505050565b6128dc6040805160a0810182526000808252602082018190529181018290526060810182905290608082015290565b8383815481106128fc57634e487b7160e01b600052603260045260246000fd5b9060005260206000209060020201600001828154811061292c57634e487b7160e01b600052603260045260246000fd5b60009182526020918290206040805160a0810182526004939093029091018054835260018101546001600160a01b03908116948401949094526002808201548516928401929092526003810154938416606084015291926080840191600160a01b90910460ff16908111156129b157634e487b7160e01b600052602160045260246000fd5b60028111156129d057634e487b7160e01b600052602160045260246000fd5b8152505090508383815481106129f657634e487b7160e01b600052603260045260246000fd5b9060005260206000209060020201600001828154811061270757634e487b7160e01b600052603260045260246000fd5b60008080526020839052604081205481908190606490612a4a90869060ff16613270565b612a549190613250565b6001600090815260208790526040902054909350606490612a7990869060ff16613270565b612a839190613250565b6002600090815260208790526040902054909250606490612aa890869060ff16613270565b612ab29190613250565b90509250925092565b6000836000836004811115612ae057634e487b7160e01b600052602160045260246000fd5b6004811115612aff57634e487b7160e01b600052602160045260246000fd5b8152602080820192909252604090810160009081206001600160a01b038716825290925290206002015460ff1690509392505050565b828054612b41906132bb565b90600052602060002090601f016020900481019282612b635760008555612ba9565b82601f10612b7c57805160ff1916838001178555612ba9565b82800160010185558215612ba9579182015b82811115612ba9578251825591602001919060010190612b8e565b50612bb5929150612bda565b5090565b5080546000825560040290600052602060002090810190611a919190612bef565b5b80821115612bb55760008155600101612bdb565b5b80821115612bb557600081556001810180546001600160a01b031990811690915560028201805490911690556003810180546001600160a81b0319169055600401612bf0565b80356001600160a01b0381168114612c4d57600080fd5b919050565b600082601f830112612c62578081fd5b813567ffffffffffffffff811115612c7c57612c7c613327565b612c8f601f8201601f19166020016131fb565b818152846020838601011115612ca3578283fd5b816020850160208301379081016020019190915292915050565b803560ff81168114612c4d57600080fd5b600060208284031215612cdf578081fd5b612ce882612c36565b9392505050565b60008060408385031215612d01578081fd5b612d0a83612c36565b9150612d1860208401612cbd565b90509250929050565b60006020808385031215612d33578182fd5b823567ffffffffffffffff80821115612d4a578384fd5b818501915085601f830112612d5d578384fd5b8135612d70612d6b8261322c565b6131fb565b80828252858201915085850189878560051b8801011115612d8f578788fd5b875b84811015612dc857813586811115612da757898afd5b612db58c8a838b0101612c52565b8552509287019290870190600101612d91565b50909998505050505050505050565b600060208284031215612de8578081fd5b81518015158114612ce8578182fd5b600060208284031215612e08578081fd5b813560058110612ce8578182fd5b600060208284031215612e27578081fd5b813560038110612ce8578182fd5b600060208284031215612e46578081fd5b813567ffffffffffffffff811115612e5c578182fd5b612e6884828501612c52565b949350505050565b60008060408385031215612e82578182fd5b823567ffffffffffffffff80821115612e99578384fd5b612ea586838701612c52565b93506020850135915080821115612eba578283fd5b50612ec785828601612c52565b9150509250929050565b600060208284031215612ee2578081fd5b5035919050565b600060208284031215612efa578081fd5b5051919050565b60008060408385031215612f13578182fd5b82359150612d1860208401612c36565b60008060408385031215612f35578182fd5b8235915060208084013567ffffffffffffffff811115612f53578283fd5b8401601f81018613612f63578283fd5b8035612f71612d6b8261322c565b80828252848201915084840189868560051b8701011115612f90578687fd5b8694505b83851015612fb2578035835260019490940193918501918501612f94565b5080955050505050509250929050565b60008060408385031215612fd4578182fd5b50508035926020909101359150565b600060208284031215612ff4578081fd5b612ce882612cbd565b6000806040838503121561300f578182fd5b61301883612cbd565b946020939093013593505050565b6000815180845260208085019450808401835b838110156130ab57815180518852838101516001600160a01b03908116858a01526040808301518216908a015260608083015190911690890152608090810151906003821061309657634e487b7160e01b87526021600452602487fd5b88015260a09096019590820190600101613039565b509495945050505050565b600081518084526130ce81602086016020860161328f565b601f01601f19169290920160200192915050565b600083516130f481846020880161328f565b9190910191825250602001919050565b602081526000612ce86020830184613026565b60408152600061312a60408301856130b6565b828103602084015261313c81856130b6565b95945050505050565b60208082526010908201526f496e76616c69642063617465676f727960801b604082015260600190565b6020808252600790820152661a5b9d985b1a5960ca1b604082015260600190565b6020815263ffffffff8251166020820152602082015160408201526040820151151560608201526060820151151560808201526000608083015160c060a08401526131de60e0840182613026565b905060a0840151601f198483030160c085015261313c82826130b6565b604051601f8201601f1916810167ffffffffffffffff8111828210171561322457613224613327565b604052919050565b600067ffffffffffffffff82111561324657613246613327565b5060051b60200190565b60008261326b57634e487b7160e01b81526012600452602481fd5b500490565b600081600019048311821515161561328a5761328a613311565b500290565b60005b838110156132aa578181015183820152602001613292565b83811115610e8d5750506000910152565b600181811c908216806132cf57607f821691505b602082108114156132f057634e487b7160e01b600052602260045260246000fd5b50919050565b600060001982141561330a5761330a613311565b5060010190565b634e487b7160e01b600052601160045260246000fd5b634e487b7160e01b600052604160045260246000fdfea26469706673582212201052264b80de3126c34d9ed1f016758fa69133745d6ad06078cfb6f3aa2bc91464736f6c63430008040033",
          "opcodes": "PUSH1 0x80 PUSH1 0x40 MSTORE CALLVALUE DUP1 ISZERO PUSH3 0x11 JUMPI PUSH1 0x0 DUP1 REVERT JUMPDEST POP PUSH1 0x40 MLOAD PUSH3 0x35C2 CODESIZE SUB DUP1 PUSH3 0x35C2 DUP4 CODECOPY DUP2 ADD PUSH1 0x40 DUP2 SWAP1 MSTORE PUSH3 0x34 SWAP2 PUSH3 0x20F JUMP JUMPDEST PUSH3 0x3F CALLER PUSH3 0x1BF JUMP JUMPDEST PUSH1 0x2 DUP1 SLOAD PUSH1 0x1 PUSH1 0x1 PUSH1 0xA0 SHL SUB NOT AND PUSH1 0x1 PUSH1 0x1 PUSH1 0xA0 SHL SUB DUP4 AND OR SWAP1 SSTORE PUSH8 0x8AC7230489E80000 PUSH1 0x1 SWAP1 DUP2 SSTORE PUSH1 0x3 PUSH1 0x0 SWAP1 DUP2 MSTORE PUSH1 0xA PUSH1 0x20 MSTORE PUSH32 0xA856840544DC26124927ADD067D799967EAC11BE13E14D82CC281EA46FA39759 SWAP1 PUSH3 0x9E CALLER SWAP1 JUMP JUMPDEST PUSH1 0x1 PUSH1 0x1 PUSH1 0xA0 SHL SUB AND DUP2 MSTORE PUSH1 0x20 DUP1 DUP3 ADD SWAP3 SWAP1 SWAP3 MSTORE PUSH1 0x40 ADD PUSH1 0x0 SWAP1 DUP2 KECCAK256 PUSH1 0x2 ADD DUP1 SLOAD SWAP4 ISZERO ISZERO PUSH1 0xFF NOT SWAP5 DUP6 AND OR SWAP1 SSTORE DUP1 DUP1 MSTORE PUSH1 0x8 SWAP2 DUP3 SWAP1 MSTORE PUSH32 0x5EFF886EA0CE6CA488A3D6E336D6C0F75F46D19B42C06CE5EE98E42C96D256C7 DUP1 SLOAD SWAP1 SWAP4 AND PUSH1 0x41 OR SWAP1 SWAP3 SSTORE PUSH1 0xA SWAP2 PUSH1 0x1 PUSH1 0x2 DUP2 GT ISZERO PUSH3 0x125 JUMPI PUSH4 0x4E487B71 PUSH1 0xE0 SHL PUSH1 0x0 MSTORE PUSH1 0x21 PUSH1 0x4 MSTORE PUSH1 0x24 PUSH1 0x0 REVERT JUMPDEST DUP2 MSTORE PUSH1 0x20 ADD SWAP1 DUP2 MSTORE PUSH1 0x20 ADD PUSH1 0x0 KECCAK256 PUSH1 0x0 PUSH2 0x100 EXP DUP2 SLOAD DUP2 PUSH1 0xFF MUL NOT AND SWAP1 DUP4 PUSH1 0xFF AND MUL OR SWAP1 SSTORE POP PUSH1 0x19 PUSH1 0x8 PUSH1 0x0 PUSH1 0x2 DUP1 DUP2 GT ISZERO PUSH3 0x172 JUMPI PUSH4 0x4E487B71 PUSH1 0xE0 SHL PUSH1 0x0 MSTORE PUSH1 0x21 PUSH1 0x4 MSTORE PUSH1 0x24 PUSH1 0x0 REVERT JUMPDEST PUSH1 0x2 DUP2 GT ISZERO PUSH3 0x192 JUMPI PUSH4 0x4E487B71 PUSH1 0xE0 SHL PUSH1 0x0 MSTORE PUSH1 0x21 PUSH1 0x4 MSTORE PUSH1 0x24 PUSH1 0x0 REVERT JUMPDEST DUP2 MSTORE PUSH1 0x20 ADD SWAP1 DUP2 MSTORE PUSH1 0x20 ADD PUSH1 0x0 KECCAK256 PUSH1 0x0 PUSH2 0x100 EXP DUP2 SLOAD DUP2 PUSH1 0xFF MUL NOT AND SWAP1 DUP4 PUSH1 0xFF AND MUL OR SWAP1 SSTORE POP POP PUSH3 0x23F JUMP JUMPDEST PUSH1 0x0 DUP1 SLOAD PUSH1 0x1 PUSH1 0x1 PUSH1 0xA0 SHL SUB DUP4 DUP2 AND PUSH1 0x1 PUSH1 0x1 PUSH1 0xA0 SHL SUB NOT DUP4 AND DUP2 OR DUP5 SSTORE PUSH1 0x40 MLOAD SWAP2 SWAP1 SWAP3 AND SWAP3 DUP4 SWAP2 PUSH32 0x8BE0079C531659141344CD1FD0A4F28419497F9722A3DAAFE3B4186F6B6457E0 SWAP2 SWAP1 LOG3 POP POP JUMP JUMPDEST PUSH1 0x0 PUSH1 0x20 DUP3 DUP5 SUB SLT ISZERO PUSH3 0x221 JUMPI DUP1 DUP2 REVERT JUMPDEST DUP2 MLOAD PUSH1 0x1 PUSH1 0x1 PUSH1 0xA0 SHL SUB DUP2 AND DUP2 EQ PUSH3 0x238 JUMPI DUP2 DUP3 REVERT JUMPDEST SWAP4 SWAP3 POP POP POP JUMP JUMPDEST PUSH2 0x3373 DUP1 PUSH3 0x24F PUSH1 0x0 CODECOPY PUSH1 0x0 RETURN INVALID PUSH1 0x80 PUSH1 0x40 MSTORE PUSH1 0x4 CALLDATASIZE LT PUSH2 0x1CC JUMPI PUSH1 0x0 CALLDATALOAD PUSH1 0xE0 SHR DUP1 PUSH4 0x93051D95 GT PUSH2 0xF7 JUMPI DUP1 PUSH4 0xC3864CCE GT PUSH2 0x95 JUMPI DUP1 PUSH4 0xF2FDE38B GT PUSH2 0x64 JUMPI DUP1 PUSH4 0xF2FDE38B EQ PUSH2 0x52C JUMPI DUP1 PUSH4 0xF9404506 EQ PUSH2 0x54C JUMPI DUP1 PUSH4 0xFC0C546A EQ PUSH2 0x562 JUMPI DUP1 PUSH4 0xFFC2105C EQ PUSH2 0x582 JUMPI PUSH1 0x0 DUP1 REVERT JUMPDEST DUP1 PUSH4 0xC3864CCE EQ PUSH2 0x4B9 JUMPI DUP1 PUSH4 0xC437A2F0 EQ PUSH2 0x4D9 JUMPI DUP1 PUSH4 0xE47C294D EQ PUSH2 0x4EC JUMPI DUP1 PUSH4 0xF2D03E15 EQ PUSH2 0x50C JUMPI PUSH1 0x0 DUP1 REVERT JUMPDEST DUP1 PUSH4 0xA741C0DF GT PUSH2 0xD1 JUMPI DUP1 PUSH4 0xA741C0DF EQ PUSH2 0x422 JUMPI DUP1 PUSH4 0xB7588280 EQ PUSH2 0x44F JUMPI DUP1 PUSH4 0xBF5E6B6D EQ PUSH2 0x46F JUMPI DUP1 PUSH4 0xC2F0C279 EQ PUSH2 0x477 JUMPI PUSH1 0x0 DUP1 REVERT JUMPDEST DUP1 PUSH4 0x93051D95 EQ PUSH2 0x3CC JUMPI DUP1 PUSH4 0x955EF11A EQ PUSH2 0x3EC JUMPI DUP1 PUSH4 0xA035B1FE EQ PUSH2 0x40C JUMPI PUSH1 0x0 DUP1 REVERT JUMPDEST DUP1 PUSH4 0x3FD97927 GT PUSH2 0x16F JUMPI DUP1 PUSH4 0x885C7B38 GT PUSH2 0x13E JUMPI DUP1 PUSH4 0x885C7B38 EQ PUSH2 0x336 JUMPI DUP1 PUSH4 0x8C6AA3F5 EQ PUSH2 0x36E JUMPI DUP1 PUSH4 0x8DA5CB5B EQ PUSH2 0x38E JUMPI DUP1 PUSH4 0x91B7F5ED EQ PUSH2 0x3AC JUMPI PUSH1 0x0 DUP1 REVERT JUMPDEST DUP1 PUSH4 0x3FD97927 EQ PUSH2 0x2B4 JUMPI DUP1 PUSH4 0x41311BC3 EQ PUSH2 0x2E1 JUMPI DUP1 PUSH4 0x715018A6 EQ PUSH2 0x301 JUMPI DUP1 PUSH4 0x72938A14 EQ PUSH2 0x316 JUMPI PUSH1 0x0 DUP1 REVERT JUMPDEST DUP1 PUSH4 0x1F2A4A3F GT PUSH2 0x1AB JUMPI DUP1 PUSH4 0x1F2A4A3F EQ PUSH2 0x253 JUMPI DUP1 PUSH4 0x235EB9F5 EQ PUSH2 0x269 JUMPI DUP1 PUSH4 0x31B59ED7 EQ PUSH2 0x27F JUMPI DUP1 PUSH4 0x3CCFD60B EQ PUSH2 0x29F JUMPI PUSH1 0x0 DUP1 REVERT JUMPDEST DUP1 PUSH3 0x95DB2D EQ PUSH2 0x1D1 JUMPI DUP1 PUSH4 0xB776241 EQ PUSH2 0x211 JUMPI DUP1 PUSH4 0xBDD7063 EQ PUSH2 0x233 JUMPI JUMPDEST PUSH1 0x0 DUP1 REVERT JUMPDEST CALLVALUE DUP1 ISZERO PUSH2 0x1DD JUMPI PUSH1 0x0 DUP1 REVERT JUMPDEST POP PUSH2 0x1FE PUSH2 0x1EC CALLDATASIZE PUSH1 0x4 PUSH2 0x2DF7 JUMP JUMPDEST PUSH1 0xB PUSH1 0x20 MSTORE PUSH1 0x0 SWAP1 DUP2 MSTORE PUSH1 0x40 SWAP1 KECCAK256 SLOAD DUP2 JUMP JUMPDEST PUSH1 0x40 MLOAD SWAP1 DUP2 MSTORE PUSH1 0x20 ADD JUMPDEST PUSH1 0x40 MLOAD DUP1 SWAP2 SUB SWAP1 RETURN JUMPDEST CALLVALUE DUP1 ISZERO PUSH2 0x21D JUMPI PUSH1 0x0 DUP1 REVERT JUMPDEST POP PUSH2 0x231 PUSH2 0x22C CALLDATASIZE PUSH1 0x4 PUSH2 0x2E70 JUMP JUMPDEST PUSH2 0x598 JUMP JUMPDEST STOP JUMPDEST CALLVALUE DUP1 ISZERO PUSH2 0x23F JUMPI PUSH1 0x0 DUP1 REVERT JUMPDEST POP PUSH2 0x231 PUSH2 0x24E CALLDATASIZE PUSH1 0x4 PUSH2 0x2F23 JUMP JUMPDEST PUSH2 0x6BB JUMP JUMPDEST CALLVALUE DUP1 ISZERO PUSH2 0x25F JUMPI PUSH1 0x0 DUP1 REVERT JUMPDEST POP PUSH2 0x1FE PUSH1 0x5 SLOAD DUP2 JUMP JUMPDEST CALLVALUE DUP1 ISZERO PUSH2 0x275 JUMPI PUSH1 0x0 DUP1 REVERT JUMPDEST POP PUSH2 0x1FE PUSH1 0x4 SLOAD DUP2 JUMP JUMPDEST CALLVALUE DUP1 ISZERO PUSH2 0x28B JUMPI PUSH1 0x0 DUP1 REVERT JUMPDEST POP PUSH2 0x231 PUSH2 0x29A CALLDATASIZE PUSH1 0x4 PUSH2 0x2CEF JUMP JUMPDEST PUSH2 0x798 JUMP JUMPDEST CALLVALUE DUP1 ISZERO PUSH2 0x2AB JUMPI PUSH1 0x0 DUP1 REVERT JUMPDEST POP PUSH2 0x231 PUSH2 0x7F4 JUMP JUMPDEST CALLVALUE DUP1 ISZERO PUSH2 0x2C0 JUMPI PUSH1 0x0 DUP1 REVERT JUMPDEST POP PUSH2 0x2D4 PUSH2 0x2CF CALLDATASIZE PUSH1 0x4 PUSH2 0x2F01 JUMP JUMPDEST PUSH2 0x93B JUMP JUMPDEST PUSH1 0x40 MLOAD PUSH2 0x208 SWAP2 SWAP1 PUSH2 0x3190 JUMP JUMPDEST CALLVALUE DUP1 ISZERO PUSH2 0x2ED JUMPI PUSH1 0x0 DUP1 REVERT JUMPDEST POP PUSH2 0x231 PUSH2 0x2FC CALLDATASIZE PUSH1 0x4 PUSH2 0x2F23 JUMP JUMPDEST PUSH2 0xBFE JUMP JUMPDEST CALLVALUE DUP1 ISZERO PUSH2 0x30D JUMPI PUSH1 0x0 DUP1 REVERT JUMPDEST POP PUSH2 0x231 PUSH2 0xCD2 JUMP JUMPDEST CALLVALUE DUP1 ISZERO PUSH2 0x322 JUMPI PUSH1 0x0 DUP1 REVERT JUMPDEST POP PUSH2 0x231 PUSH2 0x331 CALLDATASIZE PUSH1 0x4 PUSH2 0x2ED1 JUMP JUMPDEST PUSH2 0xCE6 JUMP JUMPDEST CALLVALUE DUP1 ISZERO PUSH2 0x342 JUMPI PUSH1 0x0 DUP1 REVERT JUMPDEST POP PUSH2 0x356 PUSH2 0x351 CALLDATASIZE PUSH1 0x4 PUSH2 0x2ED1 JUMP JUMPDEST PUSH2 0xCF3 JUMP JUMPDEST PUSH1 0x40 MLOAD PUSH1 0x1 PUSH1 0x1 PUSH1 0xA0 SHL SUB SWAP1 SWAP2 AND DUP2 MSTORE PUSH1 0x20 ADD PUSH2 0x208 JUMP JUMPDEST CALLVALUE DUP1 ISZERO PUSH2 0x37A JUMPI PUSH1 0x0 DUP1 REVERT JUMPDEST POP PUSH2 0x231 PUSH2 0x389 CALLDATASIZE PUSH1 0x4 PUSH2 0x2FFD JUMP JUMPDEST PUSH2 0xD25 JUMP JUMPDEST CALLVALUE DUP1 ISZERO PUSH2 0x39A JUMPI PUSH1 0x0 DUP1 REVERT JUMPDEST POP PUSH1 0x0 SLOAD PUSH1 0x1 PUSH1 0x1 PUSH1 0xA0 SHL SUB AND PUSH2 0x356 JUMP JUMPDEST CALLVALUE DUP1 ISZERO PUSH2 0x3B8 JUMPI PUSH1 0x0 DUP1 REVERT JUMPDEST POP PUSH2 0x231 PUSH2 0x3C7 CALLDATASIZE PUSH1 0x4 PUSH2 0x2ED1 JUMP JUMPDEST PUSH2 0xDCB JUMP JUMPDEST CALLVALUE DUP1 ISZERO PUSH2 0x3D8 JUMPI PUSH1 0x0 DUP1 REVERT JUMPDEST POP PUSH2 0x231 PUSH2 0x3E7 CALLDATASIZE PUSH1 0x4 PUSH2 0x2ED1 JUMP JUMPDEST PUSH2 0xDD8 JUMP JUMPDEST CALLVALUE DUP1 ISZERO PUSH2 0x3F8 JUMPI PUSH1 0x0 DUP1 REVERT JUMPDEST POP PUSH2 0x231 PUSH2 0x407 CALLDATASIZE PUSH1 0x4 PUSH2 0x2D21 JUMP JUMPDEST PUSH2 0xE93 JUMP JUMPDEST CALLVALUE DUP1 ISZERO PUSH2 0x418 JUMPI PUSH1 0x0 DUP1 REVERT JUMPDEST POP PUSH2 0x1FE PUSH1 0x6 SLOAD DUP2 JUMP JUMPDEST CALLVALUE DUP1 ISZERO PUSH2 0x42E JUMPI PUSH1 0x0 DUP1 REVERT JUMPDEST POP PUSH2 0x442 PUSH2 0x43D CALLDATASIZE PUSH1 0x4 PUSH2 0x2FE3 JUMP JUMPDEST PUSH2 0xF6C JUMP JUMPDEST PUSH1 0x40 MLOAD PUSH2 0x208 SWAP2 SWAP1 PUSH2 0x3104 JUMP JUMPDEST CALLVALUE DUP1 ISZERO PUSH2 0x45B JUMPI PUSH1 0x0 DUP1 REVERT JUMPDEST POP PUSH2 0x231 PUSH2 0x46A CALLDATASIZE PUSH1 0x4 PUSH2 0x2E35 JUMP JUMPDEST PUSH2 0x1110 JUMP JUMPDEST PUSH2 0x231 PUSH2 0x11EA JUMP JUMPDEST CALLVALUE DUP1 ISZERO PUSH2 0x483 JUMPI PUSH1 0x0 DUP1 REVERT JUMPDEST POP PUSH2 0x4A7 PUSH2 0x492 CALLDATASIZE PUSH1 0x4 PUSH2 0x2E16 JUMP JUMPDEST PUSH1 0x8 PUSH1 0x20 MSTORE PUSH1 0x0 SWAP1 DUP2 MSTORE PUSH1 0x40 SWAP1 KECCAK256 SLOAD PUSH1 0xFF AND DUP2 JUMP JUMPDEST PUSH1 0x40 MLOAD PUSH1 0xFF SWAP1 SWAP2 AND DUP2 MSTORE PUSH1 0x20 ADD PUSH2 0x208 JUMP JUMPDEST CALLVALUE DUP1 ISZERO PUSH2 0x4C5 JUMPI PUSH1 0x0 DUP1 REVERT JUMPDEST POP PUSH2 0x231 PUSH2 0x4D4 CALLDATASIZE PUSH1 0x4 PUSH2 0x2FC2 JUMP JUMPDEST PUSH2 0x1313 JUMP JUMPDEST PUSH2 0x231 PUSH2 0x4E7 CALLDATASIZE PUSH1 0x4 PUSH2 0x2ED1 JUMP JUMPDEST PUSH2 0x1567 JUMP JUMPDEST CALLVALUE DUP1 ISZERO PUSH2 0x4F8 JUMPI PUSH1 0x0 DUP1 REVERT JUMPDEST POP PUSH2 0x231 PUSH2 0x507 CALLDATASIZE PUSH1 0x4 PUSH2 0x2CEF JUMP JUMPDEST PUSH2 0x19B7 JUMP JUMPDEST CALLVALUE DUP1 ISZERO PUSH2 0x518 JUMPI PUSH1 0x0 DUP1 REVERT JUMPDEST POP PUSH2 0x231 PUSH2 0x527 CALLDATASIZE PUSH1 0x4 PUSH2 0x2ED1 JUMP JUMPDEST PUSH2 0x1A0E JUMP JUMPDEST CALLVALUE DUP1 ISZERO PUSH2 0x538 JUMPI PUSH1 0x0 DUP1 REVERT JUMPDEST POP PUSH2 0x231 PUSH2 0x547 CALLDATASIZE PUSH1 0x4 PUSH2 0x2CCE JUMP JUMPDEST PUSH2 0x1A1B JUMP JUMPDEST CALLVALUE DUP1 ISZERO PUSH2 0x558 JUMPI PUSH1 0x0 DUP1 REVERT JUMPDEST POP PUSH2 0x1FE PUSH1 0x1 SLOAD DUP2 JUMP JUMPDEST CALLVALUE DUP1 ISZERO PUSH2 0x56E JUMPI PUSH1 0x0 DUP1 REVERT JUMPDEST POP PUSH1 0x2 SLOAD PUSH2 0x356 SWAP1 PUSH1 0x1 PUSH1 0x1 PUSH1 0xA0 SHL SUB AND DUP2 JUMP JUMPDEST CALLVALUE DUP1 ISZERO PUSH2 0x58E JUMPI PUSH1 0x0 DUP1 REVERT JUMPDEST POP PUSH2 0x1FE PUSH1 0x3 SLOAD DUP2 JUMP JUMPDEST CALLER PUSH1 0x0 SWAP1 DUP2 MSTORE PUSH32 0x13DA86008BA1C6922DAEE3E07DB95305EF49EBCED9F5467A0B8613FCC6B343E3 PUSH1 0x20 MSTORE PUSH1 0x40 SWAP1 KECCAK256 PUSH1 0x2 ADD SLOAD PUSH2 0x100 SWAP1 DIV PUSH1 0xFF AND ISZERO PUSH2 0x616 JUMPI PUSH1 0x40 MLOAD PUSH3 0x461BCD PUSH1 0xE5 SHL DUP2 MSTORE PUSH1 0x20 PUSH1 0x4 DUP3 ADD MSTORE PUSH1 0xF PUSH1 0x24 DUP3 ADD MSTORE PUSH15 0x416C7265616479207369676E20757 PUSH1 0x8C SHL PUSH1 0x44 DUP3 ADD MSTORE PUSH1 0x64 ADD JUMPDEST PUSH1 0x40 MLOAD DUP1 SWAP2 SUB SWAP1 REVERT JUMPDEST PUSH2 0x623 PUSH1 0xA CALLER DUP5 DUP5 PUSH2 0x1A94 JUMP JUMPDEST PUSH1 0x2 SLOAD PUSH1 0x1 PUSH1 0x1 PUSH1 0xA0 SHL SUB AND PUSH4 0x95EA7B3 CALLER PUSH1 0x1 SLOAD PUSH1 0x40 MLOAD PUSH1 0x1 PUSH1 0x1 PUSH1 0xE0 SHL SUB NOT PUSH1 0xE0 DUP6 SWAP1 SHL AND DUP2 MSTORE PUSH1 0x1 PUSH1 0x1 PUSH1 0xA0 SHL SUB SWAP1 SWAP3 AND PUSH1 0x4 DUP4 ADD MSTORE PUSH1 0x24 DUP3 ADD MSTORE PUSH1 0x44 ADD PUSH1 0x20 PUSH1 0x40 MLOAD DUP1 DUP4 SUB DUP2 PUSH1 0x0 DUP8 DUP1 EXTCODESIZE ISZERO DUP1 ISZERO PUSH2 0x67E JUMPI PUSH1 0x0 DUP1 REVERT JUMPDEST POP GAS CALL ISZERO DUP1 ISZERO PUSH2 0x692 JUMPI RETURNDATASIZE PUSH1 0x0 DUP1 RETURNDATACOPY RETURNDATASIZE PUSH1 0x0 REVERT JUMPDEST POP POP POP POP PUSH1 0x40 MLOAD RETURNDATASIZE PUSH1 0x1F NOT PUSH1 0x1F DUP3 ADD AND DUP3 ADD DUP1 PUSH1 0x40 MSTORE POP DUP2 ADD SWAP1 PUSH2 0x6B6 SWAP2 SWAP1 PUSH2 0x2DD7 JUMP JUMPDEST POP POP POP JUMP JUMPDEST DUP1 PUSH2 0x6C4 PUSH2 0x1B7A JUMP JUMPDEST PUSH1 0x20 ADD MLOAD DUP1 MLOAD PUSH1 0x0 SWAP1 PUSH1 0x32 SWAP1 ISZERO PUSH2 0x70D JUMPI DUP2 PUSH1 0xFF AND DUP4 MLOAD GT DUP1 ISZERO PUSH2 0x6EC JUMPI POP DUP1 PUSH1 0xFF AND DUP4 MLOAD GT ISZERO JUMPDEST PUSH2 0x708 JUMPI PUSH1 0x40 MLOAD PUSH3 0x461BCD PUSH1 0xE5 SHL DUP2 MSTORE PUSH1 0x4 ADD PUSH2 0x60D SWAP1 PUSH2 0x316F JUMP JUMPDEST PUSH2 0x740 JUMP JUMPDEST DUP2 PUSH1 0xFF AND DUP5 MLOAD GT DUP1 ISZERO PUSH2 0x724 JUMPI POP DUP1 PUSH1 0xFF AND DUP5 MLOAD GT ISZERO JUMPDEST PUSH2 0x740 JUMPI PUSH1 0x40 MLOAD PUSH3 0x461BCD PUSH1 0xE5 SHL DUP2 MSTORE PUSH1 0x4 ADD PUSH2 0x60D SWAP1 PUSH2 0x316F JUMP JUMPDEST PUSH1 0x0 JUMPDEST DUP6 MLOAD DUP2 LT ISZERO PUSH2 0x78F JUMPI PUSH2 0x77D DUP8 DUP8 DUP4 DUP2 MLOAD DUP2 LT PUSH2 0x770 JUMPI PUSH4 0x4E487B71 PUSH1 0xE0 SHL PUSH1 0x0 MSTORE PUSH1 0x32 PUSH1 0x4 MSTORE PUSH1 0x24 PUSH1 0x0 REVERT JUMPDEST PUSH1 0x20 MUL PUSH1 0x20 ADD ADD MLOAD PUSH2 0x1BDA JUMP JUMPDEST DUP1 PUSH2 0x787 DUP2 PUSH2 0x32F6 JUMP JUMPDEST SWAP2 POP POP PUSH2 0x743 JUMP JUMPDEST POP POP POP POP POP POP POP JUMP JUMPDEST PUSH2 0x7A0 PUSH2 0x1E69 JUMP JUMPDEST DUP1 PUSH1 0x4 DUP2 PUSH1 0xFF AND LT PUSH2 0x7C4 JUMPI PUSH1 0x40 MLOAD PUSH3 0x461BCD PUSH1 0xE5 SHL DUP2 MSTORE PUSH1 0x4 ADD PUSH2 0x60D SWAP1 PUSH2 0x3145 JUMP JUMPDEST PUSH2 0x6B6 PUSH1 0xA DUP5 PUSH1 0x1 DUP6 PUSH1 0xFF AND PUSH1 0x4 DUP2 GT ISZERO PUSH2 0x7EF JUMPI PUSH4 0x4E487B71 PUSH1 0xE0 SHL PUSH1 0x0 MSTORE PUSH1 0x21 PUSH1 0x4 MSTORE PUSH1 0x24 PUSH1 0x0 REVERT JUMPDEST PUSH2 0x1EC3 JUMP JUMPDEST PUSH1 0x2 SLOAD PUSH1 0x40 DUP1 MLOAD PUSH4 0x6EB1769F PUSH1 0xE1 SHL DUP2 MSTORE ADDRESS PUSH1 0x4 DUP3 ADD MSTORE CALLER PUSH1 0x24 DUP3 ADD MSTORE SWAP1 MLOAD PUSH1 0x0 SWAP3 PUSH1 0x1 PUSH1 0x1 PUSH1 0xA0 SHL SUB AND SWAP2 PUSH4 0xDD62ED3E SWAP2 PUSH1 0x44 DUP1 DUP4 ADD SWAP3 PUSH1 0x20 SWAP3 SWAP2 SWAP1 DUP3 SWAP1 SUB ADD DUP2 DUP7 DUP1 EXTCODESIZE ISZERO DUP1 ISZERO PUSH2 0x845 JUMPI PUSH1 0x0 DUP1 REVERT JUMPDEST POP GAS STATICCALL ISZERO DUP1 ISZERO PUSH2 0x859 JUMPI RETURNDATASIZE PUSH1 0x0 DUP1 RETURNDATACOPY RETURNDATASIZE PUSH1 0x0 REVERT JUMPDEST POP POP POP POP PUSH1 0x40 MLOAD RETURNDATASIZE PUSH1 0x1F NOT PUSH1 0x1F DUP3 ADD AND DUP3 ADD DUP1 PUSH1 0x40 MSTORE POP DUP2 ADD SWAP1 PUSH2 0x87D SWAP2 SWAP1 PUSH2 0x2EE9 JUMP JUMPDEST SWAP1 POP DUP1 PUSH2 0x89D JUMPI PUSH1 0x40 MLOAD PUSH4 0x686827B PUSH1 0xE5 SHL DUP2 MSTORE PUSH1 0x4 ADD PUSH1 0x40 MLOAD DUP1 SWAP2 SUB SWAP1 REVERT JUMPDEST PUSH1 0x2 SLOAD PUSH1 0x1 PUSH1 0x1 PUSH1 0xA0 SHL SUB AND PUSH4 0x23B872DD ADDRESS CALLER PUSH1 0x40 MLOAD PUSH1 0x1 PUSH1 0x1 PUSH1 0xE0 SHL SUB NOT PUSH1 0xE0 DUP6 SWAP1 SHL AND DUP2 MSTORE PUSH1 0x1 PUSH1 0x1 PUSH1 0xA0 SHL SUB SWAP3 DUP4 AND PUSH1 0x4 DUP3 ADD MSTORE SWAP2 AND PUSH1 0x24 DUP3 ADD MSTORE PUSH1 0x44 DUP2 ADD DUP5 SWAP1 MSTORE PUSH1 0x64 ADD PUSH1 0x20 PUSH1 0x40 MLOAD DUP1 DUP4 SUB DUP2 PUSH1 0x0 DUP8 DUP1 EXTCODESIZE ISZERO DUP1 ISZERO PUSH2 0x8FF JUMPI PUSH1 0x0 DUP1 REVERT JUMPDEST POP GAS CALL ISZERO DUP1 ISZERO PUSH2 0x913 JUMPI RETURNDATASIZE PUSH1 0x0 DUP1 RETURNDATACOPY RETURNDATASIZE PUSH1 0x0 REVERT JUMPDEST POP POP POP POP PUSH1 0x40 MLOAD RETURNDATASIZE PUSH1 0x1F NOT PUSH1 0x1F DUP3 ADD AND DUP3 ADD DUP1 PUSH1 0x40 MSTORE POP DUP2 ADD SWAP1 PUSH2 0x937 SWAP2 SWAP1 PUSH2 0x2DD7 JUMP JUMPDEST POP POP JUMP JUMPDEST PUSH2 0x97E PUSH1 0x40 MLOAD DUP1 PUSH1 0xC0 ADD PUSH1 0x40 MSTORE DUP1 PUSH1 0x0 PUSH4 0xFFFFFFFF AND DUP2 MSTORE PUSH1 0x20 ADD PUSH1 0x0 DUP2 MSTORE PUSH1 0x20 ADD PUSH1 0x0 ISZERO ISZERO DUP2 MSTORE PUSH1 0x20 ADD PUSH1 0x0 ISZERO ISZERO DUP2 MSTORE PUSH1 0x20 ADD PUSH1 0x60 DUP2 MSTORE PUSH1 0x20 ADD PUSH1 0x60 DUP2 MSTORE POP SWAP1 JUMP JUMPDEST PUSH1 0x5 DUP4 LT PUSH2 0x9B8 JUMPI PUSH1 0x40 MLOAD PUSH3 0x461BCD PUSH1 0xE5 SHL DUP2 MSTORE PUSH1 0x20 PUSH1 0x4 DUP3 ADD MSTORE PUSH1 0x7 PUSH1 0x24 DUP3 ADD MSTORE PUSH7 0x125B9D985B1A59 PUSH1 0xCA SHL PUSH1 0x44 DUP3 ADD MSTORE PUSH1 0x64 ADD PUSH2 0x60D JUMP JUMPDEST PUSH1 0xA PUSH1 0x0 DUP5 PUSH1 0x4 DUP2 GT ISZERO PUSH2 0x9DC JUMPI PUSH4 0x4E487B71 PUSH1 0xE0 SHL PUSH1 0x0 MSTORE PUSH1 0x21 PUSH1 0x4 MSTORE PUSH1 0x24 PUSH1 0x0 REVERT JUMPDEST PUSH1 0x4 DUP2 GT ISZERO PUSH2 0x9FB JUMPI PUSH4 0x4E487B71 PUSH1 0xE0 SHL PUSH1 0x0 MSTORE PUSH1 0x21 PUSH1 0x4 MSTORE PUSH1 0x24 PUSH1 0x0 REVERT JUMPDEST PUSH1 0x4 DUP2 GT ISZERO PUSH2 0xA1A JUMPI PUSH4 0x4E487B71 PUSH1 0xE0 SHL PUSH1 0x0 MSTORE PUSH1 0x21 PUSH1 0x4 MSTORE PUSH1 0x24 PUSH1 0x0 REVERT JUMPDEST DUP2 MSTORE PUSH1 0x20 DUP1 DUP3 ADD SWAP3 SWAP1 SWAP3 MSTORE PUSH1 0x40 SWAP1 DUP2 ADD PUSH1 0x0 SWAP1 DUP2 KECCAK256 PUSH1 0x1 PUSH1 0x1 PUSH1 0xA0 SHL SUB DUP7 AND DUP3 MSTORE DUP4 MSTORE DUP2 DUP2 KECCAK256 DUP3 MLOAD PUSH1 0xC0 DUP2 ADD DUP5 MSTORE DUP2 SLOAD PUSH4 0xFFFFFFFF AND DUP2 MSTORE PUSH1 0x1 DUP3 ADD SLOAD DUP2 DUP7 ADD MSTORE PUSH1 0x2 DUP3 ADD SLOAD PUSH1 0xFF DUP1 DUP3 AND ISZERO ISZERO DUP4 DUP8 ADD MSTORE PUSH2 0x100 SWAP1 SWAP2 DIV AND ISZERO ISZERO PUSH1 0x60 DUP3 ADD MSTORE PUSH1 0x3 DUP3 ADD DUP1 SLOAD DUP6 MLOAD DUP2 DUP9 MUL DUP2 ADD DUP9 ADD SWAP1 SWAP7 MSTORE DUP1 DUP7 MSTORE SWAP2 SWAP6 SWAP3 SWAP5 PUSH1 0x80 DUP8 ADD SWAP5 SWAP1 SWAP4 SWAP2 SWAP3 SWAP2 DUP5 ADD JUMPDEST DUP3 DUP3 LT ISZERO PUSH2 0xB5C JUMPI PUSH1 0x0 DUP5 DUP2 MSTORE PUSH1 0x20 SWAP1 DUP2 SWAP1 KECCAK256 PUSH1 0x40 DUP1 MLOAD PUSH1 0xA0 DUP2 ADD DUP3 MSTORE PUSH1 0x4 DUP7 MUL SWAP1 SWAP3 ADD DUP1 SLOAD DUP4 MSTORE PUSH1 0x1 DUP2 ADD SLOAD PUSH1 0x1 PUSH1 0x1 PUSH1 0xA0 SHL SUB SWAP1 DUP2 AND SWAP5 DUP5 ADD SWAP5 SWAP1 SWAP5 MSTORE PUSH1 0x2 DUP1 DUP3 ADD SLOAD DUP6 AND SWAP3 DUP5 ADD SWAP3 SWAP1 SWAP3 MSTORE PUSH1 0x3 DUP2 ADD SLOAD SWAP4 DUP5 AND PUSH1 0x60 DUP5 ADD MSTORE SWAP2 SWAP3 PUSH1 0x80 DUP5 ADD SWAP2 PUSH1 0x1 PUSH1 0xA0 SHL SWAP1 SWAP2 DIV PUSH1 0xFF AND SWAP1 DUP2 GT ISZERO PUSH2 0xB2A JUMPI PUSH4 0x4E487B71 PUSH1 0xE0 SHL PUSH1 0x0 MSTORE PUSH1 0x21 PUSH1 0x4 MSTORE PUSH1 0x24 PUSH1 0x0 REVERT JUMPDEST PUSH1 0x2 DUP2 GT ISZERO PUSH2 0xB49 JUMPI PUSH4 0x4E487B71 PUSH1 0xE0 SHL PUSH1 0x0 MSTORE PUSH1 0x21 PUSH1 0x4 MSTORE PUSH1 0x24 PUSH1 0x0 REVERT JUMPDEST DUP2 MSTORE POP POP DUP2 MSTORE PUSH1 0x20 ADD SWAP1 PUSH1 0x1 ADD SWAP1 PUSH2 0xA9F JUMP JUMPDEST POP POP POP POP DUP2 MSTORE PUSH1 0x20 ADD PUSH1 0x4 DUP3 ADD DUP1 SLOAD PUSH2 0xB74 SWAP1 PUSH2 0x32BB JUMP JUMPDEST DUP1 PUSH1 0x1F ADD PUSH1 0x20 DUP1 SWAP2 DIV MUL PUSH1 0x20 ADD PUSH1 0x40 MLOAD SWAP1 DUP2 ADD PUSH1 0x40 MSTORE DUP1 SWAP3 SWAP2 SWAP1 DUP2 DUP2 MSTORE PUSH1 0x20 ADD DUP3 DUP1 SLOAD PUSH2 0xBA0 SWAP1 PUSH2 0x32BB JUMP JUMPDEST DUP1 ISZERO PUSH2 0xBED JUMPI DUP1 PUSH1 0x1F LT PUSH2 0xBC2 JUMPI PUSH2 0x100 DUP1 DUP4 SLOAD DIV MUL DUP4 MSTORE SWAP2 PUSH1 0x20 ADD SWAP2 PUSH2 0xBED JUMP JUMPDEST DUP3 ADD SWAP2 SWAP1 PUSH1 0x0 MSTORE PUSH1 0x20 PUSH1 0x0 KECCAK256 SWAP1 JUMPDEST DUP2 SLOAD DUP2 MSTORE SWAP1 PUSH1 0x1 ADD SWAP1 PUSH1 0x20 ADD DUP1 DUP4 GT PUSH2 0xBD0 JUMPI DUP3 SWAP1 SUB PUSH1 0x1F AND DUP3 ADD SWAP2 JUMPDEST POP POP POP POP POP DUP2 MSTORE POP POP SWAP1 POP SWAP3 SWAP2 POP POP JUMP JUMPDEST DUP1 PUSH2 0xC07 PUSH2 0x1B7A JUMP JUMPDEST PUSH1 0x20 ADD MLOAD DUP1 MLOAD PUSH1 0x0 SWAP1 PUSH1 0x32 SWAP1 ISZERO PUSH2 0xC50 JUMPI DUP2 PUSH1 0xFF AND DUP4 MLOAD GT DUP1 ISZERO PUSH2 0xC2F JUMPI POP DUP1 PUSH1 0xFF AND DUP4 MLOAD GT ISZERO JUMPDEST PUSH2 0xC4B JUMPI PUSH1 0x40 MLOAD PUSH3 0x461BCD PUSH1 0xE5 SHL DUP2 MSTORE PUSH1 0x4 ADD PUSH2 0x60D SWAP1 PUSH2 0x316F JUMP JUMPDEST PUSH2 0xC83 JUMP JUMPDEST DUP2 PUSH1 0xFF AND DUP5 MLOAD GT DUP1 ISZERO PUSH2 0xC67 JUMPI POP DUP1 PUSH1 0xFF AND DUP5 MLOAD GT ISZERO JUMPDEST PUSH2 0xC83 JUMPI PUSH1 0x40 MLOAD PUSH3 0x461BCD PUSH1 0xE5 SHL DUP2 MSTORE PUSH1 0x4 ADD PUSH2 0x60D SWAP1 PUSH2 0x316F JUMP JUMPDEST PUSH1 0x0 JUMPDEST DUP6 MLOAD DUP2 LT ISZERO PUSH2 0x78F JUMPI PUSH2 0xCC0 DUP8 DUP8 DUP4 DUP2 MLOAD DUP2 LT PUSH2 0xCB3 JUMPI PUSH4 0x4E487B71 PUSH1 0xE0 SHL PUSH1 0x0 MSTORE PUSH1 0x32 PUSH1 0x4 MSTORE PUSH1 0x24 PUSH1 0x0 REVERT JUMPDEST PUSH1 0x20 MUL PUSH1 0x20 ADD ADD MLOAD PUSH2 0x1313 JUMP JUMPDEST DUP1 PUSH2 0xCCA DUP2 PUSH2 0x32F6 JUMP JUMPDEST SWAP2 POP POP PUSH2 0xC86 JUMP JUMPDEST PUSH2 0xCDA PUSH2 0x1E69 JUMP JUMPDEST PUSH2 0xCE4 PUSH1 0x0 PUSH2 0x201B JUMP JUMPDEST JUMP JUMPDEST PUSH2 0xCEE PUSH2 0x1E69 JUMP JUMPDEST PUSH1 0x4 SSTORE JUMP JUMPDEST PUSH1 0x7 DUP2 DUP2 SLOAD DUP2 LT PUSH2 0xD03 JUMPI PUSH1 0x0 DUP1 REVERT JUMPDEST PUSH1 0x0 SWAP2 DUP3 MSTORE PUSH1 0x20 SWAP1 SWAP2 KECCAK256 PUSH1 0x1 PUSH1 0x2 SWAP1 SWAP3 MUL ADD ADD SLOAD PUSH1 0x1 PUSH1 0x1 PUSH1 0xA0 SHL SUB AND SWAP1 POP DUP2 JUMP JUMPDEST PUSH2 0xD2D PUSH2 0x1E69 JUMP JUMPDEST PUSH1 0x4 DUP3 PUSH1 0xFF AND LT PUSH2 0xD50 JUMPI PUSH1 0x40 MLOAD PUSH3 0x461BCD PUSH1 0xE5 SHL DUP2 MSTORE PUSH1 0x4 ADD PUSH2 0x60D SWAP1 PUSH2 0x3145 JUMP JUMPDEST DUP1 PUSH1 0xB PUSH1 0x0 DUP5 PUSH1 0xFF AND PUSH1 0x4 DUP2 GT ISZERO PUSH2 0xD78 JUMPI PUSH4 0x4E487B71 PUSH1 0xE0 SHL PUSH1 0x0 MSTORE PUSH1 0x21 PUSH1 0x4 MSTORE PUSH1 0x24 PUSH1 0x0 REVERT JUMPDEST PUSH1 0x4 DUP2 GT ISZERO PUSH2 0xD97 JUMPI PUSH4 0x4E487B71 PUSH1 0xE0 SHL PUSH1 0x0 MSTORE PUSH1 0x21 PUSH1 0x4 MSTORE PUSH1 0x24 PUSH1 0x0 REVERT JUMPDEST PUSH1 0x4 DUP2 GT ISZERO PUSH2 0xDB6 JUMPI PUSH4 0x4E487B71 PUSH1 0xE0 SHL PUSH1 0x0 MSTORE PUSH1 0x21 PUSH1 0x4 MSTORE PUSH1 0x24 PUSH1 0x0 REVERT JUMPDEST DUP2 MSTORE PUSH1 0x20 DUP2 ADD SWAP2 SWAP1 SWAP2 MSTORE PUSH1 0x40 ADD PUSH1 0x0 KECCAK256 SSTORE POP POP JUMP JUMPDEST PUSH2 0xDD3 PUSH2 0x1E69 JUMP JUMPDEST PUSH1 0x6 SSTORE JUMP JUMPDEST PUSH1 0x3 CALLER PUSH2 0xDE5 DUP3 DUP3 PUSH2 0x206B JUMP JUMPDEST PUSH2 0xE02 JUMPI PUSH1 0x40 MLOAD PUSH4 0xAA6318D3 PUSH1 0xE0 SHL DUP2 MSTORE PUSH1 0x4 ADD PUSH1 0x40 MLOAD DUP1 SWAP2 SUB SWAP1 REVERT JUMPDEST PUSH1 0x0 PUSH2 0xE0D DUP5 PUSH2 0x20E5 JUMP JUMPDEST SWAP1 POP PUSH2 0xE21 PUSH1 0x0 SLOAD PUSH1 0x1 PUSH1 0x1 PUSH1 0xA0 SHL SUB AND SWAP1 JUMP JUMPDEST PUSH1 0x1 PUSH1 0x1 PUSH1 0xA0 SHL SUB AND CALLER PUSH1 0x1 PUSH1 0x1 PUSH1 0xA0 SHL SUB AND EQ PUSH2 0xE82 JUMPI CALLER PUSH1 0x1 PUSH1 0x1 PUSH1 0xA0 SHL SUB DUP3 AND EQ PUSH2 0xE82 JUMPI PUSH1 0x40 MLOAD PUSH3 0x461BCD PUSH1 0xE5 SHL DUP2 MSTORE PUSH1 0x20 PUSH1 0x4 DUP3 ADD MSTORE PUSH1 0xE PUSH1 0x24 DUP3 ADD MSTORE PUSH14 0x139BDD08105D5D1A1BDC9A5E9959 PUSH1 0x92 SHL PUSH1 0x44 DUP3 ADD MSTORE PUSH1 0x64 ADD PUSH2 0x60D JUMP JUMPDEST PUSH2 0xE8D PUSH1 0x7 DUP6 PUSH2 0x212B JUMP JUMPDEST POP POP POP POP JUMP JUMPDEST PUSH2 0xE9B PUSH2 0x1B7A JUMP JUMPDEST MLOAD DUP2 MLOAD DUP3 SWAP1 PUSH1 0x0 SWAP1 PUSH1 0x32 SWAP1 ISZERO PUSH2 0xEE3 JUMPI DUP2 PUSH1 0xFF AND DUP4 MLOAD GT DUP1 ISZERO PUSH2 0xEC2 JUMPI POP DUP1 PUSH1 0xFF AND DUP4 MLOAD GT ISZERO JUMPDEST PUSH2 0xEDE JUMPI PUSH1 0x40 MLOAD PUSH3 0x461BCD PUSH1 0xE5 SHL DUP2 MSTORE PUSH1 0x4 ADD PUSH2 0x60D SWAP1 PUSH2 0x316F JUMP JUMPDEST PUSH2 0xF16 JUMP JUMPDEST DUP2 PUSH1 0xFF AND DUP5 MLOAD GT DUP1 ISZERO PUSH2 0xEFA JUMPI POP DUP1 PUSH1 0xFF AND DUP5 MLOAD GT ISZERO JUMPDEST PUSH2 0xF16 JUMPI PUSH1 0x40 MLOAD PUSH3 0x461BCD PUSH1 0xE5 SHL DUP2 MSTORE PUSH1 0x4 ADD PUSH2 0x60D SWAP1 PUSH2 0x316F JUMP JUMPDEST PUSH1 0x0 JUMPDEST DUP6 MLOAD DUP2 LT ISZERO PUSH2 0xF64 JUMPI PUSH2 0xF52 DUP7 DUP3 DUP2 MLOAD DUP2 LT PUSH2 0xF45 JUMPI PUSH4 0x4E487B71 PUSH1 0xE0 SHL PUSH1 0x0 MSTORE PUSH1 0x32 PUSH1 0x4 MSTORE PUSH1 0x24 PUSH1 0x0 REVERT JUMPDEST PUSH1 0x20 MUL PUSH1 0x20 ADD ADD MLOAD PUSH2 0x1110 JUMP JUMPDEST DUP1 PUSH2 0xF5C DUP2 PUSH2 0x32F6 JUMP JUMPDEST SWAP2 POP POP PUSH2 0xF19 JUMP JUMPDEST POP POP POP POP POP POP JUMP JUMPDEST PUSH1 0x60 PUSH1 0x3 DUP3 PUSH1 0xFF AND LT PUSH2 0xFB5 JUMPI PUSH1 0x40 MLOAD PUSH3 0x461BCD PUSH1 0xE5 SHL DUP2 MSTORE PUSH1 0x20 PUSH1 0x4 DUP3 ADD MSTORE PUSH1 0x11 PUSH1 0x24 DUP3 ADD MSTORE PUSH17 0x24B73B30B634B21039B2B632B1B2BA37B9 PUSH1 0x79 SHL PUSH1 0x44 DUP3 ADD MSTORE PUSH1 0x64 ADD PUSH2 0x60D JUMP JUMPDEST PUSH1 0x9 PUSH1 0x0 DUP4 PUSH1 0xFF AND PUSH1 0x2 DUP2 GT ISZERO PUSH2 0xFDC JUMPI PUSH4 0x4E487B71 PUSH1 0xE0 SHL PUSH1 0x0 MSTORE PUSH1 0x21 PUSH1 0x4 MSTORE PUSH1 0x24 PUSH1 0x0 REVERT JUMPDEST PUSH1 0x2 DUP2 GT ISZERO PUSH2 0xFFB JUMPI PUSH4 0x4E487B71 PUSH1 0xE0 SHL PUSH1 0x0 MSTORE PUSH1 0x21 PUSH1 0x4 MSTORE PUSH1 0x24 PUSH1 0x0 REVERT JUMPDEST PUSH1 0x2 DUP2 GT ISZERO PUSH2 0x101A JUMPI PUSH4 0x4E487B71 PUSH1 0xE0 SHL PUSH1 0x0 MSTORE PUSH1 0x21 PUSH1 0x4 MSTORE PUSH1 0x24 PUSH1 0x0 REVERT JUMPDEST DUP2 MSTORE PUSH1 0x20 ADD SWAP1 DUP2 MSTORE PUSH1 0x20 ADD PUSH1 0x0 KECCAK256 DUP1 SLOAD DUP1 PUSH1 0x20 MUL PUSH1 0x20 ADD PUSH1 0x40 MLOAD SWAP1 DUP2 ADD PUSH1 0x40 MSTORE DUP1 SWAP3 SWAP2 SWAP1 DUP2 DUP2 MSTORE PUSH1 0x20 ADD PUSH1 0x0 SWAP1 JUMPDEST DUP3 DUP3 LT ISZERO PUSH2 0x1105 JUMPI PUSH1 0x0 DUP5 DUP2 MSTORE PUSH1 0x20 SWAP1 DUP2 SWAP1 KECCAK256 PUSH1 0x40 DUP1 MLOAD PUSH1 0xA0 DUP2 ADD DUP3 MSTORE PUSH1 0x4 DUP7 MUL SWAP1 SWAP3 ADD DUP1 SLOAD DUP4 MSTORE PUSH1 0x1 DUP2 ADD SLOAD PUSH1 0x1 PUSH1 0x1 PUSH1 0xA0 SHL SUB SWAP1 DUP2 AND SWAP5 DUP5 ADD SWAP5 SWAP1 SWAP5 MSTORE PUSH1 0x2 DUP1 DUP3 ADD SLOAD DUP6 AND SWAP3 DUP5 ADD SWAP3 SWAP1 SWAP3 MSTORE PUSH1 0x3 DUP2 ADD SLOAD SWAP4 DUP5 AND PUSH1 0x60 DUP5 ADD MSTORE SWAP2 SWAP3 PUSH1 0x80 DUP5 ADD SWAP2 PUSH1 0x1 PUSH1 0xA0 SHL SWAP1 SWAP2 DIV PUSH1 0xFF AND SWAP1 DUP2 GT ISZERO PUSH2 0x10D3 JUMPI PUSH4 0x4E487B71 PUSH1 0xE0 SHL PUSH1 0x0 MSTORE PUSH1 0x21 PUSH1 0x4 MSTORE PUSH1 0x24 PUSH1 0x0 REVERT JUMPDEST PUSH1 0x2 DUP2 GT ISZERO PUSH2 0x10F2 JUMPI PUSH4 0x4E487B71 PUSH1 0xE0 SHL PUSH1 0x0 MSTORE PUSH1 0x21 PUSH1 0x4 MSTORE PUSH1 0x24 PUSH1 0x0 REVERT JUMPDEST DUP2 MSTORE POP POP DUP2 MSTORE PUSH1 0x20 ADD SWAP1 PUSH1 0x1 ADD SWAP1 PUSH2 0x1048 JUMP JUMPDEST POP POP POP POP SWAP1 POP SWAP2 SWAP1 POP JUMP JUMPDEST PUSH1 0x1 CALLER PUSH2 0x111D DUP3 DUP3 PUSH2 0x206B JUMP JUMPDEST PUSH2 0x113A JUMPI PUSH1 0x40 MLOAD PUSH4 0xAA6318D3 PUSH1 0xE0 SHL DUP2 MSTORE PUSH1 0x4 ADD PUSH1 0x40 MLOAD DUP1 SWAP2 SUB SWAP1 REVERT JUMPDEST PUSH1 0x3 DUP1 SLOAD PUSH1 0x0 SWAP2 DUP3 PUSH2 0x114B DUP4 PUSH2 0x32F6 JUMP JUMPDEST SWAP1 SWAP2 SSTORE POP POP PUSH1 0x3 SLOAD PUSH1 0x40 DUP1 MLOAD PUSH1 0xA0 DUP2 ADD SWAP1 SWAP2 MSTORE PUSH2 0x11E3 SWAP1 PUSH1 0x9 SWAP1 DUP1 PUSH2 0x1174 DUP10 DUP7 PUSH1 0xC0 DUP5 ADD PUSH2 0x30E2 JUMP JUMPDEST PUSH1 0x40 MLOAD PUSH1 0x20 DUP2 DUP4 SUB SUB DUP2 MSTORE SWAP1 PUSH1 0x40 MSTORE DUP1 MLOAD SWAP1 PUSH1 0x20 ADD KECCAK256 DUP2 MSTORE PUSH1 0x20 ADD PUSH1 0x0 PUSH1 0x1 PUSH1 0x1 PUSH1 0xA0 SHL SUB AND DUP2 MSTORE PUSH1 0x20 ADD PUSH2 0x11A6 CALLER SWAP1 JUMP JUMPDEST PUSH1 0x1 PUSH1 0x1 PUSH1 0xA0 SHL SUB AND DUP2 MSTORE PUSH1 0x0 PUSH1 0x20 DUP3 ADD MSTORE PUSH1 0x40 ADD DUP6 PUSH1 0x2 DUP2 GT ISZERO PUSH2 0x11DB JUMPI PUSH4 0x4E487B71 PUSH1 0xE0 SHL PUSH1 0x0 MSTORE PUSH1 0x21 PUSH1 0x4 MSTORE PUSH1 0x24 PUSH1 0x0 REVERT JUMPDEST SWAP1 MSTORE DUP5 PUSH2 0x236C JUMP JUMPDEST POP POP POP POP POP JUMP JUMPDEST CALLER PUSH1 0x0 SWAP1 DUP2 MSTORE PUSH32 0xA856840544DC26124927ADD067D799967EAC11BE13E14D82CC281EA46FA39759 PUSH1 0x20 MSTORE PUSH1 0x40 SWAP1 KECCAK256 PUSH1 0x2 ADD SLOAD PUSH2 0x100 SWAP1 DIV PUSH1 0xFF AND ISZERO PUSH2 0x1266 JUMPI PUSH1 0x40 MLOAD PUSH3 0x461BCD PUSH1 0xE5 SHL DUP2 MSTORE PUSH1 0x20 PUSH1 0x4 DUP3 ADD MSTORE PUSH1 0x12 PUSH1 0x24 DUP3 ADD MSTORE PUSH18 0x105B1C9958591E481C9959DA5CDD195C9959 PUSH1 0x72 SHL PUSH1 0x44 DUP3 ADD MSTORE PUSH1 0x64 ADD PUSH2 0x60D JUMP JUMPDEST PUSH1 0x0 PUSH2 0x1273 PUSH1 0x7 CALLER PUSH2 0x24E6 JUMP JUMPDEST CALLER PUSH1 0x0 SWAP1 DUP2 MSTORE PUSH32 0xA856840544DC26124927ADD067D799967EAC11BE13E14D82CC281EA46FA39759 PUSH1 0x20 MSTORE PUSH1 0x40 DUP2 KECCAK256 PUSH1 0x2 ADD DUP1 SLOAD PUSH2 0xFF00 NOT AND PUSH2 0x100 OR SWAP1 SSTORE PUSH1 0x5 DUP1 SLOAD SWAP3 SWAP4 POP SWAP1 PUSH2 0x12C2 DUP4 PUSH2 0x32F6 JUMP JUMPDEST SWAP2 SWAP1 POP SSTORE POP PUSH32 0x723B3A091C16D9EBE7FE55F416FB9EA16FE106C1094FB596B8FDAA98F2847FB DUP2 PUSH2 0x12F0 CALLER SWAP1 JUMP JUMPDEST PUSH1 0x40 DUP1 MLOAD SWAP3 DUP4 MSTORE PUSH1 0x1 PUSH1 0x1 PUSH1 0xA0 SHL SUB SWAP1 SWAP2 AND PUSH1 0x20 DUP4 ADD MSTORE ADD PUSH1 0x40 MLOAD DUP1 SWAP2 SUB SWAP1 LOG1 POP JUMP JUMPDEST PUSH1 0x0 CALLER PUSH2 0x1320 DUP3 DUP3 PUSH2 0x206B JUMP JUMPDEST PUSH2 0x133D JUMPI PUSH1 0x40 MLOAD PUSH4 0xAA6318D3 PUSH1 0xE0 SHL DUP2 MSTORE PUSH1 0x4 ADD PUSH1 0x40 MLOAD DUP1 SWAP2 SUB SWAP1 REVERT JUMPDEST PUSH1 0x40 DUP1 MLOAD DUP1 DUP3 ADD SWAP1 SWAP2 MSTORE PUSH1 0x15 DUP2 MSTORE PUSH21 0x24B73B30B634B2103BB0B9BA32903837B4B73A32B9 PUSH1 0x59 SHL PUSH1 0x20 DUP3 ADD MSTORE DUP5 SWAP1 DUP5 SWAP1 PUSH1 0x0 SWAP1 PUSH2 0x137A JUMP JUMPDEST PUSH2 0x1458 JUMP JUMPDEST PUSH1 0x0 DUP3 PUSH1 0x2 DUP2 GT ISZERO PUSH2 0x139C JUMPI PUSH4 0x4E487B71 PUSH1 0xE0 SHL PUSH1 0x0 MSTORE PUSH1 0x21 PUSH1 0x4 MSTORE PUSH1 0x24 PUSH1 0x0 REVERT JUMPDEST EQ ISZERO PUSH2 0x1436 JUMPI PUSH1 0x9 PUSH1 0x0 DUP4 PUSH1 0x2 DUP2 GT ISZERO PUSH2 0x13C6 JUMPI PUSH4 0x4E487B71 PUSH1 0xE0 SHL PUSH1 0x0 MSTORE PUSH1 0x21 PUSH1 0x4 MSTORE PUSH1 0x24 PUSH1 0x0 REVERT JUMPDEST PUSH1 0x2 DUP2 GT ISZERO PUSH2 0x13E5 JUMPI PUSH4 0x4E487B71 PUSH1 0xE0 SHL PUSH1 0x0 MSTORE PUSH1 0x21 PUSH1 0x4 MSTORE PUSH1 0x24 PUSH1 0x0 REVERT JUMPDEST DUP2 MSTORE PUSH1 0x20 DUP2 ADD SWAP2 SWAP1 SWAP2 MSTORE PUSH1 0x40 ADD PUSH1 0x0 KECCAK256 SLOAD DUP4 LT PUSH2 0x1375 JUMPI PUSH1 0x40 MLOAD PUSH3 0x461BCD PUSH1 0xE5 SHL DUP2 MSTORE PUSH1 0x20 PUSH1 0x4 DUP3 ADD MSTORE PUSH1 0xF PUSH1 0x24 DUP3 ADD MSTORE PUSH15 0x125B9D985B1A59081DD85CDD195259 PUSH1 0x8A SHL PUSH1 0x44 DUP3 ADD MSTORE PUSH1 0x64 ADD PUSH2 0x60D JUMP JUMPDEST PUSH1 0x7 SLOAD DUP5 LT PUSH2 0x1458 JUMPI PUSH1 0x40 MLOAD PUSH4 0x83204183 PUSH1 0xE0 SHL DUP2 MSTORE PUSH1 0x4 ADD PUSH1 0x40 MLOAD DUP1 SWAP2 SUB SWAP1 REVERT JUMPDEST CALLER PUSH1 0x0 SWAP1 DUP2 MSTORE PUSH32 0x13DA86008BA1C6922DAEE3E07DB95305EF49EBCED9F5467A0B8613FCC6B343E3 PUSH1 0x20 MSTORE PUSH1 0x40 SWAP1 KECCAK256 PUSH1 0x2 ADD SLOAD PUSH2 0x100 SWAP1 DIV PUSH1 0xFF AND PUSH2 0x14CC JUMPI PUSH1 0x40 MLOAD PUSH3 0x461BCD PUSH1 0xE5 SHL DUP2 MSTORE PUSH1 0x20 PUSH1 0x4 DUP3 ADD MSTORE PUSH1 0xB PUSH1 0x24 DUP3 ADD MSTORE PUSH11 0x139BDD08185B1B1BDDD959 PUSH1 0xAA SHL PUSH1 0x44 DUP3 ADD MSTORE PUSH1 0x64 ADD PUSH2 0x60D JUMP JUMPDEST PUSH1 0x0 DUP1 DUP1 MSTORE PUSH1 0x9 PUSH1 0x20 MSTORE PUSH32 0xEC8156718A8372B1DB44BB411437D0870F3E3790D4A08526D024CE1B0B668F6B SLOAD DUP9 LT PUSH2 0x153D JUMPI PUSH1 0x40 MLOAD PUSH3 0x461BCD PUSH1 0xE5 SHL DUP2 MSTORE PUSH1 0x20 PUSH1 0x4 DUP3 ADD MSTORE PUSH1 0x14 PUSH1 0x24 DUP3 ADD MSTORE PUSH20 0x1DD85CDD195259081BDD5D081BD988189BDD5B99 PUSH1 0x62 SHL PUSH1 0x44 DUP3 ADD MSTORE PUSH1 0x64 ADD PUSH2 0x60D JUMP JUMPDEST PUSH1 0x0 PUSH2 0x154B PUSH1 0x9 DUP11 DUP5 PUSH2 0x2551 JUMP JUMPDEST SWAP1 POP PUSH2 0x155B PUSH1 0x7 DUP12 DUP4 PUSH1 0x1 PUSH2 0x2751 JUMP JUMPDEST POP POP POP POP POP POP POP POP POP POP JUMP JUMPDEST PUSH1 0x2 PUSH1 0x0 DUP2 DUP2 MSTORE PUSH1 0x9 PUSH1 0x20 MSTORE PUSH32 0x6CDE3CEA4B3A3FB2488B2808BAE7556F4A405E50F65E1794383BC026131B13C3 SLOAD SWAP2 DUP3 ISZERO DUP1 ISZERO SWAP1 PUSH2 0x15A5 JUMPI POP DUP4 DUP4 LT ISZERO JUMPDEST PUSH2 0x15E1 JUMPI PUSH1 0x40 MLOAD PUSH3 0x461BCD PUSH1 0xE5 SHL DUP2 MSTORE PUSH1 0x20 PUSH1 0x4 DUP3 ADD MSTORE PUSH1 0xD PUSH1 0x24 DUP3 ADD MSTORE PUSH13 0x4E6F7420617661696C61626C65 PUSH1 0x98 SHL PUSH1 0x44 DUP3 ADD MSTORE PUSH1 0x64 ADD PUSH2 0x60D JUMP JUMPDEST PUSH1 0x0 JUMPDEST DUP5 DUP2 LT ISZERO PUSH2 0x196B JUMPI PUSH1 0x0 PUSH1 0x9 PUSH1 0x0 DUP5 PUSH1 0x2 DUP2 GT ISZERO PUSH2 0x1612 JUMPI PUSH4 0x4E487B71 PUSH1 0xE0 SHL PUSH1 0x0 MSTORE PUSH1 0x21 PUSH1 0x4 MSTORE PUSH1 0x24 PUSH1 0x0 REVERT JUMPDEST PUSH1 0x2 DUP2 GT ISZERO PUSH2 0x1631 JUMPI PUSH4 0x4E487B71 PUSH1 0xE0 SHL PUSH1 0x0 MSTORE PUSH1 0x21 PUSH1 0x4 MSTORE PUSH1 0x24 PUSH1 0x0 REVERT JUMPDEST DUP2 MSTORE PUSH1 0x20 ADD SWAP1 DUP2 MSTORE PUSH1 0x20 ADD PUSH1 0x0 KECCAK256 DUP3 DUP2 SLOAD DUP2 LT PUSH2 0x165E JUMPI PUSH4 0x4E487B71 PUSH1 0xE0 SHL PUSH1 0x0 MSTORE PUSH1 0x32 PUSH1 0x4 MSTORE PUSH1 0x24 PUSH1 0x0 REVERT JUMPDEST PUSH1 0x0 SWAP2 DUP3 MSTORE PUSH1 0x20 SWAP2 DUP3 SWAP1 KECCAK256 PUSH1 0x40 DUP1 MLOAD PUSH1 0xA0 DUP2 ADD DUP3 MSTORE PUSH1 0x4 SWAP4 SWAP1 SWAP4 MUL SWAP1 SWAP2 ADD DUP1 SLOAD DUP4 MSTORE PUSH1 0x1 DUP2 ADD SLOAD PUSH1 0x1 PUSH1 0x1 PUSH1 0xA0 SHL SUB SWAP1 DUP2 AND SWAP5 DUP5 ADD SWAP5 SWAP1 SWAP5 MSTORE PUSH1 0x2 DUP1 DUP3 ADD SLOAD DUP6 AND SWAP3 DUP5 ADD SWAP3 SWAP1 SWAP3 MSTORE PUSH1 0x3 DUP2 ADD SLOAD SWAP4 DUP5 AND PUSH1 0x60 DUP5 ADD MSTORE SWAP2 SWAP3 PUSH1 0x80 DUP5 ADD SWAP2 PUSH1 0x1 PUSH1 0xA0 SHL SWAP1 SWAP2 DIV PUSH1 0xFF AND SWAP1 DUP2 GT ISZERO PUSH2 0x16E3 JUMPI PUSH4 0x4E487B71 PUSH1 0xE0 SHL PUSH1 0x0 MSTORE PUSH1 0x21 PUSH1 0x4 MSTORE PUSH1 0x24 PUSH1 0x0 REVERT JUMPDEST PUSH1 0x2 DUP2 GT ISZERO PUSH2 0x1702 JUMPI PUSH4 0x4E487B71 PUSH1 0xE0 SHL PUSH1 0x0 MSTORE PUSH1 0x21 PUSH1 0x4 MSTORE PUSH1 0x24 PUSH1 0x0 REVERT JUMPDEST SWAP1 MSTORE POP PUSH1 0x60 DUP2 ADD MLOAD SWAP1 SWAP2 POP PUSH1 0x1 PUSH1 0x1 PUSH1 0xA0 SHL SUB AND ISZERO PUSH2 0x1958 JUMPI DUP4 PUSH2 0x1725 DUP2 PUSH2 0x32F6 JUMP JUMPDEST PUSH1 0x4 PUSH1 0x0 SWAP1 DUP2 MSTORE PUSH1 0xA PUSH1 0x20 MSTORE SWAP1 SWAP6 POP PUSH32 0xE1EB2B2161A492C07C5A334E48012567CBA93EC021043F53C1955516A3C5A841 SWAP2 POP CALLER PUSH1 0x1 PUSH1 0x1 PUSH1 0xA0 SHL SUB AND PUSH1 0x1 PUSH1 0x1 PUSH1 0xA0 SHL SUB AND DUP2 MSTORE PUSH1 0x20 ADD SWAP1 DUP2 MSTORE PUSH1 0x20 ADD PUSH1 0x0 KECCAK256 PUSH1 0x3 ADD PUSH1 0x40 MLOAD DUP1 PUSH1 0xA0 ADD PUSH1 0x40 MSTORE DUP1 DUP4 PUSH1 0x0 ADD MLOAD DUP2 MSTORE PUSH1 0x20 ADD DUP4 PUSH1 0x20 ADD MLOAD PUSH1 0x1 PUSH1 0x1 PUSH1 0xA0 SHL SUB AND DUP2 MSTORE PUSH1 0x20 ADD DUP4 PUSH1 0x40 ADD MLOAD PUSH1 0x1 PUSH1 0x1 PUSH1 0xA0 SHL SUB AND DUP2 MSTORE PUSH1 0x20 ADD DUP4 PUSH1 0x60 ADD MLOAD PUSH1 0x1 PUSH1 0x1 PUSH1 0xA0 SHL SUB AND DUP2 MSTORE PUSH1 0x20 ADD DUP4 PUSH1 0x80 ADD MLOAD PUSH1 0x2 DUP2 GT ISZERO PUSH2 0x17ED JUMPI PUSH4 0x4E487B71 PUSH1 0xE0 SHL PUSH1 0x0 MSTORE PUSH1 0x21 PUSH1 0x4 MSTORE PUSH1 0x24 PUSH1 0x0 REVERT JUMPDEST SWAP1 MSTORE DUP2 SLOAD PUSH1 0x1 DUP1 DUP3 ADD DUP5 SSTORE PUSH1 0x0 SWAP4 DUP5 MSTORE PUSH1 0x20 SWAP4 DUP5 SWAP1 KECCAK256 DUP4 MLOAD PUSH1 0x4 SWAP1 SWAP4 MUL ADD SWAP2 DUP3 SSTORE SWAP3 DUP3 ADD MLOAD SWAP3 DUP2 ADD DUP1 SLOAD PUSH1 0x1 PUSH1 0x1 PUSH1 0xA0 SHL SUB NOT SWAP1 DUP2 AND PUSH1 0x1 PUSH1 0x1 PUSH1 0xA0 SHL SUB SWAP6 DUP7 AND OR SWAP1 SWAP2 SSTORE PUSH1 0x40 DUP4 ADD MLOAD PUSH1 0x2 DUP1 DUP5 ADD DUP1 SLOAD DUP5 AND SWAP3 DUP8 AND SWAP3 SWAP1 SWAP3 OR SWAP1 SWAP2 SSTORE PUSH1 0x60 DUP5 ADD MLOAD PUSH1 0x3 DUP5 ADD DUP1 SLOAD SWAP4 DUP5 AND SWAP2 SWAP1 SWAP7 AND SWAP1 DUP2 OR DUP7 SSTORE PUSH1 0x80 DUP6 ADD MLOAD SWAP5 SWAP6 SWAP4 SWAP5 SWAP4 SWAP3 PUSH1 0x1 PUSH1 0x1 PUSH1 0xA8 SHL SUB NOT AND OR SWAP1 PUSH1 0x1 PUSH1 0xA0 SHL SWAP1 DUP5 SWAP1 DUP2 GT ISZERO PUSH2 0x189D JUMPI PUSH4 0x4E487B71 PUSH1 0xE0 SHL PUSH1 0x0 MSTORE PUSH1 0x21 PUSH1 0x4 MSTORE PUSH1 0x24 PUSH1 0x0 REVERT JUMPDEST MUL OR SWAP1 SSTORE POP POP POP PUSH1 0x9 PUSH1 0x0 DUP5 PUSH1 0x2 DUP2 GT ISZERO PUSH2 0x18C8 JUMPI PUSH4 0x4E487B71 PUSH1 0xE0 SHL PUSH1 0x0 MSTORE PUSH1 0x21 PUSH1 0x4 MSTORE PUSH1 0x24 PUSH1 0x0 REVERT JUMPDEST PUSH1 0x2 DUP2 GT ISZERO PUSH2 0x18E7 JUMPI PUSH4 0x4E487B71 PUSH1 0xE0 SHL PUSH1 0x0 MSTORE PUSH1 0x21 PUSH1 0x4 MSTORE PUSH1 0x24 PUSH1 0x0 REVERT JUMPDEST DUP2 MSTORE PUSH1 0x20 ADD SWAP1 DUP2 MSTORE PUSH1 0x20 ADD PUSH1 0x0 KECCAK256 DUP3 DUP2 SLOAD DUP2 LT PUSH2 0x1914 JUMPI PUSH4 0x4E487B71 PUSH1 0xE0 SHL PUSH1 0x0 MSTORE PUSH1 0x32 PUSH1 0x4 MSTORE PUSH1 0x24 PUSH1 0x0 REVERT JUMPDEST PUSH1 0x0 SWAP2 DUP3 MSTORE PUSH1 0x20 DUP3 KECCAK256 PUSH1 0x4 SWAP1 SWAP2 MUL ADD SWAP1 DUP2 SSTORE PUSH1 0x1 DUP2 ADD DUP1 SLOAD PUSH1 0x1 PUSH1 0x1 PUSH1 0xA0 SHL SUB NOT SWAP1 DUP2 AND SWAP1 SWAP2 SSTORE PUSH1 0x2 DUP3 ADD DUP1 SLOAD SWAP1 SWAP2 AND SWAP1 SSTORE PUSH1 0x3 ADD DUP1 SLOAD PUSH1 0x1 PUSH1 0x1 PUSH1 0xA8 SHL SUB NOT AND SWAP1 SSTORE JUMPDEST POP DUP1 PUSH2 0x1963 DUP2 PUSH2 0x32F6 JUMP JUMPDEST SWAP2 POP POP PUSH2 0x15E4 JUMP JUMPDEST POP PUSH1 0x0 DUP3 PUSH1 0x6 SLOAD PUSH2 0x197C SWAP2 SWAP1 PUSH2 0x3270 JUMP JUMPDEST SWAP1 POP DUP1 CALLVALUE LT ISZERO PUSH2 0x11E3 JUMPI PUSH1 0x40 MLOAD PUSH3 0x461BCD PUSH1 0xE5 SHL DUP2 MSTORE PUSH1 0x20 PUSH1 0x4 DUP3 ADD MSTORE PUSH1 0x6 PUSH1 0x24 DUP3 ADD MSTORE PUSH6 0x4956616C7565 PUSH1 0xD0 SHL PUSH1 0x44 DUP3 ADD MSTORE PUSH1 0x64 ADD PUSH2 0x60D JUMP JUMPDEST PUSH2 0x19BF PUSH2 0x1E69 JUMP JUMPDEST DUP1 PUSH1 0x4 DUP2 PUSH1 0xFF AND LT PUSH2 0x19E3 JUMPI PUSH1 0x40 MLOAD PUSH3 0x461BCD PUSH1 0xE5 SHL DUP2 MSTORE PUSH1 0x4 ADD PUSH2 0x60D SWAP1 PUSH2 0x3145 JUMP JUMPDEST PUSH2 0x6B6 PUSH1 0xA DUP5 PUSH1 0x0 DUP6 PUSH1 0xFF AND PUSH1 0x4 DUP2 GT ISZERO PUSH2 0x7EF JUMPI PUSH4 0x4E487B71 PUSH1 0xE0 SHL PUSH1 0x0 MSTORE PUSH1 0x21 PUSH1 0x4 MSTORE PUSH1 0x24 PUSH1 0x0 REVERT JUMPDEST PUSH2 0x1A16 PUSH2 0x1E69 JUMP JUMPDEST PUSH1 0x1 SSTORE JUMP JUMPDEST PUSH2 0x1A23 PUSH2 0x1E69 JUMP JUMPDEST PUSH1 0x1 PUSH1 0x1 PUSH1 0xA0 SHL SUB DUP2 AND PUSH2 0x1A88 JUMPI PUSH1 0x40 MLOAD PUSH3 0x461BCD PUSH1 0xE5 SHL DUP2 MSTORE PUSH1 0x20 PUSH1 0x4 DUP3 ADD MSTORE PUSH1 0x26 PUSH1 0x24 DUP3 ADD MSTORE PUSH32 0x4F776E61626C653A206E6577206F776E657220697320746865207A65726F2061 PUSH1 0x44 DUP3 ADD MSTORE PUSH6 0x646472657373 PUSH1 0xD0 SHL PUSH1 0x64 DUP3 ADD MSTORE PUSH1 0x84 ADD PUSH2 0x60D JUMP JUMPDEST PUSH2 0x1A91 DUP2 PUSH2 0x201B JUMP JUMPDEST POP JUMP JUMPDEST PUSH1 0x0 DUP1 DUP1 MSTORE PUSH1 0x20 DUP6 DUP2 MSTORE PUSH1 0x40 DUP1 DUP4 KECCAK256 PUSH1 0x1 PUSH1 0x1 PUSH1 0xA0 SHL SUB DUP8 AND DUP5 MSTORE DUP3 MSTORE DUP1 DUP4 KECCAK256 DUP1 SLOAD PUSH4 0xFFFFFFFF NOT AND TIMESTAMP PUSH4 0xFFFFFFFF AND OR DUP2 SSTORE PUSH1 0x1 DUP2 ADD DUP5 SWAP1 SSTORE PUSH1 0x2 ADD DUP1 SLOAD PUSH2 0x100 PUSH2 0xFFFF NOT SWAP1 SWAP2 AND OR SWAP1 SSTORE MLOAD PUSH2 0x1AEF SWAP2 DUP6 SWAP2 DUP6 SWAP2 ADD PUSH2 0x3117 JUMP JUMPDEST PUSH1 0x40 MLOAD PUSH1 0x20 DUP2 DUP4 SUB SUB DUP2 MSTORE SWAP1 PUSH1 0x40 MSTORE DUP6 PUSH1 0x0 DUP4 PUSH1 0x4 DUP2 GT ISZERO PUSH2 0x1B21 JUMPI PUSH4 0x4E487B71 PUSH1 0xE0 SHL PUSH1 0x0 MSTORE PUSH1 0x21 PUSH1 0x4 MSTORE PUSH1 0x24 PUSH1 0x0 REVERT JUMPDEST PUSH1 0x4 DUP2 GT ISZERO PUSH2 0x1B40 JUMPI PUSH4 0x4E487B71 PUSH1 0xE0 SHL PUSH1 0x0 MSTORE PUSH1 0x21 PUSH1 0x4 MSTORE PUSH1 0x24 PUSH1 0x0 REVERT JUMPDEST DUP2 MSTORE PUSH1 0x20 DUP1 DUP3 ADD SWAP3 SWAP1 SWAP3 MSTORE PUSH1 0x40 SWAP1 DUP2 ADD PUSH1 0x0 SWAP1 DUP2 KECCAK256 PUSH1 0x1 PUSH1 0x1 PUSH1 0xA0 SHL SUB DUP10 AND DUP3 MSTORE DUP4 MSTORE KECCAK256 DUP3 MLOAD PUSH2 0xF64 SWAP4 PUSH1 0x4 SWAP1 SWAP3 ADD SWAP3 SWAP2 SWAP1 SWAP2 ADD SWAP1 PUSH2 0x2B35 JUMP JUMPDEST PUSH1 0x40 DUP1 MLOAD DUP1 DUP3 ADD DUP3 MSTORE PUSH1 0x60 DUP1 DUP3 MSTORE PUSH1 0x20 DUP1 DUP4 ADD SWAP2 SWAP1 SWAP2 MSTORE DUP3 MLOAD PUSH1 0x0 DUP1 DUP3 MSTORE SWAP2 DUP2 ADD DUP3 DUP2 MSTORE DUP2 DUP6 ADD SWAP1 SWAP5 MSTORE SWAP2 SWAP3 DUP2 PUSH2 0x1BC1 JUMP JUMPDEST PUSH1 0x60 DUP2 MSTORE PUSH1 0x20 ADD SWAP1 PUSH1 0x1 SWAP1 SUB SWAP1 DUP2 PUSH2 0x1BAC JUMPI SWAP1 POP JUMPDEST POP PUSH1 0x40 DUP1 MLOAD DUP1 DUP3 ADD SWAP1 SWAP2 MSTORE SWAP3 DUP4 MSTORE PUSH1 0x20 DUP4 ADD MSTORE POP SWAP2 SWAP1 POP JUMP JUMPDEST PUSH1 0x2 CALLER PUSH2 0x1BE7 DUP3 DUP3 PUSH2 0x206B JUMP JUMPDEST PUSH2 0x1C04 JUMPI PUSH1 0x40 MLOAD PUSH4 0xAA6318D3 PUSH1 0xE0 SHL DUP2 MSTORE PUSH1 0x4 ADD PUSH1 0x40 MLOAD DUP1 SWAP2 SUB SWAP1 REVERT JUMPDEST PUSH1 0x40 DUP1 MLOAD DUP1 DUP3 ADD SWAP1 SWAP2 MSTORE PUSH1 0x15 DUP2 MSTORE PUSH21 0x24B73B30B634B2103BB0B9BA32903837B4B73A32B9 PUSH1 0x59 SHL PUSH1 0x20 DUP3 ADD MSTORE DUP5 SWAP1 DUP5 SWAP1 PUSH1 0x1 SWAP1 PUSH1 0x7 DUP5 DUP2 SLOAD DUP2 LT PUSH2 0x1C58 JUMPI PUSH4 0x4E487B71 PUSH1 0xE0 SHL PUSH1 0x0 MSTORE PUSH1 0x32 PUSH1 0x4 MSTORE PUSH1 0x24 PUSH1 0x0 REVERT JUMPDEST PUSH1 0x0 SWAP2 DUP3 MSTORE PUSH1 0x20 SWAP1 SWAP2 KECCAK256 PUSH1 0x2 SWAP1 SWAP2 MUL ADD SLOAD DUP4 LT PUSH2 0x1C88 JUMPI PUSH1 0x40 MLOAD PUSH4 0x7E849FFB PUSH1 0xE0 SHL DUP2 MSTORE PUSH1 0x4 ADD PUSH1 0x40 MLOAD DUP1 SWAP2 SUB SWAP1 REVERT JUMPDEST PUSH1 0x0 PUSH2 0x1C96 PUSH1 0x7 DUP11 DUP11 PUSH2 0x28AD JUMP JUMPDEST SWAP1 POP PUSH2 0x1CA5 PUSH1 0x9 DUP3 PUSH1 0x2 PUSH2 0x236C JUMP JUMPDEST PUSH1 0x4 SLOAD PUSH1 0x0 DUP1 DUP1 PUSH2 0x1CB7 PUSH1 0x8 DUP6 PUSH2 0x2A26 JUMP JUMPDEST PUSH1 0x2 SLOAD PUSH1 0x20 DUP10 ADD MLOAD PUSH1 0x40 MLOAD PUSH4 0x95EA7B3 PUSH1 0xE0 SHL DUP2 MSTORE PUSH1 0x1 PUSH1 0x1 PUSH1 0xA0 SHL SUB SWAP2 DUP3 AND PUSH1 0x4 DUP3 ADD MSTORE PUSH1 0x24 DUP2 ADD DUP7 SWAP1 MSTORE SWAP5 SWAP8 POP SWAP3 SWAP6 POP SWAP1 SWAP4 POP AND SWAP1 PUSH4 0x95EA7B3 SWAP1 PUSH1 0x44 ADD PUSH1 0x20 PUSH1 0x40 MLOAD DUP1 DUP4 SUB DUP2 PUSH1 0x0 DUP8 DUP1 EXTCODESIZE ISZERO DUP1 ISZERO PUSH2 0x1D11 JUMPI PUSH1 0x0 DUP1 REVERT JUMPDEST POP GAS CALL ISZERO DUP1 ISZERO PUSH2 0x1D25 JUMPI RETURNDATASIZE PUSH1 0x0 DUP1 RETURNDATACOPY RETURNDATASIZE PUSH1 0x0 REVERT JUMPDEST POP POP POP POP PUSH1 0x40 MLOAD RETURNDATASIZE PUSH1 0x1F NOT PUSH1 0x1F DUP3 ADD AND DUP3 ADD DUP1 PUSH1 0x40 MSTORE POP DUP2 ADD SWAP1 PUSH2 0x1D49 SWAP2 SWAP1 PUSH2 0x2DD7 JUMP JUMPDEST POP PUSH1 0x2 SLOAD PUSH1 0x40 DUP7 DUP2 ADD MLOAD SWAP1 MLOAD PUSH4 0x95EA7B3 PUSH1 0xE0 SHL DUP2 MSTORE PUSH1 0x1 PUSH1 0x1 PUSH1 0xA0 SHL SUB SWAP2 DUP3 AND PUSH1 0x4 DUP3 ADD MSTORE PUSH1 0x24 DUP2 ADD DUP6 SWAP1 MSTORE SWAP2 AND SWAP1 PUSH4 0x95EA7B3 SWAP1 PUSH1 0x44 ADD PUSH1 0x20 PUSH1 0x40 MLOAD DUP1 DUP4 SUB DUP2 PUSH1 0x0 DUP8 DUP1 EXTCODESIZE ISZERO DUP1 ISZERO PUSH2 0x1D9C JUMPI PUSH1 0x0 DUP1 REVERT JUMPDEST POP GAS CALL ISZERO DUP1 ISZERO PUSH2 0x1DB0 JUMPI RETURNDATASIZE PUSH1 0x0 DUP1 RETURNDATACOPY RETURNDATASIZE PUSH1 0x0 REVERT JUMPDEST POP POP POP POP PUSH1 0x40 MLOAD RETURNDATASIZE PUSH1 0x1F NOT PUSH1 0x1F DUP3 ADD AND DUP3 ADD DUP1 PUSH1 0x40 MSTORE POP DUP2 ADD SWAP1 PUSH2 0x1DD4 SWAP2 SWAP1 PUSH2 0x2DD7 JUMP JUMPDEST POP PUSH1 0x2 SLOAD PUSH1 0x40 MLOAD PUSH4 0x95EA7B3 PUSH1 0xE0 SHL DUP2 MSTORE ADDRESS PUSH1 0x4 DUP3 ADD MSTORE PUSH1 0x24 DUP2 ADD DUP4 SWAP1 MSTORE PUSH1 0x1 PUSH1 0x1 PUSH1 0xA0 SHL SUB SWAP1 SWAP2 AND SWAP1 PUSH4 0x95EA7B3 SWAP1 PUSH1 0x44 ADD PUSH1 0x20 PUSH1 0x40 MLOAD DUP1 DUP4 SUB DUP2 PUSH1 0x0 DUP8 DUP1 EXTCODESIZE ISZERO DUP1 ISZERO PUSH2 0x1E21 JUMPI PUSH1 0x0 DUP1 REVERT JUMPDEST POP GAS CALL ISZERO DUP1 ISZERO PUSH2 0x1E35 JUMPI RETURNDATASIZE PUSH1 0x0 DUP1 RETURNDATACOPY RETURNDATASIZE PUSH1 0x0 REVERT JUMPDEST POP POP POP POP PUSH1 0x40 MLOAD RETURNDATASIZE PUSH1 0x1F NOT PUSH1 0x1F DUP3 ADD AND DUP3 ADD DUP1 PUSH1 0x40 MSTORE POP DUP2 ADD SWAP1 PUSH2 0x1E59 SWAP2 SWAP1 PUSH2 0x2DD7 JUMP JUMPDEST POP POP POP POP POP POP POP POP POP POP POP POP POP POP JUMP JUMPDEST PUSH1 0x0 SLOAD PUSH1 0x1 PUSH1 0x1 PUSH1 0xA0 SHL SUB AND CALLER EQ PUSH2 0xCE4 JUMPI PUSH1 0x40 MLOAD PUSH3 0x461BCD PUSH1 0xE5 SHL DUP2 MSTORE PUSH1 0x20 PUSH1 0x4 DUP3 ADD DUP2 SWAP1 MSTORE PUSH1 0x24 DUP3 ADD MSTORE PUSH32 0x4F776E61626C653A2063616C6C6572206973206E6F7420746865206F776E6572 PUSH1 0x44 DUP3 ADD MSTORE PUSH1 0x64 ADD PUSH2 0x60D JUMP JUMPDEST PUSH1 0x0 PUSH2 0x1ED0 DUP6 DUP6 DUP5 PUSH2 0x2ABB JUMP JUMPDEST SWAP1 POP DUP3 ISZERO PUSH2 0x1F78 JUMPI DUP1 ISZERO PUSH2 0x1EF7 JUMPI PUSH1 0x40 MLOAD PUSH4 0x3EE20B69 PUSH1 0xE0 SHL DUP2 MSTORE PUSH1 0x4 ADD PUSH1 0x40 MLOAD DUP1 SWAP2 SUB SWAP1 REVERT JUMPDEST PUSH1 0x1 DUP6 PUSH1 0x0 DUP5 PUSH1 0x4 DUP2 GT ISZERO PUSH2 0x1F1C JUMPI PUSH4 0x4E487B71 PUSH1 0xE0 SHL PUSH1 0x0 MSTORE PUSH1 0x21 PUSH1 0x4 MSTORE PUSH1 0x24 PUSH1 0x0 REVERT JUMPDEST PUSH1 0x4 DUP2 GT ISZERO PUSH2 0x1F3B JUMPI PUSH4 0x4E487B71 PUSH1 0xE0 SHL PUSH1 0x0 MSTORE PUSH1 0x21 PUSH1 0x4 MSTORE PUSH1 0x24 PUSH1 0x0 REVERT JUMPDEST DUP2 MSTORE PUSH1 0x20 DUP1 DUP3 ADD SWAP3 SWAP1 SWAP3 MSTORE PUSH1 0x40 SWAP1 DUP2 ADD PUSH1 0x0 SWAP1 DUP2 KECCAK256 PUSH1 0x1 PUSH1 0x1 PUSH1 0xA0 SHL SUB DUP10 AND DUP3 MSTORE SWAP1 SWAP3 MSTORE SWAP1 KECCAK256 PUSH1 0x2 ADD DUP1 SLOAD PUSH1 0xFF NOT AND SWAP2 ISZERO ISZERO SWAP2 SWAP1 SWAP2 OR SWAP1 SSTORE PUSH2 0x11E3 JUMP JUMPDEST DUP1 PUSH2 0x1F96 JUMPI PUSH1 0x40 MLOAD PUSH4 0xAA6318D3 PUSH1 0xE0 SHL DUP2 MSTORE PUSH1 0x4 ADD PUSH1 0x40 MLOAD DUP1 SWAP2 SUB SWAP1 REVERT JUMPDEST PUSH1 0x0 DUP6 PUSH1 0x0 DUP5 PUSH1 0x4 DUP2 GT ISZERO PUSH2 0x1FBB JUMPI PUSH4 0x4E487B71 PUSH1 0xE0 SHL PUSH1 0x0 MSTORE PUSH1 0x21 PUSH1 0x4 MSTORE PUSH1 0x24 PUSH1 0x0 REVERT JUMPDEST PUSH1 0x4 DUP2 GT ISZERO PUSH2 0x1FDA JUMPI PUSH4 0x4E487B71 PUSH1 0xE0 SHL PUSH1 0x0 MSTORE PUSH1 0x21 PUSH1 0x4 MSTORE PUSH1 0x24 PUSH1 0x0 REVERT JUMPDEST DUP2 MSTORE PUSH1 0x20 DUP1 DUP3 ADD SWAP3 SWAP1 SWAP3 MSTORE PUSH1 0x40 SWAP1 DUP2 ADD PUSH1 0x0 SWAP1 DUP2 KECCAK256 PUSH1 0x1 PUSH1 0x1 PUSH1 0xA0 SHL SUB DUP10 AND DUP3 MSTORE SWAP1 SWAP3 MSTORE SWAP1 KECCAK256 PUSH1 0x2 ADD DUP1 SLOAD SWAP2 ISZERO ISZERO PUSH1 0xFF NOT SWAP1 SWAP3 AND SWAP2 SWAP1 SWAP2 OR SWAP1 SSTORE POP POP POP POP POP JUMP JUMPDEST PUSH1 0x0 DUP1 SLOAD PUSH1 0x1 PUSH1 0x1 PUSH1 0xA0 SHL SUB DUP4 DUP2 AND PUSH1 0x1 PUSH1 0x1 PUSH1 0xA0 SHL SUB NOT DUP4 AND DUP2 OR DUP5 SSTORE PUSH1 0x40 MLOAD SWAP2 SWAP1 SWAP3 AND SWAP3 DUP4 SWAP2 PUSH32 0x8BE0079C531659141344CD1FD0A4F28419497F9722A3DAAFE3B4186F6B6457E0 SWAP2 SWAP1 LOG3 POP POP JUMP JUMPDEST PUSH1 0x0 PUSH1 0xA PUSH1 0x0 DUP5 PUSH1 0x4 DUP2 GT ISZERO PUSH2 0x2091 JUMPI PUSH4 0x4E487B71 PUSH1 0xE0 SHL PUSH1 0x0 MSTORE PUSH1 0x21 PUSH1 0x4 MSTORE PUSH1 0x24 PUSH1 0x0 REVERT JUMPDEST PUSH1 0x4 DUP2 GT ISZERO PUSH2 0x20B0 JUMPI PUSH4 0x4E487B71 PUSH1 0xE0 SHL PUSH1 0x0 MSTORE PUSH1 0x21 PUSH1 0x4 MSTORE PUSH1 0x24 PUSH1 0x0 REVERT JUMPDEST DUP2 MSTORE PUSH1 0x20 DUP1 DUP3 ADD SWAP3 SWAP1 SWAP3 MSTORE PUSH1 0x40 SWAP1 DUP2 ADD PUSH1 0x0 SWAP1 DUP2 KECCAK256 PUSH1 0x1 PUSH1 0x1 PUSH1 0xA0 SHL SUB DUP7 AND DUP3 MSTORE SWAP1 SWAP3 MSTORE SWAP1 KECCAK256 PUSH1 0x2 ADD SLOAD PUSH1 0xFF AND SWAP1 POP SWAP3 SWAP2 POP POP JUMP JUMPDEST PUSH1 0x0 PUSH1 0x7 DUP3 DUP2 SLOAD DUP2 LT PUSH2 0x2108 JUMPI PUSH4 0x4E487B71 PUSH1 0xE0 SHL PUSH1 0x0 MSTORE PUSH1 0x32 PUSH1 0x4 MSTORE PUSH1 0x24 PUSH1 0x0 REVERT JUMPDEST PUSH1 0x0 SWAP2 DUP3 MSTORE PUSH1 0x20 SWAP1 SWAP2 KECCAK256 PUSH1 0x1 PUSH1 0x2 SWAP1 SWAP3 MUL ADD ADD SLOAD PUSH1 0x1 PUSH1 0x1 PUSH1 0xA0 SHL SUB AND SWAP3 SWAP2 POP POP JUMP JUMPDEST DUP2 SLOAD PUSH1 0x0 SWAP1 DUP2 SWAP1 DUP5 DUP5 DUP3 DUP2 LT PUSH2 0x2151 JUMPI PUSH4 0x4E487B71 PUSH1 0xE0 SHL PUSH1 0x0 MSTORE PUSH1 0x32 PUSH1 0x4 MSTORE PUSH1 0x24 PUSH1 0x0 REVERT JUMPDEST SWAP1 PUSH1 0x0 MSTORE PUSH1 0x20 PUSH1 0x0 KECCAK256 SWAP1 PUSH1 0x2 MUL ADD PUSH1 0x40 MLOAD DUP1 PUSH1 0x40 ADD PUSH1 0x40 MSTORE SWAP1 DUP2 PUSH1 0x0 DUP3 ADD DUP1 SLOAD DUP1 PUSH1 0x20 MUL PUSH1 0x20 ADD PUSH1 0x40 MLOAD SWAP1 DUP2 ADD PUSH1 0x40 MSTORE DUP1 SWAP3 SWAP2 SWAP1 DUP2 DUP2 MSTORE PUSH1 0x20 ADD PUSH1 0x0 SWAP1 JUMPDEST DUP3 DUP3 LT ISZERO PUSH2 0x224C JUMPI PUSH1 0x0 DUP5 DUP2 MSTORE PUSH1 0x20 SWAP1 DUP2 SWAP1 KECCAK256 PUSH1 0x40 DUP1 MLOAD PUSH1 0xA0 DUP2 ADD DUP3 MSTORE PUSH1 0x4 DUP7 MUL SWAP1 SWAP3 ADD DUP1 SLOAD DUP4 MSTORE PUSH1 0x1 DUP2 ADD SLOAD PUSH1 0x1 PUSH1 0x1 PUSH1 0xA0 SHL SUB SWAP1 DUP2 AND SWAP5 DUP5 ADD SWAP5 SWAP1 SWAP5 MSTORE PUSH1 0x2 DUP1 DUP3 ADD SLOAD DUP6 AND SWAP3 DUP5 ADD SWAP3 SWAP1 SWAP3 MSTORE PUSH1 0x3 DUP2 ADD SLOAD SWAP4 DUP5 AND PUSH1 0x60 DUP5 ADD MSTORE SWAP2 SWAP3 PUSH1 0x80 DUP5 ADD SWAP2 PUSH1 0x1 PUSH1 0xA0 SHL SWAP1 SWAP2 DIV PUSH1 0xFF AND SWAP1 DUP2 GT ISZERO PUSH2 0x221A JUMPI PUSH4 0x4E487B71 PUSH1 0xE0 SHL PUSH1 0x0 MSTORE PUSH1 0x21 PUSH1 0x4 MSTORE PUSH1 0x24 PUSH1 0x0 REVERT JUMPDEST PUSH1 0x2 DUP2 GT ISZERO PUSH2 0x2239 JUMPI PUSH4 0x4E487B71 PUSH1 0xE0 SHL PUSH1 0x0 MSTORE PUSH1 0x21 PUSH1 0x4 MSTORE PUSH1 0x24 PUSH1 0x0 REVERT JUMPDEST DUP2 MSTORE POP POP DUP2 MSTORE PUSH1 0x20 ADD SWAP1 PUSH1 0x1 ADD SWAP1 PUSH2 0x218F JUMP JUMPDEST POP POP POP SWAP1 DUP3 MSTORE POP PUSH1 0x1 SWAP2 SWAP1 SWAP2 ADD SLOAD PUSH1 0x1 PUSH1 0x1 PUSH1 0xA0 SHL SUB AND PUSH1 0x20 SWAP1 SWAP2 ADD MSTORE DUP1 MLOAD MLOAD SWAP2 SWAP4 POP SWAP2 POP PUSH2 0x228E JUMPI PUSH1 0x40 MLOAD PUSH4 0x347682F5 PUSH1 0xE0 SHL DUP2 MSTORE PUSH1 0x4 ADD PUSH1 0x40 MLOAD DUP1 SWAP2 SUB SWAP1 REVERT JUMPDEST PUSH1 0x0 JUMPDEST DUP3 DUP2 LT ISZERO PUSH2 0x2319 JUMPI PUSH1 0x2 DUP3 MLOAD DUP1 MLOAD DUP4 SWAP1 DUP2 LT PUSH2 0x22BD JUMPI PUSH4 0x4E487B71 PUSH1 0xE0 SHL PUSH1 0x0 MSTORE PUSH1 0x32 PUSH1 0x4 MSTORE PUSH1 0x24 PUSH1 0x0 REVERT JUMPDEST PUSH1 0x20 MUL PUSH1 0x20 ADD ADD MLOAD PUSH1 0x80 ADD MLOAD PUSH1 0x2 DUP2 GT ISZERO PUSH2 0x22E8 JUMPI PUSH4 0x4E487B71 PUSH1 0xE0 SHL PUSH1 0x0 MSTORE PUSH1 0x21 PUSH1 0x4 MSTORE PUSH1 0x24 PUSH1 0x0 REVERT JUMPDEST LT ISZERO PUSH2 0x2307 JUMPI PUSH1 0x40 MLOAD PUSH4 0x3F00676B PUSH1 0xE0 SHL DUP2 MSTORE PUSH1 0x4 ADD PUSH1 0x40 MLOAD DUP1 SWAP2 SUB SWAP1 REVERT JUMPDEST DUP1 PUSH2 0x2311 DUP2 PUSH2 0x32F6 JUMP JUMPDEST SWAP2 POP POP PUSH2 0x2291 JUMP JUMPDEST POP DUP4 DUP4 DUP2 SLOAD DUP2 LT PUSH2 0x233A JUMPI PUSH4 0x4E487B71 PUSH1 0xE0 SHL PUSH1 0x0 MSTORE PUSH1 0x32 PUSH1 0x4 MSTORE PUSH1 0x24 PUSH1 0x0 REVERT JUMPDEST PUSH1 0x0 SWAP2 DUP3 MSTORE PUSH1 0x20 DUP3 KECCAK256 PUSH1 0x2 SWAP1 SWAP2 MUL ADD SWAP1 PUSH2 0x2354 DUP3 DUP3 PUSH2 0x2BB9 JUMP JUMPDEST POP PUSH1 0x1 ADD DUP1 SLOAD PUSH1 0x1 PUSH1 0x1 PUSH1 0xA0 SHL SUB NOT AND SWAP1 SSTORE POP POP POP POP JUMP JUMPDEST DUP3 PUSH1 0x0 DUP3 PUSH1 0x2 DUP2 GT ISZERO PUSH2 0x238F JUMPI PUSH4 0x4E487B71 PUSH1 0xE0 SHL PUSH1 0x0 MSTORE PUSH1 0x21 PUSH1 0x4 MSTORE PUSH1 0x24 PUSH1 0x0 REVERT JUMPDEST PUSH1 0x2 DUP2 GT ISZERO PUSH2 0x23AE JUMPI PUSH4 0x4E487B71 PUSH1 0xE0 SHL PUSH1 0x0 MSTORE PUSH1 0x21 PUSH1 0x4 MSTORE PUSH1 0x24 PUSH1 0x0 REVERT JUMPDEST DUP2 MSTORE PUSH1 0x20 ADD SWAP1 DUP2 MSTORE PUSH1 0x20 ADD PUSH1 0x0 KECCAK256 PUSH1 0x40 MLOAD DUP1 PUSH1 0xA0 ADD PUSH1 0x40 MSTORE DUP1 DUP5 PUSH1 0x0 ADD MLOAD DUP2 MSTORE PUSH1 0x20 ADD DUP5 PUSH1 0x20 ADD MLOAD PUSH1 0x1 PUSH1 0x1 PUSH1 0xA0 SHL SUB AND DUP2 MSTORE PUSH1 0x20 ADD DUP5 PUSH1 0x40 ADD MLOAD PUSH1 0x1 PUSH1 0x1 PUSH1 0xA0 SHL SUB AND DUP2 MSTORE PUSH1 0x20 ADD DUP5 PUSH1 0x60 ADD MLOAD PUSH1 0x1 PUSH1 0x1 PUSH1 0xA0 SHL SUB AND DUP2 MSTORE PUSH1 0x20 ADD DUP4 PUSH1 0x2 DUP2 GT ISZERO PUSH2 0x242A JUMPI PUSH4 0x4E487B71 PUSH1 0xE0 SHL PUSH1 0x0 MSTORE PUSH1 0x21 PUSH1 0x4 MSTORE PUSH1 0x24 PUSH1 0x0 REVERT JUMPDEST SWAP1 MSTORE DUP2 SLOAD PUSH1 0x1 DUP1 DUP3 ADD DUP5 SSTORE PUSH1 0x0 SWAP4 DUP5 MSTORE PUSH1 0x20 SWAP4 DUP5 SWAP1 KECCAK256 DUP4 MLOAD PUSH1 0x4 SWAP1 SWAP4 MUL ADD SWAP2 DUP3 SSTORE SWAP3 DUP3 ADD MLOAD SWAP3 DUP2 ADD DUP1 SLOAD PUSH1 0x1 PUSH1 0x1 PUSH1 0xA0 SHL SUB NOT SWAP1 DUP2 AND PUSH1 0x1 PUSH1 0x1 PUSH1 0xA0 SHL SUB SWAP6 DUP7 AND OR SWAP1 SWAP2 SSTORE PUSH1 0x40 DUP4 ADD MLOAD PUSH1 0x2 DUP1 DUP5 ADD DUP1 SLOAD DUP5 AND SWAP3 DUP8 AND SWAP3 SWAP1 SWAP3 OR SWAP1 SWAP2 SSTORE PUSH1 0x60 DUP5 ADD MLOAD PUSH1 0x3 DUP5 ADD DUP1 SLOAD SWAP4 DUP5 AND SWAP2 SWAP1 SWAP7 AND SWAP1 DUP2 OR DUP7 SSTORE PUSH1 0x80 DUP6 ADD MLOAD SWAP5 SWAP6 SWAP4 SWAP5 SWAP4 SWAP3 PUSH1 0x1 PUSH1 0x1 PUSH1 0xA8 SHL SUB NOT AND OR SWAP1 PUSH1 0x1 PUSH1 0xA0 SHL SWAP1 DUP5 SWAP1 DUP2 GT ISZERO PUSH2 0x24DA JUMPI PUSH4 0x4E487B71 PUSH1 0xE0 SHL PUSH1 0x0 MSTORE PUSH1 0x21 PUSH1 0x4 MSTORE PUSH1 0x24 PUSH1 0x0 REVERT JUMPDEST MUL OR SWAP1 SSTORE POP POP POP POP POP POP JUMP JUMPDEST DUP2 SLOAD PUSH1 0x1 DUP2 ADD DUP1 DUP5 SSTORE PUSH1 0x0 DUP5 SWAP1 MSTORE DUP3 SWAP1 DUP5 SWAP1 DUP4 SWAP1 DUP2 LT PUSH2 0x2516 JUMPI PUSH4 0x4E487B71 PUSH1 0xE0 SHL PUSH1 0x0 MSTORE PUSH1 0x32 PUSH1 0x4 MSTORE PUSH1 0x24 PUSH1 0x0 REVERT JUMPDEST SWAP1 PUSH1 0x0 MSTORE PUSH1 0x20 PUSH1 0x0 KECCAK256 SWAP1 PUSH1 0x2 MUL ADD PUSH1 0x1 ADD PUSH1 0x0 PUSH2 0x100 EXP DUP2 SLOAD DUP2 PUSH1 0x1 PUSH1 0x1 PUSH1 0xA0 SHL SUB MUL NOT AND SWAP1 DUP4 PUSH1 0x1 PUSH1 0x1 PUSH1 0xA0 SHL SUB AND MUL OR SWAP1 SSTORE POP SWAP3 SWAP2 POP POP JUMP JUMPDEST PUSH2 0x2580 PUSH1 0x40 DUP1 MLOAD PUSH1 0xA0 DUP2 ADD DUP3 MSTORE PUSH1 0x0 DUP1 DUP3 MSTORE PUSH1 0x20 DUP3 ADD DUP2 SWAP1 MSTORE SWAP2 DUP2 ADD DUP3 SWAP1 MSTORE PUSH1 0x60 DUP2 ADD DUP3 SWAP1 MSTORE SWAP1 PUSH1 0x80 DUP3 ADD MSTORE SWAP1 JUMP JUMPDEST DUP4 PUSH1 0x0 DUP4 PUSH1 0x2 DUP2 GT ISZERO PUSH2 0x25A3 JUMPI PUSH4 0x4E487B71 PUSH1 0xE0 SHL PUSH1 0x0 MSTORE PUSH1 0x21 PUSH1 0x4 MSTORE PUSH1 0x24 PUSH1 0x0 REVERT JUMPDEST PUSH1 0x2 DUP2 GT ISZERO PUSH2 0x25C2 JUMPI PUSH4 0x4E487B71 PUSH1 0xE0 SHL PUSH1 0x0 MSTORE PUSH1 0x21 PUSH1 0x4 MSTORE PUSH1 0x24 PUSH1 0x0 REVERT JUMPDEST DUP2 MSTORE PUSH1 0x20 ADD SWAP1 DUP2 MSTORE PUSH1 0x20 ADD PUSH1 0x0 KECCAK256 DUP4 DUP2 SLOAD DUP2 LT PUSH2 0x25EF JUMPI PUSH4 0x4E487B71 PUSH1 0xE0 SHL PUSH1 0x0 MSTORE PUSH1 0x32 PUSH1 0x4 MSTORE PUSH1 0x24 PUSH1 0x0 REVERT JUMPDEST PUSH1 0x0 SWAP2 DUP3 MSTORE PUSH1 0x20 SWAP2 DUP3 SWAP1 KECCAK256 PUSH1 0x40 DUP1 MLOAD PUSH1 0xA0 DUP2 ADD DUP3 MSTORE PUSH1 0x4 SWAP4 SWAP1 SWAP4 MUL SWAP1 SWAP2 ADD DUP1 SLOAD DUP4 MSTORE PUSH1 0x1 DUP2 ADD SLOAD PUSH1 0x1 PUSH1 0x1 PUSH1 0xA0 SHL SUB SWAP1 DUP2 AND SWAP5 DUP5 ADD SWAP5 SWAP1 SWAP5 MSTORE PUSH1 0x2 DUP1 DUP3 ADD SLOAD DUP6 AND SWAP3 DUP5 ADD SWAP3 SWAP1 SWAP3 MSTORE PUSH1 0x3 DUP2 ADD SLOAD SWAP4 DUP5 AND PUSH1 0x60 DUP5 ADD MSTORE SWAP2 SWAP3 PUSH1 0x80 DUP5 ADD SWAP2 PUSH1 0x1 PUSH1 0xA0 SHL SWAP1 SWAP2 DIV PUSH1 0xFF AND SWAP1 DUP2 GT ISZERO PUSH2 0x2674 JUMPI PUSH4 0x4E487B71 PUSH1 0xE0 SHL PUSH1 0x0 MSTORE PUSH1 0x21 PUSH1 0x4 MSTORE PUSH1 0x24 PUSH1 0x0 REVERT JUMPDEST PUSH1 0x2 DUP2 GT ISZERO PUSH2 0x2693 JUMPI PUSH4 0x4E487B71 PUSH1 0xE0 SHL PUSH1 0x0 MSTORE PUSH1 0x21 PUSH1 0x4 MSTORE PUSH1 0x24 PUSH1 0x0 REVERT JUMPDEST SWAP1 MSTORE POP SWAP1 POP DUP4 PUSH1 0x0 DUP4 PUSH1 0x2 DUP2 GT ISZERO PUSH2 0x26BB JUMPI PUSH4 0x4E487B71 PUSH1 0xE0 SHL PUSH1 0x0 MSTORE PUSH1 0x21 PUSH1 0x4 MSTORE PUSH1 0x24 PUSH1 0x0 REVERT JUMPDEST PUSH1 0x2 DUP2 GT ISZERO PUSH2 0x26DA JUMPI PUSH4 0x4E487B71 PUSH1 0xE0 SHL PUSH1 0x0 MSTORE PUSH1 0x21 PUSH1 0x4 MSTORE PUSH1 0x24 PUSH1 0x0 REVERT JUMPDEST DUP2 MSTORE PUSH1 0x20 ADD SWAP1 DUP2 MSTORE PUSH1 0x20 ADD PUSH1 0x0 KECCAK256 DUP4 DUP2 SLOAD DUP2 LT PUSH2 0x2707 JUMPI PUSH4 0x4E487B71 PUSH1 0xE0 SHL PUSH1 0x0 MSTORE PUSH1 0x32 PUSH1 0x4 MSTORE PUSH1 0x24 PUSH1 0x0 REVERT JUMPDEST PUSH1 0x0 SWAP2 DUP3 MSTORE PUSH1 0x20 DUP3 KECCAK256 PUSH1 0x4 SWAP1 SWAP2 MUL ADD SWAP1 DUP2 SSTORE PUSH1 0x1 DUP2 ADD DUP1 SLOAD PUSH1 0x1 PUSH1 0x1 PUSH1 0xA0 SHL SUB NOT SWAP1 DUP2 AND SWAP1 SWAP2 SSTORE PUSH1 0x2 DUP3 ADD DUP1 SLOAD SWAP1 SWAP2 AND SWAP1 SSTORE PUSH1 0x3 ADD DUP1 SLOAD PUSH1 0x1 PUSH1 0x1 PUSH1 0xA8 SHL SUB NOT AND SWAP1 SSTORE SWAP4 SWAP3 POP POP POP JUMP JUMPDEST DUP4 DUP4 DUP2 SLOAD DUP2 LT PUSH2 0x2771 JUMPI PUSH4 0x4E487B71 PUSH1 0xE0 SHL PUSH1 0x0 MSTORE PUSH1 0x32 PUSH1 0x4 MSTORE PUSH1 0x24 PUSH1 0x0 REVERT JUMPDEST SWAP1 PUSH1 0x0 MSTORE PUSH1 0x20 PUSH1 0x0 KECCAK256 SWAP1 PUSH1 0x2 MUL ADD PUSH1 0x0 ADD PUSH1 0x40 MLOAD DUP1 PUSH1 0xA0 ADD PUSH1 0x40 MSTORE DUP1 DUP5 PUSH1 0x0 ADD MLOAD DUP2 MSTORE PUSH1 0x20 ADD DUP5 PUSH1 0x20 ADD MLOAD PUSH1 0x1 PUSH1 0x1 PUSH1 0xA0 SHL SUB AND DUP2 MSTORE PUSH1 0x20 ADD DUP5 PUSH1 0x40 ADD MLOAD PUSH1 0x1 PUSH1 0x1 PUSH1 0xA0 SHL SUB AND DUP2 MSTORE PUSH1 0x20 ADD DUP5 PUSH1 0x60 ADD MLOAD PUSH1 0x1 PUSH1 0x1 PUSH1 0xA0 SHL SUB AND DUP2 MSTORE PUSH1 0x20 ADD DUP4 PUSH1 0x2 DUP2 GT ISZERO PUSH2 0x27F0 JUMPI PUSH4 0x4E487B71 PUSH1 0xE0 SHL PUSH1 0x0 MSTORE PUSH1 0x21 PUSH1 0x4 MSTORE PUSH1 0x24 PUSH1 0x0 REVERT JUMPDEST SWAP1 MSTORE DUP2 SLOAD PUSH1 0x1 DUP1 DUP3 ADD DUP5 SSTORE PUSH1 0x0 SWAP4 DUP5 MSTORE PUSH1 0x20 SWAP4 DUP5 SWAP1 KECCAK256 DUP4 MLOAD PUSH1 0x4 SWAP1 SWAP4 MUL ADD SWAP2 DUP3 SSTORE SWAP3 DUP3 ADD MLOAD SWAP3 DUP2 ADD DUP1 SLOAD PUSH1 0x1 PUSH1 0x1 PUSH1 0xA0 SHL SUB NOT SWAP1 DUP2 AND PUSH1 0x1 PUSH1 0x1 PUSH1 0xA0 SHL SUB SWAP6 DUP7 AND OR SWAP1 SWAP2 SSTORE PUSH1 0x40 DUP4 ADD MLOAD PUSH1 0x2 DUP1 DUP5 ADD DUP1 SLOAD DUP5 AND SWAP3 DUP8 AND SWAP3 SWAP1 SWAP3 OR SWAP1 SWAP2 SSTORE PUSH1 0x60 DUP5 ADD MLOAD PUSH1 0x3 DUP5 ADD DUP1 SLOAD SWAP4 DUP5 AND SWAP2 SWAP1 SWAP7 AND SWAP1 DUP2 OR DUP7 SSTORE PUSH1 0x80 DUP6 ADD MLOAD SWAP5 SWAP6 SWAP4 SWAP5 SWAP4 SWAP3 PUSH1 0x1 PUSH1 0x1 PUSH1 0xA8 SHL SUB NOT AND OR SWAP1 PUSH1 0x1 PUSH1 0xA0 SHL SWAP1 DUP5 SWAP1 DUP2 GT ISZERO PUSH2 0x28A0 JUMPI PUSH4 0x4E487B71 PUSH1 0xE0 SHL PUSH1 0x0 MSTORE PUSH1 0x21 PUSH1 0x4 MSTORE PUSH1 0x24 PUSH1 0x0 REVERT JUMPDEST MUL OR SWAP1 SSTORE POP POP POP POP POP POP POP JUMP JUMPDEST PUSH2 0x28DC PUSH1 0x40 DUP1 MLOAD PUSH1 0xA0 DUP2 ADD DUP3 MSTORE PUSH1 0x0 DUP1 DUP3 MSTORE PUSH1 0x20 DUP3 ADD DUP2 SWAP1 MSTORE SWAP2 DUP2 ADD DUP3 SWAP1 MSTORE PUSH1 0x60 DUP2 ADD DUP3 SWAP1 MSTORE SWAP1 PUSH1 0x80 DUP3 ADD MSTORE SWAP1 JUMP JUMPDEST DUP4 DUP4 DUP2 SLOAD DUP2 LT PUSH2 0x28FC JUMPI PUSH4 0x4E487B71 PUSH1 0xE0 SHL PUSH1 0x0 MSTORE PUSH1 0x32 PUSH1 0x4 MSTORE PUSH1 0x24 PUSH1 0x0 REVERT JUMPDEST SWAP1 PUSH1 0x0 MSTORE PUSH1 0x20 PUSH1 0x0 KECCAK256 SWAP1 PUSH1 0x2 MUL ADD PUSH1 0x0 ADD DUP3 DUP2 SLOAD DUP2 LT PUSH2 0x292C JUMPI PUSH4 0x4E487B71 PUSH1 0xE0 SHL PUSH1 0x0 MSTORE PUSH1 0x32 PUSH1 0x4 MSTORE PUSH1 0x24 PUSH1 0x0 REVERT JUMPDEST PUSH1 0x0 SWAP2 DUP3 MSTORE PUSH1 0x20 SWAP2 DUP3 SWAP1 KECCAK256 PUSH1 0x40 DUP1 MLOAD PUSH1 0xA0 DUP2 ADD DUP3 MSTORE PUSH1 0x4 SWAP4 SWAP1 SWAP4 MUL SWAP1 SWAP2 ADD DUP1 SLOAD DUP4 MSTORE PUSH1 0x1 DUP2 ADD SLOAD PUSH1 0x1 PUSH1 0x1 PUSH1 0xA0 SHL SUB SWAP1 DUP2 AND SWAP5 DUP5 ADD SWAP5 SWAP1 SWAP5 MSTORE PUSH1 0x2 DUP1 DUP3 ADD SLOAD DUP6 AND SWAP3 DUP5 ADD SWAP3 SWAP1 SWAP3 MSTORE PUSH1 0x3 DUP2 ADD SLOAD SWAP4 DUP5 AND PUSH1 0x60 DUP5 ADD MSTORE SWAP2 SWAP3 PUSH1 0x80 DUP5 ADD SWAP2 PUSH1 0x1 PUSH1 0xA0 SHL SWAP1 SWAP2 DIV PUSH1 0xFF AND SWAP1 DUP2 GT ISZERO PUSH2 0x29B1 JUMPI PUSH4 0x4E487B71 PUSH1 0xE0 SHL PUSH1 0x0 MSTORE PUSH1 0x21 PUSH1 0x4 MSTORE PUSH1 0x24 PUSH1 0x0 REVERT JUMPDEST PUSH1 0x2 DUP2 GT ISZERO PUSH2 0x29D0 JUMPI PUSH4 0x4E487B71 PUSH1 0xE0 SHL PUSH1 0x0 MSTORE PUSH1 0x21 PUSH1 0x4 MSTORE PUSH1 0x24 PUSH1 0x0 REVERT JUMPDEST DUP2 MSTORE POP POP SWAP1 POP DUP4 DUP4 DUP2 SLOAD DUP2 LT PUSH2 0x29F6 JUMPI PUSH4 0x4E487B71 PUSH1 0xE0 SHL PUSH1 0x0 MSTORE PUSH1 0x32 PUSH1 0x4 MSTORE PUSH1 0x24 PUSH1 0x0 REVERT JUMPDEST SWAP1 PUSH1 0x0 MSTORE PUSH1 0x20 PUSH1 0x0 KECCAK256 SWAP1 PUSH1 0x2 MUL ADD PUSH1 0x0 ADD DUP3 DUP2 SLOAD DUP2 LT PUSH2 0x2707 JUMPI PUSH4 0x4E487B71 PUSH1 0xE0 SHL PUSH1 0x0 MSTORE PUSH1 0x32 PUSH1 0x4 MSTORE PUSH1 0x24 PUSH1 0x0 REVERT JUMPDEST PUSH1 0x0 DUP1 DUP1 MSTORE PUSH1 0x20 DUP4 SWAP1 MSTORE PUSH1 0x40 DUP2 KECCAK256 SLOAD DUP2 SWAP1 DUP2 SWAP1 PUSH1 0x64 SWAP1 PUSH2 0x2A4A SWAP1 DUP7 SWAP1 PUSH1 0xFF AND PUSH2 0x3270 JUMP JUMPDEST PUSH2 0x2A54 SWAP2 SWAP1 PUSH2 0x3250 JUMP JUMPDEST PUSH1 0x1 PUSH1 0x0 SWAP1 DUP2 MSTORE PUSH1 0x20 DUP8 SWAP1 MSTORE PUSH1 0x40 SWAP1 KECCAK256 SLOAD SWAP1 SWAP4 POP PUSH1 0x64 SWAP1 PUSH2 0x2A79 SWAP1 DUP7 SWAP1 PUSH1 0xFF AND PUSH2 0x3270 JUMP JUMPDEST PUSH2 0x2A83 SWAP2 SWAP1 PUSH2 0x3250 JUMP JUMPDEST PUSH1 0x2 PUSH1 0x0 SWAP1 DUP2 MSTORE PUSH1 0x20 DUP8 SWAP1 MSTORE PUSH1 0x40 SWAP1 KECCAK256 SLOAD SWAP1 SWAP3 POP PUSH1 0x64 SWAP1 PUSH2 0x2AA8 SWAP1 DUP7 SWAP1 PUSH1 0xFF AND PUSH2 0x3270 JUMP JUMPDEST PUSH2 0x2AB2 SWAP2 SWAP1 PUSH2 0x3250 JUMP JUMPDEST SWAP1 POP SWAP3 POP SWAP3 POP SWAP3 JUMP JUMPDEST PUSH1 0x0 DUP4 PUSH1 0x0 DUP4 PUSH1 0x4 DUP2 GT ISZERO PUSH2 0x2AE0 JUMPI PUSH4 0x4E487B71 PUSH1 0xE0 SHL PUSH1 0x0 MSTORE PUSH1 0x21 PUSH1 0x4 MSTORE PUSH1 0x24 PUSH1 0x0 REVERT JUMPDEST PUSH1 0x4 DUP2 GT ISZERO PUSH2 0x2AFF JUMPI PUSH4 0x4E487B71 PUSH1 0xE0 SHL PUSH1 0x0 MSTORE PUSH1 0x21 PUSH1 0x4 MSTORE PUSH1 0x24 PUSH1 0x0 REVERT JUMPDEST DUP2 MSTORE PUSH1 0x20 DUP1 DUP3 ADD SWAP3 SWAP1 SWAP3 MSTORE PUSH1 0x40 SWAP1 DUP2 ADD PUSH1 0x0 SWAP1 DUP2 KECCAK256 PUSH1 0x1 PUSH1 0x1 PUSH1 0xA0 SHL SUB DUP8 AND DUP3 MSTORE SWAP1 SWAP3 MSTORE SWAP1 KECCAK256 PUSH1 0x2 ADD SLOAD PUSH1 0xFF AND SWAP1 POP SWAP4 SWAP3 POP POP POP JUMP JUMPDEST DUP3 DUP1 SLOAD PUSH2 0x2B41 SWAP1 PUSH2 0x32BB JUMP JUMPDEST SWAP1 PUSH1 0x0 MSTORE PUSH1 0x20 PUSH1 0x0 KECCAK256 SWAP1 PUSH1 0x1F ADD PUSH1 0x20 SWAP1 DIV DUP2 ADD SWAP3 DUP3 PUSH2 0x2B63 JUMPI PUSH1 0x0 DUP6 SSTORE PUSH2 0x2BA9 JUMP JUMPDEST DUP3 PUSH1 0x1F LT PUSH2 0x2B7C JUMPI DUP1 MLOAD PUSH1 0xFF NOT AND DUP4 DUP1 ADD OR DUP6 SSTORE PUSH2 0x2BA9 JUMP JUMPDEST DUP3 DUP1 ADD PUSH1 0x1 ADD DUP6 SSTORE DUP3 ISZERO PUSH2 0x2BA9 JUMPI SWAP2 DUP3 ADD JUMPDEST DUP3 DUP2 GT ISZERO PUSH2 0x2BA9 JUMPI DUP3 MLOAD DUP3 SSTORE SWAP2 PUSH1 0x20 ADD SWAP2 SWAP1 PUSH1 0x1 ADD SWAP1 PUSH2 0x2B8E JUMP JUMPDEST POP PUSH2 0x2BB5 SWAP3 SWAP2 POP PUSH2 0x2BDA JUMP JUMPDEST POP SWAP1 JUMP JUMPDEST POP DUP1 SLOAD PUSH1 0x0 DUP3 SSTORE PUSH1 0x4 MUL SWAP1 PUSH1 0x0 MSTORE PUSH1 0x20 PUSH1 0x0 KECCAK256 SWAP1 DUP2 ADD SWAP1 PUSH2 0x1A91 SWAP2 SWAP1 PUSH2 0x2BEF JUMP JUMPDEST JUMPDEST DUP1 DUP3 GT ISZERO PUSH2 0x2BB5 JUMPI PUSH1 0x0 DUP2 SSTORE PUSH1 0x1 ADD PUSH2 0x2BDB JUMP JUMPDEST JUMPDEST DUP1 DUP3 GT ISZERO PUSH2 0x2BB5 JUMPI PUSH1 0x0 DUP2 SSTORE PUSH1 0x1 DUP2 ADD DUP1 SLOAD PUSH1 0x1 PUSH1 0x1 PUSH1 0xA0 SHL SUB NOT SWAP1 DUP2 AND SWAP1 SWAP2 SSTORE PUSH1 0x2 DUP3 ADD DUP1 SLOAD SWAP1 SWAP2 AND SWAP1 SSTORE PUSH1 0x3 DUP2 ADD DUP1 SLOAD PUSH1 0x1 PUSH1 0x1 PUSH1 0xA8 SHL SUB NOT AND SWAP1 SSTORE PUSH1 0x4 ADD PUSH2 0x2BF0 JUMP JUMPDEST DUP1 CALLDATALOAD PUSH1 0x1 PUSH1 0x1 PUSH1 0xA0 SHL SUB DUP2 AND DUP2 EQ PUSH2 0x2C4D JUMPI PUSH1 0x0 DUP1 REVERT JUMPDEST SWAP2 SWAP1 POP JUMP JUMPDEST PUSH1 0x0 DUP3 PUSH1 0x1F DUP4 ADD SLT PUSH2 0x2C62 JUMPI DUP1 DUP2 REVERT JUMPDEST DUP2 CALLDATALOAD PUSH8 0xFFFFFFFFFFFFFFFF DUP2 GT ISZERO PUSH2 0x2C7C JUMPI PUSH2 0x2C7C PUSH2 0x3327 JUMP JUMPDEST PUSH2 0x2C8F PUSH1 0x1F DUP3 ADD PUSH1 0x1F NOT AND PUSH1 0x20 ADD PUSH2 0x31FB JUMP JUMPDEST DUP2 DUP2 MSTORE DUP5 PUSH1 0x20 DUP4 DUP7 ADD ADD GT ISZERO PUSH2 0x2CA3 JUMPI DUP3 DUP4 REVERT JUMPDEST DUP2 PUSH1 0x20 DUP6 ADD PUSH1 0x20 DUP4 ADD CALLDATACOPY SWAP1 DUP2 ADD PUSH1 0x20 ADD SWAP2 SWAP1 SWAP2 MSTORE SWAP3 SWAP2 POP POP JUMP JUMPDEST DUP1 CALLDATALOAD PUSH1 0xFF DUP2 AND DUP2 EQ PUSH2 0x2C4D JUMPI PUSH1 0x0 DUP1 REVERT JUMPDEST PUSH1 0x0 PUSH1 0x20 DUP3 DUP5 SUB SLT ISZERO PUSH2 0x2CDF JUMPI DUP1 DUP2 REVERT JUMPDEST PUSH2 0x2CE8 DUP3 PUSH2 0x2C36 JUMP JUMPDEST SWAP4 SWAP3 POP POP POP JUMP JUMPDEST PUSH1 0x0 DUP1 PUSH1 0x40 DUP4 DUP6 SUB SLT ISZERO PUSH2 0x2D01 JUMPI DUP1 DUP2 REVERT JUMPDEST PUSH2 0x2D0A DUP4 PUSH2 0x2C36 JUMP JUMPDEST SWAP2 POP PUSH2 0x2D18 PUSH1 0x20 DUP5 ADD PUSH2 0x2CBD JUMP JUMPDEST SWAP1 POP SWAP3 POP SWAP3 SWAP1 POP JUMP JUMPDEST PUSH1 0x0 PUSH1 0x20 DUP1 DUP4 DUP6 SUB SLT ISZERO PUSH2 0x2D33 JUMPI DUP2 DUP3 REVERT JUMPDEST DUP3 CALLDATALOAD PUSH8 0xFFFFFFFFFFFFFFFF DUP1 DUP3 GT ISZERO PUSH2 0x2D4A JUMPI DUP4 DUP5 REVERT JUMPDEST DUP2 DUP6 ADD SWAP2 POP DUP6 PUSH1 0x1F DUP4 ADD SLT PUSH2 0x2D5D JUMPI DUP4 DUP5 REVERT JUMPDEST DUP2 CALLDATALOAD PUSH2 0x2D70 PUSH2 0x2D6B DUP3 PUSH2 0x322C JUMP JUMPDEST PUSH2 0x31FB JUMP JUMPDEST DUP1 DUP3 DUP3 MSTORE DUP6 DUP3 ADD SWAP2 POP DUP6 DUP6 ADD DUP10 DUP8 DUP6 PUSH1 0x5 SHL DUP9 ADD ADD GT ISZERO PUSH2 0x2D8F JUMPI DUP8 DUP9 REVERT JUMPDEST DUP8 JUMPDEST DUP5 DUP2 LT ISZERO PUSH2 0x2DC8 JUMPI DUP2 CALLDATALOAD DUP7 DUP2 GT ISZERO PUSH2 0x2DA7 JUMPI DUP10 DUP11 REVERT JUMPDEST PUSH2 0x2DB5 DUP13 DUP11 DUP4 DUP12 ADD ADD PUSH2 0x2C52 JUMP JUMPDEST DUP6 MSTORE POP SWAP3 DUP8 ADD SWAP3 SWAP1 DUP8 ADD SWAP1 PUSH1 0x1 ADD PUSH2 0x2D91 JUMP JUMPDEST POP SWAP1 SWAP10 SWAP9 POP POP POP POP POP POP POP POP POP JUMP JUMPDEST PUSH1 0x0 PUSH1 0x20 DUP3 DUP5 SUB SLT ISZERO PUSH2 0x2DE8 JUMPI DUP1 DUP2 REVERT JUMPDEST DUP2 MLOAD DUP1 ISZERO ISZERO DUP2 EQ PUSH2 0x2CE8 JUMPI DUP2 DUP3 REVERT JUMPDEST PUSH1 0x0 PUSH1 0x20 DUP3 DUP5 SUB SLT ISZERO PUSH2 0x2E08 JUMPI DUP1 DUP2 REVERT JUMPDEST DUP2 CALLDATALOAD PUSH1 0x5 DUP2 LT PUSH2 0x2CE8 JUMPI DUP2 DUP3 REVERT JUMPDEST PUSH1 0x0 PUSH1 0x20 DUP3 DUP5 SUB SLT ISZERO PUSH2 0x2E27 JUMPI DUP1 DUP2 REVERT JUMPDEST DUP2 CALLDATALOAD PUSH1 0x3 DUP2 LT PUSH2 0x2CE8 JUMPI DUP2 DUP3 REVERT JUMPDEST PUSH1 0x0 PUSH1 0x20 DUP3 DUP5 SUB SLT ISZERO PUSH2 0x2E46 JUMPI DUP1 DUP2 REVERT JUMPDEST DUP2 CALLDATALOAD PUSH8 0xFFFFFFFFFFFFFFFF DUP2 GT ISZERO PUSH2 0x2E5C JUMPI DUP2 DUP3 REVERT JUMPDEST PUSH2 0x2E68 DUP5 DUP3 DUP6 ADD PUSH2 0x2C52 JUMP JUMPDEST SWAP5 SWAP4 POP POP POP POP JUMP JUMPDEST PUSH1 0x0 DUP1 PUSH1 0x40 DUP4 DUP6 SUB SLT ISZERO PUSH2 0x2E82 JUMPI DUP2 DUP3 REVERT JUMPDEST DUP3 CALLDATALOAD PUSH8 0xFFFFFFFFFFFFFFFF DUP1 DUP3 GT ISZERO PUSH2 0x2E99 JUMPI DUP4 DUP5 REVERT JUMPDEST PUSH2 0x2EA5 DUP7 DUP4 DUP8 ADD PUSH2 0x2C52 JUMP JUMPDEST SWAP4 POP PUSH1 0x20 DUP6 ADD CALLDATALOAD SWAP2 POP DUP1 DUP3 GT ISZERO PUSH2 0x2EBA JUMPI DUP3 DUP4 REVERT JUMPDEST POP PUSH2 0x2EC7 DUP6 DUP3 DUP7 ADD PUSH2 0x2C52 JUMP JUMPDEST SWAP2 POP POP SWAP3 POP SWAP3 SWAP1 POP JUMP JUMPDEST PUSH1 0x0 PUSH1 0x20 DUP3 DUP5 SUB SLT ISZERO PUSH2 0x2EE2 JUMPI DUP1 DUP2 REVERT JUMPDEST POP CALLDATALOAD SWAP2 SWAP1 POP JUMP JUMPDEST PUSH1 0x0 PUSH1 0x20 DUP3 DUP5 SUB SLT ISZERO PUSH2 0x2EFA JUMPI DUP1 DUP2 REVERT JUMPDEST POP MLOAD SWAP2 SWAP1 POP JUMP JUMPDEST PUSH1 0x0 DUP1 PUSH1 0x40 DUP4 DUP6 SUB SLT ISZERO PUSH2 0x2F13 JUMPI DUP2 DUP3 REVERT JUMPDEST DUP3 CALLDATALOAD SWAP2 POP PUSH2 0x2D18 PUSH1 0x20 DUP5 ADD PUSH2 0x2C36 JUMP JUMPDEST PUSH1 0x0 DUP1 PUSH1 0x40 DUP4 DUP6 SUB SLT ISZERO PUSH2 0x2F35 JUMPI DUP2 DUP3 REVERT JUMPDEST DUP3 CALLDATALOAD SWAP2 POP PUSH1 0x20 DUP1 DUP5 ADD CALLDATALOAD PUSH8 0xFFFFFFFFFFFFFFFF DUP2 GT ISZERO PUSH2 0x2F53 JUMPI DUP3 DUP4 REVERT JUMPDEST DUP5 ADD PUSH1 0x1F DUP2 ADD DUP7 SGT PUSH2 0x2F63 JUMPI DUP3 DUP4 REVERT JUMPDEST DUP1 CALLDATALOAD PUSH2 0x2F71 PUSH2 0x2D6B DUP3 PUSH2 0x322C JUMP JUMPDEST DUP1 DUP3 DUP3 MSTORE DUP5 DUP3 ADD SWAP2 POP DUP5 DUP5 ADD DUP10 DUP7 DUP6 PUSH1 0x5 SHL DUP8 ADD ADD GT ISZERO PUSH2 0x2F90 JUMPI DUP7 DUP8 REVERT JUMPDEST DUP7 SWAP5 POP JUMPDEST DUP4 DUP6 LT ISZERO PUSH2 0x2FB2 JUMPI DUP1 CALLDATALOAD DUP4 MSTORE PUSH1 0x1 SWAP5 SWAP1 SWAP5 ADD SWAP4 SWAP2 DUP6 ADD SWAP2 DUP6 ADD PUSH2 0x2F94 JUMP JUMPDEST POP DUP1 SWAP6 POP POP POP POP POP POP SWAP3 POP SWAP3 SWAP1 POP JUMP JUMPDEST PUSH1 0x0 DUP1 PUSH1 0x40 DUP4 DUP6 SUB SLT ISZERO PUSH2 0x2FD4 JUMPI DUP2 DUP3 REVERT JUMPDEST POP POP DUP1 CALLDATALOAD SWAP3 PUSH1 0x20 SWAP1 SWAP2 ADD CALLDATALOAD SWAP2 POP JUMP JUMPDEST PUSH1 0x0 PUSH1 0x20 DUP3 DUP5 SUB SLT ISZERO PUSH2 0x2FF4 JUMPI DUP1 DUP2 REVERT JUMPDEST PUSH2 0x2CE8 DUP3 PUSH2 0x2CBD JUMP JUMPDEST PUSH1 0x0 DUP1 PUSH1 0x40 DUP4 DUP6 SUB SLT ISZERO PUSH2 0x300F JUMPI DUP2 DUP3 REVERT JUMPDEST PUSH2 0x3018 DUP4 PUSH2 0x2CBD JUMP JUMPDEST SWAP5 PUSH1 0x20 SWAP4 SWAP1 SWAP4 ADD CALLDATALOAD SWAP4 POP POP POP JUMP JUMPDEST PUSH1 0x0 DUP2 MLOAD DUP1 DUP5 MSTORE PUSH1 0x20 DUP1 DUP6 ADD SWAP5 POP DUP1 DUP5 ADD DUP4 JUMPDEST DUP4 DUP2 LT ISZERO PUSH2 0x30AB JUMPI DUP2 MLOAD DUP1 MLOAD DUP9 MSTORE DUP4 DUP2 ADD MLOAD PUSH1 0x1 PUSH1 0x1 PUSH1 0xA0 SHL SUB SWAP1 DUP2 AND DUP6 DUP11 ADD MSTORE PUSH1 0x40 DUP1 DUP4 ADD MLOAD DUP3 AND SWAP1 DUP11 ADD MSTORE PUSH1 0x60 DUP1 DUP4 ADD MLOAD SWAP1 SWAP2 AND SWAP1 DUP10 ADD MSTORE PUSH1 0x80 SWAP1 DUP2 ADD MLOAD SWAP1 PUSH1 0x3 DUP3 LT PUSH2 0x3096 JUMPI PUSH4 0x4E487B71 PUSH1 0xE0 SHL DUP8 MSTORE PUSH1 0x21 PUSH1 0x4 MSTORE PUSH1 0x24 DUP8 REVERT JUMPDEST DUP9 ADD MSTORE PUSH1 0xA0 SWAP1 SWAP7 ADD SWAP6 SWAP1 DUP3 ADD SWAP1 PUSH1 0x1 ADD PUSH2 0x3039 JUMP JUMPDEST POP SWAP5 SWAP6 SWAP5 POP POP POP POP POP JUMP JUMPDEST PUSH1 0x0 DUP2 MLOAD DUP1 DUP5 MSTORE PUSH2 0x30CE DUP2 PUSH1 0x20 DUP7 ADD PUSH1 0x20 DUP7 ADD PUSH2 0x328F JUMP JUMPDEST PUSH1 0x1F ADD PUSH1 0x1F NOT AND SWAP3 SWAP1 SWAP3 ADD PUSH1 0x20 ADD SWAP3 SWAP2 POP POP JUMP JUMPDEST PUSH1 0x0 DUP4 MLOAD PUSH2 0x30F4 DUP2 DUP5 PUSH1 0x20 DUP9 ADD PUSH2 0x328F JUMP JUMPDEST SWAP2 SWAP1 SWAP2 ADD SWAP2 DUP3 MSTORE POP PUSH1 0x20 ADD SWAP2 SWAP1 POP JUMP JUMPDEST PUSH1 0x20 DUP2 MSTORE PUSH1 0x0 PUSH2 0x2CE8 PUSH1 0x20 DUP4 ADD DUP5 PUSH2 0x3026 JUMP JUMPDEST PUSH1 0x40 DUP2 MSTORE PUSH1 0x0 PUSH2 0x312A PUSH1 0x40 DUP4 ADD DUP6 PUSH2 0x30B6 JUMP JUMPDEST DUP3 DUP2 SUB PUSH1 0x20 DUP5 ADD MSTORE PUSH2 0x313C DUP2 DUP6 PUSH2 0x30B6 JUMP JUMPDEST SWAP6 SWAP5 POP POP POP POP POP JUMP JUMPDEST PUSH1 0x20 DUP1 DUP3 MSTORE PUSH1 0x10 SWAP1 DUP3 ADD MSTORE PUSH16 0x496E76616C69642063617465676F7279 PUSH1 0x80 SHL PUSH1 0x40 DUP3 ADD MSTORE PUSH1 0x60 ADD SWAP1 JUMP JUMPDEST PUSH1 0x20 DUP1 DUP3 MSTORE PUSH1 0x7 SWAP1 DUP3 ADD MSTORE PUSH7 0x1A5B9D985B1A59 PUSH1 0xCA SHL PUSH1 0x40 DUP3 ADD MSTORE PUSH1 0x60 ADD SWAP1 JUMP JUMPDEST PUSH1 0x20 DUP2 MSTORE PUSH4 0xFFFFFFFF DUP3 MLOAD AND PUSH1 0x20 DUP3 ADD MSTORE PUSH1 0x20 DUP3 ADD MLOAD PUSH1 0x40 DUP3 ADD MSTORE PUSH1 0x40 DUP3 ADD MLOAD ISZERO ISZERO PUSH1 0x60 DUP3 ADD MSTORE PUSH1 0x60 DUP3 ADD MLOAD ISZERO ISZERO PUSH1 0x80 DUP3 ADD MSTORE PUSH1 0x0 PUSH1 0x80 DUP4 ADD MLOAD PUSH1 0xC0 PUSH1 0xA0 DUP5 ADD MSTORE PUSH2 0x31DE PUSH1 0xE0 DUP5 ADD DUP3 PUSH2 0x3026 JUMP JUMPDEST SWAP1 POP PUSH1 0xA0 DUP5 ADD MLOAD PUSH1 0x1F NOT DUP5 DUP4 SUB ADD PUSH1 0xC0 DUP6 ADD MSTORE PUSH2 0x313C DUP3 DUP3 PUSH2 0x30B6 JUMP JUMPDEST PUSH1 0x40 MLOAD PUSH1 0x1F DUP3 ADD PUSH1 0x1F NOT AND DUP2 ADD PUSH8 0xFFFFFFFFFFFFFFFF DUP2 GT DUP3 DUP3 LT OR ISZERO PUSH2 0x3224 JUMPI PUSH2 0x3224 PUSH2 0x3327 JUMP JUMPDEST PUSH1 0x40 MSTORE SWAP2 SWAP1 POP JUMP JUMPDEST PUSH1 0x0 PUSH8 0xFFFFFFFFFFFFFFFF DUP3 GT ISZERO PUSH2 0x3246 JUMPI PUSH2 0x3246 PUSH2 0x3327 JUMP JUMPDEST POP PUSH1 0x5 SHL PUSH1 0x20 ADD SWAP1 JUMP JUMPDEST PUSH1 0x0 DUP3 PUSH2 0x326B JUMPI PUSH4 0x4E487B71 PUSH1 0xE0 SHL DUP2 MSTORE PUSH1 0x12 PUSH1 0x4 MSTORE PUSH1 0x24 DUP2 REVERT JUMPDEST POP DIV SWAP1 JUMP JUMPDEST PUSH1 0x0 DUP2 PUSH1 0x0 NOT DIV DUP4 GT DUP3 ISZERO ISZERO AND ISZERO PUSH2 0x328A JUMPI PUSH2 0x328A PUSH2 0x3311 JUMP JUMPDEST POP MUL SWAP1 JUMP JUMPDEST PUSH1 0x0 JUMPDEST DUP4 DUP2 LT ISZERO PUSH2 0x32AA JUMPI DUP2 DUP2 ADD MLOAD DUP4 DUP3 ADD MSTORE PUSH1 0x20 ADD PUSH2 0x3292 JUMP JUMPDEST DUP4 DUP2 GT ISZERO PUSH2 0xE8D JUMPI POP POP PUSH1 0x0 SWAP2 ADD MSTORE JUMP JUMPDEST PUSH1 0x1 DUP2 DUP2 SHR SWAP1 DUP3 AND DUP1 PUSH2 0x32CF JUMPI PUSH1 0x7F DUP3 AND SWAP2 POP JUMPDEST PUSH1 0x20 DUP3 LT DUP2 EQ ISZERO PUSH2 0x32F0 JUMPI PUSH4 0x4E487B71 PUSH1 0xE0 SHL PUSH1 0x0 MSTORE PUSH1 0x22 PUSH1 0x4 MSTORE PUSH1 0x24 PUSH1 0x0 REVERT JUMPDEST POP SWAP2 SWAP1 POP JUMP JUMPDEST PUSH1 0x0 PUSH1 0x0 NOT DUP3 EQ ISZERO PUSH2 0x330A JUMPI PUSH2 0x330A PUSH2 0x3311 JUMP JUMPDEST POP PUSH1 0x1 ADD SWAP1 JUMP JUMPDEST PUSH4 0x4E487B71 PUSH1 0xE0 SHL PUSH1 0x0 MSTORE PUSH1 0x11 PUSH1 0x4 MSTORE PUSH1 0x24 PUSH1 0x0 REVERT JUMPDEST PUSH4 0x4E487B71 PUSH1 0xE0 SHL PUSH1 0x0 MSTORE PUSH1 0x41 PUSH1 0x4 MSTORE PUSH1 0x24 PUSH1 0x0 REVERT INVALID LOG2 PUSH5 0x6970667358 0x22 SLT KECCAK256 LT MSTORE 0x26 0x4B DUP1 0xDE BALANCE 0x26 0xC3 0x4D SWAP15 0xD1 CREATE AND PUSH22 0x8FA69133745D6AD06078CFB6F3AA2BC91464736F6C63 NUMBER STOP ADDMOD DIV STOP CALLER "
        },
        "gasEstimates": {
          "creation": {
            "codeDepositCost": "2634200",
            "executionCost": "infinite",
            "totalCost": "infinite"
          },
          "external": {
            "binCounter()": "1030",
            "bins(uint256)": "2079",
            "blacklistUser(address,uint8)": "infinite",
            "buyRecycled(uint256)": "infinite",
            "collectMultipleWaste(uint256,uint256[])": "infinite",
            "collectWaste(uint256,uint256)": "202335",
            "collectorReward()": "1052",
            "formula(uint8)": "1292",
            "garbages(uint8)": "infinite",
            "generateMultipleWaste(string[])": "infinite",
            "generateWaste(string)": "infinite",
            "getProfile(uint256,address)": "infinite",
            "newSignUpReward()": "1050",
            "owner()": "1120",
            "price()": "1074",
            "recycleMultiple(uint256,uint256[])": "infinite",
            "registerBin()": "86152",
            "removeBin(uint256)": "infinite",
            "renounceOwnership()": "infinite",
            "setCollectorUpReward(uint256)": "21200",
            "setFee(uint8,uint256)": "21449",
            "setPrice(uint256)": "21199",
            "setSignUpReward(uint256)": "21199",
            "signUpAsWasteCollector(string,string)": "infinite",
            "signUpFees(uint8)": "1202",
            "token()": "1125",
            "totalWasteGenerated()": "1094",
            "transferOwnership(address)": "23677",
            "whitelistuser(address,uint8)": "infinite",
            "withdraw()": "infinite"
          },
          "internal": {
            "_empty()": "infinite",
            "_getApproval(enum Common.Category,address)": "1080",
            "_getBinOwner(uint256)": "1752",
            "recycle(uint256,uint256)": "infinite"
          }
        },
        "methodIdentifiers": {
          "binCounter()": "1f2a4a3f",
          "bins(uint256)": "885c7b38",
          "blacklistUser(address,uint8)": "e47c294d",
          "buyRecycled(uint256)": "c437a2f0",
          "collectMultipleWaste(uint256,uint256[])": "41311bc3",
          "collectWaste(uint256,uint256)": "c3864cce",
          "collectorReward()": "235eb9f5",
          "formula(uint8)": "c2f0c279",
          "garbages(uint8)": "a741c0df",
          "generateMultipleWaste(string[])": "955ef11a",
          "generateWaste(string)": "b7588280",
          "getProfile(uint256,address)": "3fd97927",
          "newSignUpReward()": "f9404506",
          "owner()": "8da5cb5b",
          "price()": "a035b1fe",
          "recycleMultiple(uint256,uint256[])": "0bdd7063",
          "registerBin()": "bf5e6b6d",
          "removeBin(uint256)": "93051d95",
          "renounceOwnership()": "715018a6",
          "setCollectorUpReward(uint256)": "72938a14",
          "setFee(uint8,uint256)": "8c6aa3f5",
          "setPrice(uint256)": "91b7f5ed",
          "setSignUpReward(uint256)": "f2d03e15",
          "signUpAsWasteCollector(string,string)": "0b776241",
          "signUpFees(uint8)": "0095db2d",
          "token()": "fc0c546a",
          "totalWasteGenerated()": "ffc2105c",
          "transferOwnership(address)": "f2fde38b",
          "whitelistuser(address,uint8)": "31b59ed7",
          "withdraw()": "3ccfd60b"
        }
      },
      "storageLayout": {
        "storage": [
          {
            "astId": 1861,
            "contract": "contracts/IBoolaContract.sol:IBoolaContract",
            "label": "_owner",
            "offset": 0,
            "slot": "0",
            "type": "t_address"
          },
          {
            "astId": 15,
            "contract": "contracts/IBoolaContract.sol:IBoolaContract",
            "label": "newSignUpReward",
            "offset": 0,
            "slot": "1",
            "type": "t_uint256"
          },
          {
            "astId": 18,
            "contract": "contracts/IBoolaContract.sol:IBoolaContract",
            "label": "token",
            "offset": 0,
            "slot": "2",
            "type": "t_address"
          },
          {
            "astId": 21,
            "contract": "contracts/IBoolaContract.sol:IBoolaContract",
            "label": "totalWasteGenerated",
            "offset": 0,
            "slot": "3",
            "type": "t_uint256"
          },
          {
            "astId": 24,
            "contract": "contracts/IBoolaContract.sol:IBoolaContract",
            "label": "collectorReward",
            "offset": 0,
            "slot": "4",
            "type": "t_uint256"
          },
          {
            "astId": 27,
            "contract": "contracts/IBoolaContract.sol:IBoolaContract",
            "label": "binCounter",
            "offset": 0,
            "slot": "5",
            "type": "t_uint256"
          },
          {
            "astId": 30,
            "contract": "contracts/IBoolaContract.sol:IBoolaContract",
            "label": "price",
            "offset": 0,
            "slot": "6",
            "type": "t_uint256"
          },
          {
            "astId": 35,
            "contract": "contracts/IBoolaContract.sol:IBoolaContract",
            "label": "bins",
            "offset": 0,
            "slot": "7",
            "type": "t_array(t_struct(BinData)2038_storage)dyn_storage"
          },
          {
            "astId": 40,
            "contract": "contracts/IBoolaContract.sol:IBoolaContract",
            "label": "formula",
            "offset": 0,
            "slot": "8",
            "type": "t_mapping(t_enum(Share)1982,t_uint8)"
          },
          {
            "astId": 48,
            "contract": "contracts/IBoolaContract.sol:IBoolaContract",
            "label": "_garbages",
            "offset": 0,
            "slot": "9",
            "type": "t_mapping(t_enum(State)1972,t_array(t_struct(WasteData)2016_storage)dyn_storage)"
          },
          {
            "astId": 57,
            "contract": "contracts/IBoolaContract.sol:IBoolaContract",
            "label": "profiles",
            "offset": 0,
            "slot": "10",
            "type": "t_mapping(t_enum(Category)1978,t_mapping(t_address,t_struct(Profile)2031_storage))"
          },
          {
            "astId": 63,
            "contract": "contracts/IBoolaContract.sol:IBoolaContract",
            "label": "signUpFees",
            "offset": 0,
            "slot": "11",
            "type": "t_mapping(t_enum(Category)1978,t_uint256)"
          }
        ],
        "types": {
          "t_address": {
            "encoding": "inplace",
            "label": "address",
            "numberOfBytes": "20"
          },
          "t_array(t_struct(BinData)2038_storage)dyn_storage": {
            "base": "t_struct(BinData)2038_storage",
            "encoding": "dynamic_array",
            "label": "struct Common.BinData[]",
            "numberOfBytes": "32"
          },
          "t_array(t_struct(WasteData)2016_storage)dyn_storage": {
            "base": "t_struct(WasteData)2016_storage",
            "encoding": "dynamic_array",
            "label": "struct Common.WasteData[]",
            "numberOfBytes": "32"
          },
          "t_bool": {
            "encoding": "inplace",
            "label": "bool",
            "numberOfBytes": "1"
          },
          "t_bytes32": {
            "encoding": "inplace",
            "label": "bytes32",
            "numberOfBytes": "32"
          },
          "t_bytes_storage": {
            "encoding": "bytes",
            "label": "bytes",
            "numberOfBytes": "32"
          },
          "t_enum(Category)1978": {
            "encoding": "inplace",
            "label": "enum Common.Category",
            "numberOfBytes": "1"
          },
          "t_enum(Share)1982": {
            "encoding": "inplace",
            "label": "enum Common.Share",
            "numberOfBytes": "1"
          },
          "t_enum(State)1972": {
            "encoding": "inplace",
            "label": "enum Common.State",
            "numberOfBytes": "1"
          },
          "t_mapping(t_address,t_struct(Profile)2031_storage)": {
            "encoding": "mapping",
            "key": "t_address",
            "label": "mapping(address => struct Common.Profile)",
            "numberOfBytes": "32",
            "value": "t_struct(Profile)2031_storage"
          },
          "t_mapping(t_enum(Category)1978,t_mapping(t_address,t_struct(Profile)2031_storage))": {
            "encoding": "mapping",
            "key": "t_enum(Category)1978",
            "label": "mapping(enum Common.Category => mapping(address => struct Common.Profile))",
            "numberOfBytes": "32",
            "value": "t_mapping(t_address,t_struct(Profile)2031_storage)"
          },
          "t_mapping(t_enum(Category)1978,t_uint256)": {
            "encoding": "mapping",
            "key": "t_enum(Category)1978",
            "label": "mapping(enum Common.Category => uint256)",
            "numberOfBytes": "32",
            "value": "t_uint256"
          },
          "t_mapping(t_enum(Share)1982,t_uint8)": {
            "encoding": "mapping",
            "key": "t_enum(Share)1982",
            "label": "mapping(enum Common.Share => uint8)",
            "numberOfBytes": "32",
            "value": "t_uint8"
          },
          "t_mapping(t_enum(State)1972,t_array(t_struct(WasteData)2016_storage)dyn_storage)": {
            "encoding": "mapping",
            "key": "t_enum(State)1972",
            "label": "mapping(enum Common.State => struct Common.WasteData[])",
            "numberOfBytes": "32",
            "value": "t_array(t_struct(WasteData)2016_storage)dyn_storage"
          },
          "t_struct(BinData)2038_storage": {
            "encoding": "inplace",
            "label": "struct Common.BinData",
            "members": [
              {
                "astId": 2035,
                "contract": "contracts/IBoolaContract.sol:IBoolaContract",
                "label": "bin",
                "offset": 0,
                "slot": "0",
                "type": "t_array(t_struct(WasteData)2016_storage)dyn_storage"
              },
              {
                "astId": 2037,
                "contract": "contracts/IBoolaContract.sol:IBoolaContract",
                "label": "owner",
                "offset": 0,
                "slot": "1",
                "type": "t_address"
              }
            ],
            "numberOfBytes": "64"
          },
          "t_struct(Profile)2031_storage": {
            "encoding": "inplace",
            "label": "struct Common.Profile",
            "members": [
              {
                "astId": 2018,
                "contract": "contracts/IBoolaContract.sol:IBoolaContract",
                "label": "transactionTime",
                "offset": 0,
                "slot": "0",
                "type": "t_uint32"
              },
              {
                "astId": 2020,
                "contract": "contracts/IBoolaContract.sol:IBoolaContract",
                "label": "wasteCount",
                "offset": 0,
                "slot": "1",
                "type": "t_uint256"
              },
              {
                "astId": 2022,
                "contract": "contracts/IBoolaContract.sol:IBoolaContract",
                "label": "approval",
                "offset": 0,
                "slot": "2",
                "type": "t_bool"
              },
              {
                "astId": 2024,
                "contract": "contracts/IBoolaContract.sol:IBoolaContract",
                "label": "isRegistered",
                "offset": 1,
                "slot": "2",
                "type": "t_bool"
              },
              {
                "astId": 2028,
                "contract": "contracts/IBoolaContract.sol:IBoolaContract",
                "label": "purchased",
                "offset": 0,
                "slot": "3",
                "type": "t_array(t_struct(WasteData)2016_storage)dyn_storage"
              },
              {
                "astId": 2030,
                "contract": "contracts/IBoolaContract.sol:IBoolaContract",
                "label": "metadata",
                "offset": 0,
                "slot": "4",
                "type": "t_bytes_storage"
              }
            ],
            "numberOfBytes": "160"
          },
          "t_struct(WasteData)2016_storage": {
            "encoding": "inplace",
            "label": "struct Common.WasteData",
            "members": [
              {
                "astId": 2006,
                "contract": "contracts/IBoolaContract.sol:IBoolaContract",
                "label": "value",
                "offset": 0,
                "slot": "0",
                "type": "t_bytes32"
              },
              {
                "astId": 2008,
                "contract": "contracts/IBoolaContract.sol:IBoolaContract",
                "label": "collector",
                "offset": 0,
                "slot": "1",
                "type": "t_address"
              },
              {
                "astId": 2010,
                "contract": "contracts/IBoolaContract.sol:IBoolaContract",
                "label": "generator",
                "offset": 0,
                "slot": "2",
                "type": "t_address"
              },
              {
                "astId": 2012,
                "contract": "contracts/IBoolaContract.sol:IBoolaContract",
                "label": "recycler",
                "offset": 0,
                "slot": "3",
                "type": "t_address"
              },
              {
                "astId": 2015,
                "contract": "contracts/IBoolaContract.sol:IBoolaContract",
                "label": "state",
                "offset": 20,
                "slot": "3",
                "type": "t_enum(State)1972"
              }
            ],
            "numberOfBytes": "128"
          },
          "t_uint256": {
            "encoding": "inplace",
            "label": "uint256",
            "numberOfBytes": "32"
          },
          "t_uint32": {
            "encoding": "inplace",
            "label": "uint32",
            "numberOfBytes": "4"
          },
          "t_uint8": {
            "encoding": "inplace",
            "label": "uint8",
            "numberOfBytes": "1"
          }
        }
      },
      "userdoc": {
        "kind": "user",
        "methods": {
          "bins(uint256)": {
            "notice": "Bins in this list are owned by addresses."
          },
          "buyRecycled(uint256)": {
            "notice": "Buy recycled waste in form of manure NOTE: Only recycled waste can be bought. If available manure cannot cover requested volume, buyer simply  purchased available volume."
          },
          "generateWaste(string)": {
            "notice": "Each waste is unique to another. Note To successfully generate waste, bin id must be provided. This represents the destination where wastes are dumped."
          },
          "recycleMultiple(uint256,uint256[])": {
            "notice": "Can recycle wastes greater than 0 but less than 51"
          },
          "registerBin()": {
            "notice": "Caller must already be approves as BinOwner ."
          },
          "removeBin(uint256)": {
            "notice": "Caller must already be approves as BinOwner ."
          },
          "setFee(uint8,uint256)": {
            "notice": "To perfectly select the right category, category parameter should not be greater than 4."
          },
          "signUpAsWasteCollector(string,string)": {
            "notice": "Sign up function.  o Caller must not already be a member. "
          },
          "signUpFees(uint8)": {
            "notice": "- It can be configured to suit any category."
          },
          "withdraw()": {
            "notice": "Withdraw reward if any {IBoola Token} Note - Caller must have previous reward otherwise it fails."
          }
        },
        "version": 1
      }
    }
  }
}